{
	"data": {
		"bytecode": {
			"linkReferences": {},
			"object": "608060405263679daf00600455662386f26fc10000600555662386f26fc100006006555f60075f6101000a81548160ff021916908315150217905550348015610046575f80fd5b506040516143a63803806143a683398181016040528101906100689190610be9565b33816100798161012360201b60201c565b505f73ffffffffffffffffffffffffffffffffffffffff168173ffffffffffffffffffffffffffffffffffffffff16036100ea575f6040517f1e4fbdf70000000000000000000000000000000000000000000000000000000081526004016100e19190610c6f565b60405180910390fd5b6100f98161013660201b60201c565b5061011d3360016103e860405180602001604052805f8152506101f960201b60201c565b506112b9565b80600290816101329190610e95565b5050565b5f60035f9054906101000a900473ffffffffffffffffffffffffffffffffffffffff1690508160035f6101000a81548173ffffffffffffffffffffffffffffffffffffffff021916908373ffffffffffffffffffffffffffffffffffffffff1602179055508173ffffffffffffffffffffffffffffffffffffffff168173ffffffffffffffffffffffffffffffffffffffff167f8be0079c531659141344cd1fd0a4f28419497f9722a3daafe3b4186f6b6457e060405160405180910390a35050565b5f73ffffffffffffffffffffffffffffffffffffffff168473ffffffffffffffffffffffffffffffffffffffff1603610269575f6040517f57f447ce0000000000000000000000000000000000000000000000000000000081526004016102609190610c6f565b60405180910390fd5b5f8061027b858561029a60201b60201c565b915091506102925f878484876102ca60201b60201c565b505050505050565b60608060405191506001825283602083015260408201905060018152826020820152604081016040529250929050565b6102dc8585858561038e60201b60201c565b5f73ffffffffffffffffffffffffffffffffffffffff168473ffffffffffffffffffffffffffffffffffffffff1614610387575f61031e61072460201b60201c565b90506001845103610370575f61033d5f8661072b60201b90919060201c565b90505f6103535f8661072b60201b90919060201c565b905061036983898985858961073e60201b60201c565b5050610385565b6103848187878787876108ed60201b60201c565b5b505b5050505050565b80518251146103d857815181516040517f5b0599910000000000000000000000000000000000000000000000000000000081526004016103cf929190610f73565b60405180910390fd5b5f6103e761072460201b60201c565b90505f5b83518110156105e3575f610408828661072b60201b90919060201c565b90505f61041e838661072b60201b90919060201c565b90505f73ffffffffffffffffffffffffffffffffffffffff168873ffffffffffffffffffffffffffffffffffffffff1614610541575f805f8481526020019081526020015f205f8a73ffffffffffffffffffffffffffffffffffffffff1673ffffffffffffffffffffffffffffffffffffffff1681526020019081526020015f20549050818110156104ed57888183856040517f03dee4c50000000000000000000000000000000000000000000000000000000081526004016104e49493929190610f9a565b60405180910390fd5b8181035f808581526020019081526020015f205f8b73ffffffffffffffffffffffffffffffffffffffff1673ffffffffffffffffffffffffffffffffffffffff1681526020019081526020015f2081905550505b5f73ffffffffffffffffffffffffffffffffffffffff168773ffffffffffffffffffffffffffffffffffffffff16146105d657805f808481526020019081526020015f205f8973ffffffffffffffffffffffffffffffffffffffff1673ffffffffffffffffffffffffffffffffffffffff1681526020019081526020015f205f8282546105ce919061100a565b925050819055505b50508060010190506103eb565b50600183510361069e575f6106015f8561072b60201b90919060201c565b90505f6106175f8561072b60201b90919060201c565b90508573ffffffffffffffffffffffffffffffffffffffff168773ffffffffffffffffffffffffffffffffffffffff168473ffffffffffffffffffffffffffffffffffffffff167fc3d58168c5ae7397731d063d5bbf3d657854427343f4c083240f7aacaa2d0f62858560405161068f929190610f73565b60405180910390a4505061071d565b8373ffffffffffffffffffffffffffffffffffffffff168573ffffffffffffffffffffffffffffffffffffffff168273ffffffffffffffffffffffffffffffffffffffff167f4a39dc06d4c0dbc64b70af90fd698a233a518aa5d07e595d983b8c0526c8f7fb86866040516107149291906110f4565b60405180910390a45b5050505050565b5f33905090565b5f60208202602084010151905092915050565b5f8473ffffffffffffffffffffffffffffffffffffffff163b11156108e5578373ffffffffffffffffffffffffffffffffffffffff1663f23a6e6187878686866040518663ffffffff1660e01b815260040161079e95949392919061117b565b6020604051808303815f875af19250505080156107d957506040513d601f19601f820116820180604052508101906107d69190611228565b60015b61085a573d805f8114610807576040519150601f19603f3d011682016040523d82523d5f602084013e61080c565b606091505b505f81510361085257846040517f57f447ce0000000000000000000000000000000000000000000000000000000081526004016108499190610c6f565b60405180910390fd5b805181602001fd5b63f23a6e6160e01b7bffffffffffffffffffffffffffffffffffffffffffffffffffffffff1916817bffffffffffffffffffffffffffffffffffffffffffffffffffffffff1916146108e357846040517f57f447ce0000000000000000000000000000000000000000000000000000000081526004016108da9190610c6f565b60405180910390fd5b505b505050505050565b5f8473ffffffffffffffffffffffffffffffffffffffff163b1115610a94578373ffffffffffffffffffffffffffffffffffffffff1663bc197c8187878686866040518663ffffffff1660e01b815260040161094d959493929190611253565b6020604051808303815f875af192505050801561098857506040513d601f19601f820116820180604052508101906109859190611228565b60015b610a09573d805f81146109b6576040519150601f19603f3d011682016040523d82523d5f602084013e6109bb565b606091505b505f815103610a0157846040517f57f447ce0000000000000000000000000000000000000000000000000000000081526004016109f89190610c6f565b60405180910390fd5b805181602001fd5b63bc197c8160e01b7bffffffffffffffffffffffffffffffffffffffffffffffffffffffff1916817bffffffffffffffffffffffffffffffffffffffffffffffffffffffff191614610a9257846040517f57f447ce000000000000000000000000000000000000000000000000000000008152600401610a899190610c6f565b60405180910390fd5b505b505050505050565b5f604051905090565b5f80fd5b5f80fd5b5f80fd5b5f80fd5b5f601f19601f8301169050919050565b7f4e487b71000000000000000000000000000000000000000000000000000000005f52604160045260245ffd5b610afb82610ab5565b810181811067ffffffffffffffff82111715610b1a57610b19610ac5565b5b80604052505050565b5f610b2c610a9c565b9050610b388282610af2565b919050565b5f67ffffffffffffffff821115610b5757610b56610ac5565b5b610b6082610ab5565b9050602081019050919050565b8281835e5f83830152505050565b5f610b8d610b8884610b3d565b610b23565b905082815260208101848484011115610ba957610ba8610ab1565b5b610bb4848285610b6d565b509392505050565b5f82601f830112610bd057610bcf610aad565b5b8151610be0848260208601610b7b565b91505092915050565b5f60208284031215610bfe57610bfd610aa5565b5b5f82015167ffffffffffffffff811115610c1b57610c1a610aa9565b5b610c2784828501610bbc565b91505092915050565b5f73ffffffffffffffffffffffffffffffffffffffff82169050919050565b5f610c5982610c30565b9050919050565b610c6981610c4f565b82525050565b5f602082019050610c825f830184610c60565b92915050565b5f81519050919050565b7f4e487b71000000000000000000000000000000000000000000000000000000005f52602260045260245ffd5b5f6002820490506001821680610cd657607f821691505b602082108103610ce957610ce8610c92565b5b50919050565b5f819050815f5260205f209050919050565b5f6020601f8301049050919050565b5f82821b905092915050565b5f60088302610d4b7fffffffffffffffffffffffffffffffffffffffffffffffffffffffffffffffff82610d10565b610d558683610d10565b95508019841693508086168417925050509392505050565b5f819050919050565b5f819050919050565b5f610d99610d94610d8f84610d6d565b610d76565b610d6d565b9050919050565b5f819050919050565b610db283610d7f565b610dc6610dbe82610da0565b848454610d1c565b825550505050565b5f90565b610dda610dce565b610de5818484610da9565b505050565b5b81811015610e0857610dfd5f82610dd2565b600181019050610deb565b5050565b601f821115610e4d57610e1e81610cef565b610e2784610d01565b81016020851015610e36578190505b610e4a610e4285610d01565b830182610dea565b50505b505050565b5f82821c905092915050565b5f610e6d5f1984600802610e52565b1980831691505092915050565b5f610e858383610e5e565b9150826002028217905092915050565b610e9e82610c88565b67ffffffffffffffff811115610eb757610eb6610ac5565b5b610ec18254610cbf565b610ecc828285610e0c565b5f60209050601f831160018114610efd575f8415610eeb578287015190505b610ef58582610e7a565b865550610f5c565b601f198416610f0b86610cef565b5f5b82811015610f3257848901518255600182019150602085019450602081019050610f0d565b86831015610f4f5784890151610f4b601f891682610e5e565b8355505b6001600288020188555050505b505050505050565b610f6d81610d6d565b82525050565b5f604082019050610f865f830185610f64565b610f936020830184610f64565b9392505050565b5f608082019050610fad5f830187610c60565b610fba6020830186610f64565b610fc76040830185610f64565b610fd46060830184610f64565b95945050505050565b7f4e487b71000000000000000000000000000000000000000000000000000000005f52601160045260245ffd5b5f61101482610d6d565b915061101f83610d6d565b925082820190508082111561103757611036610fdd565b5b92915050565b5f81519050919050565b5f82825260208201905092915050565b5f819050602082019050919050565b61106f81610d6d565b82525050565b5f6110808383611066565b60208301905092915050565b5f602082019050919050565b5f6110a28261103d565b6110ac8185611047565b93506110b783611057565b805f5b838110156110e75781516110ce8882611075565b97506110d98361108c565b9250506001810190506110ba565b5085935050505092915050565b5f6040820190508181035f83015261110c8185611098565b905081810360208301526111208184611098565b90509392505050565b5f81519050919050565b5f82825260208201905092915050565b5f61114d82611129565b6111578185611133565b9350611167818560208601610b6d565b61117081610ab5565b840191505092915050565b5f60a08201905061118e5f830188610c60565b61119b6020830187610c60565b6111a86040830186610f64565b6111b56060830185610f64565b81810360808301526111c78184611143565b90509695505050505050565b5f7fffffffff0000000000000000000000000000000000000000000000000000000082169050919050565b611207816111d3565b8114611211575f80fd5b50565b5f81519050611222816111fe565b92915050565b5f6020828403121561123d5761123c610aa5565b5b5f61124a84828501611214565b91505092915050565b5f60a0820190506112665f830188610c60565b6112736020830187610c60565b81810360408301526112858186611098565b905081810360608301526112998185611098565b905081810360808301526112ad8184611143565b90509695505050505050565b6130e0806112c65f395ff3fe6080604052600436106101c0575f3560e01c8063731133e9116100f6578063a22cb46511610094578063eb8835ab11610063578063eb8835ab146105f2578063f242432a1461062e578063f2fde38b14610656578063f5298aca1461067e576101c0565b8063a22cb46514610562578063abc91e121461058a578063d8a5c6fd146105a0578063e985e9c5146105b6576101c0565b80638f0f80c4116100d05780638f0f80c4146104be5780638f847c9c146104e657806393777fb31461051057806397f22ea91461053a576101c0565b8063731133e914610450578063815f7bbd146104785780638da5cb5b14610494576101c0565b80632eb2c2d6116101635780634e1273f41161013d5780634e1273f4146103aa5780637097a332146103e657806370a0c46414610410578063715018a61461043a576101c0565b80632eb2c2d61461031c5780632ff2e9dc146103445780633af32abf1461036e576101c0565b80630e89341c1161019f5780630e89341c1461026457806311baff63146102a057806322c8061b146102c8578063249b7c19146102f2576101c0565b8062fdd58e146101c457806301f7e49a1461020057806301ffc9a714610228575b5f80fd5b3480156101cf575f80fd5b506101ea60048036038101906101e59190612138565b6106a6565b6040516101f79190612185565b60405180910390f35b34801561020b575f80fd5b506102266004803603810190610221919061219e565b6106fb565b005b348015610233575f80fd5b5061024e6004803603810190610249919061221e565b61075a565b60405161025b9190612263565b60405180910390f35b34801561026f575f80fd5b5061028a6004803603810190610285919061227c565b61083b565b6040516102979190612317565b60405180910390f35b3480156102ab575f80fd5b506102c660048036038101906102c19190612398565b6108cd565b005b3480156102d3575f80fd5b506102dc61096f565b6040516102e99190612263565b60405180910390f35b3480156102fd575f80fd5b50610306610981565b6040516103139190612185565b60405180910390f35b348015610327575f80fd5b50610342600480360381019061033d91906125cb565b610987565b005b34801561034f575f80fd5b50610358610a2e565b6040516103659190612185565b60405180910390f35b348015610379575f80fd5b50610394600480360381019061038f919061219e565b610a34565b6040516103a19190612263565b60405180910390f35b3480156103b5575f80fd5b506103d060048036038101906103cb9190612756565b610a86565b6040516103dd9190612883565b60405180910390f35b3480156103f1575f80fd5b506103fa610b8d565b6040516104079190612185565b60405180910390f35b34801561041b575f80fd5b50610424610b92565b6040516104319190612185565b60405180910390f35b348015610445575f80fd5b5061044e610b98565b005b34801561045b575f80fd5b50610476600480360381019061047191906128a3565b610bab565b005b610492600480360381019061048d919061227c565b610bed565b005b34801561049f575f80fd5b506104a8610d7c565b6040516104b59190612932565b60405180910390f35b3480156104c9575f80fd5b506104e460048036038101906104df9190612398565b610da4565b005b3480156104f1575f80fd5b506104fa610e47565b6040516105079190612185565b60405180910390f35b34801561051b575f80fd5b50610524610e4c565b6040516105319190612185565b60405180910390f35b348015610545575f80fd5b50610560600480360381019061055b919061219e565b610e52565b005b34801561056d575f80fd5b5061058860048036038101906105839190612975565b610eb2565b005b348015610595575f80fd5b5061059e610ec8565b005b3480156105ab575f80fd5b506105b4610fde565b005b3480156105c1575f80fd5b506105dc60048036038101906105d791906129b3565b611002565b6040516105e99190612263565b60405180910390f35b3480156105fd575f80fd5b506106186004803603810190610613919061219e565b611090565b6040516106259190612263565b60405180910390f35b348015610639575f80fd5b50610654600480360381019061064f91906129f1565b6110ad565b005b348015610661575f80fd5b5061067c6004803603810190610677919061219e565b611154565b005b348015610689575f80fd5b506106a4600480360381019061069f9190612a84565b6111d8565b005b5f805f8381526020019081526020015f205f8473ffffffffffffffffffffffffffffffffffffffff1673ffffffffffffffffffffffffffffffffffffffff1681526020019081526020015f2054905092915050565b610703611256565b5f60085f8373ffffffffffffffffffffffffffffffffffffffff1673ffffffffffffffffffffffffffffffffffffffff1681526020019081526020015f205f6101000a81548160ff02191690831515021790555050565b5f7fd9b67a26000000000000000000000000000000000000000000000000000000007bffffffffffffffffffffffffffffffffffffffffffffffffffffffff1916827bffffffffffffffffffffffffffffffffffffffffffffffffffffffff1916148061082457507f0e89341c000000000000000000000000000000000000000000000000000000007bffffffffffffffffffffffffffffffffffffffffffffffffffffffff1916827bffffffffffffffffffffffffffffffffffffffffffffffffffffffff1916145b806108345750610833826112dd565b5b9050919050565b60606002805461084a90612b01565b80601f016020809104026020016040519081016040528092919081815260200182805461087690612b01565b80156108c15780601f10610898576101008083540402835291602001916108c1565b820191905f5260205f20905b8154815290600101906020018083116108a457829003601f168201915b50505050509050919050565b6108d5611256565b5f5b8282905081101561096a575f60085f8585858181106108f9576108f8612b31565b5b905060200201602081019061090e919061219e565b73ffffffffffffffffffffffffffffffffffffffff1673ffffffffffffffffffffffffffffffffffffffff1681526020019081526020015f205f6101000a81548160ff02191690831515021790555080806001019150506108d7565b505050565b60075f9054906101000a900460ff1681565b60045481565b5f610990611346565b90508073ffffffffffffffffffffffffffffffffffffffff168673ffffffffffffffffffffffffffffffffffffffff16141580156109d557506109d38682611002565b155b15610a195780866040517fe237d922000000000000000000000000000000000000000000000000000000008152600401610a10929190612b5e565b60405180910390fd5b610a26868686868661134d565b505050505050565b6103e881565b5f60085f8373ffffffffffffffffffffffffffffffffffffffff1673ffffffffffffffffffffffffffffffffffffffff1681526020019081526020015f205f9054906101000a900460ff169050919050565b60608151835114610ad257815183516040517f5b059991000000000000000000000000000000000000000000000000000000008152600401610ac9929190612b85565b60405180910390fd5b5f835167ffffffffffffffff811115610aee57610aed6123e3565b5b604051908082528060200260200182016040528015610b1c5781602001602082028036833780820191505090505b5090505f5b8451811015610b8257610b58610b40828761144190919063ffffffff16565b610b53838761145490919063ffffffff16565b6106a6565b828281518110610b6b57610b6a612b31565b5b602002602001018181525050806001019050610b21565b508091505092915050565b600181565b60055481565b610ba0611256565b610ba95f611467565b565b610bb3611256565b5f815103610bda57610bd584848460405180602001604052805f81525061152a565b610be7565b610be68484848461152a565b5b50505050565b60085f3373ffffffffffffffffffffffffffffffffffffffff1673ffffffffffffffffffffffffffffffffffffffff1681526020019081526020015f205f9054906101000a900460ff16610c76576040517f08c379a0000000000000000000000000000000000000000000000000000000008152600401610c6d90612bf6565b60405180910390fd5b6004544210610cba576040517f08c379a0000000000000000000000000000000000000000000000000000000008152600401610cb190612c5e565b60405180910390fd5b5f60065482610cc99190612ca9565b9050803414610d0d576040517f08c379a0000000000000000000000000000000000000000000000000000000008152600401610d0490612d34565b60405180910390fd5b610d283360028460405180602001604052805f81525061152a565b3373ffffffffffffffffffffffffffffffffffffffff167f3dbede4722935d18d5ac26e7855e25e08cccdc56c42d4a6242bf5b46641f139c8383604051610d70929190612b85565b60405180910390a25050565b5f60035f9054906101000a900473ffffffffffffffffffffffffffffffffffffffff16905090565b610dac611256565b5f5b82829050811015610e4257600160085f858585818110610dd157610dd0612b31565b5b9050602002016020810190610de6919061219e565b73ffffffffffffffffffffffffffffffffffffffff1673ffffffffffffffffffffffffffffffffffffffff1681526020019081526020015f205f6101000a81548160ff0219169083151502179055508080600101915050610dae565b505050565b600281565b60065481565b610e5a611256565b600160085f8373ffffffffffffffffffffffffffffffffffffffff1673ffffffffffffffffffffffffffffffffffffffff1681526020019081526020015f205f6101000a81548160ff02191690831515021790555050565b610ec4610ebd611346565b83836115bf565b5050565b60075f9054906101000a900460ff16610f16576040517f08c379a0000000000000000000000000000000000000000000000000000000008152600401610f0d90612d9c565b60405180910390fd5b5f610f223360026106a6565b90505f8111610f66576040517f08c379a0000000000000000000000000000000000000000000000000000000008152600401610f5d90612e04565b60405180910390fd5b610f7233600283611728565b610f8d3360018360405180602001604052805f81525061152a565b3373ffffffffffffffffffffffffffffffffffffffff167f4e9c210c7bb5578299d11b938b47d2967a1331c52638e55b4c5aaff17d1efd9a82604051610fd39190612185565b60405180910390a250565b610fe6611256565b600160075f6101000a81548160ff021916908315150217905550565b5f60015f8473ffffffffffffffffffffffffffffffffffffffff1673ffffffffffffffffffffffffffffffffffffffff1681526020019081526020015f205f8373ffffffffffffffffffffffffffffffffffffffff1673ffffffffffffffffffffffffffffffffffffffff1681526020019081526020015f205f9054906101000a900460ff16905092915050565b6008602052805f5260405f205f915054906101000a900460ff1681565b5f6110b6611346565b90508073ffffffffffffffffffffffffffffffffffffffff168673ffffffffffffffffffffffffffffffffffffffff16141580156110fb57506110f98682611002565b155b1561113f5780866040517fe237d922000000000000000000000000000000000000000000000000000000008152600401611136929190612b5e565b60405180910390fd5b61114c86868686866117ca565b505050505050565b61115c611256565b5f73ffffffffffffffffffffffffffffffffffffffff168173ffffffffffffffffffffffffffffffffffffffff16036111cc575f6040517f1e4fbdf70000000000000000000000000000000000000000000000000000000081526004016111c39190612932565b60405180910390fd5b6111d581611467565b50565b3373ffffffffffffffffffffffffffffffffffffffff168373ffffffffffffffffffffffffffffffffffffffff1614611246576040517f08c379a000000000000000000000000000000000000000000000000000000000815260040161123d90612e92565b60405180910390fd5b611251838383611728565b505050565b61125e611346565b73ffffffffffffffffffffffffffffffffffffffff1661127c610d7c565b73ffffffffffffffffffffffffffffffffffffffff16146112db5761129f611346565b6040517f118cdaa70000000000000000000000000000000000000000000000000000000081526004016112d29190612932565b60405180910390fd5b565b5f7f01ffc9a7000000000000000000000000000000000000000000000000000000007bffffffffffffffffffffffffffffffffffffffffffffffffffffffff1916827bffffffffffffffffffffffffffffffffffffffffffffffffffffffff1916149050919050565b5f33905090565b5f73ffffffffffffffffffffffffffffffffffffffff168473ffffffffffffffffffffffffffffffffffffffff16036113bd575f6040517f57f447ce0000000000000000000000000000000000000000000000000000000081526004016113b49190612932565b60405180910390fd5b5f73ffffffffffffffffffffffffffffffffffffffff168573ffffffffffffffffffffffffffffffffffffffff160361142d575f6040517f01a835140000000000000000000000000000000000000000000000000000000081526004016114249190612932565b60405180910390fd5b61143a85858585856118d0565b5050505050565b5f60208202602084010151905092915050565b5f60208202602084010151905092915050565b5f60035f9054906101000a900473ffffffffffffffffffffffffffffffffffffffff1690508160035f6101000a81548173ffffffffffffffffffffffffffffffffffffffff021916908373ffffffffffffffffffffffffffffffffffffffff1602179055508173ffffffffffffffffffffffffffffffffffffffff168173ffffffffffffffffffffffffffffffffffffffff167f8be0079c531659141344cd1fd0a4f28419497f9722a3daafe3b4186f6b6457e060405160405180910390a35050565b5f73ffffffffffffffffffffffffffffffffffffffff168473ffffffffffffffffffffffffffffffffffffffff160361159a575f6040517f57f447ce0000000000000000000000000000000000000000000000000000000081526004016115919190612932565b60405180910390fd5b5f806115a6858561197c565b915091506115b75f878484876118d0565b505050505050565b5f73ffffffffffffffffffffffffffffffffffffffff168273ffffffffffffffffffffffffffffffffffffffff160361162f575f6040517fced3e1000000000000000000000000000000000000000000000000000000000081526004016116269190612932565b60405180910390fd5b8060015f8573ffffffffffffffffffffffffffffffffffffffff1673ffffffffffffffffffffffffffffffffffffffff1681526020019081526020015f205f8473ffffffffffffffffffffffffffffffffffffffff1673ffffffffffffffffffffffffffffffffffffffff1681526020019081526020015f205f6101000a81548160ff0219169083151502179055508173ffffffffffffffffffffffffffffffffffffffff168373ffffffffffffffffffffffffffffffffffffffff167f17307eab39ab6107e8899845ad3d59bd9653f200f220920489ca2b5937696c318360405161171b9190612263565b60405180910390a3505050565b5f73ffffffffffffffffffffffffffffffffffffffff168373ffffffffffffffffffffffffffffffffffffffff1603611798575f6040517f01a8351400000000000000000000000000000000000000000000000000000000815260040161178f9190612932565b60405180910390fd5b5f806117a4848461197c565b915091506117c3855f848460405180602001604052805f8152506118d0565b5050505050565b5f73ffffffffffffffffffffffffffffffffffffffff168473ffffffffffffffffffffffffffffffffffffffff160361183a575f6040517f57f447ce0000000000000000000000000000000000000000000000000000000081526004016118319190612932565b60405180910390fd5b5f73ffffffffffffffffffffffffffffffffffffffff168573ffffffffffffffffffffffffffffffffffffffff16036118aa575f6040517f01a835140000000000000000000000000000000000000000000000000000000081526004016118a19190612932565b60405180910390fd5b5f806118b6858561197c565b915091506118c787878484876118d0565b50505050505050565b6118dc858585856119ac565b5f73ffffffffffffffffffffffffffffffffffffffff168473ffffffffffffffffffffffffffffffffffffffff1614611975575f611918611346565b90506001845103611964575f6119375f8661145490919063ffffffff16565b90505f61194d5f8661145490919063ffffffff16565b905061195d838989858589611d3c565b5050611973565b611972818787878787611eeb565b5b505b5050505050565b60608060405191506001825283602083015260408201905060018152826020820152604081016040529250929050565b80518251146119f657815181516040517f5b0599910000000000000000000000000000000000000000000000000000000081526004016119ed929190612b85565b60405180910390fd5b5f6119ff611346565b90505f5b8351811015611bfb575f611a20828661145490919063ffffffff16565b90505f611a36838661145490919063ffffffff16565b90505f73ffffffffffffffffffffffffffffffffffffffff168873ffffffffffffffffffffffffffffffffffffffff1614611b59575f805f8481526020019081526020015f205f8a73ffffffffffffffffffffffffffffffffffffffff1673ffffffffffffffffffffffffffffffffffffffff1681526020019081526020015f2054905081811015611b0557888183856040517f03dee4c5000000000000000000000000000000000000000000000000000000008152600401611afc9493929190612eb0565b60405180910390fd5b8181035f808581526020019081526020015f205f8b73ffffffffffffffffffffffffffffffffffffffff1673ffffffffffffffffffffffffffffffffffffffff1681526020019081526020015f2081905550505b5f73ffffffffffffffffffffffffffffffffffffffff168773ffffffffffffffffffffffffffffffffffffffff1614611bee57805f808481526020019081526020015f205f8973ffffffffffffffffffffffffffffffffffffffff1673ffffffffffffffffffffffffffffffffffffffff1681526020019081526020015f205f828254611be69190612ef3565b925050819055505b5050806001019050611a03565b506001835103611cb6575f611c195f8561145490919063ffffffff16565b90505f611c2f5f8561145490919063ffffffff16565b90508573ffffffffffffffffffffffffffffffffffffffff168773ffffffffffffffffffffffffffffffffffffffff168473ffffffffffffffffffffffffffffffffffffffff167fc3d58168c5ae7397731d063d5bbf3d657854427343f4c083240f7aacaa2d0f628585604051611ca7929190612b85565b60405180910390a45050611d35565b8373ffffffffffffffffffffffffffffffffffffffff168573ffffffffffffffffffffffffffffffffffffffff168273ffffffffffffffffffffffffffffffffffffffff167f4a39dc06d4c0dbc64b70af90fd698a233a518aa5d07e595d983b8c0526c8f7fb8686604051611d2c929190612f26565b60405180910390a45b5050505050565b5f8473ffffffffffffffffffffffffffffffffffffffff163b1115611ee3578373ffffffffffffffffffffffffffffffffffffffff1663f23a6e6187878686866040518663ffffffff1660e01b8152600401611d9c959493929190612fad565b6020604051808303815f875af1925050508015611dd757506040513d601f19601f82011682018060405250810190611dd49190613019565b60015b611e58573d805f8114611e05576040519150601f19603f3d011682016040523d82523d5f602084013e611e0a565b606091505b505f815103611e5057846040517f57f447ce000000000000000000000000000000000000000000000000000000008152600401611e479190612932565b60405180910390fd5b805181602001fd5b63f23a6e6160e01b7bffffffffffffffffffffffffffffffffffffffffffffffffffffffff1916817bffffffffffffffffffffffffffffffffffffffffffffffffffffffff191614611ee157846040517f57f447ce000000000000000000000000000000000000000000000000000000008152600401611ed89190612932565b60405180910390fd5b505b505050505050565b5f8473ffffffffffffffffffffffffffffffffffffffff163b1115612092578373ffffffffffffffffffffffffffffffffffffffff1663bc197c8187878686866040518663ffffffff1660e01b8152600401611f4b959493929190613044565b6020604051808303815f875af1925050508015611f8657506040513d601f19601f82011682018060405250810190611f839190613019565b60015b612007573d805f8114611fb4576040519150601f19603f3d011682016040523d82523d5f602084013e611fb9565b606091505b505f815103611fff57846040517f57f447ce000000000000000000000000000000000000000000000000000000008152600401611ff69190612932565b60405180910390fd5b805181602001fd5b63bc197c8160e01b7bffffffffffffffffffffffffffffffffffffffffffffffffffffffff1916817bffffffffffffffffffffffffffffffffffffffffffffffffffffffff19161461209057846040517f57f447ce0000000000000000000000000000000000000000000000000000000081526004016120879190612932565b60405180910390fd5b505b505050505050565b5f604051905090565b5f80fd5b5f80fd5b5f73ffffffffffffffffffffffffffffffffffffffff82169050919050565b5f6120d4826120ab565b9050919050565b6120e4816120ca565b81146120ee575f80fd5b50565b5f813590506120ff816120db565b92915050565b5f819050919050565b61211781612105565b8114612121575f80fd5b50565b5f813590506121328161210e565b92915050565b5f806040838503121561214e5761214d6120a3565b5b5f61215b858286016120f1565b925050602061216c85828601612124565b9150509250929050565b61217f81612105565b82525050565b5f6020820190506121985f830184612176565b92915050565b5f602082840312156121b3576121b26120a3565b5b5f6121c0848285016120f1565b91505092915050565b5f7fffffffff0000000000000000000000000000000000000000000000000000000082169050919050565b6121fd816121c9565b8114612207575f80fd5b50565b5f81359050612218816121f4565b92915050565b5f60208284031215612233576122326120a3565b5b5f6122408482850161220a565b91505092915050565b5f8115159050919050565b61225d81612249565b82525050565b5f6020820190506122765f830184612254565b92915050565b5f60208284031215612291576122906120a3565b5b5f61229e84828501612124565b91505092915050565b5f81519050919050565b5f82825260208201905092915050565b8281835e5f83830152505050565b5f601f19601f8301169050919050565b5f6122e9826122a7565b6122f381856122b1565b93506123038185602086016122c1565b61230c816122cf565b840191505092915050565b5f6020820190508181035f83015261232f81846122df565b905092915050565b5f80fd5b5f80fd5b5f80fd5b5f8083601f84011261235857612357612337565b5b8235905067ffffffffffffffff8111156123755761237461233b565b5b6020830191508360208202830111156123915761239061233f565b5b9250929050565b5f80602083850312156123ae576123ad6120a3565b5b5f83013567ffffffffffffffff8111156123cb576123ca6120a7565b5b6123d785828601612343565b92509250509250929050565b7f4e487b71000000000000000000000000000000000000000000000000000000005f52604160045260245ffd5b612419826122cf565b810181811067ffffffffffffffff82111715612438576124376123e3565b5b80604052505050565b5f61244a61209a565b90506124568282612410565b919050565b5f67ffffffffffffffff821115612475576124746123e3565b5b602082029050602081019050919050565b5f6124986124938461245b565b612441565b905080838252602082019050602084028301858111156124bb576124ba61233f565b5b835b818110156124e457806124d08882612124565b8452602084019350506020810190506124bd565b5050509392505050565b5f82601f83011261250257612501612337565b5b8135612512848260208601612486565b91505092915050565b5f80fd5b5f67ffffffffffffffff821115612539576125386123e3565b5b612542826122cf565b9050602081019050919050565b828183375f83830152505050565b5f61256f61256a8461251f565b612441565b90508281526020810184848401111561258b5761258a61251b565b5b61259684828561254f565b509392505050565b5f82601f8301126125b2576125b1612337565b5b81356125c284826020860161255d565b91505092915050565b5f805f805f60a086880312156125e4576125e36120a3565b5b5f6125f1888289016120f1565b9550506020612602888289016120f1565b945050604086013567ffffffffffffffff811115612623576126226120a7565b5b61262f888289016124ee565b935050606086013567ffffffffffffffff8111156126505761264f6120a7565b5b61265c888289016124ee565b925050608086013567ffffffffffffffff81111561267d5761267c6120a7565b5b6126898882890161259e565b9150509295509295909350565b5f67ffffffffffffffff8211156126b0576126af6123e3565b5b602082029050602081019050919050565b5f6126d36126ce84612696565b612441565b905080838252602082019050602084028301858111156126f6576126f561233f565b5b835b8181101561271f578061270b88826120f1565b8452602084019350506020810190506126f8565b5050509392505050565b5f82601f83011261273d5761273c612337565b5b813561274d8482602086016126c1565b91505092915050565b5f806040838503121561276c5761276b6120a3565b5b5f83013567ffffffffffffffff811115612789576127886120a7565b5b61279585828601612729565b925050602083013567ffffffffffffffff8111156127b6576127b56120a7565b5b6127c2858286016124ee565b9150509250929050565b5f81519050919050565b5f82825260208201905092915050565b5f819050602082019050919050565b6127fe81612105565b82525050565b5f61280f83836127f5565b60208301905092915050565b5f602082019050919050565b5f612831826127cc565b61283b81856127d6565b9350612846836127e6565b805f5b8381101561287657815161285d8882612804565b97506128688361281b565b925050600181019050612849565b5085935050505092915050565b5f6020820190508181035f83015261289b8184612827565b905092915050565b5f805f80608085870312156128bb576128ba6120a3565b5b5f6128c8878288016120f1565b94505060206128d987828801612124565b93505060406128ea87828801612124565b925050606085013567ffffffffffffffff81111561290b5761290a6120a7565b5b6129178782880161259e565b91505092959194509250565b61292c816120ca565b82525050565b5f6020820190506129455f830184612923565b92915050565b61295481612249565b811461295e575f80fd5b50565b5f8135905061296f8161294b565b92915050565b5f806040838503121561298b5761298a6120a3565b5b5f612998858286016120f1565b92505060206129a985828601612961565b9150509250929050565b5f80604083850312156129c9576129c86120a3565b5b5f6129d6858286016120f1565b92505060206129e7858286016120f1565b9150509250929050565b5f805f805f60a08688031215612a0a57612a096120a3565b5b5f612a17888289016120f1565b9550506020612a28888289016120f1565b9450506040612a3988828901612124565b9350506060612a4a88828901612124565b925050608086013567ffffffffffffffff811115612a6b57612a6a6120a7565b5b612a778882890161259e565b9150509295509295909350565b5f805f60608486031215612a9b57612a9a6120a3565b5b5f612aa8868287016120f1565b9350506020612ab986828701612124565b9250506040612aca86828701612124565b9150509250925092565b7f4e487b71000000000000000000000000000000000000000000000000000000005f52602260045260245ffd5b5f6002820490506001821680612b1857607f821691505b602082108103612b2b57612b2a612ad4565b5b50919050565b7f4e487b71000000000000000000000000000000000000000000000000000000005f52603260045260245ffd5b5f604082019050612b715f830185612923565b612b7e6020830184612923565b9392505050565b5f604082019050612b985f830185612176565b612ba56020830184612176565b9392505050565b7f596f7520617265206e6f742077686974656c69737465640000000000000000005f82015250565b5f612be06017836122b1565b9150612beb82612bac565b602082019050919050565b5f6020820190508181035f830152612c0d81612bd4565b9050919050565b7f50726573616c652068617320656e6465640000000000000000000000000000005f82015250565b5f612c486011836122b1565b9150612c5382612c14565b602082019050919050565b5f6020820190508181035f830152612c7581612c3c565b9050919050565b7f4e487b71000000000000000000000000000000000000000000000000000000005f52601160045260245ffd5b5f612cb382612105565b9150612cbe83612105565b9250828202612ccc81612105565b91508282048414831517612ce357612ce2612c7c565b5b5092915050565b7f496e636f7272656374204554482073656e7400000000000000000000000000005f82015250565b5f612d1e6012836122b1565b9150612d2982612cea565b602082019050919050565b5f6020820190508181035f830152612d4b81612d12565b9050919050565b7f4d5a43414c20746f6b656e206e6f74206c61756e6368656420796574000000005f82015250565b5f612d86601c836122b1565b9150612d9182612d52565b602082019050919050565b5f6020820190508181035f830152612db381612d7a565b9050919050565b7f4e6f2050524553414c455f544f4b454e20746f20636f6e7665727400000000005f82015250565b5f612dee601b836122b1565b9150612df982612dba565b602082019050919050565b5f6020820190508181035f830152612e1b81612de2565b9050919050565b7f596f752063616e206f6e6c79206275726e20796f7572206f776e20746f6b656e5f8201527f7300000000000000000000000000000000000000000000000000000000000000602082015250565b5f612e7c6021836122b1565b9150612e8782612e22565b604082019050919050565b5f6020820190508181035f830152612ea981612e70565b9050919050565b5f608082019050612ec35f830187612923565b612ed06020830186612176565b612edd6040830185612176565b612eea6060830184612176565b95945050505050565b5f612efd82612105565b9150612f0883612105565b9250828201905080821115612f2057612f1f612c7c565b5b92915050565b5f6040820190508181035f830152612f3e8185612827565b90508181036020830152612f528184612827565b90509392505050565b5f81519050919050565b5f82825260208201905092915050565b5f612f7f82612f5b565b612f898185612f65565b9350612f998185602086016122c1565b612fa2816122cf565b840191505092915050565b5f60a082019050612fc05f830188612923565b612fcd6020830187612923565b612fda6040830186612176565b612fe76060830185612176565b8181036080830152612ff98184612f75565b90509695505050505050565b5f81519050613013816121f4565b92915050565b5f6020828403121561302e5761302d6120a3565b5b5f61303b84828501613005565b91505092915050565b5f60a0820190506130575f830188612923565b6130646020830187612923565b81810360408301526130768186612827565b9050818103606083015261308a8185612827565b9050818103608083015261309e8184612f75565b9050969550505050505056fea2646970667358221220389c40f2c9968d23dca9231d001bf03dc721e349301b15b390d3beaeb8056eaa64736f6c634300081a0033",
			"opcodes": "PUSH1 0x80 PUSH1 0x40 MSTORE PUSH4 0x679DAF00 PUSH1 0x4 SSTORE PUSH7 0x2386F26FC10000 PUSH1 0x5 SSTORE PUSH7 0x2386F26FC10000 PUSH1 0x6 SSTORE PUSH0 PUSH1 0x7 PUSH0 PUSH2 0x100 EXP DUP2 SLOAD DUP2 PUSH1 0xFF MUL NOT AND SWAP1 DUP4 ISZERO ISZERO MUL OR SWAP1 SSTORE POP CALLVALUE DUP1 ISZERO PUSH2 0x46 JUMPI PUSH0 DUP1 REVERT JUMPDEST POP PUSH1 0x40 MLOAD PUSH2 0x43A6 CODESIZE SUB DUP1 PUSH2 0x43A6 DUP4 CODECOPY DUP2 DUP2 ADD PUSH1 0x40 MSTORE DUP2 ADD SWAP1 PUSH2 0x68 SWAP2 SWAP1 PUSH2 0xBE9 JUMP JUMPDEST CALLER DUP2 PUSH2 0x79 DUP2 PUSH2 0x123 PUSH1 0x20 SHL PUSH1 0x20 SHR JUMP JUMPDEST POP PUSH0 PUSH20 0xFFFFFFFFFFFFFFFFFFFFFFFFFFFFFFFFFFFFFFFF AND DUP2 PUSH20 0xFFFFFFFFFFFFFFFFFFFFFFFFFFFFFFFFFFFFFFFF AND SUB PUSH2 0xEA JUMPI PUSH0 PUSH1 0x40 MLOAD PUSH32 0x1E4FBDF700000000000000000000000000000000000000000000000000000000 DUP2 MSTORE PUSH1 0x4 ADD PUSH2 0xE1 SWAP2 SWAP1 PUSH2 0xC6F JUMP JUMPDEST PUSH1 0x40 MLOAD DUP1 SWAP2 SUB SWAP1 REVERT JUMPDEST PUSH2 0xF9 DUP2 PUSH2 0x136 PUSH1 0x20 SHL PUSH1 0x20 SHR JUMP JUMPDEST POP PUSH2 0x11D CALLER PUSH1 0x1 PUSH2 0x3E8 PUSH1 0x40 MLOAD DUP1 PUSH1 0x20 ADD PUSH1 0x40 MSTORE DUP1 PUSH0 DUP2 MSTORE POP PUSH2 0x1F9 PUSH1 0x20 SHL PUSH1 0x20 SHR JUMP JUMPDEST POP PUSH2 0x12B9 JUMP JUMPDEST DUP1 PUSH1 0x2 SWAP1 DUP2 PUSH2 0x132 SWAP2 SWAP1 PUSH2 0xE95 JUMP JUMPDEST POP POP JUMP JUMPDEST PUSH0 PUSH1 0x3 PUSH0 SWAP1 SLOAD SWAP1 PUSH2 0x100 EXP SWAP1 DIV PUSH20 0xFFFFFFFFFFFFFFFFFFFFFFFFFFFFFFFFFFFFFFFF AND SWAP1 POP DUP2 PUSH1 0x3 PUSH0 PUSH2 0x100 EXP DUP2 SLOAD DUP2 PUSH20 0xFFFFFFFFFFFFFFFFFFFFFFFFFFFFFFFFFFFFFFFF MUL NOT AND SWAP1 DUP4 PUSH20 0xFFFFFFFFFFFFFFFFFFFFFFFFFFFFFFFFFFFFFFFF AND MUL OR SWAP1 SSTORE POP DUP2 PUSH20 0xFFFFFFFFFFFFFFFFFFFFFFFFFFFFFFFFFFFFFFFF AND DUP2 PUSH20 0xFFFFFFFFFFFFFFFFFFFFFFFFFFFFFFFFFFFFFFFF AND PUSH32 0x8BE0079C531659141344CD1FD0A4F28419497F9722A3DAAFE3B4186F6B6457E0 PUSH1 0x40 MLOAD PUSH1 0x40 MLOAD DUP1 SWAP2 SUB SWAP1 LOG3 POP POP JUMP JUMPDEST PUSH0 PUSH20 0xFFFFFFFFFFFFFFFFFFFFFFFFFFFFFFFFFFFFFFFF AND DUP5 PUSH20 0xFFFFFFFFFFFFFFFFFFFFFFFFFFFFFFFFFFFFFFFF AND SUB PUSH2 0x269 JUMPI PUSH0 PUSH1 0x40 MLOAD PUSH32 0x57F447CE00000000000000000000000000000000000000000000000000000000 DUP2 MSTORE PUSH1 0x4 ADD PUSH2 0x260 SWAP2 SWAP1 PUSH2 0xC6F JUMP JUMPDEST PUSH1 0x40 MLOAD DUP1 SWAP2 SUB SWAP1 REVERT JUMPDEST PUSH0 DUP1 PUSH2 0x27B DUP6 DUP6 PUSH2 0x29A PUSH1 0x20 SHL PUSH1 0x20 SHR JUMP JUMPDEST SWAP2 POP SWAP2 POP PUSH2 0x292 PUSH0 DUP8 DUP5 DUP5 DUP8 PUSH2 0x2CA PUSH1 0x20 SHL PUSH1 0x20 SHR JUMP JUMPDEST POP POP POP POP POP POP JUMP JUMPDEST PUSH1 0x60 DUP1 PUSH1 0x40 MLOAD SWAP2 POP PUSH1 0x1 DUP3 MSTORE DUP4 PUSH1 0x20 DUP4 ADD MSTORE PUSH1 0x40 DUP3 ADD SWAP1 POP PUSH1 0x1 DUP2 MSTORE DUP3 PUSH1 0x20 DUP3 ADD MSTORE PUSH1 0x40 DUP2 ADD PUSH1 0x40 MSTORE SWAP3 POP SWAP3 SWAP1 POP JUMP JUMPDEST PUSH2 0x2DC DUP6 DUP6 DUP6 DUP6 PUSH2 0x38E PUSH1 0x20 SHL PUSH1 0x20 SHR JUMP JUMPDEST PUSH0 PUSH20 0xFFFFFFFFFFFFFFFFFFFFFFFFFFFFFFFFFFFFFFFF AND DUP5 PUSH20 0xFFFFFFFFFFFFFFFFFFFFFFFFFFFFFFFFFFFFFFFF AND EQ PUSH2 0x387 JUMPI PUSH0 PUSH2 0x31E PUSH2 0x724 PUSH1 0x20 SHL PUSH1 0x20 SHR JUMP JUMPDEST SWAP1 POP PUSH1 0x1 DUP5 MLOAD SUB PUSH2 0x370 JUMPI PUSH0 PUSH2 0x33D PUSH0 DUP7 PUSH2 0x72B PUSH1 0x20 SHL SWAP1 SWAP2 SWAP1 PUSH1 0x20 SHR JUMP JUMPDEST SWAP1 POP PUSH0 PUSH2 0x353 PUSH0 DUP7 PUSH2 0x72B PUSH1 0x20 SHL SWAP1 SWAP2 SWAP1 PUSH1 0x20 SHR JUMP JUMPDEST SWAP1 POP PUSH2 0x369 DUP4 DUP10 DUP10 DUP6 DUP6 DUP10 PUSH2 0x73E PUSH1 0x20 SHL PUSH1 0x20 SHR JUMP JUMPDEST POP POP PUSH2 0x385 JUMP JUMPDEST PUSH2 0x384 DUP2 DUP8 DUP8 DUP8 DUP8 DUP8 PUSH2 0x8ED PUSH1 0x20 SHL PUSH1 0x20 SHR JUMP JUMPDEST JUMPDEST POP JUMPDEST POP POP POP POP POP JUMP JUMPDEST DUP1 MLOAD DUP3 MLOAD EQ PUSH2 0x3D8 JUMPI DUP2 MLOAD DUP2 MLOAD PUSH1 0x40 MLOAD PUSH32 0x5B05999100000000000000000000000000000000000000000000000000000000 DUP2 MSTORE PUSH1 0x4 ADD PUSH2 0x3CF SWAP3 SWAP2 SWAP1 PUSH2 0xF73 JUMP JUMPDEST PUSH1 0x40 MLOAD DUP1 SWAP2 SUB SWAP1 REVERT JUMPDEST PUSH0 PUSH2 0x3E7 PUSH2 0x724 PUSH1 0x20 SHL PUSH1 0x20 SHR JUMP JUMPDEST SWAP1 POP PUSH0 JUMPDEST DUP4 MLOAD DUP2 LT ISZERO PUSH2 0x5E3 JUMPI PUSH0 PUSH2 0x408 DUP3 DUP7 PUSH2 0x72B PUSH1 0x20 SHL SWAP1 SWAP2 SWAP1 PUSH1 0x20 SHR JUMP JUMPDEST SWAP1 POP PUSH0 PUSH2 0x41E DUP4 DUP7 PUSH2 0x72B PUSH1 0x20 SHL SWAP1 SWAP2 SWAP1 PUSH1 0x20 SHR JUMP JUMPDEST SWAP1 POP PUSH0 PUSH20 0xFFFFFFFFFFFFFFFFFFFFFFFFFFFFFFFFFFFFFFFF AND DUP9 PUSH20 0xFFFFFFFFFFFFFFFFFFFFFFFFFFFFFFFFFFFFFFFF AND EQ PUSH2 0x541 JUMPI PUSH0 DUP1 PUSH0 DUP5 DUP2 MSTORE PUSH1 0x20 ADD SWAP1 DUP2 MSTORE PUSH1 0x20 ADD PUSH0 KECCAK256 PUSH0 DUP11 PUSH20 0xFFFFFFFFFFFFFFFFFFFFFFFFFFFFFFFFFFFFFFFF AND PUSH20 0xFFFFFFFFFFFFFFFFFFFFFFFFFFFFFFFFFFFFFFFF AND DUP2 MSTORE PUSH1 0x20 ADD SWAP1 DUP2 MSTORE PUSH1 0x20 ADD PUSH0 KECCAK256 SLOAD SWAP1 POP DUP2 DUP2 LT ISZERO PUSH2 0x4ED JUMPI DUP9 DUP2 DUP4 DUP6 PUSH1 0x40 MLOAD PUSH32 0x3DEE4C500000000000000000000000000000000000000000000000000000000 DUP2 MSTORE PUSH1 0x4 ADD PUSH2 0x4E4 SWAP5 SWAP4 SWAP3 SWAP2 SWAP1 PUSH2 0xF9A JUMP JUMPDEST PUSH1 0x40 MLOAD DUP1 SWAP2 SUB SWAP1 REVERT JUMPDEST DUP2 DUP2 SUB PUSH0 DUP1 DUP6 DUP2 MSTORE PUSH1 0x20 ADD SWAP1 DUP2 MSTORE PUSH1 0x20 ADD PUSH0 KECCAK256 PUSH0 DUP12 PUSH20 0xFFFFFFFFFFFFFFFFFFFFFFFFFFFFFFFFFFFFFFFF AND PUSH20 0xFFFFFFFFFFFFFFFFFFFFFFFFFFFFFFFFFFFFFFFF AND DUP2 MSTORE PUSH1 0x20 ADD SWAP1 DUP2 MSTORE PUSH1 0x20 ADD PUSH0 KECCAK256 DUP2 SWAP1 SSTORE POP POP JUMPDEST PUSH0 PUSH20 0xFFFFFFFFFFFFFFFFFFFFFFFFFFFFFFFFFFFFFFFF AND DUP8 PUSH20 0xFFFFFFFFFFFFFFFFFFFFFFFFFFFFFFFFFFFFFFFF AND EQ PUSH2 0x5D6 JUMPI DUP1 PUSH0 DUP1 DUP5 DUP2 MSTORE PUSH1 0x20 ADD SWAP1 DUP2 MSTORE PUSH1 0x20 ADD PUSH0 KECCAK256 PUSH0 DUP10 PUSH20 0xFFFFFFFFFFFFFFFFFFFFFFFFFFFFFFFFFFFFFFFF AND PUSH20 0xFFFFFFFFFFFFFFFFFFFFFFFFFFFFFFFFFFFFFFFF AND DUP2 MSTORE PUSH1 0x20 ADD SWAP1 DUP2 MSTORE PUSH1 0x20 ADD PUSH0 KECCAK256 PUSH0 DUP3 DUP3 SLOAD PUSH2 0x5CE SWAP2 SWAP1 PUSH2 0x100A JUMP JUMPDEST SWAP3 POP POP DUP2 SWAP1 SSTORE POP JUMPDEST POP POP DUP1 PUSH1 0x1 ADD SWAP1 POP PUSH2 0x3EB JUMP JUMPDEST POP PUSH1 0x1 DUP4 MLOAD SUB PUSH2 0x69E JUMPI PUSH0 PUSH2 0x601 PUSH0 DUP6 PUSH2 0x72B PUSH1 0x20 SHL SWAP1 SWAP2 SWAP1 PUSH1 0x20 SHR JUMP JUMPDEST SWAP1 POP PUSH0 PUSH2 0x617 PUSH0 DUP6 PUSH2 0x72B PUSH1 0x20 SHL SWAP1 SWAP2 SWAP1 PUSH1 0x20 SHR JUMP JUMPDEST SWAP1 POP DUP6 PUSH20 0xFFFFFFFFFFFFFFFFFFFFFFFFFFFFFFFFFFFFFFFF AND DUP8 PUSH20 0xFFFFFFFFFFFFFFFFFFFFFFFFFFFFFFFFFFFFFFFF AND DUP5 PUSH20 0xFFFFFFFFFFFFFFFFFFFFFFFFFFFFFFFFFFFFFFFF AND PUSH32 0xC3D58168C5AE7397731D063D5BBF3D657854427343F4C083240F7AACAA2D0F62 DUP6 DUP6 PUSH1 0x40 MLOAD PUSH2 0x68F SWAP3 SWAP2 SWAP1 PUSH2 0xF73 JUMP JUMPDEST PUSH1 0x40 MLOAD DUP1 SWAP2 SUB SWAP1 LOG4 POP POP PUSH2 0x71D JUMP JUMPDEST DUP4 PUSH20 0xFFFFFFFFFFFFFFFFFFFFFFFFFFFFFFFFFFFFFFFF AND DUP6 PUSH20 0xFFFFFFFFFFFFFFFFFFFFFFFFFFFFFFFFFFFFFFFF AND DUP3 PUSH20 0xFFFFFFFFFFFFFFFFFFFFFFFFFFFFFFFFFFFFFFFF AND PUSH32 0x4A39DC06D4C0DBC64B70AF90FD698A233A518AA5D07E595D983B8C0526C8F7FB DUP7 DUP7 PUSH1 0x40 MLOAD PUSH2 0x714 SWAP3 SWAP2 SWAP1 PUSH2 0x10F4 JUMP JUMPDEST PUSH1 0x40 MLOAD DUP1 SWAP2 SUB SWAP1 LOG4 JUMPDEST POP POP POP POP POP JUMP JUMPDEST PUSH0 CALLER SWAP1 POP SWAP1 JUMP JUMPDEST PUSH0 PUSH1 0x20 DUP3 MUL PUSH1 0x20 DUP5 ADD ADD MLOAD SWAP1 POP SWAP3 SWAP2 POP POP JUMP JUMPDEST PUSH0 DUP5 PUSH20 0xFFFFFFFFFFFFFFFFFFFFFFFFFFFFFFFFFFFFFFFF AND EXTCODESIZE GT ISZERO PUSH2 0x8E5 JUMPI DUP4 PUSH20 0xFFFFFFFFFFFFFFFFFFFFFFFFFFFFFFFFFFFFFFFF AND PUSH4 0xF23A6E61 DUP8 DUP8 DUP7 DUP7 DUP7 PUSH1 0x40 MLOAD DUP7 PUSH4 0xFFFFFFFF AND PUSH1 0xE0 SHL DUP2 MSTORE PUSH1 0x4 ADD PUSH2 0x79E SWAP6 SWAP5 SWAP4 SWAP3 SWAP2 SWAP1 PUSH2 0x117B JUMP JUMPDEST PUSH1 0x20 PUSH1 0x40 MLOAD DUP1 DUP4 SUB DUP2 PUSH0 DUP8 GAS CALL SWAP3 POP POP POP DUP1 ISZERO PUSH2 0x7D9 JUMPI POP PUSH1 0x40 MLOAD RETURNDATASIZE PUSH1 0x1F NOT PUSH1 0x1F DUP3 ADD AND DUP3 ADD DUP1 PUSH1 0x40 MSTORE POP DUP2 ADD SWAP1 PUSH2 0x7D6 SWAP2 SWAP1 PUSH2 0x1228 JUMP JUMPDEST PUSH1 0x1 JUMPDEST PUSH2 0x85A JUMPI RETURNDATASIZE DUP1 PUSH0 DUP2 EQ PUSH2 0x807 JUMPI PUSH1 0x40 MLOAD SWAP2 POP PUSH1 0x1F NOT PUSH1 0x3F RETURNDATASIZE ADD AND DUP3 ADD PUSH1 0x40 MSTORE RETURNDATASIZE DUP3 MSTORE RETURNDATASIZE PUSH0 PUSH1 0x20 DUP5 ADD RETURNDATACOPY PUSH2 0x80C JUMP JUMPDEST PUSH1 0x60 SWAP2 POP JUMPDEST POP PUSH0 DUP2 MLOAD SUB PUSH2 0x852 JUMPI DUP5 PUSH1 0x40 MLOAD PUSH32 0x57F447CE00000000000000000000000000000000000000000000000000000000 DUP2 MSTORE PUSH1 0x4 ADD PUSH2 0x849 SWAP2 SWAP1 PUSH2 0xC6F JUMP JUMPDEST PUSH1 0x40 MLOAD DUP1 SWAP2 SUB SWAP1 REVERT JUMPDEST DUP1 MLOAD DUP2 PUSH1 0x20 ADD REVERT JUMPDEST PUSH4 0xF23A6E61 PUSH1 0xE0 SHL PUSH28 0xFFFFFFFFFFFFFFFFFFFFFFFFFFFFFFFFFFFFFFFFFFFFFFFFFFFFFFFF NOT AND DUP2 PUSH28 0xFFFFFFFFFFFFFFFFFFFFFFFFFFFFFFFFFFFFFFFFFFFFFFFFFFFFFFFF NOT AND EQ PUSH2 0x8E3 JUMPI DUP5 PUSH1 0x40 MLOAD PUSH32 0x57F447CE00000000000000000000000000000000000000000000000000000000 DUP2 MSTORE PUSH1 0x4 ADD PUSH2 0x8DA SWAP2 SWAP1 PUSH2 0xC6F JUMP JUMPDEST PUSH1 0x40 MLOAD DUP1 SWAP2 SUB SWAP1 REVERT JUMPDEST POP JUMPDEST POP POP POP POP POP POP JUMP JUMPDEST PUSH0 DUP5 PUSH20 0xFFFFFFFFFFFFFFFFFFFFFFFFFFFFFFFFFFFFFFFF AND EXTCODESIZE GT ISZERO PUSH2 0xA94 JUMPI DUP4 PUSH20 0xFFFFFFFFFFFFFFFFFFFFFFFFFFFFFFFFFFFFFFFF AND PUSH4 0xBC197C81 DUP8 DUP8 DUP7 DUP7 DUP7 PUSH1 0x40 MLOAD DUP7 PUSH4 0xFFFFFFFF AND PUSH1 0xE0 SHL DUP2 MSTORE PUSH1 0x4 ADD PUSH2 0x94D SWAP6 SWAP5 SWAP4 SWAP3 SWAP2 SWAP1 PUSH2 0x1253 JUMP JUMPDEST PUSH1 0x20 PUSH1 0x40 MLOAD DUP1 DUP4 SUB DUP2 PUSH0 DUP8 GAS CALL SWAP3 POP POP POP DUP1 ISZERO PUSH2 0x988 JUMPI POP PUSH1 0x40 MLOAD RETURNDATASIZE PUSH1 0x1F NOT PUSH1 0x1F DUP3 ADD AND DUP3 ADD DUP1 PUSH1 0x40 MSTORE POP DUP2 ADD SWAP1 PUSH2 0x985 SWAP2 SWAP1 PUSH2 0x1228 JUMP JUMPDEST PUSH1 0x1 JUMPDEST PUSH2 0xA09 JUMPI RETURNDATASIZE DUP1 PUSH0 DUP2 EQ PUSH2 0x9B6 JUMPI PUSH1 0x40 MLOAD SWAP2 POP PUSH1 0x1F NOT PUSH1 0x3F RETURNDATASIZE ADD AND DUP3 ADD PUSH1 0x40 MSTORE RETURNDATASIZE DUP3 MSTORE RETURNDATASIZE PUSH0 PUSH1 0x20 DUP5 ADD RETURNDATACOPY PUSH2 0x9BB JUMP JUMPDEST PUSH1 0x60 SWAP2 POP JUMPDEST POP PUSH0 DUP2 MLOAD SUB PUSH2 0xA01 JUMPI DUP5 PUSH1 0x40 MLOAD PUSH32 0x57F447CE00000000000000000000000000000000000000000000000000000000 DUP2 MSTORE PUSH1 0x4 ADD PUSH2 0x9F8 SWAP2 SWAP1 PUSH2 0xC6F JUMP JUMPDEST PUSH1 0x40 MLOAD DUP1 SWAP2 SUB SWAP1 REVERT JUMPDEST DUP1 MLOAD DUP2 PUSH1 0x20 ADD REVERT JUMPDEST PUSH4 0xBC197C81 PUSH1 0xE0 SHL PUSH28 0xFFFFFFFFFFFFFFFFFFFFFFFFFFFFFFFFFFFFFFFFFFFFFFFFFFFFFFFF NOT AND DUP2 PUSH28 0xFFFFFFFFFFFFFFFFFFFFFFFFFFFFFFFFFFFFFFFFFFFFFFFFFFFFFFFF NOT AND EQ PUSH2 0xA92 JUMPI DUP5 PUSH1 0x40 MLOAD PUSH32 0x57F447CE00000000000000000000000000000000000000000000000000000000 DUP2 MSTORE PUSH1 0x4 ADD PUSH2 0xA89 SWAP2 SWAP1 PUSH2 0xC6F JUMP JUMPDEST PUSH1 0x40 MLOAD DUP1 SWAP2 SUB SWAP1 REVERT JUMPDEST POP JUMPDEST POP POP POP POP POP POP JUMP JUMPDEST PUSH0 PUSH1 0x40 MLOAD SWAP1 POP SWAP1 JUMP JUMPDEST PUSH0 DUP1 REVERT JUMPDEST PUSH0 DUP1 REVERT JUMPDEST PUSH0 DUP1 REVERT JUMPDEST PUSH0 DUP1 REVERT JUMPDEST PUSH0 PUSH1 0x1F NOT PUSH1 0x1F DUP4 ADD AND SWAP1 POP SWAP2 SWAP1 POP JUMP JUMPDEST PUSH32 0x4E487B7100000000000000000000000000000000000000000000000000000000 PUSH0 MSTORE PUSH1 0x41 PUSH1 0x4 MSTORE PUSH1 0x24 PUSH0 REVERT JUMPDEST PUSH2 0xAFB DUP3 PUSH2 0xAB5 JUMP JUMPDEST DUP2 ADD DUP2 DUP2 LT PUSH8 0xFFFFFFFFFFFFFFFF DUP3 GT OR ISZERO PUSH2 0xB1A JUMPI PUSH2 0xB19 PUSH2 0xAC5 JUMP JUMPDEST JUMPDEST DUP1 PUSH1 0x40 MSTORE POP POP POP JUMP JUMPDEST PUSH0 PUSH2 0xB2C PUSH2 0xA9C JUMP JUMPDEST SWAP1 POP PUSH2 0xB38 DUP3 DUP3 PUSH2 0xAF2 JUMP JUMPDEST SWAP2 SWAP1 POP JUMP JUMPDEST PUSH0 PUSH8 0xFFFFFFFFFFFFFFFF DUP3 GT ISZERO PUSH2 0xB57 JUMPI PUSH2 0xB56 PUSH2 0xAC5 JUMP JUMPDEST JUMPDEST PUSH2 0xB60 DUP3 PUSH2 0xAB5 JUMP JUMPDEST SWAP1 POP PUSH1 0x20 DUP2 ADD SWAP1 POP SWAP2 SWAP1 POP JUMP JUMPDEST DUP3 DUP2 DUP4 MCOPY PUSH0 DUP4 DUP4 ADD MSTORE POP POP POP JUMP JUMPDEST PUSH0 PUSH2 0xB8D PUSH2 0xB88 DUP5 PUSH2 0xB3D JUMP JUMPDEST PUSH2 0xB23 JUMP JUMPDEST SWAP1 POP DUP3 DUP2 MSTORE PUSH1 0x20 DUP2 ADD DUP5 DUP5 DUP5 ADD GT ISZERO PUSH2 0xBA9 JUMPI PUSH2 0xBA8 PUSH2 0xAB1 JUMP JUMPDEST JUMPDEST PUSH2 0xBB4 DUP5 DUP3 DUP6 PUSH2 0xB6D JUMP JUMPDEST POP SWAP4 SWAP3 POP POP POP JUMP JUMPDEST PUSH0 DUP3 PUSH1 0x1F DUP4 ADD SLT PUSH2 0xBD0 JUMPI PUSH2 0xBCF PUSH2 0xAAD JUMP JUMPDEST JUMPDEST DUP2 MLOAD PUSH2 0xBE0 DUP5 DUP3 PUSH1 0x20 DUP7 ADD PUSH2 0xB7B JUMP JUMPDEST SWAP2 POP POP SWAP3 SWAP2 POP POP JUMP JUMPDEST PUSH0 PUSH1 0x20 DUP3 DUP5 SUB SLT ISZERO PUSH2 0xBFE JUMPI PUSH2 0xBFD PUSH2 0xAA5 JUMP JUMPDEST JUMPDEST PUSH0 DUP3 ADD MLOAD PUSH8 0xFFFFFFFFFFFFFFFF DUP2 GT ISZERO PUSH2 0xC1B JUMPI PUSH2 0xC1A PUSH2 0xAA9 JUMP JUMPDEST JUMPDEST PUSH2 0xC27 DUP5 DUP3 DUP6 ADD PUSH2 0xBBC JUMP JUMPDEST SWAP2 POP POP SWAP3 SWAP2 POP POP JUMP JUMPDEST PUSH0 PUSH20 0xFFFFFFFFFFFFFFFFFFFFFFFFFFFFFFFFFFFFFFFF DUP3 AND SWAP1 POP SWAP2 SWAP1 POP JUMP JUMPDEST PUSH0 PUSH2 0xC59 DUP3 PUSH2 0xC30 JUMP JUMPDEST SWAP1 POP SWAP2 SWAP1 POP JUMP JUMPDEST PUSH2 0xC69 DUP2 PUSH2 0xC4F JUMP JUMPDEST DUP3 MSTORE POP POP JUMP JUMPDEST PUSH0 PUSH1 0x20 DUP3 ADD SWAP1 POP PUSH2 0xC82 PUSH0 DUP4 ADD DUP5 PUSH2 0xC60 JUMP JUMPDEST SWAP3 SWAP2 POP POP JUMP JUMPDEST PUSH0 DUP2 MLOAD SWAP1 POP SWAP2 SWAP1 POP JUMP JUMPDEST PUSH32 0x4E487B7100000000000000000000000000000000000000000000000000000000 PUSH0 MSTORE PUSH1 0x22 PUSH1 0x4 MSTORE PUSH1 0x24 PUSH0 REVERT JUMPDEST PUSH0 PUSH1 0x2 DUP3 DIV SWAP1 POP PUSH1 0x1 DUP3 AND DUP1 PUSH2 0xCD6 JUMPI PUSH1 0x7F DUP3 AND SWAP2 POP JUMPDEST PUSH1 0x20 DUP3 LT DUP2 SUB PUSH2 0xCE9 JUMPI PUSH2 0xCE8 PUSH2 0xC92 JUMP JUMPDEST JUMPDEST POP SWAP2 SWAP1 POP JUMP JUMPDEST PUSH0 DUP2 SWAP1 POP DUP2 PUSH0 MSTORE PUSH1 0x20 PUSH0 KECCAK256 SWAP1 POP SWAP2 SWAP1 POP JUMP JUMPDEST PUSH0 PUSH1 0x20 PUSH1 0x1F DUP4 ADD DIV SWAP1 POP SWAP2 SWAP1 POP JUMP JUMPDEST PUSH0 DUP3 DUP3 SHL SWAP1 POP SWAP3 SWAP2 POP POP JUMP JUMPDEST PUSH0 PUSH1 0x8 DUP4 MUL PUSH2 0xD4B PUSH32 0xFFFFFFFFFFFFFFFFFFFFFFFFFFFFFFFFFFFFFFFFFFFFFFFFFFFFFFFFFFFFFFFF DUP3 PUSH2 0xD10 JUMP JUMPDEST PUSH2 0xD55 DUP7 DUP4 PUSH2 0xD10 JUMP JUMPDEST SWAP6 POP DUP1 NOT DUP5 AND SWAP4 POP DUP1 DUP7 AND DUP5 OR SWAP3 POP POP POP SWAP4 SWAP3 POP POP POP JUMP JUMPDEST PUSH0 DUP2 SWAP1 POP SWAP2 SWAP1 POP JUMP JUMPDEST PUSH0 DUP2 SWAP1 POP SWAP2 SWAP1 POP JUMP JUMPDEST PUSH0 PUSH2 0xD99 PUSH2 0xD94 PUSH2 0xD8F DUP5 PUSH2 0xD6D JUMP JUMPDEST PUSH2 0xD76 JUMP JUMPDEST PUSH2 0xD6D JUMP JUMPDEST SWAP1 POP SWAP2 SWAP1 POP JUMP JUMPDEST PUSH0 DUP2 SWAP1 POP SWAP2 SWAP1 POP JUMP JUMPDEST PUSH2 0xDB2 DUP4 PUSH2 0xD7F JUMP JUMPDEST PUSH2 0xDC6 PUSH2 0xDBE DUP3 PUSH2 0xDA0 JUMP JUMPDEST DUP5 DUP5 SLOAD PUSH2 0xD1C JUMP JUMPDEST DUP3 SSTORE POP POP POP POP JUMP JUMPDEST PUSH0 SWAP1 JUMP JUMPDEST PUSH2 0xDDA PUSH2 0xDCE JUMP JUMPDEST PUSH2 0xDE5 DUP2 DUP5 DUP5 PUSH2 0xDA9 JUMP JUMPDEST POP POP POP JUMP JUMPDEST JUMPDEST DUP2 DUP2 LT ISZERO PUSH2 0xE08 JUMPI PUSH2 0xDFD PUSH0 DUP3 PUSH2 0xDD2 JUMP JUMPDEST PUSH1 0x1 DUP2 ADD SWAP1 POP PUSH2 0xDEB JUMP JUMPDEST POP POP JUMP JUMPDEST PUSH1 0x1F DUP3 GT ISZERO PUSH2 0xE4D JUMPI PUSH2 0xE1E DUP2 PUSH2 0xCEF JUMP JUMPDEST PUSH2 0xE27 DUP5 PUSH2 0xD01 JUMP JUMPDEST DUP2 ADD PUSH1 0x20 DUP6 LT ISZERO PUSH2 0xE36 JUMPI DUP2 SWAP1 POP JUMPDEST PUSH2 0xE4A PUSH2 0xE42 DUP6 PUSH2 0xD01 JUMP JUMPDEST DUP4 ADD DUP3 PUSH2 0xDEA JUMP JUMPDEST POP POP JUMPDEST POP POP POP JUMP JUMPDEST PUSH0 DUP3 DUP3 SHR SWAP1 POP SWAP3 SWAP2 POP POP JUMP JUMPDEST PUSH0 PUSH2 0xE6D PUSH0 NOT DUP5 PUSH1 0x8 MUL PUSH2 0xE52 JUMP JUMPDEST NOT DUP1 DUP4 AND SWAP2 POP POP SWAP3 SWAP2 POP POP JUMP JUMPDEST PUSH0 PUSH2 0xE85 DUP4 DUP4 PUSH2 0xE5E JUMP JUMPDEST SWAP2 POP DUP3 PUSH1 0x2 MUL DUP3 OR SWAP1 POP SWAP3 SWAP2 POP POP JUMP JUMPDEST PUSH2 0xE9E DUP3 PUSH2 0xC88 JUMP JUMPDEST PUSH8 0xFFFFFFFFFFFFFFFF DUP2 GT ISZERO PUSH2 0xEB7 JUMPI PUSH2 0xEB6 PUSH2 0xAC5 JUMP JUMPDEST JUMPDEST PUSH2 0xEC1 DUP3 SLOAD PUSH2 0xCBF JUMP JUMPDEST PUSH2 0xECC DUP3 DUP3 DUP6 PUSH2 0xE0C JUMP JUMPDEST PUSH0 PUSH1 0x20 SWAP1 POP PUSH1 0x1F DUP4 GT PUSH1 0x1 DUP2 EQ PUSH2 0xEFD JUMPI PUSH0 DUP5 ISZERO PUSH2 0xEEB JUMPI DUP3 DUP8 ADD MLOAD SWAP1 POP JUMPDEST PUSH2 0xEF5 DUP6 DUP3 PUSH2 0xE7A JUMP JUMPDEST DUP7 SSTORE POP PUSH2 0xF5C JUMP JUMPDEST PUSH1 0x1F NOT DUP5 AND PUSH2 0xF0B DUP7 PUSH2 0xCEF JUMP JUMPDEST PUSH0 JUMPDEST DUP3 DUP2 LT ISZERO PUSH2 0xF32 JUMPI DUP5 DUP10 ADD MLOAD DUP3 SSTORE PUSH1 0x1 DUP3 ADD SWAP2 POP PUSH1 0x20 DUP6 ADD SWAP5 POP PUSH1 0x20 DUP2 ADD SWAP1 POP PUSH2 0xF0D JUMP JUMPDEST DUP7 DUP4 LT ISZERO PUSH2 0xF4F JUMPI DUP5 DUP10 ADD MLOAD PUSH2 0xF4B PUSH1 0x1F DUP10 AND DUP3 PUSH2 0xE5E JUMP JUMPDEST DUP4 SSTORE POP JUMPDEST PUSH1 0x1 PUSH1 0x2 DUP9 MUL ADD DUP9 SSTORE POP POP POP JUMPDEST POP POP POP POP POP POP JUMP JUMPDEST PUSH2 0xF6D DUP2 PUSH2 0xD6D JUMP JUMPDEST DUP3 MSTORE POP POP JUMP JUMPDEST PUSH0 PUSH1 0x40 DUP3 ADD SWAP1 POP PUSH2 0xF86 PUSH0 DUP4 ADD DUP6 PUSH2 0xF64 JUMP JUMPDEST PUSH2 0xF93 PUSH1 0x20 DUP4 ADD DUP5 PUSH2 0xF64 JUMP JUMPDEST SWAP4 SWAP3 POP POP POP JUMP JUMPDEST PUSH0 PUSH1 0x80 DUP3 ADD SWAP1 POP PUSH2 0xFAD PUSH0 DUP4 ADD DUP8 PUSH2 0xC60 JUMP JUMPDEST PUSH2 0xFBA PUSH1 0x20 DUP4 ADD DUP7 PUSH2 0xF64 JUMP JUMPDEST PUSH2 0xFC7 PUSH1 0x40 DUP4 ADD DUP6 PUSH2 0xF64 JUMP JUMPDEST PUSH2 0xFD4 PUSH1 0x60 DUP4 ADD DUP5 PUSH2 0xF64 JUMP JUMPDEST SWAP6 SWAP5 POP POP POP POP POP JUMP JUMPDEST PUSH32 0x4E487B7100000000000000000000000000000000000000000000000000000000 PUSH0 MSTORE PUSH1 0x11 PUSH1 0x4 MSTORE PUSH1 0x24 PUSH0 REVERT JUMPDEST PUSH0 PUSH2 0x1014 DUP3 PUSH2 0xD6D JUMP JUMPDEST SWAP2 POP PUSH2 0x101F DUP4 PUSH2 0xD6D JUMP JUMPDEST SWAP3 POP DUP3 DUP3 ADD SWAP1 POP DUP1 DUP3 GT ISZERO PUSH2 0x1037 JUMPI PUSH2 0x1036 PUSH2 0xFDD JUMP JUMPDEST JUMPDEST SWAP3 SWAP2 POP POP JUMP JUMPDEST PUSH0 DUP2 MLOAD SWAP1 POP SWAP2 SWAP1 POP JUMP JUMPDEST PUSH0 DUP3 DUP3 MSTORE PUSH1 0x20 DUP3 ADD SWAP1 POP SWAP3 SWAP2 POP POP JUMP JUMPDEST PUSH0 DUP2 SWAP1 POP PUSH1 0x20 DUP3 ADD SWAP1 POP SWAP2 SWAP1 POP JUMP JUMPDEST PUSH2 0x106F DUP2 PUSH2 0xD6D JUMP JUMPDEST DUP3 MSTORE POP POP JUMP JUMPDEST PUSH0 PUSH2 0x1080 DUP4 DUP4 PUSH2 0x1066 JUMP JUMPDEST PUSH1 0x20 DUP4 ADD SWAP1 POP SWAP3 SWAP2 POP POP JUMP JUMPDEST PUSH0 PUSH1 0x20 DUP3 ADD SWAP1 POP SWAP2 SWAP1 POP JUMP JUMPDEST PUSH0 PUSH2 0x10A2 DUP3 PUSH2 0x103D JUMP JUMPDEST PUSH2 0x10AC DUP2 DUP6 PUSH2 0x1047 JUMP JUMPDEST SWAP4 POP PUSH2 0x10B7 DUP4 PUSH2 0x1057 JUMP JUMPDEST DUP1 PUSH0 JUMPDEST DUP4 DUP2 LT ISZERO PUSH2 0x10E7 JUMPI DUP2 MLOAD PUSH2 0x10CE DUP9 DUP3 PUSH2 0x1075 JUMP JUMPDEST SWAP8 POP PUSH2 0x10D9 DUP4 PUSH2 0x108C JUMP JUMPDEST SWAP3 POP POP PUSH1 0x1 DUP2 ADD SWAP1 POP PUSH2 0x10BA JUMP JUMPDEST POP DUP6 SWAP4 POP POP POP POP SWAP3 SWAP2 POP POP JUMP JUMPDEST PUSH0 PUSH1 0x40 DUP3 ADD SWAP1 POP DUP2 DUP2 SUB PUSH0 DUP4 ADD MSTORE PUSH2 0x110C DUP2 DUP6 PUSH2 0x1098 JUMP JUMPDEST SWAP1 POP DUP2 DUP2 SUB PUSH1 0x20 DUP4 ADD MSTORE PUSH2 0x1120 DUP2 DUP5 PUSH2 0x1098 JUMP JUMPDEST SWAP1 POP SWAP4 SWAP3 POP POP POP JUMP JUMPDEST PUSH0 DUP2 MLOAD SWAP1 POP SWAP2 SWAP1 POP JUMP JUMPDEST PUSH0 DUP3 DUP3 MSTORE PUSH1 0x20 DUP3 ADD SWAP1 POP SWAP3 SWAP2 POP POP JUMP JUMPDEST PUSH0 PUSH2 0x114D DUP3 PUSH2 0x1129 JUMP JUMPDEST PUSH2 0x1157 DUP2 DUP6 PUSH2 0x1133 JUMP JUMPDEST SWAP4 POP PUSH2 0x1167 DUP2 DUP6 PUSH1 0x20 DUP7 ADD PUSH2 0xB6D JUMP JUMPDEST PUSH2 0x1170 DUP2 PUSH2 0xAB5 JUMP JUMPDEST DUP5 ADD SWAP2 POP POP SWAP3 SWAP2 POP POP JUMP JUMPDEST PUSH0 PUSH1 0xA0 DUP3 ADD SWAP1 POP PUSH2 0x118E PUSH0 DUP4 ADD DUP9 PUSH2 0xC60 JUMP JUMPDEST PUSH2 0x119B PUSH1 0x20 DUP4 ADD DUP8 PUSH2 0xC60 JUMP JUMPDEST PUSH2 0x11A8 PUSH1 0x40 DUP4 ADD DUP7 PUSH2 0xF64 JUMP JUMPDEST PUSH2 0x11B5 PUSH1 0x60 DUP4 ADD DUP6 PUSH2 0xF64 JUMP JUMPDEST DUP2 DUP2 SUB PUSH1 0x80 DUP4 ADD MSTORE PUSH2 0x11C7 DUP2 DUP5 PUSH2 0x1143 JUMP JUMPDEST SWAP1 POP SWAP7 SWAP6 POP POP POP POP POP POP JUMP JUMPDEST PUSH0 PUSH32 0xFFFFFFFF00000000000000000000000000000000000000000000000000000000 DUP3 AND SWAP1 POP SWAP2 SWAP1 POP JUMP JUMPDEST PUSH2 0x1207 DUP2 PUSH2 0x11D3 JUMP JUMPDEST DUP2 EQ PUSH2 0x1211 JUMPI PUSH0 DUP1 REVERT JUMPDEST POP JUMP JUMPDEST PUSH0 DUP2 MLOAD SWAP1 POP PUSH2 0x1222 DUP2 PUSH2 0x11FE JUMP JUMPDEST SWAP3 SWAP2 POP POP JUMP JUMPDEST PUSH0 PUSH1 0x20 DUP3 DUP5 SUB SLT ISZERO PUSH2 0x123D JUMPI PUSH2 0x123C PUSH2 0xAA5 JUMP JUMPDEST JUMPDEST PUSH0 PUSH2 0x124A DUP5 DUP3 DUP6 ADD PUSH2 0x1214 JUMP JUMPDEST SWAP2 POP POP SWAP3 SWAP2 POP POP JUMP JUMPDEST PUSH0 PUSH1 0xA0 DUP3 ADD SWAP1 POP PUSH2 0x1266 PUSH0 DUP4 ADD DUP9 PUSH2 0xC60 JUMP JUMPDEST PUSH2 0x1273 PUSH1 0x20 DUP4 ADD DUP8 PUSH2 0xC60 JUMP JUMPDEST DUP2 DUP2 SUB PUSH1 0x40 DUP4 ADD MSTORE PUSH2 0x1285 DUP2 DUP7 PUSH2 0x1098 JUMP JUMPDEST SWAP1 POP DUP2 DUP2 SUB PUSH1 0x60 DUP4 ADD MSTORE PUSH2 0x1299 DUP2 DUP6 PUSH2 0x1098 JUMP JUMPDEST SWAP1 POP DUP2 DUP2 SUB PUSH1 0x80 DUP4 ADD MSTORE PUSH2 0x12AD DUP2 DUP5 PUSH2 0x1143 JUMP JUMPDEST SWAP1 POP SWAP7 SWAP6 POP POP POP POP POP POP JUMP JUMPDEST PUSH2 0x30E0 DUP1 PUSH2 0x12C6 PUSH0 CODECOPY PUSH0 RETURN INVALID PUSH1 0x80 PUSH1 0x40 MSTORE PUSH1 0x4 CALLDATASIZE LT PUSH2 0x1C0 JUMPI PUSH0 CALLDATALOAD PUSH1 0xE0 SHR DUP1 PUSH4 0x731133E9 GT PUSH2 0xF6 JUMPI DUP1 PUSH4 0xA22CB465 GT PUSH2 0x94 JUMPI DUP1 PUSH4 0xEB8835AB GT PUSH2 0x63 JUMPI DUP1 PUSH4 0xEB8835AB EQ PUSH2 0x5F2 JUMPI DUP1 PUSH4 0xF242432A EQ PUSH2 0x62E JUMPI DUP1 PUSH4 0xF2FDE38B EQ PUSH2 0x656 JUMPI DUP1 PUSH4 0xF5298ACA EQ PUSH2 0x67E JUMPI PUSH2 0x1C0 JUMP JUMPDEST DUP1 PUSH4 0xA22CB465 EQ PUSH2 0x562 JUMPI DUP1 PUSH4 0xABC91E12 EQ PUSH2 0x58A JUMPI DUP1 PUSH4 0xD8A5C6FD EQ PUSH2 0x5A0 JUMPI DUP1 PUSH4 0xE985E9C5 EQ PUSH2 0x5B6 JUMPI PUSH2 0x1C0 JUMP JUMPDEST DUP1 PUSH4 0x8F0F80C4 GT PUSH2 0xD0 JUMPI DUP1 PUSH4 0x8F0F80C4 EQ PUSH2 0x4BE JUMPI DUP1 PUSH4 0x8F847C9C EQ PUSH2 0x4E6 JUMPI DUP1 PUSH4 0x93777FB3 EQ PUSH2 0x510 JUMPI DUP1 PUSH4 0x97F22EA9 EQ PUSH2 0x53A JUMPI PUSH2 0x1C0 JUMP JUMPDEST DUP1 PUSH4 0x731133E9 EQ PUSH2 0x450 JUMPI DUP1 PUSH4 0x815F7BBD EQ PUSH2 0x478 JUMPI DUP1 PUSH4 0x8DA5CB5B EQ PUSH2 0x494 JUMPI PUSH2 0x1C0 JUMP JUMPDEST DUP1 PUSH4 0x2EB2C2D6 GT PUSH2 0x163 JUMPI DUP1 PUSH4 0x4E1273F4 GT PUSH2 0x13D JUMPI DUP1 PUSH4 0x4E1273F4 EQ PUSH2 0x3AA JUMPI DUP1 PUSH4 0x7097A332 EQ PUSH2 0x3E6 JUMPI DUP1 PUSH4 0x70A0C464 EQ PUSH2 0x410 JUMPI DUP1 PUSH4 0x715018A6 EQ PUSH2 0x43A JUMPI PUSH2 0x1C0 JUMP JUMPDEST DUP1 PUSH4 0x2EB2C2D6 EQ PUSH2 0x31C JUMPI DUP1 PUSH4 0x2FF2E9DC EQ PUSH2 0x344 JUMPI DUP1 PUSH4 0x3AF32ABF EQ PUSH2 0x36E JUMPI PUSH2 0x1C0 JUMP JUMPDEST DUP1 PUSH4 0xE89341C GT PUSH2 0x19F JUMPI DUP1 PUSH4 0xE89341C EQ PUSH2 0x264 JUMPI DUP1 PUSH4 0x11BAFF63 EQ PUSH2 0x2A0 JUMPI DUP1 PUSH4 0x22C8061B EQ PUSH2 0x2C8 JUMPI DUP1 PUSH4 0x249B7C19 EQ PUSH2 0x2F2 JUMPI PUSH2 0x1C0 JUMP JUMPDEST DUP1 PUSH3 0xFDD58E EQ PUSH2 0x1C4 JUMPI DUP1 PUSH4 0x1F7E49A EQ PUSH2 0x200 JUMPI DUP1 PUSH4 0x1FFC9A7 EQ PUSH2 0x228 JUMPI JUMPDEST PUSH0 DUP1 REVERT JUMPDEST CALLVALUE DUP1 ISZERO PUSH2 0x1CF JUMPI PUSH0 DUP1 REVERT JUMPDEST POP PUSH2 0x1EA PUSH1 0x4 DUP1 CALLDATASIZE SUB DUP2 ADD SWAP1 PUSH2 0x1E5 SWAP2 SWAP1 PUSH2 0x2138 JUMP JUMPDEST PUSH2 0x6A6 JUMP JUMPDEST PUSH1 0x40 MLOAD PUSH2 0x1F7 SWAP2 SWAP1 PUSH2 0x2185 JUMP JUMPDEST PUSH1 0x40 MLOAD DUP1 SWAP2 SUB SWAP1 RETURN JUMPDEST CALLVALUE DUP1 ISZERO PUSH2 0x20B JUMPI PUSH0 DUP1 REVERT JUMPDEST POP PUSH2 0x226 PUSH1 0x4 DUP1 CALLDATASIZE SUB DUP2 ADD SWAP1 PUSH2 0x221 SWAP2 SWAP1 PUSH2 0x219E JUMP JUMPDEST PUSH2 0x6FB JUMP JUMPDEST STOP JUMPDEST CALLVALUE DUP1 ISZERO PUSH2 0x233 JUMPI PUSH0 DUP1 REVERT JUMPDEST POP PUSH2 0x24E PUSH1 0x4 DUP1 CALLDATASIZE SUB DUP2 ADD SWAP1 PUSH2 0x249 SWAP2 SWAP1 PUSH2 0x221E JUMP JUMPDEST PUSH2 0x75A JUMP JUMPDEST PUSH1 0x40 MLOAD PUSH2 0x25B SWAP2 SWAP1 PUSH2 0x2263 JUMP JUMPDEST PUSH1 0x40 MLOAD DUP1 SWAP2 SUB SWAP1 RETURN JUMPDEST CALLVALUE DUP1 ISZERO PUSH2 0x26F JUMPI PUSH0 DUP1 REVERT JUMPDEST POP PUSH2 0x28A PUSH1 0x4 DUP1 CALLDATASIZE SUB DUP2 ADD SWAP1 PUSH2 0x285 SWAP2 SWAP1 PUSH2 0x227C JUMP JUMPDEST PUSH2 0x83B JUMP JUMPDEST PUSH1 0x40 MLOAD PUSH2 0x297 SWAP2 SWAP1 PUSH2 0x2317 JUMP JUMPDEST PUSH1 0x40 MLOAD DUP1 SWAP2 SUB SWAP1 RETURN JUMPDEST CALLVALUE DUP1 ISZERO PUSH2 0x2AB JUMPI PUSH0 DUP1 REVERT JUMPDEST POP PUSH2 0x2C6 PUSH1 0x4 DUP1 CALLDATASIZE SUB DUP2 ADD SWAP1 PUSH2 0x2C1 SWAP2 SWAP1 PUSH2 0x2398 JUMP JUMPDEST PUSH2 0x8CD JUMP JUMPDEST STOP JUMPDEST CALLVALUE DUP1 ISZERO PUSH2 0x2D3 JUMPI PUSH0 DUP1 REVERT JUMPDEST POP PUSH2 0x2DC PUSH2 0x96F JUMP JUMPDEST PUSH1 0x40 MLOAD PUSH2 0x2E9 SWAP2 SWAP1 PUSH2 0x2263 JUMP JUMPDEST PUSH1 0x40 MLOAD DUP1 SWAP2 SUB SWAP1 RETURN JUMPDEST CALLVALUE DUP1 ISZERO PUSH2 0x2FD JUMPI PUSH0 DUP1 REVERT JUMPDEST POP PUSH2 0x306 PUSH2 0x981 JUMP JUMPDEST PUSH1 0x40 MLOAD PUSH2 0x313 SWAP2 SWAP1 PUSH2 0x2185 JUMP JUMPDEST PUSH1 0x40 MLOAD DUP1 SWAP2 SUB SWAP1 RETURN JUMPDEST CALLVALUE DUP1 ISZERO PUSH2 0x327 JUMPI PUSH0 DUP1 REVERT JUMPDEST POP PUSH2 0x342 PUSH1 0x4 DUP1 CALLDATASIZE SUB DUP2 ADD SWAP1 PUSH2 0x33D SWAP2 SWAP1 PUSH2 0x25CB JUMP JUMPDEST PUSH2 0x987 JUMP JUMPDEST STOP JUMPDEST CALLVALUE DUP1 ISZERO PUSH2 0x34F JUMPI PUSH0 DUP1 REVERT JUMPDEST POP PUSH2 0x358 PUSH2 0xA2E JUMP JUMPDEST PUSH1 0x40 MLOAD PUSH2 0x365 SWAP2 SWAP1 PUSH2 0x2185 JUMP JUMPDEST PUSH1 0x40 MLOAD DUP1 SWAP2 SUB SWAP1 RETURN JUMPDEST CALLVALUE DUP1 ISZERO PUSH2 0x379 JUMPI PUSH0 DUP1 REVERT JUMPDEST POP PUSH2 0x394 PUSH1 0x4 DUP1 CALLDATASIZE SUB DUP2 ADD SWAP1 PUSH2 0x38F SWAP2 SWAP1 PUSH2 0x219E JUMP JUMPDEST PUSH2 0xA34 JUMP JUMPDEST PUSH1 0x40 MLOAD PUSH2 0x3A1 SWAP2 SWAP1 PUSH2 0x2263 JUMP JUMPDEST PUSH1 0x40 MLOAD DUP1 SWAP2 SUB SWAP1 RETURN JUMPDEST CALLVALUE DUP1 ISZERO PUSH2 0x3B5 JUMPI PUSH0 DUP1 REVERT JUMPDEST POP PUSH2 0x3D0 PUSH1 0x4 DUP1 CALLDATASIZE SUB DUP2 ADD SWAP1 PUSH2 0x3CB SWAP2 SWAP1 PUSH2 0x2756 JUMP JUMPDEST PUSH2 0xA86 JUMP JUMPDEST PUSH1 0x40 MLOAD PUSH2 0x3DD SWAP2 SWAP1 PUSH2 0x2883 JUMP JUMPDEST PUSH1 0x40 MLOAD DUP1 SWAP2 SUB SWAP1 RETURN JUMPDEST CALLVALUE DUP1 ISZERO PUSH2 0x3F1 JUMPI PUSH0 DUP1 REVERT JUMPDEST POP PUSH2 0x3FA PUSH2 0xB8D JUMP JUMPDEST PUSH1 0x40 MLOAD PUSH2 0x407 SWAP2 SWAP1 PUSH2 0x2185 JUMP JUMPDEST PUSH1 0x40 MLOAD DUP1 SWAP2 SUB SWAP1 RETURN JUMPDEST CALLVALUE DUP1 ISZERO PUSH2 0x41B JUMPI PUSH0 DUP1 REVERT JUMPDEST POP PUSH2 0x424 PUSH2 0xB92 JUMP JUMPDEST PUSH1 0x40 MLOAD PUSH2 0x431 SWAP2 SWAP1 PUSH2 0x2185 JUMP JUMPDEST PUSH1 0x40 MLOAD DUP1 SWAP2 SUB SWAP1 RETURN JUMPDEST CALLVALUE DUP1 ISZERO PUSH2 0x445 JUMPI PUSH0 DUP1 REVERT JUMPDEST POP PUSH2 0x44E PUSH2 0xB98 JUMP JUMPDEST STOP JUMPDEST CALLVALUE DUP1 ISZERO PUSH2 0x45B JUMPI PUSH0 DUP1 REVERT JUMPDEST POP PUSH2 0x476 PUSH1 0x4 DUP1 CALLDATASIZE SUB DUP2 ADD SWAP1 PUSH2 0x471 SWAP2 SWAP1 PUSH2 0x28A3 JUMP JUMPDEST PUSH2 0xBAB JUMP JUMPDEST STOP JUMPDEST PUSH2 0x492 PUSH1 0x4 DUP1 CALLDATASIZE SUB DUP2 ADD SWAP1 PUSH2 0x48D SWAP2 SWAP1 PUSH2 0x227C JUMP JUMPDEST PUSH2 0xBED JUMP JUMPDEST STOP JUMPDEST CALLVALUE DUP1 ISZERO PUSH2 0x49F JUMPI PUSH0 DUP1 REVERT JUMPDEST POP PUSH2 0x4A8 PUSH2 0xD7C JUMP JUMPDEST PUSH1 0x40 MLOAD PUSH2 0x4B5 SWAP2 SWAP1 PUSH2 0x2932 JUMP JUMPDEST PUSH1 0x40 MLOAD DUP1 SWAP2 SUB SWAP1 RETURN JUMPDEST CALLVALUE DUP1 ISZERO PUSH2 0x4C9 JUMPI PUSH0 DUP1 REVERT JUMPDEST POP PUSH2 0x4E4 PUSH1 0x4 DUP1 CALLDATASIZE SUB DUP2 ADD SWAP1 PUSH2 0x4DF SWAP2 SWAP1 PUSH2 0x2398 JUMP JUMPDEST PUSH2 0xDA4 JUMP JUMPDEST STOP JUMPDEST CALLVALUE DUP1 ISZERO PUSH2 0x4F1 JUMPI PUSH0 DUP1 REVERT JUMPDEST POP PUSH2 0x4FA PUSH2 0xE47 JUMP JUMPDEST PUSH1 0x40 MLOAD PUSH2 0x507 SWAP2 SWAP1 PUSH2 0x2185 JUMP JUMPDEST PUSH1 0x40 MLOAD DUP1 SWAP2 SUB SWAP1 RETURN JUMPDEST CALLVALUE DUP1 ISZERO PUSH2 0x51B JUMPI PUSH0 DUP1 REVERT JUMPDEST POP PUSH2 0x524 PUSH2 0xE4C JUMP JUMPDEST PUSH1 0x40 MLOAD PUSH2 0x531 SWAP2 SWAP1 PUSH2 0x2185 JUMP JUMPDEST PUSH1 0x40 MLOAD DUP1 SWAP2 SUB SWAP1 RETURN JUMPDEST CALLVALUE DUP1 ISZERO PUSH2 0x545 JUMPI PUSH0 DUP1 REVERT JUMPDEST POP PUSH2 0x560 PUSH1 0x4 DUP1 CALLDATASIZE SUB DUP2 ADD SWAP1 PUSH2 0x55B SWAP2 SWAP1 PUSH2 0x219E JUMP JUMPDEST PUSH2 0xE52 JUMP JUMPDEST STOP JUMPDEST CALLVALUE DUP1 ISZERO PUSH2 0x56D JUMPI PUSH0 DUP1 REVERT JUMPDEST POP PUSH2 0x588 PUSH1 0x4 DUP1 CALLDATASIZE SUB DUP2 ADD SWAP1 PUSH2 0x583 SWAP2 SWAP1 PUSH2 0x2975 JUMP JUMPDEST PUSH2 0xEB2 JUMP JUMPDEST STOP JUMPDEST CALLVALUE DUP1 ISZERO PUSH2 0x595 JUMPI PUSH0 DUP1 REVERT JUMPDEST POP PUSH2 0x59E PUSH2 0xEC8 JUMP JUMPDEST STOP JUMPDEST CALLVALUE DUP1 ISZERO PUSH2 0x5AB JUMPI PUSH0 DUP1 REVERT JUMPDEST POP PUSH2 0x5B4 PUSH2 0xFDE JUMP JUMPDEST STOP JUMPDEST CALLVALUE DUP1 ISZERO PUSH2 0x5C1 JUMPI PUSH0 DUP1 REVERT JUMPDEST POP PUSH2 0x5DC PUSH1 0x4 DUP1 CALLDATASIZE SUB DUP2 ADD SWAP1 PUSH2 0x5D7 SWAP2 SWAP1 PUSH2 0x29B3 JUMP JUMPDEST PUSH2 0x1002 JUMP JUMPDEST PUSH1 0x40 MLOAD PUSH2 0x5E9 SWAP2 SWAP1 PUSH2 0x2263 JUMP JUMPDEST PUSH1 0x40 MLOAD DUP1 SWAP2 SUB SWAP1 RETURN JUMPDEST CALLVALUE DUP1 ISZERO PUSH2 0x5FD JUMPI PUSH0 DUP1 REVERT JUMPDEST POP PUSH2 0x618 PUSH1 0x4 DUP1 CALLDATASIZE SUB DUP2 ADD SWAP1 PUSH2 0x613 SWAP2 SWAP1 PUSH2 0x219E JUMP JUMPDEST PUSH2 0x1090 JUMP JUMPDEST PUSH1 0x40 MLOAD PUSH2 0x625 SWAP2 SWAP1 PUSH2 0x2263 JUMP JUMPDEST PUSH1 0x40 MLOAD DUP1 SWAP2 SUB SWAP1 RETURN JUMPDEST CALLVALUE DUP1 ISZERO PUSH2 0x639 JUMPI PUSH0 DUP1 REVERT JUMPDEST POP PUSH2 0x654 PUSH1 0x4 DUP1 CALLDATASIZE SUB DUP2 ADD SWAP1 PUSH2 0x64F SWAP2 SWAP1 PUSH2 0x29F1 JUMP JUMPDEST PUSH2 0x10AD JUMP JUMPDEST STOP JUMPDEST CALLVALUE DUP1 ISZERO PUSH2 0x661 JUMPI PUSH0 DUP1 REVERT JUMPDEST POP PUSH2 0x67C PUSH1 0x4 DUP1 CALLDATASIZE SUB DUP2 ADD SWAP1 PUSH2 0x677 SWAP2 SWAP1 PUSH2 0x219E JUMP JUMPDEST PUSH2 0x1154 JUMP JUMPDEST STOP JUMPDEST CALLVALUE DUP1 ISZERO PUSH2 0x689 JUMPI PUSH0 DUP1 REVERT JUMPDEST POP PUSH2 0x6A4 PUSH1 0x4 DUP1 CALLDATASIZE SUB DUP2 ADD SWAP1 PUSH2 0x69F SWAP2 SWAP1 PUSH2 0x2A84 JUMP JUMPDEST PUSH2 0x11D8 JUMP JUMPDEST STOP JUMPDEST PUSH0 DUP1 PUSH0 DUP4 DUP2 MSTORE PUSH1 0x20 ADD SWAP1 DUP2 MSTORE PUSH1 0x20 ADD PUSH0 KECCAK256 PUSH0 DUP5 PUSH20 0xFFFFFFFFFFFFFFFFFFFFFFFFFFFFFFFFFFFFFFFF AND PUSH20 0xFFFFFFFFFFFFFFFFFFFFFFFFFFFFFFFFFFFFFFFF AND DUP2 MSTORE PUSH1 0x20 ADD SWAP1 DUP2 MSTORE PUSH1 0x20 ADD PUSH0 KECCAK256 SLOAD SWAP1 POP SWAP3 SWAP2 POP POP JUMP JUMPDEST PUSH2 0x703 PUSH2 0x1256 JUMP JUMPDEST PUSH0 PUSH1 0x8 PUSH0 DUP4 PUSH20 0xFFFFFFFFFFFFFFFFFFFFFFFFFFFFFFFFFFFFFFFF AND PUSH20 0xFFFFFFFFFFFFFFFFFFFFFFFFFFFFFFFFFFFFFFFF AND DUP2 MSTORE PUSH1 0x20 ADD SWAP1 DUP2 MSTORE PUSH1 0x20 ADD PUSH0 KECCAK256 PUSH0 PUSH2 0x100 EXP DUP2 SLOAD DUP2 PUSH1 0xFF MUL NOT AND SWAP1 DUP4 ISZERO ISZERO MUL OR SWAP1 SSTORE POP POP JUMP JUMPDEST PUSH0 PUSH32 0xD9B67A2600000000000000000000000000000000000000000000000000000000 PUSH28 0xFFFFFFFFFFFFFFFFFFFFFFFFFFFFFFFFFFFFFFFFFFFFFFFFFFFFFFFF NOT AND DUP3 PUSH28 0xFFFFFFFFFFFFFFFFFFFFFFFFFFFFFFFFFFFFFFFFFFFFFFFFFFFFFFFF NOT AND EQ DUP1 PUSH2 0x824 JUMPI POP PUSH32 0xE89341C00000000000000000000000000000000000000000000000000000000 PUSH28 0xFFFFFFFFFFFFFFFFFFFFFFFFFFFFFFFFFFFFFFFFFFFFFFFFFFFFFFFF NOT AND DUP3 PUSH28 0xFFFFFFFFFFFFFFFFFFFFFFFFFFFFFFFFFFFFFFFFFFFFFFFFFFFFFFFF NOT AND EQ JUMPDEST DUP1 PUSH2 0x834 JUMPI POP PUSH2 0x833 DUP3 PUSH2 0x12DD JUMP JUMPDEST JUMPDEST SWAP1 POP SWAP2 SWAP1 POP JUMP JUMPDEST PUSH1 0x60 PUSH1 0x2 DUP1 SLOAD PUSH2 0x84A SWAP1 PUSH2 0x2B01 JUMP JUMPDEST DUP1 PUSH1 0x1F ADD PUSH1 0x20 DUP1 SWAP2 DIV MUL PUSH1 0x20 ADD PUSH1 0x40 MLOAD SWAP1 DUP2 ADD PUSH1 0x40 MSTORE DUP1 SWAP3 SWAP2 SWAP1 DUP2 DUP2 MSTORE PUSH1 0x20 ADD DUP3 DUP1 SLOAD PUSH2 0x876 SWAP1 PUSH2 0x2B01 JUMP JUMPDEST DUP1 ISZERO PUSH2 0x8C1 JUMPI DUP1 PUSH1 0x1F LT PUSH2 0x898 JUMPI PUSH2 0x100 DUP1 DUP4 SLOAD DIV MUL DUP4 MSTORE SWAP2 PUSH1 0x20 ADD SWAP2 PUSH2 0x8C1 JUMP JUMPDEST DUP3 ADD SWAP2 SWAP1 PUSH0 MSTORE PUSH1 0x20 PUSH0 KECCAK256 SWAP1 JUMPDEST DUP2 SLOAD DUP2 MSTORE SWAP1 PUSH1 0x1 ADD SWAP1 PUSH1 0x20 ADD DUP1 DUP4 GT PUSH2 0x8A4 JUMPI DUP3 SWAP1 SUB PUSH1 0x1F AND DUP3 ADD SWAP2 JUMPDEST POP POP POP POP POP SWAP1 POP SWAP2 SWAP1 POP JUMP JUMPDEST PUSH2 0x8D5 PUSH2 0x1256 JUMP JUMPDEST PUSH0 JUMPDEST DUP3 DUP3 SWAP1 POP DUP2 LT ISZERO PUSH2 0x96A JUMPI PUSH0 PUSH1 0x8 PUSH0 DUP6 DUP6 DUP6 DUP2 DUP2 LT PUSH2 0x8F9 JUMPI PUSH2 0x8F8 PUSH2 0x2B31 JUMP JUMPDEST JUMPDEST SWAP1 POP PUSH1 0x20 MUL ADD PUSH1 0x20 DUP2 ADD SWAP1 PUSH2 0x90E SWAP2 SWAP1 PUSH2 0x219E JUMP JUMPDEST PUSH20 0xFFFFFFFFFFFFFFFFFFFFFFFFFFFFFFFFFFFFFFFF AND PUSH20 0xFFFFFFFFFFFFFFFFFFFFFFFFFFFFFFFFFFFFFFFF AND DUP2 MSTORE PUSH1 0x20 ADD SWAP1 DUP2 MSTORE PUSH1 0x20 ADD PUSH0 KECCAK256 PUSH0 PUSH2 0x100 EXP DUP2 SLOAD DUP2 PUSH1 0xFF MUL NOT AND SWAP1 DUP4 ISZERO ISZERO MUL OR SWAP1 SSTORE POP DUP1 DUP1 PUSH1 0x1 ADD SWAP2 POP POP PUSH2 0x8D7 JUMP JUMPDEST POP POP POP JUMP JUMPDEST PUSH1 0x7 PUSH0 SWAP1 SLOAD SWAP1 PUSH2 0x100 EXP SWAP1 DIV PUSH1 0xFF AND DUP2 JUMP JUMPDEST PUSH1 0x4 SLOAD DUP2 JUMP JUMPDEST PUSH0 PUSH2 0x990 PUSH2 0x1346 JUMP JUMPDEST SWAP1 POP DUP1 PUSH20 0xFFFFFFFFFFFFFFFFFFFFFFFFFFFFFFFFFFFFFFFF AND DUP7 PUSH20 0xFFFFFFFFFFFFFFFFFFFFFFFFFFFFFFFFFFFFFFFF AND EQ ISZERO DUP1 ISZERO PUSH2 0x9D5 JUMPI POP PUSH2 0x9D3 DUP7 DUP3 PUSH2 0x1002 JUMP JUMPDEST ISZERO JUMPDEST ISZERO PUSH2 0xA19 JUMPI DUP1 DUP7 PUSH1 0x40 MLOAD PUSH32 0xE237D92200000000000000000000000000000000000000000000000000000000 DUP2 MSTORE PUSH1 0x4 ADD PUSH2 0xA10 SWAP3 SWAP2 SWAP1 PUSH2 0x2B5E JUMP JUMPDEST PUSH1 0x40 MLOAD DUP1 SWAP2 SUB SWAP1 REVERT JUMPDEST PUSH2 0xA26 DUP7 DUP7 DUP7 DUP7 DUP7 PUSH2 0x134D JUMP JUMPDEST POP POP POP POP POP POP JUMP JUMPDEST PUSH2 0x3E8 DUP2 JUMP JUMPDEST PUSH0 PUSH1 0x8 PUSH0 DUP4 PUSH20 0xFFFFFFFFFFFFFFFFFFFFFFFFFFFFFFFFFFFFFFFF AND PUSH20 0xFFFFFFFFFFFFFFFFFFFFFFFFFFFFFFFFFFFFFFFF AND DUP2 MSTORE PUSH1 0x20 ADD SWAP1 DUP2 MSTORE PUSH1 0x20 ADD PUSH0 KECCAK256 PUSH0 SWAP1 SLOAD SWAP1 PUSH2 0x100 EXP SWAP1 DIV PUSH1 0xFF AND SWAP1 POP SWAP2 SWAP1 POP JUMP JUMPDEST PUSH1 0x60 DUP2 MLOAD DUP4 MLOAD EQ PUSH2 0xAD2 JUMPI DUP2 MLOAD DUP4 MLOAD PUSH1 0x40 MLOAD PUSH32 0x5B05999100000000000000000000000000000000000000000000000000000000 DUP2 MSTORE PUSH1 0x4 ADD PUSH2 0xAC9 SWAP3 SWAP2 SWAP1 PUSH2 0x2B85 JUMP JUMPDEST PUSH1 0x40 MLOAD DUP1 SWAP2 SUB SWAP1 REVERT JUMPDEST PUSH0 DUP4 MLOAD PUSH8 0xFFFFFFFFFFFFFFFF DUP2 GT ISZERO PUSH2 0xAEE JUMPI PUSH2 0xAED PUSH2 0x23E3 JUMP JUMPDEST JUMPDEST PUSH1 0x40 MLOAD SWAP1 DUP1 DUP3 MSTORE DUP1 PUSH1 0x20 MUL PUSH1 0x20 ADD DUP3 ADD PUSH1 0x40 MSTORE DUP1 ISZERO PUSH2 0xB1C JUMPI DUP2 PUSH1 0x20 ADD PUSH1 0x20 DUP3 MUL DUP1 CALLDATASIZE DUP4 CALLDATACOPY DUP1 DUP3 ADD SWAP2 POP POP SWAP1 POP JUMPDEST POP SWAP1 POP PUSH0 JUMPDEST DUP5 MLOAD DUP2 LT ISZERO PUSH2 0xB82 JUMPI PUSH2 0xB58 PUSH2 0xB40 DUP3 DUP8 PUSH2 0x1441 SWAP1 SWAP2 SWAP1 PUSH4 0xFFFFFFFF AND JUMP JUMPDEST PUSH2 0xB53 DUP4 DUP8 PUSH2 0x1454 SWAP1 SWAP2 SWAP1 PUSH4 0xFFFFFFFF AND JUMP JUMPDEST PUSH2 0x6A6 JUMP JUMPDEST DUP3 DUP3 DUP2 MLOAD DUP2 LT PUSH2 0xB6B JUMPI PUSH2 0xB6A PUSH2 0x2B31 JUMP JUMPDEST JUMPDEST PUSH1 0x20 MUL PUSH1 0x20 ADD ADD DUP2 DUP2 MSTORE POP POP DUP1 PUSH1 0x1 ADD SWAP1 POP PUSH2 0xB21 JUMP JUMPDEST POP DUP1 SWAP2 POP POP SWAP3 SWAP2 POP POP JUMP JUMPDEST PUSH1 0x1 DUP2 JUMP JUMPDEST PUSH1 0x5 SLOAD DUP2 JUMP JUMPDEST PUSH2 0xBA0 PUSH2 0x1256 JUMP JUMPDEST PUSH2 0xBA9 PUSH0 PUSH2 0x1467 JUMP JUMPDEST JUMP JUMPDEST PUSH2 0xBB3 PUSH2 0x1256 JUMP JUMPDEST PUSH0 DUP2 MLOAD SUB PUSH2 0xBDA JUMPI PUSH2 0xBD5 DUP5 DUP5 DUP5 PUSH1 0x40 MLOAD DUP1 PUSH1 0x20 ADD PUSH1 0x40 MSTORE DUP1 PUSH0 DUP2 MSTORE POP PUSH2 0x152A JUMP JUMPDEST PUSH2 0xBE7 JUMP JUMPDEST PUSH2 0xBE6 DUP5 DUP5 DUP5 DUP5 PUSH2 0x152A JUMP JUMPDEST JUMPDEST POP POP POP POP JUMP JUMPDEST PUSH1 0x8 PUSH0 CALLER PUSH20 0xFFFFFFFFFFFFFFFFFFFFFFFFFFFFFFFFFFFFFFFF AND PUSH20 0xFFFFFFFFFFFFFFFFFFFFFFFFFFFFFFFFFFFFFFFF AND DUP2 MSTORE PUSH1 0x20 ADD SWAP1 DUP2 MSTORE PUSH1 0x20 ADD PUSH0 KECCAK256 PUSH0 SWAP1 SLOAD SWAP1 PUSH2 0x100 EXP SWAP1 DIV PUSH1 0xFF AND PUSH2 0xC76 JUMPI PUSH1 0x40 MLOAD PUSH32 0x8C379A000000000000000000000000000000000000000000000000000000000 DUP2 MSTORE PUSH1 0x4 ADD PUSH2 0xC6D SWAP1 PUSH2 0x2BF6 JUMP JUMPDEST PUSH1 0x40 MLOAD DUP1 SWAP2 SUB SWAP1 REVERT JUMPDEST PUSH1 0x4 SLOAD TIMESTAMP LT PUSH2 0xCBA JUMPI PUSH1 0x40 MLOAD PUSH32 0x8C379A000000000000000000000000000000000000000000000000000000000 DUP2 MSTORE PUSH1 0x4 ADD PUSH2 0xCB1 SWAP1 PUSH2 0x2C5E JUMP JUMPDEST PUSH1 0x40 MLOAD DUP1 SWAP2 SUB SWAP1 REVERT JUMPDEST PUSH0 PUSH1 0x6 SLOAD DUP3 PUSH2 0xCC9 SWAP2 SWAP1 PUSH2 0x2CA9 JUMP JUMPDEST SWAP1 POP DUP1 CALLVALUE EQ PUSH2 0xD0D JUMPI PUSH1 0x40 MLOAD PUSH32 0x8C379A000000000000000000000000000000000000000000000000000000000 DUP2 MSTORE PUSH1 0x4 ADD PUSH2 0xD04 SWAP1 PUSH2 0x2D34 JUMP JUMPDEST PUSH1 0x40 MLOAD DUP1 SWAP2 SUB SWAP1 REVERT JUMPDEST PUSH2 0xD28 CALLER PUSH1 0x2 DUP5 PUSH1 0x40 MLOAD DUP1 PUSH1 0x20 ADD PUSH1 0x40 MSTORE DUP1 PUSH0 DUP2 MSTORE POP PUSH2 0x152A JUMP JUMPDEST CALLER PUSH20 0xFFFFFFFFFFFFFFFFFFFFFFFFFFFFFFFFFFFFFFFF AND PUSH32 0x3DBEDE4722935D18D5AC26E7855E25E08CCCDC56C42D4A6242BF5B46641F139C DUP4 DUP4 PUSH1 0x40 MLOAD PUSH2 0xD70 SWAP3 SWAP2 SWAP1 PUSH2 0x2B85 JUMP JUMPDEST PUSH1 0x40 MLOAD DUP1 SWAP2 SUB SWAP1 LOG2 POP POP JUMP JUMPDEST PUSH0 PUSH1 0x3 PUSH0 SWAP1 SLOAD SWAP1 PUSH2 0x100 EXP SWAP1 DIV PUSH20 0xFFFFFFFFFFFFFFFFFFFFFFFFFFFFFFFFFFFFFFFF AND SWAP1 POP SWAP1 JUMP JUMPDEST PUSH2 0xDAC PUSH2 0x1256 JUMP JUMPDEST PUSH0 JUMPDEST DUP3 DUP3 SWAP1 POP DUP2 LT ISZERO PUSH2 0xE42 JUMPI PUSH1 0x1 PUSH1 0x8 PUSH0 DUP6 DUP6 DUP6 DUP2 DUP2 LT PUSH2 0xDD1 JUMPI PUSH2 0xDD0 PUSH2 0x2B31 JUMP JUMPDEST JUMPDEST SWAP1 POP PUSH1 0x20 MUL ADD PUSH1 0x20 DUP2 ADD SWAP1 PUSH2 0xDE6 SWAP2 SWAP1 PUSH2 0x219E JUMP JUMPDEST PUSH20 0xFFFFFFFFFFFFFFFFFFFFFFFFFFFFFFFFFFFFFFFF AND PUSH20 0xFFFFFFFFFFFFFFFFFFFFFFFFFFFFFFFFFFFFFFFF AND DUP2 MSTORE PUSH1 0x20 ADD SWAP1 DUP2 MSTORE PUSH1 0x20 ADD PUSH0 KECCAK256 PUSH0 PUSH2 0x100 EXP DUP2 SLOAD DUP2 PUSH1 0xFF MUL NOT AND SWAP1 DUP4 ISZERO ISZERO MUL OR SWAP1 SSTORE POP DUP1 DUP1 PUSH1 0x1 ADD SWAP2 POP POP PUSH2 0xDAE JUMP JUMPDEST POP POP POP JUMP JUMPDEST PUSH1 0x2 DUP2 JUMP JUMPDEST PUSH1 0x6 SLOAD DUP2 JUMP JUMPDEST PUSH2 0xE5A PUSH2 0x1256 JUMP JUMPDEST PUSH1 0x1 PUSH1 0x8 PUSH0 DUP4 PUSH20 0xFFFFFFFFFFFFFFFFFFFFFFFFFFFFFFFFFFFFFFFF AND PUSH20 0xFFFFFFFFFFFFFFFFFFFFFFFFFFFFFFFFFFFFFFFF AND DUP2 MSTORE PUSH1 0x20 ADD SWAP1 DUP2 MSTORE PUSH1 0x20 ADD PUSH0 KECCAK256 PUSH0 PUSH2 0x100 EXP DUP2 SLOAD DUP2 PUSH1 0xFF MUL NOT AND SWAP1 DUP4 ISZERO ISZERO MUL OR SWAP1 SSTORE POP POP JUMP JUMPDEST PUSH2 0xEC4 PUSH2 0xEBD PUSH2 0x1346 JUMP JUMPDEST DUP4 DUP4 PUSH2 0x15BF JUMP JUMPDEST POP POP JUMP JUMPDEST PUSH1 0x7 PUSH0 SWAP1 SLOAD SWAP1 PUSH2 0x100 EXP SWAP1 DIV PUSH1 0xFF AND PUSH2 0xF16 JUMPI PUSH1 0x40 MLOAD PUSH32 0x8C379A000000000000000000000000000000000000000000000000000000000 DUP2 MSTORE PUSH1 0x4 ADD PUSH2 0xF0D SWAP1 PUSH2 0x2D9C JUMP JUMPDEST PUSH1 0x40 MLOAD DUP1 SWAP2 SUB SWAP1 REVERT JUMPDEST PUSH0 PUSH2 0xF22 CALLER PUSH1 0x2 PUSH2 0x6A6 JUMP JUMPDEST SWAP1 POP PUSH0 DUP2 GT PUSH2 0xF66 JUMPI PUSH1 0x40 MLOAD PUSH32 0x8C379A000000000000000000000000000000000000000000000000000000000 DUP2 MSTORE PUSH1 0x4 ADD PUSH2 0xF5D SWAP1 PUSH2 0x2E04 JUMP JUMPDEST PUSH1 0x40 MLOAD DUP1 SWAP2 SUB SWAP1 REVERT JUMPDEST PUSH2 0xF72 CALLER PUSH1 0x2 DUP4 PUSH2 0x1728 JUMP JUMPDEST PUSH2 0xF8D CALLER PUSH1 0x1 DUP4 PUSH1 0x40 MLOAD DUP1 PUSH1 0x20 ADD PUSH1 0x40 MSTORE DUP1 PUSH0 DUP2 MSTORE POP PUSH2 0x152A JUMP JUMPDEST CALLER PUSH20 0xFFFFFFFFFFFFFFFFFFFFFFFFFFFFFFFFFFFFFFFF AND PUSH32 0x4E9C210C7BB5578299D11B938B47D2967A1331C52638E55B4C5AAFF17D1EFD9A DUP3 PUSH1 0x40 MLOAD PUSH2 0xFD3 SWAP2 SWAP1 PUSH2 0x2185 JUMP JUMPDEST PUSH1 0x40 MLOAD DUP1 SWAP2 SUB SWAP1 LOG2 POP JUMP JUMPDEST PUSH2 0xFE6 PUSH2 0x1256 JUMP JUMPDEST PUSH1 0x1 PUSH1 0x7 PUSH0 PUSH2 0x100 EXP DUP2 SLOAD DUP2 PUSH1 0xFF MUL NOT AND SWAP1 DUP4 ISZERO ISZERO MUL OR SWAP1 SSTORE POP JUMP JUMPDEST PUSH0 PUSH1 0x1 PUSH0 DUP5 PUSH20 0xFFFFFFFFFFFFFFFFFFFFFFFFFFFFFFFFFFFFFFFF AND PUSH20 0xFFFFFFFFFFFFFFFFFFFFFFFFFFFFFFFFFFFFFFFF AND DUP2 MSTORE PUSH1 0x20 ADD SWAP1 DUP2 MSTORE PUSH1 0x20 ADD PUSH0 KECCAK256 PUSH0 DUP4 PUSH20 0xFFFFFFFFFFFFFFFFFFFFFFFFFFFFFFFFFFFFFFFF AND PUSH20 0xFFFFFFFFFFFFFFFFFFFFFFFFFFFFFFFFFFFFFFFF AND DUP2 MSTORE PUSH1 0x20 ADD SWAP1 DUP2 MSTORE PUSH1 0x20 ADD PUSH0 KECCAK256 PUSH0 SWAP1 SLOAD SWAP1 PUSH2 0x100 EXP SWAP1 DIV PUSH1 0xFF AND SWAP1 POP SWAP3 SWAP2 POP POP JUMP JUMPDEST PUSH1 0x8 PUSH1 0x20 MSTORE DUP1 PUSH0 MSTORE PUSH1 0x40 PUSH0 KECCAK256 PUSH0 SWAP2 POP SLOAD SWAP1 PUSH2 0x100 EXP SWAP1 DIV PUSH1 0xFF AND DUP2 JUMP JUMPDEST PUSH0 PUSH2 0x10B6 PUSH2 0x1346 JUMP JUMPDEST SWAP1 POP DUP1 PUSH20 0xFFFFFFFFFFFFFFFFFFFFFFFFFFFFFFFFFFFFFFFF AND DUP7 PUSH20 0xFFFFFFFFFFFFFFFFFFFFFFFFFFFFFFFFFFFFFFFF AND EQ ISZERO DUP1 ISZERO PUSH2 0x10FB JUMPI POP PUSH2 0x10F9 DUP7 DUP3 PUSH2 0x1002 JUMP JUMPDEST ISZERO JUMPDEST ISZERO PUSH2 0x113F JUMPI DUP1 DUP7 PUSH1 0x40 MLOAD PUSH32 0xE237D92200000000000000000000000000000000000000000000000000000000 DUP2 MSTORE PUSH1 0x4 ADD PUSH2 0x1136 SWAP3 SWAP2 SWAP1 PUSH2 0x2B5E JUMP JUMPDEST PUSH1 0x40 MLOAD DUP1 SWAP2 SUB SWAP1 REVERT JUMPDEST PUSH2 0x114C DUP7 DUP7 DUP7 DUP7 DUP7 PUSH2 0x17CA JUMP JUMPDEST POP POP POP POP POP POP JUMP JUMPDEST PUSH2 0x115C PUSH2 0x1256 JUMP JUMPDEST PUSH0 PUSH20 0xFFFFFFFFFFFFFFFFFFFFFFFFFFFFFFFFFFFFFFFF AND DUP2 PUSH20 0xFFFFFFFFFFFFFFFFFFFFFFFFFFFFFFFFFFFFFFFF AND SUB PUSH2 0x11CC JUMPI PUSH0 PUSH1 0x40 MLOAD PUSH32 0x1E4FBDF700000000000000000000000000000000000000000000000000000000 DUP2 MSTORE PUSH1 0x4 ADD PUSH2 0x11C3 SWAP2 SWAP1 PUSH2 0x2932 JUMP JUMPDEST PUSH1 0x40 MLOAD DUP1 SWAP2 SUB SWAP1 REVERT JUMPDEST PUSH2 0x11D5 DUP2 PUSH2 0x1467 JUMP JUMPDEST POP JUMP JUMPDEST CALLER PUSH20 0xFFFFFFFFFFFFFFFFFFFFFFFFFFFFFFFFFFFFFFFF AND DUP4 PUSH20 0xFFFFFFFFFFFFFFFFFFFFFFFFFFFFFFFFFFFFFFFF AND EQ PUSH2 0x1246 JUMPI PUSH1 0x40 MLOAD PUSH32 0x8C379A000000000000000000000000000000000000000000000000000000000 DUP2 MSTORE PUSH1 0x4 ADD PUSH2 0x123D SWAP1 PUSH2 0x2E92 JUMP JUMPDEST PUSH1 0x40 MLOAD DUP1 SWAP2 SUB SWAP1 REVERT JUMPDEST PUSH2 0x1251 DUP4 DUP4 DUP4 PUSH2 0x1728 JUMP JUMPDEST POP POP POP JUMP JUMPDEST PUSH2 0x125E PUSH2 0x1346 JUMP JUMPDEST PUSH20 0xFFFFFFFFFFFFFFFFFFFFFFFFFFFFFFFFFFFFFFFF AND PUSH2 0x127C PUSH2 0xD7C JUMP JUMPDEST PUSH20 0xFFFFFFFFFFFFFFFFFFFFFFFFFFFFFFFFFFFFFFFF AND EQ PUSH2 0x12DB JUMPI PUSH2 0x129F PUSH2 0x1346 JUMP JUMPDEST PUSH1 0x40 MLOAD PUSH32 0x118CDAA700000000000000000000000000000000000000000000000000000000 DUP2 MSTORE PUSH1 0x4 ADD PUSH2 0x12D2 SWAP2 SWAP1 PUSH2 0x2932 JUMP JUMPDEST PUSH1 0x40 MLOAD DUP1 SWAP2 SUB SWAP1 REVERT JUMPDEST JUMP JUMPDEST PUSH0 PUSH32 0x1FFC9A700000000000000000000000000000000000000000000000000000000 PUSH28 0xFFFFFFFFFFFFFFFFFFFFFFFFFFFFFFFFFFFFFFFFFFFFFFFFFFFFFFFF NOT AND DUP3 PUSH28 0xFFFFFFFFFFFFFFFFFFFFFFFFFFFFFFFFFFFFFFFFFFFFFFFFFFFFFFFF NOT AND EQ SWAP1 POP SWAP2 SWAP1 POP JUMP JUMPDEST PUSH0 CALLER SWAP1 POP SWAP1 JUMP JUMPDEST PUSH0 PUSH20 0xFFFFFFFFFFFFFFFFFFFFFFFFFFFFFFFFFFFFFFFF AND DUP5 PUSH20 0xFFFFFFFFFFFFFFFFFFFFFFFFFFFFFFFFFFFFFFFF AND SUB PUSH2 0x13BD JUMPI PUSH0 PUSH1 0x40 MLOAD PUSH32 0x57F447CE00000000000000000000000000000000000000000000000000000000 DUP2 MSTORE PUSH1 0x4 ADD PUSH2 0x13B4 SWAP2 SWAP1 PUSH2 0x2932 JUMP JUMPDEST PUSH1 0x40 MLOAD DUP1 SWAP2 SUB SWAP1 REVERT JUMPDEST PUSH0 PUSH20 0xFFFFFFFFFFFFFFFFFFFFFFFFFFFFFFFFFFFFFFFF AND DUP6 PUSH20 0xFFFFFFFFFFFFFFFFFFFFFFFFFFFFFFFFFFFFFFFF AND SUB PUSH2 0x142D JUMPI PUSH0 PUSH1 0x40 MLOAD PUSH32 0x1A8351400000000000000000000000000000000000000000000000000000000 DUP2 MSTORE PUSH1 0x4 ADD PUSH2 0x1424 SWAP2 SWAP1 PUSH2 0x2932 JUMP JUMPDEST PUSH1 0x40 MLOAD DUP1 SWAP2 SUB SWAP1 REVERT JUMPDEST PUSH2 0x143A DUP6 DUP6 DUP6 DUP6 DUP6 PUSH2 0x18D0 JUMP JUMPDEST POP POP POP POP POP JUMP JUMPDEST PUSH0 PUSH1 0x20 DUP3 MUL PUSH1 0x20 DUP5 ADD ADD MLOAD SWAP1 POP SWAP3 SWAP2 POP POP JUMP JUMPDEST PUSH0 PUSH1 0x20 DUP3 MUL PUSH1 0x20 DUP5 ADD ADD MLOAD SWAP1 POP SWAP3 SWAP2 POP POP JUMP JUMPDEST PUSH0 PUSH1 0x3 PUSH0 SWAP1 SLOAD SWAP1 PUSH2 0x100 EXP SWAP1 DIV PUSH20 0xFFFFFFFFFFFFFFFFFFFFFFFFFFFFFFFFFFFFFFFF AND SWAP1 POP DUP2 PUSH1 0x3 PUSH0 PUSH2 0x100 EXP DUP2 SLOAD DUP2 PUSH20 0xFFFFFFFFFFFFFFFFFFFFFFFFFFFFFFFFFFFFFFFF MUL NOT AND SWAP1 DUP4 PUSH20 0xFFFFFFFFFFFFFFFFFFFFFFFFFFFFFFFFFFFFFFFF AND MUL OR SWAP1 SSTORE POP DUP2 PUSH20 0xFFFFFFFFFFFFFFFFFFFFFFFFFFFFFFFFFFFFFFFF AND DUP2 PUSH20 0xFFFFFFFFFFFFFFFFFFFFFFFFFFFFFFFFFFFFFFFF AND PUSH32 0x8BE0079C531659141344CD1FD0A4F28419497F9722A3DAAFE3B4186F6B6457E0 PUSH1 0x40 MLOAD PUSH1 0x40 MLOAD DUP1 SWAP2 SUB SWAP1 LOG3 POP POP JUMP JUMPDEST PUSH0 PUSH20 0xFFFFFFFFFFFFFFFFFFFFFFFFFFFFFFFFFFFFFFFF AND DUP5 PUSH20 0xFFFFFFFFFFFFFFFFFFFFFFFFFFFFFFFFFFFFFFFF AND SUB PUSH2 0x159A JUMPI PUSH0 PUSH1 0x40 MLOAD PUSH32 0x57F447CE00000000000000000000000000000000000000000000000000000000 DUP2 MSTORE PUSH1 0x4 ADD PUSH2 0x1591 SWAP2 SWAP1 PUSH2 0x2932 JUMP JUMPDEST PUSH1 0x40 MLOAD DUP1 SWAP2 SUB SWAP1 REVERT JUMPDEST PUSH0 DUP1 PUSH2 0x15A6 DUP6 DUP6 PUSH2 0x197C JUMP JUMPDEST SWAP2 POP SWAP2 POP PUSH2 0x15B7 PUSH0 DUP8 DUP5 DUP5 DUP8 PUSH2 0x18D0 JUMP JUMPDEST POP POP POP POP POP POP JUMP JUMPDEST PUSH0 PUSH20 0xFFFFFFFFFFFFFFFFFFFFFFFFFFFFFFFFFFFFFFFF AND DUP3 PUSH20 0xFFFFFFFFFFFFFFFFFFFFFFFFFFFFFFFFFFFFFFFF AND SUB PUSH2 0x162F JUMPI PUSH0 PUSH1 0x40 MLOAD PUSH32 0xCED3E10000000000000000000000000000000000000000000000000000000000 DUP2 MSTORE PUSH1 0x4 ADD PUSH2 0x1626 SWAP2 SWAP1 PUSH2 0x2932 JUMP JUMPDEST PUSH1 0x40 MLOAD DUP1 SWAP2 SUB SWAP1 REVERT JUMPDEST DUP1 PUSH1 0x1 PUSH0 DUP6 PUSH20 0xFFFFFFFFFFFFFFFFFFFFFFFFFFFFFFFFFFFFFFFF AND PUSH20 0xFFFFFFFFFFFFFFFFFFFFFFFFFFFFFFFFFFFFFFFF AND DUP2 MSTORE PUSH1 0x20 ADD SWAP1 DUP2 MSTORE PUSH1 0x20 ADD PUSH0 KECCAK256 PUSH0 DUP5 PUSH20 0xFFFFFFFFFFFFFFFFFFFFFFFFFFFFFFFFFFFFFFFF AND PUSH20 0xFFFFFFFFFFFFFFFFFFFFFFFFFFFFFFFFFFFFFFFF AND DUP2 MSTORE PUSH1 0x20 ADD SWAP1 DUP2 MSTORE PUSH1 0x20 ADD PUSH0 KECCAK256 PUSH0 PUSH2 0x100 EXP DUP2 SLOAD DUP2 PUSH1 0xFF MUL NOT AND SWAP1 DUP4 ISZERO ISZERO MUL OR SWAP1 SSTORE POP DUP2 PUSH20 0xFFFFFFFFFFFFFFFFFFFFFFFFFFFFFFFFFFFFFFFF AND DUP4 PUSH20 0xFFFFFFFFFFFFFFFFFFFFFFFFFFFFFFFFFFFFFFFF AND PUSH32 0x17307EAB39AB6107E8899845AD3D59BD9653F200F220920489CA2B5937696C31 DUP4 PUSH1 0x40 MLOAD PUSH2 0x171B SWAP2 SWAP1 PUSH2 0x2263 JUMP JUMPDEST PUSH1 0x40 MLOAD DUP1 SWAP2 SUB SWAP1 LOG3 POP POP POP JUMP JUMPDEST PUSH0 PUSH20 0xFFFFFFFFFFFFFFFFFFFFFFFFFFFFFFFFFFFFFFFF AND DUP4 PUSH20 0xFFFFFFFFFFFFFFFFFFFFFFFFFFFFFFFFFFFFFFFF AND SUB PUSH2 0x1798 JUMPI PUSH0 PUSH1 0x40 MLOAD PUSH32 0x1A8351400000000000000000000000000000000000000000000000000000000 DUP2 MSTORE PUSH1 0x4 ADD PUSH2 0x178F SWAP2 SWAP1 PUSH2 0x2932 JUMP JUMPDEST PUSH1 0x40 MLOAD DUP1 SWAP2 SUB SWAP1 REVERT JUMPDEST PUSH0 DUP1 PUSH2 0x17A4 DUP5 DUP5 PUSH2 0x197C JUMP JUMPDEST SWAP2 POP SWAP2 POP PUSH2 0x17C3 DUP6 PUSH0 DUP5 DUP5 PUSH1 0x40 MLOAD DUP1 PUSH1 0x20 ADD PUSH1 0x40 MSTORE DUP1 PUSH0 DUP2 MSTORE POP PUSH2 0x18D0 JUMP JUMPDEST POP POP POP POP POP JUMP JUMPDEST PUSH0 PUSH20 0xFFFFFFFFFFFFFFFFFFFFFFFFFFFFFFFFFFFFFFFF AND DUP5 PUSH20 0xFFFFFFFFFFFFFFFFFFFFFFFFFFFFFFFFFFFFFFFF AND SUB PUSH2 0x183A JUMPI PUSH0 PUSH1 0x40 MLOAD PUSH32 0x57F447CE00000000000000000000000000000000000000000000000000000000 DUP2 MSTORE PUSH1 0x4 ADD PUSH2 0x1831 SWAP2 SWAP1 PUSH2 0x2932 JUMP JUMPDEST PUSH1 0x40 MLOAD DUP1 SWAP2 SUB SWAP1 REVERT JUMPDEST PUSH0 PUSH20 0xFFFFFFFFFFFFFFFFFFFFFFFFFFFFFFFFFFFFFFFF AND DUP6 PUSH20 0xFFFFFFFFFFFFFFFFFFFFFFFFFFFFFFFFFFFFFFFF AND SUB PUSH2 0x18AA JUMPI PUSH0 PUSH1 0x40 MLOAD PUSH32 0x1A8351400000000000000000000000000000000000000000000000000000000 DUP2 MSTORE PUSH1 0x4 ADD PUSH2 0x18A1 SWAP2 SWAP1 PUSH2 0x2932 JUMP JUMPDEST PUSH1 0x40 MLOAD DUP1 SWAP2 SUB SWAP1 REVERT JUMPDEST PUSH0 DUP1 PUSH2 0x18B6 DUP6 DUP6 PUSH2 0x197C JUMP JUMPDEST SWAP2 POP SWAP2 POP PUSH2 0x18C7 DUP8 DUP8 DUP5 DUP5 DUP8 PUSH2 0x18D0 JUMP JUMPDEST POP POP POP POP POP POP POP JUMP JUMPDEST PUSH2 0x18DC DUP6 DUP6 DUP6 DUP6 PUSH2 0x19AC JUMP JUMPDEST PUSH0 PUSH20 0xFFFFFFFFFFFFFFFFFFFFFFFFFFFFFFFFFFFFFFFF AND DUP5 PUSH20 0xFFFFFFFFFFFFFFFFFFFFFFFFFFFFFFFFFFFFFFFF AND EQ PUSH2 0x1975 JUMPI PUSH0 PUSH2 0x1918 PUSH2 0x1346 JUMP JUMPDEST SWAP1 POP PUSH1 0x1 DUP5 MLOAD SUB PUSH2 0x1964 JUMPI PUSH0 PUSH2 0x1937 PUSH0 DUP7 PUSH2 0x1454 SWAP1 SWAP2 SWAP1 PUSH4 0xFFFFFFFF AND JUMP JUMPDEST SWAP1 POP PUSH0 PUSH2 0x194D PUSH0 DUP7 PUSH2 0x1454 SWAP1 SWAP2 SWAP1 PUSH4 0xFFFFFFFF AND JUMP JUMPDEST SWAP1 POP PUSH2 0x195D DUP4 DUP10 DUP10 DUP6 DUP6 DUP10 PUSH2 0x1D3C JUMP JUMPDEST POP POP PUSH2 0x1973 JUMP JUMPDEST PUSH2 0x1972 DUP2 DUP8 DUP8 DUP8 DUP8 DUP8 PUSH2 0x1EEB JUMP JUMPDEST JUMPDEST POP JUMPDEST POP POP POP POP POP JUMP JUMPDEST PUSH1 0x60 DUP1 PUSH1 0x40 MLOAD SWAP2 POP PUSH1 0x1 DUP3 MSTORE DUP4 PUSH1 0x20 DUP4 ADD MSTORE PUSH1 0x40 DUP3 ADD SWAP1 POP PUSH1 0x1 DUP2 MSTORE DUP3 PUSH1 0x20 DUP3 ADD MSTORE PUSH1 0x40 DUP2 ADD PUSH1 0x40 MSTORE SWAP3 POP SWAP3 SWAP1 POP JUMP JUMPDEST DUP1 MLOAD DUP3 MLOAD EQ PUSH2 0x19F6 JUMPI DUP2 MLOAD DUP2 MLOAD PUSH1 0x40 MLOAD PUSH32 0x5B05999100000000000000000000000000000000000000000000000000000000 DUP2 MSTORE PUSH1 0x4 ADD PUSH2 0x19ED SWAP3 SWAP2 SWAP1 PUSH2 0x2B85 JUMP JUMPDEST PUSH1 0x40 MLOAD DUP1 SWAP2 SUB SWAP1 REVERT JUMPDEST PUSH0 PUSH2 0x19FF PUSH2 0x1346 JUMP JUMPDEST SWAP1 POP PUSH0 JUMPDEST DUP4 MLOAD DUP2 LT ISZERO PUSH2 0x1BFB JUMPI PUSH0 PUSH2 0x1A20 DUP3 DUP7 PUSH2 0x1454 SWAP1 SWAP2 SWAP1 PUSH4 0xFFFFFFFF AND JUMP JUMPDEST SWAP1 POP PUSH0 PUSH2 0x1A36 DUP4 DUP7 PUSH2 0x1454 SWAP1 SWAP2 SWAP1 PUSH4 0xFFFFFFFF AND JUMP JUMPDEST SWAP1 POP PUSH0 PUSH20 0xFFFFFFFFFFFFFFFFFFFFFFFFFFFFFFFFFFFFFFFF AND DUP9 PUSH20 0xFFFFFFFFFFFFFFFFFFFFFFFFFFFFFFFFFFFFFFFF AND EQ PUSH2 0x1B59 JUMPI PUSH0 DUP1 PUSH0 DUP5 DUP2 MSTORE PUSH1 0x20 ADD SWAP1 DUP2 MSTORE PUSH1 0x20 ADD PUSH0 KECCAK256 PUSH0 DUP11 PUSH20 0xFFFFFFFFFFFFFFFFFFFFFFFFFFFFFFFFFFFFFFFF AND PUSH20 0xFFFFFFFFFFFFFFFFFFFFFFFFFFFFFFFFFFFFFFFF AND DUP2 MSTORE PUSH1 0x20 ADD SWAP1 DUP2 MSTORE PUSH1 0x20 ADD PUSH0 KECCAK256 SLOAD SWAP1 POP DUP2 DUP2 LT ISZERO PUSH2 0x1B05 JUMPI DUP9 DUP2 DUP4 DUP6 PUSH1 0x40 MLOAD PUSH32 0x3DEE4C500000000000000000000000000000000000000000000000000000000 DUP2 MSTORE PUSH1 0x4 ADD PUSH2 0x1AFC SWAP5 SWAP4 SWAP3 SWAP2 SWAP1 PUSH2 0x2EB0 JUMP JUMPDEST PUSH1 0x40 MLOAD DUP1 SWAP2 SUB SWAP1 REVERT JUMPDEST DUP2 DUP2 SUB PUSH0 DUP1 DUP6 DUP2 MSTORE PUSH1 0x20 ADD SWAP1 DUP2 MSTORE PUSH1 0x20 ADD PUSH0 KECCAK256 PUSH0 DUP12 PUSH20 0xFFFFFFFFFFFFFFFFFFFFFFFFFFFFFFFFFFFFFFFF AND PUSH20 0xFFFFFFFFFFFFFFFFFFFFFFFFFFFFFFFFFFFFFFFF AND DUP2 MSTORE PUSH1 0x20 ADD SWAP1 DUP2 MSTORE PUSH1 0x20 ADD PUSH0 KECCAK256 DUP2 SWAP1 SSTORE POP POP JUMPDEST PUSH0 PUSH20 0xFFFFFFFFFFFFFFFFFFFFFFFFFFFFFFFFFFFFFFFF AND DUP8 PUSH20 0xFFFFFFFFFFFFFFFFFFFFFFFFFFFFFFFFFFFFFFFF AND EQ PUSH2 0x1BEE JUMPI DUP1 PUSH0 DUP1 DUP5 DUP2 MSTORE PUSH1 0x20 ADD SWAP1 DUP2 MSTORE PUSH1 0x20 ADD PUSH0 KECCAK256 PUSH0 DUP10 PUSH20 0xFFFFFFFFFFFFFFFFFFFFFFFFFFFFFFFFFFFFFFFF AND PUSH20 0xFFFFFFFFFFFFFFFFFFFFFFFFFFFFFFFFFFFFFFFF AND DUP2 MSTORE PUSH1 0x20 ADD SWAP1 DUP2 MSTORE PUSH1 0x20 ADD PUSH0 KECCAK256 PUSH0 DUP3 DUP3 SLOAD PUSH2 0x1BE6 SWAP2 SWAP1 PUSH2 0x2EF3 JUMP JUMPDEST SWAP3 POP POP DUP2 SWAP1 SSTORE POP JUMPDEST POP POP DUP1 PUSH1 0x1 ADD SWAP1 POP PUSH2 0x1A03 JUMP JUMPDEST POP PUSH1 0x1 DUP4 MLOAD SUB PUSH2 0x1CB6 JUMPI PUSH0 PUSH2 0x1C19 PUSH0 DUP6 PUSH2 0x1454 SWAP1 SWAP2 SWAP1 PUSH4 0xFFFFFFFF AND JUMP JUMPDEST SWAP1 POP PUSH0 PUSH2 0x1C2F PUSH0 DUP6 PUSH2 0x1454 SWAP1 SWAP2 SWAP1 PUSH4 0xFFFFFFFF AND JUMP JUMPDEST SWAP1 POP DUP6 PUSH20 0xFFFFFFFFFFFFFFFFFFFFFFFFFFFFFFFFFFFFFFFF AND DUP8 PUSH20 0xFFFFFFFFFFFFFFFFFFFFFFFFFFFFFFFFFFFFFFFF AND DUP5 PUSH20 0xFFFFFFFFFFFFFFFFFFFFFFFFFFFFFFFFFFFFFFFF AND PUSH32 0xC3D58168C5AE7397731D063D5BBF3D657854427343F4C083240F7AACAA2D0F62 DUP6 DUP6 PUSH1 0x40 MLOAD PUSH2 0x1CA7 SWAP3 SWAP2 SWAP1 PUSH2 0x2B85 JUMP JUMPDEST PUSH1 0x40 MLOAD DUP1 SWAP2 SUB SWAP1 LOG4 POP POP PUSH2 0x1D35 JUMP JUMPDEST DUP4 PUSH20 0xFFFFFFFFFFFFFFFFFFFFFFFFFFFFFFFFFFFFFFFF AND DUP6 PUSH20 0xFFFFFFFFFFFFFFFFFFFFFFFFFFFFFFFFFFFFFFFF AND DUP3 PUSH20 0xFFFFFFFFFFFFFFFFFFFFFFFFFFFFFFFFFFFFFFFF AND PUSH32 0x4A39DC06D4C0DBC64B70AF90FD698A233A518AA5D07E595D983B8C0526C8F7FB DUP7 DUP7 PUSH1 0x40 MLOAD PUSH2 0x1D2C SWAP3 SWAP2 SWAP1 PUSH2 0x2F26 JUMP JUMPDEST PUSH1 0x40 MLOAD DUP1 SWAP2 SUB SWAP1 LOG4 JUMPDEST POP POP POP POP POP JUMP JUMPDEST PUSH0 DUP5 PUSH20 0xFFFFFFFFFFFFFFFFFFFFFFFFFFFFFFFFFFFFFFFF AND EXTCODESIZE GT ISZERO PUSH2 0x1EE3 JUMPI DUP4 PUSH20 0xFFFFFFFFFFFFFFFFFFFFFFFFFFFFFFFFFFFFFFFF AND PUSH4 0xF23A6E61 DUP8 DUP8 DUP7 DUP7 DUP7 PUSH1 0x40 MLOAD DUP7 PUSH4 0xFFFFFFFF AND PUSH1 0xE0 SHL DUP2 MSTORE PUSH1 0x4 ADD PUSH2 0x1D9C SWAP6 SWAP5 SWAP4 SWAP3 SWAP2 SWAP1 PUSH2 0x2FAD JUMP JUMPDEST PUSH1 0x20 PUSH1 0x40 MLOAD DUP1 DUP4 SUB DUP2 PUSH0 DUP8 GAS CALL SWAP3 POP POP POP DUP1 ISZERO PUSH2 0x1DD7 JUMPI POP PUSH1 0x40 MLOAD RETURNDATASIZE PUSH1 0x1F NOT PUSH1 0x1F DUP3 ADD AND DUP3 ADD DUP1 PUSH1 0x40 MSTORE POP DUP2 ADD SWAP1 PUSH2 0x1DD4 SWAP2 SWAP1 PUSH2 0x3019 JUMP JUMPDEST PUSH1 0x1 JUMPDEST PUSH2 0x1E58 JUMPI RETURNDATASIZE DUP1 PUSH0 DUP2 EQ PUSH2 0x1E05 JUMPI PUSH1 0x40 MLOAD SWAP2 POP PUSH1 0x1F NOT PUSH1 0x3F RETURNDATASIZE ADD AND DUP3 ADD PUSH1 0x40 MSTORE RETURNDATASIZE DUP3 MSTORE RETURNDATASIZE PUSH0 PUSH1 0x20 DUP5 ADD RETURNDATACOPY PUSH2 0x1E0A JUMP JUMPDEST PUSH1 0x60 SWAP2 POP JUMPDEST POP PUSH0 DUP2 MLOAD SUB PUSH2 0x1E50 JUMPI DUP5 PUSH1 0x40 MLOAD PUSH32 0x57F447CE00000000000000000000000000000000000000000000000000000000 DUP2 MSTORE PUSH1 0x4 ADD PUSH2 0x1E47 SWAP2 SWAP1 PUSH2 0x2932 JUMP JUMPDEST PUSH1 0x40 MLOAD DUP1 SWAP2 SUB SWAP1 REVERT JUMPDEST DUP1 MLOAD DUP2 PUSH1 0x20 ADD REVERT JUMPDEST PUSH4 0xF23A6E61 PUSH1 0xE0 SHL PUSH28 0xFFFFFFFFFFFFFFFFFFFFFFFFFFFFFFFFFFFFFFFFFFFFFFFFFFFFFFFF NOT AND DUP2 PUSH28 0xFFFFFFFFFFFFFFFFFFFFFFFFFFFFFFFFFFFFFFFFFFFFFFFFFFFFFFFF NOT AND EQ PUSH2 0x1EE1 JUMPI DUP5 PUSH1 0x40 MLOAD PUSH32 0x57F447CE00000000000000000000000000000000000000000000000000000000 DUP2 MSTORE PUSH1 0x4 ADD PUSH2 0x1ED8 SWAP2 SWAP1 PUSH2 0x2932 JUMP JUMPDEST PUSH1 0x40 MLOAD DUP1 SWAP2 SUB SWAP1 REVERT JUMPDEST POP JUMPDEST POP POP POP POP POP POP JUMP JUMPDEST PUSH0 DUP5 PUSH20 0xFFFFFFFFFFFFFFFFFFFFFFFFFFFFFFFFFFFFFFFF AND EXTCODESIZE GT ISZERO PUSH2 0x2092 JUMPI DUP4 PUSH20 0xFFFFFFFFFFFFFFFFFFFFFFFFFFFFFFFFFFFFFFFF AND PUSH4 0xBC197C81 DUP8 DUP8 DUP7 DUP7 DUP7 PUSH1 0x40 MLOAD DUP7 PUSH4 0xFFFFFFFF AND PUSH1 0xE0 SHL DUP2 MSTORE PUSH1 0x4 ADD PUSH2 0x1F4B SWAP6 SWAP5 SWAP4 SWAP3 SWAP2 SWAP1 PUSH2 0x3044 JUMP JUMPDEST PUSH1 0x20 PUSH1 0x40 MLOAD DUP1 DUP4 SUB DUP2 PUSH0 DUP8 GAS CALL SWAP3 POP POP POP DUP1 ISZERO PUSH2 0x1F86 JUMPI POP PUSH1 0x40 MLOAD RETURNDATASIZE PUSH1 0x1F NOT PUSH1 0x1F DUP3 ADD AND DUP3 ADD DUP1 PUSH1 0x40 MSTORE POP DUP2 ADD SWAP1 PUSH2 0x1F83 SWAP2 SWAP1 PUSH2 0x3019 JUMP JUMPDEST PUSH1 0x1 JUMPDEST PUSH2 0x2007 JUMPI RETURNDATASIZE DUP1 PUSH0 DUP2 EQ PUSH2 0x1FB4 JUMPI PUSH1 0x40 MLOAD SWAP2 POP PUSH1 0x1F NOT PUSH1 0x3F RETURNDATASIZE ADD AND DUP3 ADD PUSH1 0x40 MSTORE RETURNDATASIZE DUP3 MSTORE RETURNDATASIZE PUSH0 PUSH1 0x20 DUP5 ADD RETURNDATACOPY PUSH2 0x1FB9 JUMP JUMPDEST PUSH1 0x60 SWAP2 POP JUMPDEST POP PUSH0 DUP2 MLOAD SUB PUSH2 0x1FFF JUMPI DUP5 PUSH1 0x40 MLOAD PUSH32 0x57F447CE00000000000000000000000000000000000000000000000000000000 DUP2 MSTORE PUSH1 0x4 ADD PUSH2 0x1FF6 SWAP2 SWAP1 PUSH2 0x2932 JUMP JUMPDEST PUSH1 0x40 MLOAD DUP1 SWAP2 SUB SWAP1 REVERT JUMPDEST DUP1 MLOAD DUP2 PUSH1 0x20 ADD REVERT JUMPDEST PUSH4 0xBC197C81 PUSH1 0xE0 SHL PUSH28 0xFFFFFFFFFFFFFFFFFFFFFFFFFFFFFFFFFFFFFFFFFFFFFFFFFFFFFFFF NOT AND DUP2 PUSH28 0xFFFFFFFFFFFFFFFFFFFFFFFFFFFFFFFFFFFFFFFFFFFFFFFFFFFFFFFF NOT AND EQ PUSH2 0x2090 JUMPI DUP5 PUSH1 0x40 MLOAD PUSH32 0x57F447CE00000000000000000000000000000000000000000000000000000000 DUP2 MSTORE PUSH1 0x4 ADD PUSH2 0x2087 SWAP2 SWAP1 PUSH2 0x2932 JUMP JUMPDEST PUSH1 0x40 MLOAD DUP1 SWAP2 SUB SWAP1 REVERT JUMPDEST POP JUMPDEST POP POP POP POP POP POP JUMP JUMPDEST PUSH0 PUSH1 0x40 MLOAD SWAP1 POP SWAP1 JUMP JUMPDEST PUSH0 DUP1 REVERT JUMPDEST PUSH0 DUP1 REVERT JUMPDEST PUSH0 PUSH20 0xFFFFFFFFFFFFFFFFFFFFFFFFFFFFFFFFFFFFFFFF DUP3 AND SWAP1 POP SWAP2 SWAP1 POP JUMP JUMPDEST PUSH0 PUSH2 0x20D4 DUP3 PUSH2 0x20AB JUMP JUMPDEST SWAP1 POP SWAP2 SWAP1 POP JUMP JUMPDEST PUSH2 0x20E4 DUP2 PUSH2 0x20CA JUMP JUMPDEST DUP2 EQ PUSH2 0x20EE JUMPI PUSH0 DUP1 REVERT JUMPDEST POP JUMP JUMPDEST PUSH0 DUP2 CALLDATALOAD SWAP1 POP PUSH2 0x20FF DUP2 PUSH2 0x20DB JUMP JUMPDEST SWAP3 SWAP2 POP POP JUMP JUMPDEST PUSH0 DUP2 SWAP1 POP SWAP2 SWAP1 POP JUMP JUMPDEST PUSH2 0x2117 DUP2 PUSH2 0x2105 JUMP JUMPDEST DUP2 EQ PUSH2 0x2121 JUMPI PUSH0 DUP1 REVERT JUMPDEST POP JUMP JUMPDEST PUSH0 DUP2 CALLDATALOAD SWAP1 POP PUSH2 0x2132 DUP2 PUSH2 0x210E JUMP JUMPDEST SWAP3 SWAP2 POP POP JUMP JUMPDEST PUSH0 DUP1 PUSH1 0x40 DUP4 DUP6 SUB SLT ISZERO PUSH2 0x214E JUMPI PUSH2 0x214D PUSH2 0x20A3 JUMP JUMPDEST JUMPDEST PUSH0 PUSH2 0x215B DUP6 DUP3 DUP7 ADD PUSH2 0x20F1 JUMP JUMPDEST SWAP3 POP POP PUSH1 0x20 PUSH2 0x216C DUP6 DUP3 DUP7 ADD PUSH2 0x2124 JUMP JUMPDEST SWAP2 POP POP SWAP3 POP SWAP3 SWAP1 POP JUMP JUMPDEST PUSH2 0x217F DUP2 PUSH2 0x2105 JUMP JUMPDEST DUP3 MSTORE POP POP JUMP JUMPDEST PUSH0 PUSH1 0x20 DUP3 ADD SWAP1 POP PUSH2 0x2198 PUSH0 DUP4 ADD DUP5 PUSH2 0x2176 JUMP JUMPDEST SWAP3 SWAP2 POP POP JUMP JUMPDEST PUSH0 PUSH1 0x20 DUP3 DUP5 SUB SLT ISZERO PUSH2 0x21B3 JUMPI PUSH2 0x21B2 PUSH2 0x20A3 JUMP JUMPDEST JUMPDEST PUSH0 PUSH2 0x21C0 DUP5 DUP3 DUP6 ADD PUSH2 0x20F1 JUMP JUMPDEST SWAP2 POP POP SWAP3 SWAP2 POP POP JUMP JUMPDEST PUSH0 PUSH32 0xFFFFFFFF00000000000000000000000000000000000000000000000000000000 DUP3 AND SWAP1 POP SWAP2 SWAP1 POP JUMP JUMPDEST PUSH2 0x21FD DUP2 PUSH2 0x21C9 JUMP JUMPDEST DUP2 EQ PUSH2 0x2207 JUMPI PUSH0 DUP1 REVERT JUMPDEST POP JUMP JUMPDEST PUSH0 DUP2 CALLDATALOAD SWAP1 POP PUSH2 0x2218 DUP2 PUSH2 0x21F4 JUMP JUMPDEST SWAP3 SWAP2 POP POP JUMP JUMPDEST PUSH0 PUSH1 0x20 DUP3 DUP5 SUB SLT ISZERO PUSH2 0x2233 JUMPI PUSH2 0x2232 PUSH2 0x20A3 JUMP JUMPDEST JUMPDEST PUSH0 PUSH2 0x2240 DUP5 DUP3 DUP6 ADD PUSH2 0x220A JUMP JUMPDEST SWAP2 POP POP SWAP3 SWAP2 POP POP JUMP JUMPDEST PUSH0 DUP2 ISZERO ISZERO SWAP1 POP SWAP2 SWAP1 POP JUMP JUMPDEST PUSH2 0x225D DUP2 PUSH2 0x2249 JUMP JUMPDEST DUP3 MSTORE POP POP JUMP JUMPDEST PUSH0 PUSH1 0x20 DUP3 ADD SWAP1 POP PUSH2 0x2276 PUSH0 DUP4 ADD DUP5 PUSH2 0x2254 JUMP JUMPDEST SWAP3 SWAP2 POP POP JUMP JUMPDEST PUSH0 PUSH1 0x20 DUP3 DUP5 SUB SLT ISZERO PUSH2 0x2291 JUMPI PUSH2 0x2290 PUSH2 0x20A3 JUMP JUMPDEST JUMPDEST PUSH0 PUSH2 0x229E DUP5 DUP3 DUP6 ADD PUSH2 0x2124 JUMP JUMPDEST SWAP2 POP POP SWAP3 SWAP2 POP POP JUMP JUMPDEST PUSH0 DUP2 MLOAD SWAP1 POP SWAP2 SWAP1 POP JUMP JUMPDEST PUSH0 DUP3 DUP3 MSTORE PUSH1 0x20 DUP3 ADD SWAP1 POP SWAP3 SWAP2 POP POP JUMP JUMPDEST DUP3 DUP2 DUP4 MCOPY PUSH0 DUP4 DUP4 ADD MSTORE POP POP POP JUMP JUMPDEST PUSH0 PUSH1 0x1F NOT PUSH1 0x1F DUP4 ADD AND SWAP1 POP SWAP2 SWAP1 POP JUMP JUMPDEST PUSH0 PUSH2 0x22E9 DUP3 PUSH2 0x22A7 JUMP JUMPDEST PUSH2 0x22F3 DUP2 DUP6 PUSH2 0x22B1 JUMP JUMPDEST SWAP4 POP PUSH2 0x2303 DUP2 DUP6 PUSH1 0x20 DUP7 ADD PUSH2 0x22C1 JUMP JUMPDEST PUSH2 0x230C DUP2 PUSH2 0x22CF JUMP JUMPDEST DUP5 ADD SWAP2 POP POP SWAP3 SWAP2 POP POP JUMP JUMPDEST PUSH0 PUSH1 0x20 DUP3 ADD SWAP1 POP DUP2 DUP2 SUB PUSH0 DUP4 ADD MSTORE PUSH2 0x232F DUP2 DUP5 PUSH2 0x22DF JUMP JUMPDEST SWAP1 POP SWAP3 SWAP2 POP POP JUMP JUMPDEST PUSH0 DUP1 REVERT JUMPDEST PUSH0 DUP1 REVERT JUMPDEST PUSH0 DUP1 REVERT JUMPDEST PUSH0 DUP1 DUP4 PUSH1 0x1F DUP5 ADD SLT PUSH2 0x2358 JUMPI PUSH2 0x2357 PUSH2 0x2337 JUMP JUMPDEST JUMPDEST DUP3 CALLDATALOAD SWAP1 POP PUSH8 0xFFFFFFFFFFFFFFFF DUP2 GT ISZERO PUSH2 0x2375 JUMPI PUSH2 0x2374 PUSH2 0x233B JUMP JUMPDEST JUMPDEST PUSH1 0x20 DUP4 ADD SWAP2 POP DUP4 PUSH1 0x20 DUP3 MUL DUP4 ADD GT ISZERO PUSH2 0x2391 JUMPI PUSH2 0x2390 PUSH2 0x233F JUMP JUMPDEST JUMPDEST SWAP3 POP SWAP3 SWAP1 POP JUMP JUMPDEST PUSH0 DUP1 PUSH1 0x20 DUP4 DUP6 SUB SLT ISZERO PUSH2 0x23AE JUMPI PUSH2 0x23AD PUSH2 0x20A3 JUMP JUMPDEST JUMPDEST PUSH0 DUP4 ADD CALLDATALOAD PUSH8 0xFFFFFFFFFFFFFFFF DUP2 GT ISZERO PUSH2 0x23CB JUMPI PUSH2 0x23CA PUSH2 0x20A7 JUMP JUMPDEST JUMPDEST PUSH2 0x23D7 DUP6 DUP3 DUP7 ADD PUSH2 0x2343 JUMP JUMPDEST SWAP3 POP SWAP3 POP POP SWAP3 POP SWAP3 SWAP1 POP JUMP JUMPDEST PUSH32 0x4E487B7100000000000000000000000000000000000000000000000000000000 PUSH0 MSTORE PUSH1 0x41 PUSH1 0x4 MSTORE PUSH1 0x24 PUSH0 REVERT JUMPDEST PUSH2 0x2419 DUP3 PUSH2 0x22CF JUMP JUMPDEST DUP2 ADD DUP2 DUP2 LT PUSH8 0xFFFFFFFFFFFFFFFF DUP3 GT OR ISZERO PUSH2 0x2438 JUMPI PUSH2 0x2437 PUSH2 0x23E3 JUMP JUMPDEST JUMPDEST DUP1 PUSH1 0x40 MSTORE POP POP POP JUMP JUMPDEST PUSH0 PUSH2 0x244A PUSH2 0x209A JUMP JUMPDEST SWAP1 POP PUSH2 0x2456 DUP3 DUP3 PUSH2 0x2410 JUMP JUMPDEST SWAP2 SWAP1 POP JUMP JUMPDEST PUSH0 PUSH8 0xFFFFFFFFFFFFFFFF DUP3 GT ISZERO PUSH2 0x2475 JUMPI PUSH2 0x2474 PUSH2 0x23E3 JUMP JUMPDEST JUMPDEST PUSH1 0x20 DUP3 MUL SWAP1 POP PUSH1 0x20 DUP2 ADD SWAP1 POP SWAP2 SWAP1 POP JUMP JUMPDEST PUSH0 PUSH2 0x2498 PUSH2 0x2493 DUP5 PUSH2 0x245B JUMP JUMPDEST PUSH2 0x2441 JUMP JUMPDEST SWAP1 POP DUP1 DUP4 DUP3 MSTORE PUSH1 0x20 DUP3 ADD SWAP1 POP PUSH1 0x20 DUP5 MUL DUP4 ADD DUP6 DUP2 GT ISZERO PUSH2 0x24BB JUMPI PUSH2 0x24BA PUSH2 0x233F JUMP JUMPDEST JUMPDEST DUP4 JUMPDEST DUP2 DUP2 LT ISZERO PUSH2 0x24E4 JUMPI DUP1 PUSH2 0x24D0 DUP9 DUP3 PUSH2 0x2124 JUMP JUMPDEST DUP5 MSTORE PUSH1 0x20 DUP5 ADD SWAP4 POP POP PUSH1 0x20 DUP2 ADD SWAP1 POP PUSH2 0x24BD JUMP JUMPDEST POP POP POP SWAP4 SWAP3 POP POP POP JUMP JUMPDEST PUSH0 DUP3 PUSH1 0x1F DUP4 ADD SLT PUSH2 0x2502 JUMPI PUSH2 0x2501 PUSH2 0x2337 JUMP JUMPDEST JUMPDEST DUP2 CALLDATALOAD PUSH2 0x2512 DUP5 DUP3 PUSH1 0x20 DUP7 ADD PUSH2 0x2486 JUMP JUMPDEST SWAP2 POP POP SWAP3 SWAP2 POP POP JUMP JUMPDEST PUSH0 DUP1 REVERT JUMPDEST PUSH0 PUSH8 0xFFFFFFFFFFFFFFFF DUP3 GT ISZERO PUSH2 0x2539 JUMPI PUSH2 0x2538 PUSH2 0x23E3 JUMP JUMPDEST JUMPDEST PUSH2 0x2542 DUP3 PUSH2 0x22CF JUMP JUMPDEST SWAP1 POP PUSH1 0x20 DUP2 ADD SWAP1 POP SWAP2 SWAP1 POP JUMP JUMPDEST DUP3 DUP2 DUP4 CALLDATACOPY PUSH0 DUP4 DUP4 ADD MSTORE POP POP POP JUMP JUMPDEST PUSH0 PUSH2 0x256F PUSH2 0x256A DUP5 PUSH2 0x251F JUMP JUMPDEST PUSH2 0x2441 JUMP JUMPDEST SWAP1 POP DUP3 DUP2 MSTORE PUSH1 0x20 DUP2 ADD DUP5 DUP5 DUP5 ADD GT ISZERO PUSH2 0x258B JUMPI PUSH2 0x258A PUSH2 0x251B JUMP JUMPDEST JUMPDEST PUSH2 0x2596 DUP5 DUP3 DUP6 PUSH2 0x254F JUMP JUMPDEST POP SWAP4 SWAP3 POP POP POP JUMP JUMPDEST PUSH0 DUP3 PUSH1 0x1F DUP4 ADD SLT PUSH2 0x25B2 JUMPI PUSH2 0x25B1 PUSH2 0x2337 JUMP JUMPDEST JUMPDEST DUP2 CALLDATALOAD PUSH2 0x25C2 DUP5 DUP3 PUSH1 0x20 DUP7 ADD PUSH2 0x255D JUMP JUMPDEST SWAP2 POP POP SWAP3 SWAP2 POP POP JUMP JUMPDEST PUSH0 DUP1 PUSH0 DUP1 PUSH0 PUSH1 0xA0 DUP7 DUP9 SUB SLT ISZERO PUSH2 0x25E4 JUMPI PUSH2 0x25E3 PUSH2 0x20A3 JUMP JUMPDEST JUMPDEST PUSH0 PUSH2 0x25F1 DUP9 DUP3 DUP10 ADD PUSH2 0x20F1 JUMP JUMPDEST SWAP6 POP POP PUSH1 0x20 PUSH2 0x2602 DUP9 DUP3 DUP10 ADD PUSH2 0x20F1 JUMP JUMPDEST SWAP5 POP POP PUSH1 0x40 DUP7 ADD CALLDATALOAD PUSH8 0xFFFFFFFFFFFFFFFF DUP2 GT ISZERO PUSH2 0x2623 JUMPI PUSH2 0x2622 PUSH2 0x20A7 JUMP JUMPDEST JUMPDEST PUSH2 0x262F DUP9 DUP3 DUP10 ADD PUSH2 0x24EE JUMP JUMPDEST SWAP4 POP POP PUSH1 0x60 DUP7 ADD CALLDATALOAD PUSH8 0xFFFFFFFFFFFFFFFF DUP2 GT ISZERO PUSH2 0x2650 JUMPI PUSH2 0x264F PUSH2 0x20A7 JUMP JUMPDEST JUMPDEST PUSH2 0x265C DUP9 DUP3 DUP10 ADD PUSH2 0x24EE JUMP JUMPDEST SWAP3 POP POP PUSH1 0x80 DUP7 ADD CALLDATALOAD PUSH8 0xFFFFFFFFFFFFFFFF DUP2 GT ISZERO PUSH2 0x267D JUMPI PUSH2 0x267C PUSH2 0x20A7 JUMP JUMPDEST JUMPDEST PUSH2 0x2689 DUP9 DUP3 DUP10 ADD PUSH2 0x259E JUMP JUMPDEST SWAP2 POP POP SWAP3 SWAP6 POP SWAP3 SWAP6 SWAP1 SWAP4 POP JUMP JUMPDEST PUSH0 PUSH8 0xFFFFFFFFFFFFFFFF DUP3 GT ISZERO PUSH2 0x26B0 JUMPI PUSH2 0x26AF PUSH2 0x23E3 JUMP JUMPDEST JUMPDEST PUSH1 0x20 DUP3 MUL SWAP1 POP PUSH1 0x20 DUP2 ADD SWAP1 POP SWAP2 SWAP1 POP JUMP JUMPDEST PUSH0 PUSH2 0x26D3 PUSH2 0x26CE DUP5 PUSH2 0x2696 JUMP JUMPDEST PUSH2 0x2441 JUMP JUMPDEST SWAP1 POP DUP1 DUP4 DUP3 MSTORE PUSH1 0x20 DUP3 ADD SWAP1 POP PUSH1 0x20 DUP5 MUL DUP4 ADD DUP6 DUP2 GT ISZERO PUSH2 0x26F6 JUMPI PUSH2 0x26F5 PUSH2 0x233F JUMP JUMPDEST JUMPDEST DUP4 JUMPDEST DUP2 DUP2 LT ISZERO PUSH2 0x271F JUMPI DUP1 PUSH2 0x270B DUP9 DUP3 PUSH2 0x20F1 JUMP JUMPDEST DUP5 MSTORE PUSH1 0x20 DUP5 ADD SWAP4 POP POP PUSH1 0x20 DUP2 ADD SWAP1 POP PUSH2 0x26F8 JUMP JUMPDEST POP POP POP SWAP4 SWAP3 POP POP POP JUMP JUMPDEST PUSH0 DUP3 PUSH1 0x1F DUP4 ADD SLT PUSH2 0x273D JUMPI PUSH2 0x273C PUSH2 0x2337 JUMP JUMPDEST JUMPDEST DUP2 CALLDATALOAD PUSH2 0x274D DUP5 DUP3 PUSH1 0x20 DUP7 ADD PUSH2 0x26C1 JUMP JUMPDEST SWAP2 POP POP SWAP3 SWAP2 POP POP JUMP JUMPDEST PUSH0 DUP1 PUSH1 0x40 DUP4 DUP6 SUB SLT ISZERO PUSH2 0x276C JUMPI PUSH2 0x276B PUSH2 0x20A3 JUMP JUMPDEST JUMPDEST PUSH0 DUP4 ADD CALLDATALOAD PUSH8 0xFFFFFFFFFFFFFFFF DUP2 GT ISZERO PUSH2 0x2789 JUMPI PUSH2 0x2788 PUSH2 0x20A7 JUMP JUMPDEST JUMPDEST PUSH2 0x2795 DUP6 DUP3 DUP7 ADD PUSH2 0x2729 JUMP JUMPDEST SWAP3 POP POP PUSH1 0x20 DUP4 ADD CALLDATALOAD PUSH8 0xFFFFFFFFFFFFFFFF DUP2 GT ISZERO PUSH2 0x27B6 JUMPI PUSH2 0x27B5 PUSH2 0x20A7 JUMP JUMPDEST JUMPDEST PUSH2 0x27C2 DUP6 DUP3 DUP7 ADD PUSH2 0x24EE JUMP JUMPDEST SWAP2 POP POP SWAP3 POP SWAP3 SWAP1 POP JUMP JUMPDEST PUSH0 DUP2 MLOAD SWAP1 POP SWAP2 SWAP1 POP JUMP JUMPDEST PUSH0 DUP3 DUP3 MSTORE PUSH1 0x20 DUP3 ADD SWAP1 POP SWAP3 SWAP2 POP POP JUMP JUMPDEST PUSH0 DUP2 SWAP1 POP PUSH1 0x20 DUP3 ADD SWAP1 POP SWAP2 SWAP1 POP JUMP JUMPDEST PUSH2 0x27FE DUP2 PUSH2 0x2105 JUMP JUMPDEST DUP3 MSTORE POP POP JUMP JUMPDEST PUSH0 PUSH2 0x280F DUP4 DUP4 PUSH2 0x27F5 JUMP JUMPDEST PUSH1 0x20 DUP4 ADD SWAP1 POP SWAP3 SWAP2 POP POP JUMP JUMPDEST PUSH0 PUSH1 0x20 DUP3 ADD SWAP1 POP SWAP2 SWAP1 POP JUMP JUMPDEST PUSH0 PUSH2 0x2831 DUP3 PUSH2 0x27CC JUMP JUMPDEST PUSH2 0x283B DUP2 DUP6 PUSH2 0x27D6 JUMP JUMPDEST SWAP4 POP PUSH2 0x2846 DUP4 PUSH2 0x27E6 JUMP JUMPDEST DUP1 PUSH0 JUMPDEST DUP4 DUP2 LT ISZERO PUSH2 0x2876 JUMPI DUP2 MLOAD PUSH2 0x285D DUP9 DUP3 PUSH2 0x2804 JUMP JUMPDEST SWAP8 POP PUSH2 0x2868 DUP4 PUSH2 0x281B JUMP JUMPDEST SWAP3 POP POP PUSH1 0x1 DUP2 ADD SWAP1 POP PUSH2 0x2849 JUMP JUMPDEST POP DUP6 SWAP4 POP POP POP POP SWAP3 SWAP2 POP POP JUMP JUMPDEST PUSH0 PUSH1 0x20 DUP3 ADD SWAP1 POP DUP2 DUP2 SUB PUSH0 DUP4 ADD MSTORE PUSH2 0x289B DUP2 DUP5 PUSH2 0x2827 JUMP JUMPDEST SWAP1 POP SWAP3 SWAP2 POP POP JUMP JUMPDEST PUSH0 DUP1 PUSH0 DUP1 PUSH1 0x80 DUP6 DUP8 SUB SLT ISZERO PUSH2 0x28BB JUMPI PUSH2 0x28BA PUSH2 0x20A3 JUMP JUMPDEST JUMPDEST PUSH0 PUSH2 0x28C8 DUP8 DUP3 DUP9 ADD PUSH2 0x20F1 JUMP JUMPDEST SWAP5 POP POP PUSH1 0x20 PUSH2 0x28D9 DUP8 DUP3 DUP9 ADD PUSH2 0x2124 JUMP JUMPDEST SWAP4 POP POP PUSH1 0x40 PUSH2 0x28EA DUP8 DUP3 DUP9 ADD PUSH2 0x2124 JUMP JUMPDEST SWAP3 POP POP PUSH1 0x60 DUP6 ADD CALLDATALOAD PUSH8 0xFFFFFFFFFFFFFFFF DUP2 GT ISZERO PUSH2 0x290B JUMPI PUSH2 0x290A PUSH2 0x20A7 JUMP JUMPDEST JUMPDEST PUSH2 0x2917 DUP8 DUP3 DUP9 ADD PUSH2 0x259E JUMP JUMPDEST SWAP2 POP POP SWAP3 SWAP6 SWAP2 SWAP5 POP SWAP3 POP JUMP JUMPDEST PUSH2 0x292C DUP2 PUSH2 0x20CA JUMP JUMPDEST DUP3 MSTORE POP POP JUMP JUMPDEST PUSH0 PUSH1 0x20 DUP3 ADD SWAP1 POP PUSH2 0x2945 PUSH0 DUP4 ADD DUP5 PUSH2 0x2923 JUMP JUMPDEST SWAP3 SWAP2 POP POP JUMP JUMPDEST PUSH2 0x2954 DUP2 PUSH2 0x2249 JUMP JUMPDEST DUP2 EQ PUSH2 0x295E JUMPI PUSH0 DUP1 REVERT JUMPDEST POP JUMP JUMPDEST PUSH0 DUP2 CALLDATALOAD SWAP1 POP PUSH2 0x296F DUP2 PUSH2 0x294B JUMP JUMPDEST SWAP3 SWAP2 POP POP JUMP JUMPDEST PUSH0 DUP1 PUSH1 0x40 DUP4 DUP6 SUB SLT ISZERO PUSH2 0x298B JUMPI PUSH2 0x298A PUSH2 0x20A3 JUMP JUMPDEST JUMPDEST PUSH0 PUSH2 0x2998 DUP6 DUP3 DUP7 ADD PUSH2 0x20F1 JUMP JUMPDEST SWAP3 POP POP PUSH1 0x20 PUSH2 0x29A9 DUP6 DUP3 DUP7 ADD PUSH2 0x2961 JUMP JUMPDEST SWAP2 POP POP SWAP3 POP SWAP3 SWAP1 POP JUMP JUMPDEST PUSH0 DUP1 PUSH1 0x40 DUP4 DUP6 SUB SLT ISZERO PUSH2 0x29C9 JUMPI PUSH2 0x29C8 PUSH2 0x20A3 JUMP JUMPDEST JUMPDEST PUSH0 PUSH2 0x29D6 DUP6 DUP3 DUP7 ADD PUSH2 0x20F1 JUMP JUMPDEST SWAP3 POP POP PUSH1 0x20 PUSH2 0x29E7 DUP6 DUP3 DUP7 ADD PUSH2 0x20F1 JUMP JUMPDEST SWAP2 POP POP SWAP3 POP SWAP3 SWAP1 POP JUMP JUMPDEST PUSH0 DUP1 PUSH0 DUP1 PUSH0 PUSH1 0xA0 DUP7 DUP9 SUB SLT ISZERO PUSH2 0x2A0A JUMPI PUSH2 0x2A09 PUSH2 0x20A3 JUMP JUMPDEST JUMPDEST PUSH0 PUSH2 0x2A17 DUP9 DUP3 DUP10 ADD PUSH2 0x20F1 JUMP JUMPDEST SWAP6 POP POP PUSH1 0x20 PUSH2 0x2A28 DUP9 DUP3 DUP10 ADD PUSH2 0x20F1 JUMP JUMPDEST SWAP5 POP POP PUSH1 0x40 PUSH2 0x2A39 DUP9 DUP3 DUP10 ADD PUSH2 0x2124 JUMP JUMPDEST SWAP4 POP POP PUSH1 0x60 PUSH2 0x2A4A DUP9 DUP3 DUP10 ADD PUSH2 0x2124 JUMP JUMPDEST SWAP3 POP POP PUSH1 0x80 DUP7 ADD CALLDATALOAD PUSH8 0xFFFFFFFFFFFFFFFF DUP2 GT ISZERO PUSH2 0x2A6B JUMPI PUSH2 0x2A6A PUSH2 0x20A7 JUMP JUMPDEST JUMPDEST PUSH2 0x2A77 DUP9 DUP3 DUP10 ADD PUSH2 0x259E JUMP JUMPDEST SWAP2 POP POP SWAP3 SWAP6 POP SWAP3 SWAP6 SWAP1 SWAP4 POP JUMP JUMPDEST PUSH0 DUP1 PUSH0 PUSH1 0x60 DUP5 DUP7 SUB SLT ISZERO PUSH2 0x2A9B JUMPI PUSH2 0x2A9A PUSH2 0x20A3 JUMP JUMPDEST JUMPDEST PUSH0 PUSH2 0x2AA8 DUP7 DUP3 DUP8 ADD PUSH2 0x20F1 JUMP JUMPDEST SWAP4 POP POP PUSH1 0x20 PUSH2 0x2AB9 DUP7 DUP3 DUP8 ADD PUSH2 0x2124 JUMP JUMPDEST SWAP3 POP POP PUSH1 0x40 PUSH2 0x2ACA DUP7 DUP3 DUP8 ADD PUSH2 0x2124 JUMP JUMPDEST SWAP2 POP POP SWAP3 POP SWAP3 POP SWAP3 JUMP JUMPDEST PUSH32 0x4E487B7100000000000000000000000000000000000000000000000000000000 PUSH0 MSTORE PUSH1 0x22 PUSH1 0x4 MSTORE PUSH1 0x24 PUSH0 REVERT JUMPDEST PUSH0 PUSH1 0x2 DUP3 DIV SWAP1 POP PUSH1 0x1 DUP3 AND DUP1 PUSH2 0x2B18 JUMPI PUSH1 0x7F DUP3 AND SWAP2 POP JUMPDEST PUSH1 0x20 DUP3 LT DUP2 SUB PUSH2 0x2B2B JUMPI PUSH2 0x2B2A PUSH2 0x2AD4 JUMP JUMPDEST JUMPDEST POP SWAP2 SWAP1 POP JUMP JUMPDEST PUSH32 0x4E487B7100000000000000000000000000000000000000000000000000000000 PUSH0 MSTORE PUSH1 0x32 PUSH1 0x4 MSTORE PUSH1 0x24 PUSH0 REVERT JUMPDEST PUSH0 PUSH1 0x40 DUP3 ADD SWAP1 POP PUSH2 0x2B71 PUSH0 DUP4 ADD DUP6 PUSH2 0x2923 JUMP JUMPDEST PUSH2 0x2B7E PUSH1 0x20 DUP4 ADD DUP5 PUSH2 0x2923 JUMP JUMPDEST SWAP4 SWAP3 POP POP POP JUMP JUMPDEST PUSH0 PUSH1 0x40 DUP3 ADD SWAP1 POP PUSH2 0x2B98 PUSH0 DUP4 ADD DUP6 PUSH2 0x2176 JUMP JUMPDEST PUSH2 0x2BA5 PUSH1 0x20 DUP4 ADD DUP5 PUSH2 0x2176 JUMP JUMPDEST SWAP4 SWAP3 POP POP POP JUMP JUMPDEST PUSH32 0x596F7520617265206E6F742077686974656C6973746564000000000000000000 PUSH0 DUP3 ADD MSTORE POP JUMP JUMPDEST PUSH0 PUSH2 0x2BE0 PUSH1 0x17 DUP4 PUSH2 0x22B1 JUMP JUMPDEST SWAP2 POP PUSH2 0x2BEB DUP3 PUSH2 0x2BAC JUMP JUMPDEST PUSH1 0x20 DUP3 ADD SWAP1 POP SWAP2 SWAP1 POP JUMP JUMPDEST PUSH0 PUSH1 0x20 DUP3 ADD SWAP1 POP DUP2 DUP2 SUB PUSH0 DUP4 ADD MSTORE PUSH2 0x2C0D DUP2 PUSH2 0x2BD4 JUMP JUMPDEST SWAP1 POP SWAP2 SWAP1 POP JUMP JUMPDEST PUSH32 0x50726573616C652068617320656E646564000000000000000000000000000000 PUSH0 DUP3 ADD MSTORE POP JUMP JUMPDEST PUSH0 PUSH2 0x2C48 PUSH1 0x11 DUP4 PUSH2 0x22B1 JUMP JUMPDEST SWAP2 POP PUSH2 0x2C53 DUP3 PUSH2 0x2C14 JUMP JUMPDEST PUSH1 0x20 DUP3 ADD SWAP1 POP SWAP2 SWAP1 POP JUMP JUMPDEST PUSH0 PUSH1 0x20 DUP3 ADD SWAP1 POP DUP2 DUP2 SUB PUSH0 DUP4 ADD MSTORE PUSH2 0x2C75 DUP2 PUSH2 0x2C3C JUMP JUMPDEST SWAP1 POP SWAP2 SWAP1 POP JUMP JUMPDEST PUSH32 0x4E487B7100000000000000000000000000000000000000000000000000000000 PUSH0 MSTORE PUSH1 0x11 PUSH1 0x4 MSTORE PUSH1 0x24 PUSH0 REVERT JUMPDEST PUSH0 PUSH2 0x2CB3 DUP3 PUSH2 0x2105 JUMP JUMPDEST SWAP2 POP PUSH2 0x2CBE DUP4 PUSH2 0x2105 JUMP JUMPDEST SWAP3 POP DUP3 DUP3 MUL PUSH2 0x2CCC DUP2 PUSH2 0x2105 JUMP JUMPDEST SWAP2 POP DUP3 DUP3 DIV DUP5 EQ DUP4 ISZERO OR PUSH2 0x2CE3 JUMPI PUSH2 0x2CE2 PUSH2 0x2C7C JUMP JUMPDEST JUMPDEST POP SWAP3 SWAP2 POP POP JUMP JUMPDEST PUSH32 0x496E636F7272656374204554482073656E740000000000000000000000000000 PUSH0 DUP3 ADD MSTORE POP JUMP JUMPDEST PUSH0 PUSH2 0x2D1E PUSH1 0x12 DUP4 PUSH2 0x22B1 JUMP JUMPDEST SWAP2 POP PUSH2 0x2D29 DUP3 PUSH2 0x2CEA JUMP JUMPDEST PUSH1 0x20 DUP3 ADD SWAP1 POP SWAP2 SWAP1 POP JUMP JUMPDEST PUSH0 PUSH1 0x20 DUP3 ADD SWAP1 POP DUP2 DUP2 SUB PUSH0 DUP4 ADD MSTORE PUSH2 0x2D4B DUP2 PUSH2 0x2D12 JUMP JUMPDEST SWAP1 POP SWAP2 SWAP1 POP JUMP JUMPDEST PUSH32 0x4D5A43414C20746F6B656E206E6F74206C61756E636865642079657400000000 PUSH0 DUP3 ADD MSTORE POP JUMP JUMPDEST PUSH0 PUSH2 0x2D86 PUSH1 0x1C DUP4 PUSH2 0x22B1 JUMP JUMPDEST SWAP2 POP PUSH2 0x2D91 DUP3 PUSH2 0x2D52 JUMP JUMPDEST PUSH1 0x20 DUP3 ADD SWAP1 POP SWAP2 SWAP1 POP JUMP JUMPDEST PUSH0 PUSH1 0x20 DUP3 ADD SWAP1 POP DUP2 DUP2 SUB PUSH0 DUP4 ADD MSTORE PUSH2 0x2DB3 DUP2 PUSH2 0x2D7A JUMP JUMPDEST SWAP1 POP SWAP2 SWAP1 POP JUMP JUMPDEST PUSH32 0x4E6F2050524553414C455F544F4B454E20746F20636F6E766572740000000000 PUSH0 DUP3 ADD MSTORE POP JUMP JUMPDEST PUSH0 PUSH2 0x2DEE PUSH1 0x1B DUP4 PUSH2 0x22B1 JUMP JUMPDEST SWAP2 POP PUSH2 0x2DF9 DUP3 PUSH2 0x2DBA JUMP JUMPDEST PUSH1 0x20 DUP3 ADD SWAP1 POP SWAP2 SWAP1 POP JUMP JUMPDEST PUSH0 PUSH1 0x20 DUP3 ADD SWAP1 POP DUP2 DUP2 SUB PUSH0 DUP4 ADD MSTORE PUSH2 0x2E1B DUP2 PUSH2 0x2DE2 JUMP JUMPDEST SWAP1 POP SWAP2 SWAP1 POP JUMP JUMPDEST PUSH32 0x596F752063616E206F6E6C79206275726E20796F7572206F776E20746F6B656E PUSH0 DUP3 ADD MSTORE PUSH32 0x7300000000000000000000000000000000000000000000000000000000000000 PUSH1 0x20 DUP3 ADD MSTORE POP JUMP JUMPDEST PUSH0 PUSH2 0x2E7C PUSH1 0x21 DUP4 PUSH2 0x22B1 JUMP JUMPDEST SWAP2 POP PUSH2 0x2E87 DUP3 PUSH2 0x2E22 JUMP JUMPDEST PUSH1 0x40 DUP3 ADD SWAP1 POP SWAP2 SWAP1 POP JUMP JUMPDEST PUSH0 PUSH1 0x20 DUP3 ADD SWAP1 POP DUP2 DUP2 SUB PUSH0 DUP4 ADD MSTORE PUSH2 0x2EA9 DUP2 PUSH2 0x2E70 JUMP JUMPDEST SWAP1 POP SWAP2 SWAP1 POP JUMP JUMPDEST PUSH0 PUSH1 0x80 DUP3 ADD SWAP1 POP PUSH2 0x2EC3 PUSH0 DUP4 ADD DUP8 PUSH2 0x2923 JUMP JUMPDEST PUSH2 0x2ED0 PUSH1 0x20 DUP4 ADD DUP7 PUSH2 0x2176 JUMP JUMPDEST PUSH2 0x2EDD PUSH1 0x40 DUP4 ADD DUP6 PUSH2 0x2176 JUMP JUMPDEST PUSH2 0x2EEA PUSH1 0x60 DUP4 ADD DUP5 PUSH2 0x2176 JUMP JUMPDEST SWAP6 SWAP5 POP POP POP POP POP JUMP JUMPDEST PUSH0 PUSH2 0x2EFD DUP3 PUSH2 0x2105 JUMP JUMPDEST SWAP2 POP PUSH2 0x2F08 DUP4 PUSH2 0x2105 JUMP JUMPDEST SWAP3 POP DUP3 DUP3 ADD SWAP1 POP DUP1 DUP3 GT ISZERO PUSH2 0x2F20 JUMPI PUSH2 0x2F1F PUSH2 0x2C7C JUMP JUMPDEST JUMPDEST SWAP3 SWAP2 POP POP JUMP JUMPDEST PUSH0 PUSH1 0x40 DUP3 ADD SWAP1 POP DUP2 DUP2 SUB PUSH0 DUP4 ADD MSTORE PUSH2 0x2F3E DUP2 DUP6 PUSH2 0x2827 JUMP JUMPDEST SWAP1 POP DUP2 DUP2 SUB PUSH1 0x20 DUP4 ADD MSTORE PUSH2 0x2F52 DUP2 DUP5 PUSH2 0x2827 JUMP JUMPDEST SWAP1 POP SWAP4 SWAP3 POP POP POP JUMP JUMPDEST PUSH0 DUP2 MLOAD SWAP1 POP SWAP2 SWAP1 POP JUMP JUMPDEST PUSH0 DUP3 DUP3 MSTORE PUSH1 0x20 DUP3 ADD SWAP1 POP SWAP3 SWAP2 POP POP JUMP JUMPDEST PUSH0 PUSH2 0x2F7F DUP3 PUSH2 0x2F5B JUMP JUMPDEST PUSH2 0x2F89 DUP2 DUP6 PUSH2 0x2F65 JUMP JUMPDEST SWAP4 POP PUSH2 0x2F99 DUP2 DUP6 PUSH1 0x20 DUP7 ADD PUSH2 0x22C1 JUMP JUMPDEST PUSH2 0x2FA2 DUP2 PUSH2 0x22CF JUMP JUMPDEST DUP5 ADD SWAP2 POP POP SWAP3 SWAP2 POP POP JUMP JUMPDEST PUSH0 PUSH1 0xA0 DUP3 ADD SWAP1 POP PUSH2 0x2FC0 PUSH0 DUP4 ADD DUP9 PUSH2 0x2923 JUMP JUMPDEST PUSH2 0x2FCD PUSH1 0x20 DUP4 ADD DUP8 PUSH2 0x2923 JUMP JUMPDEST PUSH2 0x2FDA PUSH1 0x40 DUP4 ADD DUP7 PUSH2 0x2176 JUMP JUMPDEST PUSH2 0x2FE7 PUSH1 0x60 DUP4 ADD DUP6 PUSH2 0x2176 JUMP JUMPDEST DUP2 DUP2 SUB PUSH1 0x80 DUP4 ADD MSTORE PUSH2 0x2FF9 DUP2 DUP5 PUSH2 0x2F75 JUMP JUMPDEST SWAP1 POP SWAP7 SWAP6 POP POP POP POP POP POP JUMP JUMPDEST PUSH0 DUP2 MLOAD SWAP1 POP PUSH2 0x3013 DUP2 PUSH2 0x21F4 JUMP JUMPDEST SWAP3 SWAP2 POP POP JUMP JUMPDEST PUSH0 PUSH1 0x20 DUP3 DUP5 SUB SLT ISZERO PUSH2 0x302E JUMPI PUSH2 0x302D PUSH2 0x20A3 JUMP JUMPDEST JUMPDEST PUSH0 PUSH2 0x303B DUP5 DUP3 DUP6 ADD PUSH2 0x3005 JUMP JUMPDEST SWAP2 POP POP SWAP3 SWAP2 POP POP JUMP JUMPDEST PUSH0 PUSH1 0xA0 DUP3 ADD SWAP1 POP PUSH2 0x3057 PUSH0 DUP4 ADD DUP9 PUSH2 0x2923 JUMP JUMPDEST PUSH2 0x3064 PUSH1 0x20 DUP4 ADD DUP8 PUSH2 0x2923 JUMP JUMPDEST DUP2 DUP2 SUB PUSH1 0x40 DUP4 ADD MSTORE PUSH2 0x3076 DUP2 DUP7 PUSH2 0x2827 JUMP JUMPDEST SWAP1 POP DUP2 DUP2 SUB PUSH1 0x60 DUP4 ADD MSTORE PUSH2 0x308A DUP2 DUP6 PUSH2 0x2827 JUMP JUMPDEST SWAP1 POP DUP2 DUP2 SUB PUSH1 0x80 DUP4 ADD MSTORE PUSH2 0x309E DUP2 DUP5 PUSH2 0x2F75 JUMP JUMPDEST SWAP1 POP SWAP7 SWAP6 POP POP POP POP POP POP JUMP INVALID LOG2 PUSH5 0x6970667358 0x22 SLT KECCAK256 CODESIZE SWAP13 BLOCKHASH CALLCODE 0xC9 SWAP7 DUP14 0x23 0xDC 0xA9 0x23 SAR STOP SHL CREATE RETURNDATASIZE 0xC7 0x21 0xE3 BLOBHASH ADDRESS SHL ISZERO 0xB3 SWAP1 0xD3 0xBE 0xAE 0xB8 SDIV PUSH15 0xAA64736F6C634300081A0033000000 "
		},
		"gasEstimates": {
			"creation": {
				"codeDepositCost": "2502400",
				"executionCost": "infinite",
				"totalCost": "infinite"
			},
			"external": {
				"INITIAL_SUPPLY()": "393",
				"MZCAL()": "392",
				"PRESALE_TOKEN()": "392",
				"addToPresaleWhitelist(address)": "infinite",
				"balanceOf(address,uint256)": "infinite",
				"balanceOfBatch(address[],uint256[])": "infinite",
				"bulkAddToPresaleWhitelist(address[])": "infinite",
				"bulkRemoveFromPresaleWhitelist(address[])": "infinite",
				"burn(address,uint256,uint256)": "infinite",
				"claimMZCALTokens()": "infinite",
				"isApprovedForAll(address,address)": "infinite",
				"isWhitelisted(address)": "2960",
				"launchMZCALToken()": "infinite",
				"mint(address,uint256,uint256,bytes)": "infinite",
				"mzcalTokenLaunched()": "2556",
				"mzcalTokenPrice()": "2514",
				"owner()": "2605",
				"presaleBuy(uint256)": "infinite",
				"presaleEndTime()": "2537",
				"presaleTokenPrice()": "2514",
				"presaleWhitelist(address)": "2877",
				"removeFromPresaleWhitelist(address)": "infinite",
				"renounceOwnership()": "infinite",
				"safeBatchTransferFrom(address,address,uint256[],uint256[],bytes)": "infinite",
				"safeTransferFrom(address,address,uint256,uint256,bytes)": "infinite",
				"setApprovalForAll(address,bool)": "infinite",
				"supportsInterface(bytes4)": "854",
				"transferOwnership(address)": "infinite",
				"uri(uint256)": "infinite"
			}
		},
		"methodIdentifiers": {
			"INITIAL_SUPPLY()": "2ff2e9dc",
			"MZCAL()": "7097a332",
			"PRESALE_TOKEN()": "8f847c9c",
			"addToPresaleWhitelist(address)": "97f22ea9",
			"balanceOf(address,uint256)": "00fdd58e",
			"balanceOfBatch(address[],uint256[])": "4e1273f4",
			"bulkAddToPresaleWhitelist(address[])": "8f0f80c4",
			"bulkRemoveFromPresaleWhitelist(address[])": "11baff63",
			"burn(address,uint256,uint256)": "f5298aca",
			"claimMZCALTokens()": "abc91e12",
			"isApprovedForAll(address,address)": "e985e9c5",
			"isWhitelisted(address)": "3af32abf",
			"launchMZCALToken()": "d8a5c6fd",
			"mint(address,uint256,uint256,bytes)": "731133e9",
			"mzcalTokenLaunched()": "22c8061b",
			"mzcalTokenPrice()": "70a0c464",
			"owner()": "8da5cb5b",
			"presaleBuy(uint256)": "815f7bbd",
			"presaleEndTime()": "249b7c19",
			"presaleTokenPrice()": "93777fb3",
			"presaleWhitelist(address)": "eb8835ab",
			"removeFromPresaleWhitelist(address)": "01f7e49a",
			"renounceOwnership()": "715018a6",
			"safeBatchTransferFrom(address,address,uint256[],uint256[],bytes)": "2eb2c2d6",
			"safeTransferFrom(address,address,uint256,uint256,bytes)": "f242432a",
			"setApprovalForAll(address,bool)": "a22cb465",
			"supportsInterface(bytes4)": "01ffc9a7",
			"transferOwnership(address)": "f2fde38b",
			"uri(uint256)": "0e89341c"
		}
	},
	"abi": [
		{
			"inputs": [
				{
					"internalType": "string",
					"name": "uri",
					"type": "string"
				}
			],
			"stateMutability": "nonpayable",
			"type": "constructor"
		},
		{
			"inputs": [
				{
					"internalType": "address",
					"name": "sender",
					"type": "address"
				},
				{
					"internalType": "uint256",
					"name": "balance",
					"type": "uint256"
				},
				{
					"internalType": "uint256",
					"name": "needed",
					"type": "uint256"
				},
				{
					"internalType": "uint256",
					"name": "tokenId",
					"type": "uint256"
				}
			],
			"name": "ERC1155InsufficientBalance",
			"type": "error"
		},
		{
			"inputs": [
				{
					"internalType": "address",
					"name": "approver",
					"type": "address"
				}
			],
			"name": "ERC1155InvalidApprover",
			"type": "error"
		},
		{
			"inputs": [
				{
					"internalType": "uint256",
					"name": "idsLength",
					"type": "uint256"
				},
				{
					"internalType": "uint256",
					"name": "valuesLength",
					"type": "uint256"
				}
			],
			"name": "ERC1155InvalidArrayLength",
			"type": "error"
		},
		{
			"inputs": [
				{
					"internalType": "address",
					"name": "operator",
					"type": "address"
				}
			],
			"name": "ERC1155InvalidOperator",
			"type": "error"
		},
		{
			"inputs": [
				{
					"internalType": "address",
					"name": "receiver",
					"type": "address"
				}
			],
			"name": "ERC1155InvalidReceiver",
			"type": "error"
		},
		{
			"inputs": [
				{
					"internalType": "address",
					"name": "sender",
					"type": "address"
				}
			],
			"name": "ERC1155InvalidSender",
			"type": "error"
		},
		{
			"inputs": [
				{
					"internalType": "address",
					"name": "operator",
					"type": "address"
				},
				{
					"internalType": "address",
					"name": "owner",
					"type": "address"
				}
			],
			"name": "ERC1155MissingApprovalForAll",
			"type": "error"
		},
		{
			"inputs": [
				{
					"internalType": "address",
					"name": "owner",
					"type": "address"
				}
			],
			"name": "OwnableInvalidOwner",
			"type": "error"
		},
		{
			"inputs": [
				{
					"internalType": "address",
					"name": "account",
					"type": "address"
				}
			],
			"name": "OwnableUnauthorizedAccount",
			"type": "error"
		},
		{
			"anonymous": false,
			"inputs": [
				{
					"indexed": true,
					"internalType": "address",
					"name": "account",
					"type": "address"
				},
				{
					"indexed": true,
					"internalType": "address",
					"name": "operator",
					"type": "address"
				},
				{
					"indexed": false,
					"internalType": "bool",
					"name": "approved",
					"type": "bool"
				}
			],
			"name": "ApprovalForAll",
			"type": "event"
		},
		{
			"anonymous": false,
			"inputs": [
				{
					"indexed": true,
					"internalType": "address",
					"name": "buyer",
					"type": "address"
				},
				{
					"indexed": false,
					"internalType": "uint256",
					"name": "amount",
					"type": "uint256"
				}
			],
			"name": "MZCALConvert",
			"type": "event"
		},
		{
			"anonymous": false,
			"inputs": [
				{
					"indexed": true,
					"internalType": "address",
					"name": "previousOwner",
					"type": "address"
				},
				{
					"indexed": true,
					"internalType": "address",
					"name": "newOwner",
					"type": "address"
				}
			],
			"name": "OwnershipTransferred",
			"type": "event"
		},
		{
			"anonymous": false,
			"inputs": [
				{
					"indexed": true,
					"internalType": "address",
					"name": "buyer",
					"type": "address"
				},
				{
					"indexed": false,
					"internalType": "uint256",
					"name": "amount",
					"type": "uint256"
				},
				{
					"indexed": false,
					"internalType": "uint256",
					"name": "cost",
					"type": "uint256"
				}
			],
			"name": "PresalePurchase",
			"type": "event"
		},
		{
			"anonymous": false,
			"inputs": [
				{
					"indexed": true,
					"internalType": "address",
					"name": "operator",
					"type": "address"
				},
				{
					"indexed": true,
					"internalType": "address",
					"name": "from",
					"type": "address"
				},
				{
					"indexed": true,
					"internalType": "address",
					"name": "to",
					"type": "address"
				},
				{
					"indexed": false,
					"internalType": "uint256[]",
					"name": "ids",
					"type": "uint256[]"
				},
				{
					"indexed": false,
					"internalType": "uint256[]",
					"name": "values",
					"type": "uint256[]"
				}
			],
			"name": "TransferBatch",
			"type": "event"
		},
		{
			"anonymous": false,
			"inputs": [
				{
					"indexed": true,
					"internalType": "address",
					"name": "operator",
					"type": "address"
				},
				{
					"indexed": true,
					"internalType": "address",
					"name": "from",
					"type": "address"
				},
				{
					"indexed": true,
					"internalType": "address",
					"name": "to",
					"type": "address"
				},
				{
					"indexed": false,
					"internalType": "uint256",
					"name": "id",
					"type": "uint256"
				},
				{
					"indexed": false,
					"internalType": "uint256",
					"name": "value",
					"type": "uint256"
				}
			],
			"name": "TransferSingle",
			"type": "event"
		},
		{
			"anonymous": false,
			"inputs": [
				{
					"indexed": false,
					"internalType": "string",
					"name": "value",
					"type": "string"
				},
				{
					"indexed": true,
					"internalType": "uint256",
					"name": "id",
					"type": "uint256"
				}
			],
			"name": "URI",
			"type": "event"
		},
		{
			"inputs": [],
			"name": "INITIAL_SUPPLY",
			"outputs": [
				{
					"internalType": "uint256",
					"name": "",
					"type": "uint256"
				}
			],
			"stateMutability": "view",
			"type": "function"
		},
		{
			"inputs": [],
			"name": "MZCAL",
			"outputs": [
				{
					"internalType": "uint256",
					"name": "",
					"type": "uint256"
				}
			],
			"stateMutability": "view",
			"type": "function"
		},
		{
			"inputs": [],
			"name": "PRESALE_TOKEN",
			"outputs": [
				{
					"internalType": "uint256",
					"name": "",
					"type": "uint256"
				}
			],
			"stateMutability": "view",
			"type": "function"
		},
		{
			"inputs": [
				{
					"internalType": "address",
					"name": "account",
					"type": "address"
				}
			],
			"name": "addToPresaleWhitelist",
			"outputs": [],
			"stateMutability": "nonpayable",
			"type": "function"
		},
		{
			"inputs": [
				{
					"internalType": "address",
					"name": "account",
					"type": "address"
				},
				{
					"internalType": "uint256",
					"name": "id",
					"type": "uint256"
				}
			],
			"name": "balanceOf",
			"outputs": [
				{
					"internalType": "uint256",
					"name": "",
					"type": "uint256"
				}
			],
			"stateMutability": "view",
			"type": "function"
		},
		{
			"inputs": [
				{
					"internalType": "address[]",
					"name": "accounts",
					"type": "address[]"
				},
				{
					"internalType": "uint256[]",
					"name": "ids",
					"type": "uint256[]"
				}
			],
			"name": "balanceOfBatch",
			"outputs": [
				{
					"internalType": "uint256[]",
					"name": "",
					"type": "uint256[]"
				}
			],
			"stateMutability": "view",
			"type": "function"
		},
		{
			"inputs": [
				{
					"internalType": "address[]",
					"name": "accounts",
					"type": "address[]"
				}
			],
			"name": "bulkAddToPresaleWhitelist",
			"outputs": [],
			"stateMutability": "nonpayable",
			"type": "function"
		},
		{
			"inputs": [
				{
					"internalType": "address[]",
					"name": "accounts",
					"type": "address[]"
				}
			],
			"name": "bulkRemoveFromPresaleWhitelist",
			"outputs": [],
			"stateMutability": "nonpayable",
			"type": "function"
		},
		{
			"inputs": [
				{
					"internalType": "address",
					"name": "from",
					"type": "address"
				},
				{
					"internalType": "uint256",
					"name": "id",
					"type": "uint256"
				},
				{
					"internalType": "uint256",
					"name": "amount",
					"type": "uint256"
				}
			],
			"name": "burn",
			"outputs": [],
			"stateMutability": "nonpayable",
			"type": "function"
		},
		{
			"inputs": [],
			"name": "claimMZCALTokens",
			"outputs": [],
			"stateMutability": "nonpayable",
			"type": "function"
		},
		{
			"inputs": [
				{
					"internalType": "address",
					"name": "account",
					"type": "address"
				},
				{
					"internalType": "address",
					"name": "operator",
					"type": "address"
				}
			],
			"name": "isApprovedForAll",
			"outputs": [
				{
					"internalType": "bool",
					"name": "",
					"type": "bool"
				}
			],
			"stateMutability": "view",
			"type": "function"
		},
		{
			"inputs": [
				{
					"internalType": "address",
					"name": "account",
					"type": "address"
				}
			],
			"name": "isWhitelisted",
			"outputs": [
				{
					"internalType": "bool",
					"name": "",
					"type": "bool"
				}
			],
			"stateMutability": "view",
			"type": "function"
		},
		{
			"inputs": [],
			"name": "launchMZCALToken",
			"outputs": [],
			"stateMutability": "nonpayable",
			"type": "function"
		},
		{
			"inputs": [
				{
					"internalType": "address",
					"name": "to",
					"type": "address"
				},
				{
					"internalType": "uint256",
					"name": "id",
					"type": "uint256"
				},
				{
					"internalType": "uint256",
					"name": "amount",
					"type": "uint256"
				},
				{
					"internalType": "bytes",
					"name": "data",
					"type": "bytes"
				}
			],
			"name": "mint",
			"outputs": [],
			"stateMutability": "nonpayable",
			"type": "function"
		},
		{
			"inputs": [],
			"name": "mzcalTokenLaunched",
			"outputs": [
				{
					"internalType": "bool",
					"name": "",
					"type": "bool"
				}
			],
			"stateMutability": "view",
			"type": "function"
		},
		{
			"inputs": [],
			"name": "mzcalTokenPrice",
			"outputs": [
				{
					"internalType": "uint256",
					"name": "",
					"type": "uint256"
				}
			],
			"stateMutability": "view",
			"type": "function"
		},
		{
			"inputs": [],
			"name": "owner",
			"outputs": [
				{
					"internalType": "address",
					"name": "",
					"type": "address"
				}
			],
			"stateMutability": "view",
			"type": "function"
		},
		{
			"inputs": [
				{
					"internalType": "uint256",
					"name": "amount",
					"type": "uint256"
				}
			],
			"name": "presaleBuy",
			"outputs": [],
			"stateMutability": "payable",
			"type": "function"
		},
		{
			"inputs": [],
			"name": "presaleEndTime",
			"outputs": [
				{
					"internalType": "uint256",
					"name": "",
					"type": "uint256"
				}
			],
			"stateMutability": "view",
			"type": "function"
		},
		{
			"inputs": [],
			"name": "presaleTokenPrice",
			"outputs": [
				{
					"internalType": "uint256",
					"name": "",
					"type": "uint256"
				}
			],
			"stateMutability": "view",
			"type": "function"
		},
		{
			"inputs": [
				{
					"internalType": "address",
					"name": "",
					"type": "address"
				}
			],
			"name": "presaleWhitelist",
			"outputs": [
				{
					"internalType": "bool",
					"name": "",
					"type": "bool"
				}
			],
			"stateMutability": "view",
			"type": "function"
		},
		{
			"inputs": [
				{
					"internalType": "address",
					"name": "account",
					"type": "address"
				}
			],
			"name": "removeFromPresaleWhitelist",
			"outputs": [],
			"stateMutability": "nonpayable",
			"type": "function"
		},
		{
			"inputs": [],
			"name": "renounceOwnership",
			"outputs": [],
			"stateMutability": "nonpayable",
			"type": "function"
		},
		{
			"inputs": [
				{
					"internalType": "address",
					"name": "from",
					"type": "address"
				},
				{
					"internalType": "address",
					"name": "to",
					"type": "address"
				},
				{
					"internalType": "uint256[]",
					"name": "ids",
					"type": "uint256[]"
				},
				{
					"internalType": "uint256[]",
					"name": "values",
					"type": "uint256[]"
				},
				{
					"internalType": "bytes",
					"name": "data",
					"type": "bytes"
				}
			],
			"name": "safeBatchTransferFrom",
			"outputs": [],
			"stateMutability": "nonpayable",
			"type": "function"
		},
		{
			"inputs": [
				{
					"internalType": "address",
					"name": "from",
					"type": "address"
				},
				{
					"internalType": "address",
					"name": "to",
					"type": "address"
				},
				{
					"internalType": "uint256",
					"name": "id",
					"type": "uint256"
				},
				{
					"internalType": "uint256",
					"name": "value",
					"type": "uint256"
				},
				{
					"internalType": "bytes",
					"name": "data",
					"type": "bytes"
				}
			],
			"name": "safeTransferFrom",
			"outputs": [],
			"stateMutability": "nonpayable",
			"type": "function"
		},
		{
			"inputs": [
				{
					"internalType": "address",
					"name": "operator",
					"type": "address"
				},
				{
					"internalType": "bool",
					"name": "approved",
					"type": "bool"
				}
			],
			"name": "setApprovalForAll",
			"outputs": [],
			"stateMutability": "nonpayable",
			"type": "function"
		},
		{
			"inputs": [
				{
					"internalType": "bytes4",
					"name": "interfaceId",
					"type": "bytes4"
				}
			],
			"name": "supportsInterface",
			"outputs": [
				{
					"internalType": "bool",
					"name": "",
					"type": "bool"
				}
			],
			"stateMutability": "view",
			"type": "function"
		},
		{
			"inputs": [
				{
					"internalType": "address",
					"name": "newOwner",
					"type": "address"
				}
			],
			"name": "transferOwnership",
			"outputs": [],
			"stateMutability": "nonpayable",
			"type": "function"
		},
		{
			"inputs": [
				{
					"internalType": "uint256",
					"name": "",
					"type": "uint256"
				}
			],
			"name": "uri",
			"outputs": [
				{
					"internalType": "string",
					"name": "",
					"type": "string"
				}
			],
			"stateMutability": "view",
			"type": "function"
		}
	]
}