{
	"data": {
		"bytecode": {
			"linkReferences": {},
			"object": "608060405263679daf0060045566038d7ea4c6800060055566038d7ea4c680006006555f60075f6101000a81548160ff021916908315150217905550348015610046575f80fd5b5060405161478738038061478783398181016040528101906100689190610be9565b33816100798161012360201b60201c565b505f73ffffffffffffffffffffffffffffffffffffffff168173ffffffffffffffffffffffffffffffffffffffff16036100ea575f6040517f1e4fbdf70000000000000000000000000000000000000000000000000000000081526004016100e19190610c6f565b60405180910390fd5b6100f98161013660201b60201c565b5061011d3360016103e860405180602001604052805f8152506101f960201b60201c565b506112b9565b80600290816101329190610e95565b5050565b5f60035f9054906101000a900473ffffffffffffffffffffffffffffffffffffffff1690508160035f6101000a81548173ffffffffffffffffffffffffffffffffffffffff021916908373ffffffffffffffffffffffffffffffffffffffff1602179055508173ffffffffffffffffffffffffffffffffffffffff168173ffffffffffffffffffffffffffffffffffffffff167f8be0079c531659141344cd1fd0a4f28419497f9722a3daafe3b4186f6b6457e060405160405180910390a35050565b5f73ffffffffffffffffffffffffffffffffffffffff168473ffffffffffffffffffffffffffffffffffffffff1603610269575f6040517f57f447ce0000000000000000000000000000000000000000000000000000000081526004016102609190610c6f565b60405180910390fd5b5f8061027b858561029a60201b60201c565b915091506102925f878484876102ca60201b60201c565b505050505050565b60608060405191506001825283602083015260408201905060018152826020820152604081016040529250929050565b6102dc8585858561038e60201b60201c565b5f73ffffffffffffffffffffffffffffffffffffffff168473ffffffffffffffffffffffffffffffffffffffff1614610387575f61031e61072460201b60201c565b90506001845103610370575f61033d5f8661072b60201b90919060201c565b90505f6103535f8661072b60201b90919060201c565b905061036983898985858961073e60201b60201c565b5050610385565b6103848187878787876108ed60201b60201c565b5b505b5050505050565b80518251146103d857815181516040517f5b0599910000000000000000000000000000000000000000000000000000000081526004016103cf929190610f73565b60405180910390fd5b5f6103e761072460201b60201c565b90505f5b83518110156105e3575f610408828661072b60201b90919060201c565b90505f61041e838661072b60201b90919060201c565b90505f73ffffffffffffffffffffffffffffffffffffffff168873ffffffffffffffffffffffffffffffffffffffff1614610541575f805f8481526020019081526020015f205f8a73ffffffffffffffffffffffffffffffffffffffff1673ffffffffffffffffffffffffffffffffffffffff1681526020019081526020015f20549050818110156104ed57888183856040517f03dee4c50000000000000000000000000000000000000000000000000000000081526004016104e49493929190610f9a565b60405180910390fd5b8181035f808581526020019081526020015f205f8b73ffffffffffffffffffffffffffffffffffffffff1673ffffffffffffffffffffffffffffffffffffffff1681526020019081526020015f2081905550505b5f73ffffffffffffffffffffffffffffffffffffffff168773ffffffffffffffffffffffffffffffffffffffff16146105d657805f808481526020019081526020015f205f8973ffffffffffffffffffffffffffffffffffffffff1673ffffffffffffffffffffffffffffffffffffffff1681526020019081526020015f205f8282546105ce919061100a565b925050819055505b50508060010190506103eb565b50600183510361069e575f6106015f8561072b60201b90919060201c565b90505f6106175f8561072b60201b90919060201c565b90508573ffffffffffffffffffffffffffffffffffffffff168773ffffffffffffffffffffffffffffffffffffffff168473ffffffffffffffffffffffffffffffffffffffff167fc3d58168c5ae7397731d063d5bbf3d657854427343f4c083240f7aacaa2d0f62858560405161068f929190610f73565b60405180910390a4505061071d565b8373ffffffffffffffffffffffffffffffffffffffff168573ffffffffffffffffffffffffffffffffffffffff168273ffffffffffffffffffffffffffffffffffffffff167f4a39dc06d4c0dbc64b70af90fd698a233a518aa5d07e595d983b8c0526c8f7fb86866040516107149291906110f4565b60405180910390a45b5050505050565b5f33905090565b5f60208202602084010151905092915050565b5f8473ffffffffffffffffffffffffffffffffffffffff163b11156108e5578373ffffffffffffffffffffffffffffffffffffffff1663f23a6e6187878686866040518663ffffffff1660e01b815260040161079e95949392919061117b565b6020604051808303815f875af19250505080156107d957506040513d601f19601f820116820180604052508101906107d69190611228565b60015b61085a573d805f8114610807576040519150601f19603f3d011682016040523d82523d5f602084013e61080c565b606091505b505f81510361085257846040517f57f447ce0000000000000000000000000000000000000000000000000000000081526004016108499190610c6f565b60405180910390fd5b805181602001fd5b63f23a6e6160e01b7bffffffffffffffffffffffffffffffffffffffffffffffffffffffff1916817bffffffffffffffffffffffffffffffffffffffffffffffffffffffff1916146108e357846040517f57f447ce0000000000000000000000000000000000000000000000000000000081526004016108da9190610c6f565b60405180910390fd5b505b505050505050565b5f8473ffffffffffffffffffffffffffffffffffffffff163b1115610a94578373ffffffffffffffffffffffffffffffffffffffff1663bc197c8187878686866040518663ffffffff1660e01b815260040161094d959493929190611253565b6020604051808303815f875af192505050801561098857506040513d601f19601f820116820180604052508101906109859190611228565b60015b610a09573d805f81146109b6576040519150601f19603f3d011682016040523d82523d5f602084013e6109bb565b606091505b505f815103610a0157846040517f57f447ce0000000000000000000000000000000000000000000000000000000081526004016109f89190610c6f565b60405180910390fd5b805181602001fd5b63bc197c8160e01b7bffffffffffffffffffffffffffffffffffffffffffffffffffffffff1916817bffffffffffffffffffffffffffffffffffffffffffffffffffffffff191614610a9257846040517f57f447ce000000000000000000000000000000000000000000000000000000008152600401610a899190610c6f565b60405180910390fd5b505b505050505050565b5f604051905090565b5f80fd5b5f80fd5b5f80fd5b5f80fd5b5f601f19601f8301169050919050565b7f4e487b71000000000000000000000000000000000000000000000000000000005f52604160045260245ffd5b610afb82610ab5565b810181811067ffffffffffffffff82111715610b1a57610b19610ac5565b5b80604052505050565b5f610b2c610a9c565b9050610b388282610af2565b919050565b5f67ffffffffffffffff821115610b5757610b56610ac5565b5b610b6082610ab5565b9050602081019050919050565b8281835e5f83830152505050565b5f610b8d610b8884610b3d565b610b23565b905082815260208101848484011115610ba957610ba8610ab1565b5b610bb4848285610b6d565b509392505050565b5f82601f830112610bd057610bcf610aad565b5b8151610be0848260208601610b7b565b91505092915050565b5f60208284031215610bfe57610bfd610aa5565b5b5f82015167ffffffffffffffff811115610c1b57610c1a610aa9565b5b610c2784828501610bbc565b91505092915050565b5f73ffffffffffffffffffffffffffffffffffffffff82169050919050565b5f610c5982610c30565b9050919050565b610c6981610c4f565b82525050565b5f602082019050610c825f830184610c60565b92915050565b5f81519050919050565b7f4e487b71000000000000000000000000000000000000000000000000000000005f52602260045260245ffd5b5f6002820490506001821680610cd657607f821691505b602082108103610ce957610ce8610c92565b5b50919050565b5f819050815f5260205f209050919050565b5f6020601f8301049050919050565b5f82821b905092915050565b5f60088302610d4b7fffffffffffffffffffffffffffffffffffffffffffffffffffffffffffffffff82610d10565b610d558683610d10565b95508019841693508086168417925050509392505050565b5f819050919050565b5f819050919050565b5f610d99610d94610d8f84610d6d565b610d76565b610d6d565b9050919050565b5f819050919050565b610db283610d7f565b610dc6610dbe82610da0565b848454610d1c565b825550505050565b5f90565b610dda610dce565b610de5818484610da9565b505050565b5b81811015610e0857610dfd5f82610dd2565b600181019050610deb565b5050565b601f821115610e4d57610e1e81610cef565b610e2784610d01565b81016020851015610e36578190505b610e4a610e4285610d01565b830182610dea565b50505b505050565b5f82821c905092915050565b5f610e6d5f1984600802610e52565b1980831691505092915050565b5f610e858383610e5e565b9150826002028217905092915050565b610e9e82610c88565b67ffffffffffffffff811115610eb757610eb6610ac5565b5b610ec18254610cbf565b610ecc828285610e0c565b5f60209050601f831160018114610efd575f8415610eeb578287015190505b610ef58582610e7a565b865550610f5c565b601f198416610f0b86610cef565b5f5b82811015610f3257848901518255600182019150602085019450602081019050610f0d565b86831015610f4f5784890151610f4b601f891682610e5e565b8355505b6001600288020188555050505b505050505050565b610f6d81610d6d565b82525050565b5f604082019050610f865f830185610f64565b610f936020830184610f64565b9392505050565b5f608082019050610fad5f830187610c60565b610fba6020830186610f64565b610fc76040830185610f64565b610fd46060830184610f64565b95945050505050565b7f4e487b71000000000000000000000000000000000000000000000000000000005f52601160045260245ffd5b5f61101482610d6d565b915061101f83610d6d565b925082820190508082111561103757611036610fdd565b5b92915050565b5f81519050919050565b5f82825260208201905092915050565b5f819050602082019050919050565b61106f81610d6d565b82525050565b5f6110808383611066565b60208301905092915050565b5f602082019050919050565b5f6110a28261103d565b6110ac8185611047565b93506110b783611057565b805f5b838110156110e75781516110ce8882611075565b97506110d98361108c565b9250506001810190506110ba565b5085935050505092915050565b5f6040820190508181035f83015261110c8185611098565b905081810360208301526111208184611098565b90509392505050565b5f81519050919050565b5f82825260208201905092915050565b5f61114d82611129565b6111578185611133565b9350611167818560208601610b6d565b61117081610ab5565b840191505092915050565b5f60a08201905061118e5f830188610c60565b61119b6020830187610c60565b6111a86040830186610f64565b6111b56060830185610f64565b81810360808301526111c78184611143565b90509695505050505050565b5f7fffffffff0000000000000000000000000000000000000000000000000000000082169050919050565b611207816111d3565b8114611211575f80fd5b50565b5f81519050611222816111fe565b92915050565b5f6020828403121561123d5761123c610aa5565b5b5f61124a84828501611214565b91505092915050565b5f60a0820190506112665f830188610c60565b6112736020830187610c60565b81810360408301526112858186611098565b905081810360608301526112998185611098565b905081810360808301526112ad8184611143565b90509695505050505050565b6134c1806112c65f395ff3fe6080604052600436106101fb575f3560e01c8063715018a61161010c578063a22cb4651161009f578063eb8835ab1161006e578063eb8835ab146106b6578063f0c2a15c146106f2578063f242432a1461071a578063f2fde38b14610742578063f5298aca1461076a57610202565b8063a22cb46514610626578063abc91e121461064e578063d8a5c6fd14610664578063e985e9c51461067a57610202565b80638f0f80c4116100db5780638f0f80c4146105825780638f847c9c146105aa57806393777fb3146105d457806397f22ea9146105fe57610202565b8063715018a6146104f2578063731133e9146105085780637a01e6e3146105305780638da5cb5b1461055857610202565b8063249b7c191161018f5780633ccfd60b1161015e5780633ccfd60b1461043057806349c32217146104465780634e1273f4146104625780637097a3321461049e57806370a0c464146104c857610202565b8063249b7c19146103785780632eb2c2d6146103a25780632ff2e9dc146103ca5780633af32abf146103f457610202565b806311baff63116101cb57806311baff63146102e257806313f99a1c1461030a578063209cda0e1461032657806322c8061b1461034e57610202565b8062fdd58e1461020657806301f7e49a1461024257806301ffc9a71461026a5780630e89341c146102a657610202565b3661020257005b5f80fd5b348015610211575f80fd5b5061022c60048036038101906102279190612416565b610792565b6040516102399190612463565b60405180910390f35b34801561024d575f80fd5b506102686004803603810190610263919061247c565b6107e7565b005b348015610275575f80fd5b50610290600480360381019061028b91906124fc565b610846565b60405161029d9190612541565b60405180910390f35b3480156102b1575f80fd5b506102cc60048036038101906102c7919061255a565b610927565b6040516102d991906125f5565b60405180910390f35b3480156102ed575f80fd5b5061030860048036038101906103039190612676565b6109b9565b005b610324600480360381019061031f919061255a565b610a5b565b005b348015610331575f80fd5b5061034c60048036038101906103479190612416565b610b74565b005b348015610359575f80fd5b50610362610bd1565b60405161036f9190612541565b60405180910390f35b348015610383575f80fd5b5061038c610be3565b6040516103999190612463565b60405180910390f35b3480156103ad575f80fd5b506103c860048036038101906103c391906128a9565b610be9565b005b3480156103d5575f80fd5b506103de610c90565b6040516103eb9190612463565b60405180910390f35b3480156103ff575f80fd5b5061041a6004803603810190610415919061247c565b610c96565b6040516104279190612541565b60405180910390f35b34801561043b575f80fd5b50610444610ce8565b005b610460600480360381019061045b919061255a565b610d84565b005b34801561046d575f80fd5b5061048860048036038101906104839190612a34565b610ecf565b6040516104959190612b61565b60405180910390f35b3480156104a9575f80fd5b506104b2610fd6565b6040516104bf9190612463565b60405180910390f35b3480156104d3575f80fd5b506104dc610fdb565b6040516104e99190612463565b60405180910390f35b3480156104fd575f80fd5b50610506610fe1565b005b348015610513575f80fd5b5061052e60048036038101906105299190612b81565b610ff4565b005b34801561053b575f80fd5b506105566004803603810190610551919061255a565b611036565b005b348015610563575f80fd5b5061056c611048565b6040516105799190612c10565b60405180910390f35b34801561058d575f80fd5b506105a860048036038101906105a39190612676565b611070565b005b3480156105b5575f80fd5b506105be611113565b6040516105cb9190612463565b60405180910390f35b3480156105df575f80fd5b506105e8611118565b6040516105f59190612463565b60405180910390f35b348015610609575f80fd5b50610624600480360381019061061f919061247c565b61111e565b005b348015610631575f80fd5b5061064c60048036038101906106479190612c53565b61117e565b005b348015610659575f80fd5b50610662611194565b005b34801561066f575f80fd5b506106786112aa565b005b348015610685575f80fd5b506106a0600480360381019061069b9190612c91565b6112ce565b6040516106ad9190612541565b60405180910390f35b3480156106c1575f80fd5b506106dc60048036038101906106d7919061247c565b61135c565b6040516106e99190612541565b60405180910390f35b3480156106fd575f80fd5b506107186004803603810190610713919061255a565b611379565b005b348015610725575f80fd5b50610740600480360381019061073b9190612ccf565b61138b565b005b34801561074d575f80fd5b506107686004803603810190610763919061247c565b611432565b005b348015610775575f80fd5b50610790600480360381019061078b9190612d62565b6114b6565b005b5f805f8381526020019081526020015f205f8473ffffffffffffffffffffffffffffffffffffffff1673ffffffffffffffffffffffffffffffffffffffff1681526020019081526020015f2054905092915050565b6107ef611534565b5f60085f8373ffffffffffffffffffffffffffffffffffffffff1673ffffffffffffffffffffffffffffffffffffffff1681526020019081526020015f205f6101000a81548160ff02191690831515021790555050565b5f7fd9b67a26000000000000000000000000000000000000000000000000000000007bffffffffffffffffffffffffffffffffffffffffffffffffffffffff1916827bffffffffffffffffffffffffffffffffffffffffffffffffffffffff1916148061091057507f0e89341c000000000000000000000000000000000000000000000000000000007bffffffffffffffffffffffffffffffffffffffffffffffffffffffff1916827bffffffffffffffffffffffffffffffffffffffffffffffffffffffff1916145b80610920575061091f826115bb565b5b9050919050565b60606002805461093690612ddf565b80601f016020809104026020016040519081016040528092919081815260200182805461096290612ddf565b80156109ad5780601f10610984576101008083540402835291602001916109ad565b820191905f5260205f20905b81548152906001019060200180831161099057829003601f168201915b50505050509050919050565b6109c1611534565b5f5b82829050811015610a56575f60085f8585858181106109e5576109e4612e0f565b5b90506020020160208101906109fa919061247c565b73ffffffffffffffffffffffffffffffffffffffff1673ffffffffffffffffffffffffffffffffffffffff1681526020019081526020015f205f6101000a81548160ff02191690831515021790555080806001019150506109c3565b505050565b60075f9054906101000a900460ff16610aa9576040517f08c379a0000000000000000000000000000000000000000000000000000000008152600401610aa090612e86565b60405180910390fd5b5f81600554610ab89190612ed1565b905080341015610afd576040517f08c379a0000000000000000000000000000000000000000000000000000000008152600401610af490612f5c565b60405180910390fd5b610b183360018460405180602001604052805f815250611624565b80341115610b70573373ffffffffffffffffffffffffffffffffffffffff166108fc8234610b469190612f7a565b90811502906040515f60405180830381858888f19350505050158015610b6e573d5f803e3d5ffd5b505b5050565b80610b80836001610792565b1015610bc1576040517f08c379a0000000000000000000000000000000000000000000000000000000008152600401610bb890612ff7565b60405180910390fd5b610bcd826001836116b9565b5050565b60075f9054906101000a900460ff1681565b60045481565b5f610bf261175b565b90508073ffffffffffffffffffffffffffffffffffffffff168673ffffffffffffffffffffffffffffffffffffffff1614158015610c375750610c3586826112ce565b155b15610c7b5780866040517fe237d922000000000000000000000000000000000000000000000000000000008152600401610c72929190613015565b60405180910390fd5b610c888686868686611762565b505050505050565b6103e881565b5f60085f8373ffffffffffffffffffffffffffffffffffffffff1673ffffffffffffffffffffffffffffffffffffffff1681526020019081526020015f205f9054906101000a900460ff169050919050565b610cf0611534565b5f4790505f8111610d36576040517f08c379a0000000000000000000000000000000000000000000000000000000008152600401610d2d90613086565b60405180910390fd5b610d3e611048565b73ffffffffffffffffffffffffffffffffffffffff166108fc8290811502906040515f60405180830381858888f19350505050158015610d80573d5f803e3d5ffd5b5050565b60085f3373ffffffffffffffffffffffffffffffffffffffff1673ffffffffffffffffffffffffffffffffffffffff1681526020019081526020015f205f9054906101000a900460ff16610e0d576040517f08c379a0000000000000000000000000000000000000000000000000000000008152600401610e04906130ee565b60405180910390fd5b5f60065482610e1c9190612ed1565b9050803414610e60576040517f08c379a0000000000000000000000000000000000000000000000000000000008152600401610e5790613156565b60405180910390fd5b610e7b3360028460405180602001604052805f815250611624565b3373ffffffffffffffffffffffffffffffffffffffff167f3dbede4722935d18d5ac26e7855e25e08cccdc56c42d4a6242bf5b46641f139c8383604051610ec3929190613174565b60405180910390a25050565b60608151835114610f1b57815183516040517f5b059991000000000000000000000000000000000000000000000000000000008152600401610f12929190613174565b60405180910390fd5b5f835167ffffffffffffffff811115610f3757610f366126c1565b5b604051908082528060200260200182016040528015610f655781602001602082028036833780820191505090505b5090505f5b8451811015610fcb57610fa1610f89828761185690919063ffffffff16565b610f9c838761186990919063ffffffff16565b610792565b828281518110610fb457610fb3612e0f565b5b602002602001018181525050806001019050610f6a565b508091505092915050565b600181565b60055481565b610fe9611534565b610ff25f61187c565b565b610ffc611534565b5f8151036110235761101e84848460405180602001604052805f815250611624565b611030565b61102f84848484611624565b5b50505050565b61103e611534565b8060068190555050565b5f60035f9054906101000a900473ffffffffffffffffffffffffffffffffffffffff16905090565b611078611534565b5f5b8282905081101561110e57600160085f85858581811061109d5761109c612e0f565b5b90506020020160208101906110b2919061247c565b73ffffffffffffffffffffffffffffffffffffffff1673ffffffffffffffffffffffffffffffffffffffff1681526020019081526020015f205f6101000a81548160ff021916908315150217905550808060010191505061107a565b505050565b600281565b60065481565b611126611534565b600160085f8373ffffffffffffffffffffffffffffffffffffffff1673ffffffffffffffffffffffffffffffffffffffff1681526020019081526020015f205f6101000a81548160ff02191690831515021790555050565b61119061118961175b565b838361193f565b5050565b60075f9054906101000a900460ff166111e2576040517f08c379a00000000000000000000000000000000000000000000000000000000081526004016111d990612e86565b60405180910390fd5b5f6111ee336002610792565b90505f8111611232576040517f08c379a0000000000000000000000000000000000000000000000000000000008152600401611229906131e5565b60405180910390fd5b61123e336002836116b9565b6112593360018360405180602001604052805f815250611624565b3373ffffffffffffffffffffffffffffffffffffffff167f4e9c210c7bb5578299d11b938b47d2967a1331c52638e55b4c5aaff17d1efd9a8260405161129f9190612463565b60405180910390a250565b6112b2611534565b600160075f6101000a81548160ff021916908315150217905550565b5f60015f8473ffffffffffffffffffffffffffffffffffffffff1673ffffffffffffffffffffffffffffffffffffffff1681526020019081526020015f205f8373ffffffffffffffffffffffffffffffffffffffff1673ffffffffffffffffffffffffffffffffffffffff1681526020019081526020015f205f9054906101000a900460ff16905092915050565b6008602052805f5260405f205f915054906101000a900460ff1681565b611381611534565b8060058190555050565b5f61139461175b565b90508073ffffffffffffffffffffffffffffffffffffffff168673ffffffffffffffffffffffffffffffffffffffff16141580156113d957506113d786826112ce565b155b1561141d5780866040517fe237d922000000000000000000000000000000000000000000000000000000008152600401611414929190613015565b60405180910390fd5b61142a8686868686611aa8565b505050505050565b61143a611534565b5f73ffffffffffffffffffffffffffffffffffffffff168173ffffffffffffffffffffffffffffffffffffffff16036114aa575f6040517f1e4fbdf70000000000000000000000000000000000000000000000000000000081526004016114a19190612c10565b60405180910390fd5b6114b38161187c565b50565b3373ffffffffffffffffffffffffffffffffffffffff168373ffffffffffffffffffffffffffffffffffffffff1614611524576040517f08c379a000000000000000000000000000000000000000000000000000000000815260040161151b90613273565b60405180910390fd5b61152f8383836116b9565b505050565b61153c61175b565b73ffffffffffffffffffffffffffffffffffffffff1661155a611048565b73ffffffffffffffffffffffffffffffffffffffff16146115b95761157d61175b565b6040517f118cdaa70000000000000000000000000000000000000000000000000000000081526004016115b09190612c10565b60405180910390fd5b565b5f7f01ffc9a7000000000000000000000000000000000000000000000000000000007bffffffffffffffffffffffffffffffffffffffffffffffffffffffff1916827bffffffffffffffffffffffffffffffffffffffffffffffffffffffff1916149050919050565b5f73ffffffffffffffffffffffffffffffffffffffff168473ffffffffffffffffffffffffffffffffffffffff1603611694575f6040517f57f447ce00000000000000000000000000000000000000000000000000000000815260040161168b9190612c10565b60405180910390fd5b5f806116a08585611bae565b915091506116b15f87848487611bde565b505050505050565b5f73ffffffffffffffffffffffffffffffffffffffff168373ffffffffffffffffffffffffffffffffffffffff1603611729575f6040517f01a835140000000000000000000000000000000000000000000000000000000081526004016117209190612c10565b60405180910390fd5b5f806117358484611bae565b91509150611754855f848460405180602001604052805f815250611bde565b5050505050565b5f33905090565b5f73ffffffffffffffffffffffffffffffffffffffff168473ffffffffffffffffffffffffffffffffffffffff16036117d2575f6040517f57f447ce0000000000000000000000000000000000000000000000000000000081526004016117c99190612c10565b60405180910390fd5b5f73ffffffffffffffffffffffffffffffffffffffff168573ffffffffffffffffffffffffffffffffffffffff1603611842575f6040517f01a835140000000000000000000000000000000000000000000000000000000081526004016118399190612c10565b60405180910390fd5b61184f8585858585611bde565b5050505050565b5f60208202602084010151905092915050565b5f60208202602084010151905092915050565b5f60035f9054906101000a900473ffffffffffffffffffffffffffffffffffffffff1690508160035f6101000a81548173ffffffffffffffffffffffffffffffffffffffff021916908373ffffffffffffffffffffffffffffffffffffffff1602179055508173ffffffffffffffffffffffffffffffffffffffff168173ffffffffffffffffffffffffffffffffffffffff167f8be0079c531659141344cd1fd0a4f28419497f9722a3daafe3b4186f6b6457e060405160405180910390a35050565b5f73ffffffffffffffffffffffffffffffffffffffff168273ffffffffffffffffffffffffffffffffffffffff16036119af575f6040517fced3e1000000000000000000000000000000000000000000000000000000000081526004016119a69190612c10565b60405180910390fd5b8060015f8573ffffffffffffffffffffffffffffffffffffffff1673ffffffffffffffffffffffffffffffffffffffff1681526020019081526020015f205f8473ffffffffffffffffffffffffffffffffffffffff1673ffffffffffffffffffffffffffffffffffffffff1681526020019081526020015f205f6101000a81548160ff0219169083151502179055508173ffffffffffffffffffffffffffffffffffffffff168373ffffffffffffffffffffffffffffffffffffffff167f17307eab39ab6107e8899845ad3d59bd9653f200f220920489ca2b5937696c3183604051611a9b9190612541565b60405180910390a3505050565b5f73ffffffffffffffffffffffffffffffffffffffff168473ffffffffffffffffffffffffffffffffffffffff1603611b18575f6040517f57f447ce000000000000000000000000000000000000000000000000000000008152600401611b0f9190612c10565b60405180910390fd5b5f73ffffffffffffffffffffffffffffffffffffffff168573ffffffffffffffffffffffffffffffffffffffff1603611b88575f6040517f01a83514000000000000000000000000000000000000000000000000000000008152600401611b7f9190612c10565b60405180910390fd5b5f80611b948585611bae565b91509150611ba58787848487611bde565b50505050505050565b60608060405191506001825283602083015260408201905060018152826020820152604081016040529250929050565b611bea85858585611c8a565b5f73ffffffffffffffffffffffffffffffffffffffff168473ffffffffffffffffffffffffffffffffffffffff1614611c83575f611c2661175b565b90506001845103611c72575f611c455f8661186990919063ffffffff16565b90505f611c5b5f8661186990919063ffffffff16565b9050611c6b83898985858961201a565b5050611c81565b611c808187878787876121c9565b5b505b5050505050565b8051825114611cd457815181516040517f5b059991000000000000000000000000000000000000000000000000000000008152600401611ccb929190613174565b60405180910390fd5b5f611cdd61175b565b90505f5b8351811015611ed9575f611cfe828661186990919063ffffffff16565b90505f611d14838661186990919063ffffffff16565b90505f73ffffffffffffffffffffffffffffffffffffffff168873ffffffffffffffffffffffffffffffffffffffff1614611e37575f805f8481526020019081526020015f205f8a73ffffffffffffffffffffffffffffffffffffffff1673ffffffffffffffffffffffffffffffffffffffff1681526020019081526020015f2054905081811015611de357888183856040517f03dee4c5000000000000000000000000000000000000000000000000000000008152600401611dda9493929190613291565b60405180910390fd5b8181035f808581526020019081526020015f205f8b73ffffffffffffffffffffffffffffffffffffffff1673ffffffffffffffffffffffffffffffffffffffff1681526020019081526020015f2081905550505b5f73ffffffffffffffffffffffffffffffffffffffff168773ffffffffffffffffffffffffffffffffffffffff1614611ecc57805f808481526020019081526020015f205f8973ffffffffffffffffffffffffffffffffffffffff1673ffffffffffffffffffffffffffffffffffffffff1681526020019081526020015f205f828254611ec491906132d4565b925050819055505b5050806001019050611ce1565b506001835103611f94575f611ef75f8561186990919063ffffffff16565b90505f611f0d5f8561186990919063ffffffff16565b90508573ffffffffffffffffffffffffffffffffffffffff168773ffffffffffffffffffffffffffffffffffffffff168473ffffffffffffffffffffffffffffffffffffffff167fc3d58168c5ae7397731d063d5bbf3d657854427343f4c083240f7aacaa2d0f628585604051611f85929190613174565b60405180910390a45050612013565b8373ffffffffffffffffffffffffffffffffffffffff168573ffffffffffffffffffffffffffffffffffffffff168273ffffffffffffffffffffffffffffffffffffffff167f4a39dc06d4c0dbc64b70af90fd698a233a518aa5d07e595d983b8c0526c8f7fb868660405161200a929190613307565b60405180910390a45b5050505050565b5f8473ffffffffffffffffffffffffffffffffffffffff163b11156121c1578373ffffffffffffffffffffffffffffffffffffffff1663f23a6e6187878686866040518663ffffffff1660e01b815260040161207a95949392919061338e565b6020604051808303815f875af19250505080156120b557506040513d601f19601f820116820180604052508101906120b291906133fa565b60015b612136573d805f81146120e3576040519150601f19603f3d011682016040523d82523d5f602084013e6120e8565b606091505b505f81510361212e57846040517f57f447ce0000000000000000000000000000000000000000000000000000000081526004016121259190612c10565b60405180910390fd5b805181602001fd5b63f23a6e6160e01b7bffffffffffffffffffffffffffffffffffffffffffffffffffffffff1916817bffffffffffffffffffffffffffffffffffffffffffffffffffffffff1916146121bf57846040517f57f447ce0000000000000000000000000000000000000000000000000000000081526004016121b69190612c10565b60405180910390fd5b505b505050505050565b5f8473ffffffffffffffffffffffffffffffffffffffff163b1115612370578373ffffffffffffffffffffffffffffffffffffffff1663bc197c8187878686866040518663ffffffff1660e01b8152600401612229959493929190613425565b6020604051808303815f875af192505050801561226457506040513d601f19601f8201168201806040525081019061226191906133fa565b60015b6122e5573d805f8114612292576040519150601f19603f3d011682016040523d82523d5f602084013e612297565b606091505b505f8151036122dd57846040517f57f447ce0000000000000000000000000000000000000000000000000000000081526004016122d49190612c10565b60405180910390fd5b805181602001fd5b63bc197c8160e01b7bffffffffffffffffffffffffffffffffffffffffffffffffffffffff1916817bffffffffffffffffffffffffffffffffffffffffffffffffffffffff19161461236e57846040517f57f447ce0000000000000000000000000000000000000000000000000000000081526004016123659190612c10565b60405180910390fd5b505b505050505050565b5f604051905090565b5f80fd5b5f80fd5b5f73ffffffffffffffffffffffffffffffffffffffff82169050919050565b5f6123b282612389565b9050919050565b6123c2816123a8565b81146123cc575f80fd5b50565b5f813590506123dd816123b9565b92915050565b5f819050919050565b6123f5816123e3565b81146123ff575f80fd5b50565b5f81359050612410816123ec565b92915050565b5f806040838503121561242c5761242b612381565b5b5f612439858286016123cf565b925050602061244a85828601612402565b9150509250929050565b61245d816123e3565b82525050565b5f6020820190506124765f830184612454565b92915050565b5f6020828403121561249157612490612381565b5b5f61249e848285016123cf565b91505092915050565b5f7fffffffff0000000000000000000000000000000000000000000000000000000082169050919050565b6124db816124a7565b81146124e5575f80fd5b50565b5f813590506124f6816124d2565b92915050565b5f6020828403121561251157612510612381565b5b5f61251e848285016124e8565b91505092915050565b5f8115159050919050565b61253b81612527565b82525050565b5f6020820190506125545f830184612532565b92915050565b5f6020828403121561256f5761256e612381565b5b5f61257c84828501612402565b91505092915050565b5f81519050919050565b5f82825260208201905092915050565b8281835e5f83830152505050565b5f601f19601f8301169050919050565b5f6125c782612585565b6125d1818561258f565b93506125e181856020860161259f565b6125ea816125ad565b840191505092915050565b5f6020820190508181035f83015261260d81846125bd565b905092915050565b5f80fd5b5f80fd5b5f80fd5b5f8083601f84011261263657612635612615565b5b8235905067ffffffffffffffff81111561265357612652612619565b5b60208301915083602082028301111561266f5761266e61261d565b5b9250929050565b5f806020838503121561268c5761268b612381565b5b5f83013567ffffffffffffffff8111156126a9576126a8612385565b5b6126b585828601612621565b92509250509250929050565b7f4e487b71000000000000000000000000000000000000000000000000000000005f52604160045260245ffd5b6126f7826125ad565b810181811067ffffffffffffffff82111715612716576127156126c1565b5b80604052505050565b5f612728612378565b905061273482826126ee565b919050565b5f67ffffffffffffffff821115612753576127526126c1565b5b602082029050602081019050919050565b5f61277661277184612739565b61271f565b905080838252602082019050602084028301858111156127995761279861261d565b5b835b818110156127c257806127ae8882612402565b84526020840193505060208101905061279b565b5050509392505050565b5f82601f8301126127e0576127df612615565b5b81356127f0848260208601612764565b91505092915050565b5f80fd5b5f67ffffffffffffffff821115612817576128166126c1565b5b612820826125ad565b9050602081019050919050565b828183375f83830152505050565b5f61284d612848846127fd565b61271f565b905082815260208101848484011115612869576128686127f9565b5b61287484828561282d565b509392505050565b5f82601f8301126128905761288f612615565b5b81356128a084826020860161283b565b91505092915050565b5f805f805f60a086880312156128c2576128c1612381565b5b5f6128cf888289016123cf565b95505060206128e0888289016123cf565b945050604086013567ffffffffffffffff81111561290157612900612385565b5b61290d888289016127cc565b935050606086013567ffffffffffffffff81111561292e5761292d612385565b5b61293a888289016127cc565b925050608086013567ffffffffffffffff81111561295b5761295a612385565b5b6129678882890161287c565b9150509295509295909350565b5f67ffffffffffffffff82111561298e5761298d6126c1565b5b602082029050602081019050919050565b5f6129b16129ac84612974565b61271f565b905080838252602082019050602084028301858111156129d4576129d361261d565b5b835b818110156129fd57806129e988826123cf565b8452602084019350506020810190506129d6565b5050509392505050565b5f82601f830112612a1b57612a1a612615565b5b8135612a2b84826020860161299f565b91505092915050565b5f8060408385031215612a4a57612a49612381565b5b5f83013567ffffffffffffffff811115612a6757612a66612385565b5b612a7385828601612a07565b925050602083013567ffffffffffffffff811115612a9457612a93612385565b5b612aa0858286016127cc565b9150509250929050565b5f81519050919050565b5f82825260208201905092915050565b5f819050602082019050919050565b612adc816123e3565b82525050565b5f612aed8383612ad3565b60208301905092915050565b5f602082019050919050565b5f612b0f82612aaa565b612b198185612ab4565b9350612b2483612ac4565b805f5b83811015612b54578151612b3b8882612ae2565b9750612b4683612af9565b925050600181019050612b27565b5085935050505092915050565b5f6020820190508181035f830152612b798184612b05565b905092915050565b5f805f8060808587031215612b9957612b98612381565b5b5f612ba6878288016123cf565b9450506020612bb787828801612402565b9350506040612bc887828801612402565b925050606085013567ffffffffffffffff811115612be957612be8612385565b5b612bf58782880161287c565b91505092959194509250565b612c0a816123a8565b82525050565b5f602082019050612c235f830184612c01565b92915050565b612c3281612527565b8114612c3c575f80fd5b50565b5f81359050612c4d81612c29565b92915050565b5f8060408385031215612c6957612c68612381565b5b5f612c76858286016123cf565b9250506020612c8785828601612c3f565b9150509250929050565b5f8060408385031215612ca757612ca6612381565b5b5f612cb4858286016123cf565b9250506020612cc5858286016123cf565b9150509250929050565b5f805f805f60a08688031215612ce857612ce7612381565b5b5f612cf5888289016123cf565b9550506020612d06888289016123cf565b9450506040612d1788828901612402565b9350506060612d2888828901612402565b925050608086013567ffffffffffffffff811115612d4957612d48612385565b5b612d558882890161287c565b9150509295509295909350565b5f805f60608486031215612d7957612d78612381565b5b5f612d86868287016123cf565b9350506020612d9786828701612402565b9250506040612da886828701612402565b9150509250925092565b7f4e487b71000000000000000000000000000000000000000000000000000000005f52602260045260245ffd5b5f6002820490506001821680612df657607f821691505b602082108103612e0957612e08612db2565b5b50919050565b7f4e487b71000000000000000000000000000000000000000000000000000000005f52603260045260245ffd5b7f4d5a43414c20746f6b656e206e6f74206c61756e6368656420796574000000005f82015250565b5f612e70601c8361258f565b9150612e7b82612e3c565b602082019050919050565b5f6020820190508181035f830152612e9d81612e64565b9050919050565b7f4e487b71000000000000000000000000000000000000000000000000000000005f52601160045260245ffd5b5f612edb826123e3565b9150612ee6836123e3565b9250828202612ef4816123e3565b91508282048414831517612f0b57612f0a612ea4565b5b5092915050565b7f496e73756666696369656e74204554482073656e7400000000000000000000005f82015250565b5f612f4660158361258f565b9150612f5182612f12565b602082019050919050565b5f6020820190508181035f830152612f7381612f3a565b9050919050565b5f612f84826123e3565b9150612f8f836123e3565b9250828203905081811115612fa757612fa6612ea4565b5b92915050565b7f496e73756666696369656e74204d5a43414c2062616c616e63650000000000005f82015250565b5f612fe1601a8361258f565b9150612fec82612fad565b602082019050919050565b5f6020820190508181035f83015261300e81612fd5565b9050919050565b5f6040820190506130285f830185612c01565b6130356020830184612c01565b9392505050565b7f4e6f2066756e647320746f2077697468647261770000000000000000000000005f82015250565b5f61307060148361258f565b915061307b8261303c565b602082019050919050565b5f6020820190508181035f83015261309d81613064565b9050919050565b7f41646472657373206973206e6f742077686974656c69737465640000000000005f82015250565b5f6130d8601a8361258f565b91506130e3826130a4565b602082019050919050565b5f6020820190508181035f830152613105816130cc565b9050919050565b7f496e636f7272656374204554482073656e7400000000000000000000000000005f82015250565b5f61314060128361258f565b915061314b8261310c565b602082019050919050565b5f6020820190508181035f83015261316d81613134565b9050919050565b5f6040820190506131875f830185612454565b6131946020830184612454565b9392505050565b7f4e6f2050524553414c455f544f4b454e20746f20636f6e7665727400000000005f82015250565b5f6131cf601b8361258f565b91506131da8261319b565b602082019050919050565b5f6020820190508181035f8301526131fc816131c3565b9050919050565b7f596f752063616e206f6e6c79206275726e20796f7572206f776e20746f6b656e5f8201527f7300000000000000000000000000000000000000000000000000000000000000602082015250565b5f61325d60218361258f565b915061326882613203565b604082019050919050565b5f6020820190508181035f83015261328a81613251565b9050919050565b5f6080820190506132a45f830187612c01565b6132b16020830186612454565b6132be6040830185612454565b6132cb6060830184612454565b95945050505050565b5f6132de826123e3565b91506132e9836123e3565b925082820190508082111561330157613300612ea4565b5b92915050565b5f6040820190508181035f83015261331f8185612b05565b905081810360208301526133338184612b05565b90509392505050565b5f81519050919050565b5f82825260208201905092915050565b5f6133608261333c565b61336a8185613346565b935061337a81856020860161259f565b613383816125ad565b840191505092915050565b5f60a0820190506133a15f830188612c01565b6133ae6020830187612c01565b6133bb6040830186612454565b6133c86060830185612454565b81810360808301526133da8184613356565b90509695505050505050565b5f815190506133f4816124d2565b92915050565b5f6020828403121561340f5761340e612381565b5b5f61341c848285016133e6565b91505092915050565b5f60a0820190506134385f830188612c01565b6134456020830187612c01565b81810360408301526134578186612b05565b9050818103606083015261346b8185612b05565b9050818103608083015261347f8184613356565b9050969550505050505056fea26469706673582212203b9f400542c6137b45088d5152eccdfcc90eb7a17f594ff7fcbb4fd9ba82af4364736f6c634300081a0033",
			"opcodes": "PUSH1 0x80 PUSH1 0x40 MSTORE PUSH4 0x679DAF00 PUSH1 0x4 SSTORE PUSH7 0x38D7EA4C68000 PUSH1 0x5 SSTORE PUSH7 0x38D7EA4C68000 PUSH1 0x6 SSTORE PUSH0 PUSH1 0x7 PUSH0 PUSH2 0x100 EXP DUP2 SLOAD DUP2 PUSH1 0xFF MUL NOT AND SWAP1 DUP4 ISZERO ISZERO MUL OR SWAP1 SSTORE POP CALLVALUE DUP1 ISZERO PUSH2 0x46 JUMPI PUSH0 DUP1 REVERT JUMPDEST POP PUSH1 0x40 MLOAD PUSH2 0x4787 CODESIZE SUB DUP1 PUSH2 0x4787 DUP4 CODECOPY DUP2 DUP2 ADD PUSH1 0x40 MSTORE DUP2 ADD SWAP1 PUSH2 0x68 SWAP2 SWAP1 PUSH2 0xBE9 JUMP JUMPDEST CALLER DUP2 PUSH2 0x79 DUP2 PUSH2 0x123 PUSH1 0x20 SHL PUSH1 0x20 SHR JUMP JUMPDEST POP PUSH0 PUSH20 0xFFFFFFFFFFFFFFFFFFFFFFFFFFFFFFFFFFFFFFFF AND DUP2 PUSH20 0xFFFFFFFFFFFFFFFFFFFFFFFFFFFFFFFFFFFFFFFF AND SUB PUSH2 0xEA JUMPI PUSH0 PUSH1 0x40 MLOAD PUSH32 0x1E4FBDF700000000000000000000000000000000000000000000000000000000 DUP2 MSTORE PUSH1 0x4 ADD PUSH2 0xE1 SWAP2 SWAP1 PUSH2 0xC6F JUMP JUMPDEST PUSH1 0x40 MLOAD DUP1 SWAP2 SUB SWAP1 REVERT JUMPDEST PUSH2 0xF9 DUP2 PUSH2 0x136 PUSH1 0x20 SHL PUSH1 0x20 SHR JUMP JUMPDEST POP PUSH2 0x11D CALLER PUSH1 0x1 PUSH2 0x3E8 PUSH1 0x40 MLOAD DUP1 PUSH1 0x20 ADD PUSH1 0x40 MSTORE DUP1 PUSH0 DUP2 MSTORE POP PUSH2 0x1F9 PUSH1 0x20 SHL PUSH1 0x20 SHR JUMP JUMPDEST POP PUSH2 0x12B9 JUMP JUMPDEST DUP1 PUSH1 0x2 SWAP1 DUP2 PUSH2 0x132 SWAP2 SWAP1 PUSH2 0xE95 JUMP JUMPDEST POP POP JUMP JUMPDEST PUSH0 PUSH1 0x3 PUSH0 SWAP1 SLOAD SWAP1 PUSH2 0x100 EXP SWAP1 DIV PUSH20 0xFFFFFFFFFFFFFFFFFFFFFFFFFFFFFFFFFFFFFFFF AND SWAP1 POP DUP2 PUSH1 0x3 PUSH0 PUSH2 0x100 EXP DUP2 SLOAD DUP2 PUSH20 0xFFFFFFFFFFFFFFFFFFFFFFFFFFFFFFFFFFFFFFFF MUL NOT AND SWAP1 DUP4 PUSH20 0xFFFFFFFFFFFFFFFFFFFFFFFFFFFFFFFFFFFFFFFF AND MUL OR SWAP1 SSTORE POP DUP2 PUSH20 0xFFFFFFFFFFFFFFFFFFFFFFFFFFFFFFFFFFFFFFFF AND DUP2 PUSH20 0xFFFFFFFFFFFFFFFFFFFFFFFFFFFFFFFFFFFFFFFF AND PUSH32 0x8BE0079C531659141344CD1FD0A4F28419497F9722A3DAAFE3B4186F6B6457E0 PUSH1 0x40 MLOAD PUSH1 0x40 MLOAD DUP1 SWAP2 SUB SWAP1 LOG3 POP POP JUMP JUMPDEST PUSH0 PUSH20 0xFFFFFFFFFFFFFFFFFFFFFFFFFFFFFFFFFFFFFFFF AND DUP5 PUSH20 0xFFFFFFFFFFFFFFFFFFFFFFFFFFFFFFFFFFFFFFFF AND SUB PUSH2 0x269 JUMPI PUSH0 PUSH1 0x40 MLOAD PUSH32 0x57F447CE00000000000000000000000000000000000000000000000000000000 DUP2 MSTORE PUSH1 0x4 ADD PUSH2 0x260 SWAP2 SWAP1 PUSH2 0xC6F JUMP JUMPDEST PUSH1 0x40 MLOAD DUP1 SWAP2 SUB SWAP1 REVERT JUMPDEST PUSH0 DUP1 PUSH2 0x27B DUP6 DUP6 PUSH2 0x29A PUSH1 0x20 SHL PUSH1 0x20 SHR JUMP JUMPDEST SWAP2 POP SWAP2 POP PUSH2 0x292 PUSH0 DUP8 DUP5 DUP5 DUP8 PUSH2 0x2CA PUSH1 0x20 SHL PUSH1 0x20 SHR JUMP JUMPDEST POP POP POP POP POP POP JUMP JUMPDEST PUSH1 0x60 DUP1 PUSH1 0x40 MLOAD SWAP2 POP PUSH1 0x1 DUP3 MSTORE DUP4 PUSH1 0x20 DUP4 ADD MSTORE PUSH1 0x40 DUP3 ADD SWAP1 POP PUSH1 0x1 DUP2 MSTORE DUP3 PUSH1 0x20 DUP3 ADD MSTORE PUSH1 0x40 DUP2 ADD PUSH1 0x40 MSTORE SWAP3 POP SWAP3 SWAP1 POP JUMP JUMPDEST PUSH2 0x2DC DUP6 DUP6 DUP6 DUP6 PUSH2 0x38E PUSH1 0x20 SHL PUSH1 0x20 SHR JUMP JUMPDEST PUSH0 PUSH20 0xFFFFFFFFFFFFFFFFFFFFFFFFFFFFFFFFFFFFFFFF AND DUP5 PUSH20 0xFFFFFFFFFFFFFFFFFFFFFFFFFFFFFFFFFFFFFFFF AND EQ PUSH2 0x387 JUMPI PUSH0 PUSH2 0x31E PUSH2 0x724 PUSH1 0x20 SHL PUSH1 0x20 SHR JUMP JUMPDEST SWAP1 POP PUSH1 0x1 DUP5 MLOAD SUB PUSH2 0x370 JUMPI PUSH0 PUSH2 0x33D PUSH0 DUP7 PUSH2 0x72B PUSH1 0x20 SHL SWAP1 SWAP2 SWAP1 PUSH1 0x20 SHR JUMP JUMPDEST SWAP1 POP PUSH0 PUSH2 0x353 PUSH0 DUP7 PUSH2 0x72B PUSH1 0x20 SHL SWAP1 SWAP2 SWAP1 PUSH1 0x20 SHR JUMP JUMPDEST SWAP1 POP PUSH2 0x369 DUP4 DUP10 DUP10 DUP6 DUP6 DUP10 PUSH2 0x73E PUSH1 0x20 SHL PUSH1 0x20 SHR JUMP JUMPDEST POP POP PUSH2 0x385 JUMP JUMPDEST PUSH2 0x384 DUP2 DUP8 DUP8 DUP8 DUP8 DUP8 PUSH2 0x8ED PUSH1 0x20 SHL PUSH1 0x20 SHR JUMP JUMPDEST JUMPDEST POP JUMPDEST POP POP POP POP POP JUMP JUMPDEST DUP1 MLOAD DUP3 MLOAD EQ PUSH2 0x3D8 JUMPI DUP2 MLOAD DUP2 MLOAD PUSH1 0x40 MLOAD PUSH32 0x5B05999100000000000000000000000000000000000000000000000000000000 DUP2 MSTORE PUSH1 0x4 ADD PUSH2 0x3CF SWAP3 SWAP2 SWAP1 PUSH2 0xF73 JUMP JUMPDEST PUSH1 0x40 MLOAD DUP1 SWAP2 SUB SWAP1 REVERT JUMPDEST PUSH0 PUSH2 0x3E7 PUSH2 0x724 PUSH1 0x20 SHL PUSH1 0x20 SHR JUMP JUMPDEST SWAP1 POP PUSH0 JUMPDEST DUP4 MLOAD DUP2 LT ISZERO PUSH2 0x5E3 JUMPI PUSH0 PUSH2 0x408 DUP3 DUP7 PUSH2 0x72B PUSH1 0x20 SHL SWAP1 SWAP2 SWAP1 PUSH1 0x20 SHR JUMP JUMPDEST SWAP1 POP PUSH0 PUSH2 0x41E DUP4 DUP7 PUSH2 0x72B PUSH1 0x20 SHL SWAP1 SWAP2 SWAP1 PUSH1 0x20 SHR JUMP JUMPDEST SWAP1 POP PUSH0 PUSH20 0xFFFFFFFFFFFFFFFFFFFFFFFFFFFFFFFFFFFFFFFF AND DUP9 PUSH20 0xFFFFFFFFFFFFFFFFFFFFFFFFFFFFFFFFFFFFFFFF AND EQ PUSH2 0x541 JUMPI PUSH0 DUP1 PUSH0 DUP5 DUP2 MSTORE PUSH1 0x20 ADD SWAP1 DUP2 MSTORE PUSH1 0x20 ADD PUSH0 KECCAK256 PUSH0 DUP11 PUSH20 0xFFFFFFFFFFFFFFFFFFFFFFFFFFFFFFFFFFFFFFFF AND PUSH20 0xFFFFFFFFFFFFFFFFFFFFFFFFFFFFFFFFFFFFFFFF AND DUP2 MSTORE PUSH1 0x20 ADD SWAP1 DUP2 MSTORE PUSH1 0x20 ADD PUSH0 KECCAK256 SLOAD SWAP1 POP DUP2 DUP2 LT ISZERO PUSH2 0x4ED JUMPI DUP9 DUP2 DUP4 DUP6 PUSH1 0x40 MLOAD PUSH32 0x3DEE4C500000000000000000000000000000000000000000000000000000000 DUP2 MSTORE PUSH1 0x4 ADD PUSH2 0x4E4 SWAP5 SWAP4 SWAP3 SWAP2 SWAP1 PUSH2 0xF9A JUMP JUMPDEST PUSH1 0x40 MLOAD DUP1 SWAP2 SUB SWAP1 REVERT JUMPDEST DUP2 DUP2 SUB PUSH0 DUP1 DUP6 DUP2 MSTORE PUSH1 0x20 ADD SWAP1 DUP2 MSTORE PUSH1 0x20 ADD PUSH0 KECCAK256 PUSH0 DUP12 PUSH20 0xFFFFFFFFFFFFFFFFFFFFFFFFFFFFFFFFFFFFFFFF AND PUSH20 0xFFFFFFFFFFFFFFFFFFFFFFFFFFFFFFFFFFFFFFFF AND DUP2 MSTORE PUSH1 0x20 ADD SWAP1 DUP2 MSTORE PUSH1 0x20 ADD PUSH0 KECCAK256 DUP2 SWAP1 SSTORE POP POP JUMPDEST PUSH0 PUSH20 0xFFFFFFFFFFFFFFFFFFFFFFFFFFFFFFFFFFFFFFFF AND DUP8 PUSH20 0xFFFFFFFFFFFFFFFFFFFFFFFFFFFFFFFFFFFFFFFF AND EQ PUSH2 0x5D6 JUMPI DUP1 PUSH0 DUP1 DUP5 DUP2 MSTORE PUSH1 0x20 ADD SWAP1 DUP2 MSTORE PUSH1 0x20 ADD PUSH0 KECCAK256 PUSH0 DUP10 PUSH20 0xFFFFFFFFFFFFFFFFFFFFFFFFFFFFFFFFFFFFFFFF AND PUSH20 0xFFFFFFFFFFFFFFFFFFFFFFFFFFFFFFFFFFFFFFFF AND DUP2 MSTORE PUSH1 0x20 ADD SWAP1 DUP2 MSTORE PUSH1 0x20 ADD PUSH0 KECCAK256 PUSH0 DUP3 DUP3 SLOAD PUSH2 0x5CE SWAP2 SWAP1 PUSH2 0x100A JUMP JUMPDEST SWAP3 POP POP DUP2 SWAP1 SSTORE POP JUMPDEST POP POP DUP1 PUSH1 0x1 ADD SWAP1 POP PUSH2 0x3EB JUMP JUMPDEST POP PUSH1 0x1 DUP4 MLOAD SUB PUSH2 0x69E JUMPI PUSH0 PUSH2 0x601 PUSH0 DUP6 PUSH2 0x72B PUSH1 0x20 SHL SWAP1 SWAP2 SWAP1 PUSH1 0x20 SHR JUMP JUMPDEST SWAP1 POP PUSH0 PUSH2 0x617 PUSH0 DUP6 PUSH2 0x72B PUSH1 0x20 SHL SWAP1 SWAP2 SWAP1 PUSH1 0x20 SHR JUMP JUMPDEST SWAP1 POP DUP6 PUSH20 0xFFFFFFFFFFFFFFFFFFFFFFFFFFFFFFFFFFFFFFFF AND DUP8 PUSH20 0xFFFFFFFFFFFFFFFFFFFFFFFFFFFFFFFFFFFFFFFF AND DUP5 PUSH20 0xFFFFFFFFFFFFFFFFFFFFFFFFFFFFFFFFFFFFFFFF AND PUSH32 0xC3D58168C5AE7397731D063D5BBF3D657854427343F4C083240F7AACAA2D0F62 DUP6 DUP6 PUSH1 0x40 MLOAD PUSH2 0x68F SWAP3 SWAP2 SWAP1 PUSH2 0xF73 JUMP JUMPDEST PUSH1 0x40 MLOAD DUP1 SWAP2 SUB SWAP1 LOG4 POP POP PUSH2 0x71D JUMP JUMPDEST DUP4 PUSH20 0xFFFFFFFFFFFFFFFFFFFFFFFFFFFFFFFFFFFFFFFF AND DUP6 PUSH20 0xFFFFFFFFFFFFFFFFFFFFFFFFFFFFFFFFFFFFFFFF AND DUP3 PUSH20 0xFFFFFFFFFFFFFFFFFFFFFFFFFFFFFFFFFFFFFFFF AND PUSH32 0x4A39DC06D4C0DBC64B70AF90FD698A233A518AA5D07E595D983B8C0526C8F7FB DUP7 DUP7 PUSH1 0x40 MLOAD PUSH2 0x714 SWAP3 SWAP2 SWAP1 PUSH2 0x10F4 JUMP JUMPDEST PUSH1 0x40 MLOAD DUP1 SWAP2 SUB SWAP1 LOG4 JUMPDEST POP POP POP POP POP JUMP JUMPDEST PUSH0 CALLER SWAP1 POP SWAP1 JUMP JUMPDEST PUSH0 PUSH1 0x20 DUP3 MUL PUSH1 0x20 DUP5 ADD ADD MLOAD SWAP1 POP SWAP3 SWAP2 POP POP JUMP JUMPDEST PUSH0 DUP5 PUSH20 0xFFFFFFFFFFFFFFFFFFFFFFFFFFFFFFFFFFFFFFFF AND EXTCODESIZE GT ISZERO PUSH2 0x8E5 JUMPI DUP4 PUSH20 0xFFFFFFFFFFFFFFFFFFFFFFFFFFFFFFFFFFFFFFFF AND PUSH4 0xF23A6E61 DUP8 DUP8 DUP7 DUP7 DUP7 PUSH1 0x40 MLOAD DUP7 PUSH4 0xFFFFFFFF AND PUSH1 0xE0 SHL DUP2 MSTORE PUSH1 0x4 ADD PUSH2 0x79E SWAP6 SWAP5 SWAP4 SWAP3 SWAP2 SWAP1 PUSH2 0x117B JUMP JUMPDEST PUSH1 0x20 PUSH1 0x40 MLOAD DUP1 DUP4 SUB DUP2 PUSH0 DUP8 GAS CALL SWAP3 POP POP POP DUP1 ISZERO PUSH2 0x7D9 JUMPI POP PUSH1 0x40 MLOAD RETURNDATASIZE PUSH1 0x1F NOT PUSH1 0x1F DUP3 ADD AND DUP3 ADD DUP1 PUSH1 0x40 MSTORE POP DUP2 ADD SWAP1 PUSH2 0x7D6 SWAP2 SWAP1 PUSH2 0x1228 JUMP JUMPDEST PUSH1 0x1 JUMPDEST PUSH2 0x85A JUMPI RETURNDATASIZE DUP1 PUSH0 DUP2 EQ PUSH2 0x807 JUMPI PUSH1 0x40 MLOAD SWAP2 POP PUSH1 0x1F NOT PUSH1 0x3F RETURNDATASIZE ADD AND DUP3 ADD PUSH1 0x40 MSTORE RETURNDATASIZE DUP3 MSTORE RETURNDATASIZE PUSH0 PUSH1 0x20 DUP5 ADD RETURNDATACOPY PUSH2 0x80C JUMP JUMPDEST PUSH1 0x60 SWAP2 POP JUMPDEST POP PUSH0 DUP2 MLOAD SUB PUSH2 0x852 JUMPI DUP5 PUSH1 0x40 MLOAD PUSH32 0x57F447CE00000000000000000000000000000000000000000000000000000000 DUP2 MSTORE PUSH1 0x4 ADD PUSH2 0x849 SWAP2 SWAP1 PUSH2 0xC6F JUMP JUMPDEST PUSH1 0x40 MLOAD DUP1 SWAP2 SUB SWAP1 REVERT JUMPDEST DUP1 MLOAD DUP2 PUSH1 0x20 ADD REVERT JUMPDEST PUSH4 0xF23A6E61 PUSH1 0xE0 SHL PUSH28 0xFFFFFFFFFFFFFFFFFFFFFFFFFFFFFFFFFFFFFFFFFFFFFFFFFFFFFFFF NOT AND DUP2 PUSH28 0xFFFFFFFFFFFFFFFFFFFFFFFFFFFFFFFFFFFFFFFFFFFFFFFFFFFFFFFF NOT AND EQ PUSH2 0x8E3 JUMPI DUP5 PUSH1 0x40 MLOAD PUSH32 0x57F447CE00000000000000000000000000000000000000000000000000000000 DUP2 MSTORE PUSH1 0x4 ADD PUSH2 0x8DA SWAP2 SWAP1 PUSH2 0xC6F JUMP JUMPDEST PUSH1 0x40 MLOAD DUP1 SWAP2 SUB SWAP1 REVERT JUMPDEST POP JUMPDEST POP POP POP POP POP POP JUMP JUMPDEST PUSH0 DUP5 PUSH20 0xFFFFFFFFFFFFFFFFFFFFFFFFFFFFFFFFFFFFFFFF AND EXTCODESIZE GT ISZERO PUSH2 0xA94 JUMPI DUP4 PUSH20 0xFFFFFFFFFFFFFFFFFFFFFFFFFFFFFFFFFFFFFFFF AND PUSH4 0xBC197C81 DUP8 DUP8 DUP7 DUP7 DUP7 PUSH1 0x40 MLOAD DUP7 PUSH4 0xFFFFFFFF AND PUSH1 0xE0 SHL DUP2 MSTORE PUSH1 0x4 ADD PUSH2 0x94D SWAP6 SWAP5 SWAP4 SWAP3 SWAP2 SWAP1 PUSH2 0x1253 JUMP JUMPDEST PUSH1 0x20 PUSH1 0x40 MLOAD DUP1 DUP4 SUB DUP2 PUSH0 DUP8 GAS CALL SWAP3 POP POP POP DUP1 ISZERO PUSH2 0x988 JUMPI POP PUSH1 0x40 MLOAD RETURNDATASIZE PUSH1 0x1F NOT PUSH1 0x1F DUP3 ADD AND DUP3 ADD DUP1 PUSH1 0x40 MSTORE POP DUP2 ADD SWAP1 PUSH2 0x985 SWAP2 SWAP1 PUSH2 0x1228 JUMP JUMPDEST PUSH1 0x1 JUMPDEST PUSH2 0xA09 JUMPI RETURNDATASIZE DUP1 PUSH0 DUP2 EQ PUSH2 0x9B6 JUMPI PUSH1 0x40 MLOAD SWAP2 POP PUSH1 0x1F NOT PUSH1 0x3F RETURNDATASIZE ADD AND DUP3 ADD PUSH1 0x40 MSTORE RETURNDATASIZE DUP3 MSTORE RETURNDATASIZE PUSH0 PUSH1 0x20 DUP5 ADD RETURNDATACOPY PUSH2 0x9BB JUMP JUMPDEST PUSH1 0x60 SWAP2 POP JUMPDEST POP PUSH0 DUP2 MLOAD SUB PUSH2 0xA01 JUMPI DUP5 PUSH1 0x40 MLOAD PUSH32 0x57F447CE00000000000000000000000000000000000000000000000000000000 DUP2 MSTORE PUSH1 0x4 ADD PUSH2 0x9F8 SWAP2 SWAP1 PUSH2 0xC6F JUMP JUMPDEST PUSH1 0x40 MLOAD DUP1 SWAP2 SUB SWAP1 REVERT JUMPDEST DUP1 MLOAD DUP2 PUSH1 0x20 ADD REVERT JUMPDEST PUSH4 0xBC197C81 PUSH1 0xE0 SHL PUSH28 0xFFFFFFFFFFFFFFFFFFFFFFFFFFFFFFFFFFFFFFFFFFFFFFFFFFFFFFFF NOT AND DUP2 PUSH28 0xFFFFFFFFFFFFFFFFFFFFFFFFFFFFFFFFFFFFFFFFFFFFFFFFFFFFFFFF NOT AND EQ PUSH2 0xA92 JUMPI DUP5 PUSH1 0x40 MLOAD PUSH32 0x57F447CE00000000000000000000000000000000000000000000000000000000 DUP2 MSTORE PUSH1 0x4 ADD PUSH2 0xA89 SWAP2 SWAP1 PUSH2 0xC6F JUMP JUMPDEST PUSH1 0x40 MLOAD DUP1 SWAP2 SUB SWAP1 REVERT JUMPDEST POP JUMPDEST POP POP POP POP POP POP JUMP JUMPDEST PUSH0 PUSH1 0x40 MLOAD SWAP1 POP SWAP1 JUMP JUMPDEST PUSH0 DUP1 REVERT JUMPDEST PUSH0 DUP1 REVERT JUMPDEST PUSH0 DUP1 REVERT JUMPDEST PUSH0 DUP1 REVERT JUMPDEST PUSH0 PUSH1 0x1F NOT PUSH1 0x1F DUP4 ADD AND SWAP1 POP SWAP2 SWAP1 POP JUMP JUMPDEST PUSH32 0x4E487B7100000000000000000000000000000000000000000000000000000000 PUSH0 MSTORE PUSH1 0x41 PUSH1 0x4 MSTORE PUSH1 0x24 PUSH0 REVERT JUMPDEST PUSH2 0xAFB DUP3 PUSH2 0xAB5 JUMP JUMPDEST DUP2 ADD DUP2 DUP2 LT PUSH8 0xFFFFFFFFFFFFFFFF DUP3 GT OR ISZERO PUSH2 0xB1A JUMPI PUSH2 0xB19 PUSH2 0xAC5 JUMP JUMPDEST JUMPDEST DUP1 PUSH1 0x40 MSTORE POP POP POP JUMP JUMPDEST PUSH0 PUSH2 0xB2C PUSH2 0xA9C JUMP JUMPDEST SWAP1 POP PUSH2 0xB38 DUP3 DUP3 PUSH2 0xAF2 JUMP JUMPDEST SWAP2 SWAP1 POP JUMP JUMPDEST PUSH0 PUSH8 0xFFFFFFFFFFFFFFFF DUP3 GT ISZERO PUSH2 0xB57 JUMPI PUSH2 0xB56 PUSH2 0xAC5 JUMP JUMPDEST JUMPDEST PUSH2 0xB60 DUP3 PUSH2 0xAB5 JUMP JUMPDEST SWAP1 POP PUSH1 0x20 DUP2 ADD SWAP1 POP SWAP2 SWAP1 POP JUMP JUMPDEST DUP3 DUP2 DUP4 MCOPY PUSH0 DUP4 DUP4 ADD MSTORE POP POP POP JUMP JUMPDEST PUSH0 PUSH2 0xB8D PUSH2 0xB88 DUP5 PUSH2 0xB3D JUMP JUMPDEST PUSH2 0xB23 JUMP JUMPDEST SWAP1 POP DUP3 DUP2 MSTORE PUSH1 0x20 DUP2 ADD DUP5 DUP5 DUP5 ADD GT ISZERO PUSH2 0xBA9 JUMPI PUSH2 0xBA8 PUSH2 0xAB1 JUMP JUMPDEST JUMPDEST PUSH2 0xBB4 DUP5 DUP3 DUP6 PUSH2 0xB6D JUMP JUMPDEST POP SWAP4 SWAP3 POP POP POP JUMP JUMPDEST PUSH0 DUP3 PUSH1 0x1F DUP4 ADD SLT PUSH2 0xBD0 JUMPI PUSH2 0xBCF PUSH2 0xAAD JUMP JUMPDEST JUMPDEST DUP2 MLOAD PUSH2 0xBE0 DUP5 DUP3 PUSH1 0x20 DUP7 ADD PUSH2 0xB7B JUMP JUMPDEST SWAP2 POP POP SWAP3 SWAP2 POP POP JUMP JUMPDEST PUSH0 PUSH1 0x20 DUP3 DUP5 SUB SLT ISZERO PUSH2 0xBFE JUMPI PUSH2 0xBFD PUSH2 0xAA5 JUMP JUMPDEST JUMPDEST PUSH0 DUP3 ADD MLOAD PUSH8 0xFFFFFFFFFFFFFFFF DUP2 GT ISZERO PUSH2 0xC1B JUMPI PUSH2 0xC1A PUSH2 0xAA9 JUMP JUMPDEST JUMPDEST PUSH2 0xC27 DUP5 DUP3 DUP6 ADD PUSH2 0xBBC JUMP JUMPDEST SWAP2 POP POP SWAP3 SWAP2 POP POP JUMP JUMPDEST PUSH0 PUSH20 0xFFFFFFFFFFFFFFFFFFFFFFFFFFFFFFFFFFFFFFFF DUP3 AND SWAP1 POP SWAP2 SWAP1 POP JUMP JUMPDEST PUSH0 PUSH2 0xC59 DUP3 PUSH2 0xC30 JUMP JUMPDEST SWAP1 POP SWAP2 SWAP1 POP JUMP JUMPDEST PUSH2 0xC69 DUP2 PUSH2 0xC4F JUMP JUMPDEST DUP3 MSTORE POP POP JUMP JUMPDEST PUSH0 PUSH1 0x20 DUP3 ADD SWAP1 POP PUSH2 0xC82 PUSH0 DUP4 ADD DUP5 PUSH2 0xC60 JUMP JUMPDEST SWAP3 SWAP2 POP POP JUMP JUMPDEST PUSH0 DUP2 MLOAD SWAP1 POP SWAP2 SWAP1 POP JUMP JUMPDEST PUSH32 0x4E487B7100000000000000000000000000000000000000000000000000000000 PUSH0 MSTORE PUSH1 0x22 PUSH1 0x4 MSTORE PUSH1 0x24 PUSH0 REVERT JUMPDEST PUSH0 PUSH1 0x2 DUP3 DIV SWAP1 POP PUSH1 0x1 DUP3 AND DUP1 PUSH2 0xCD6 JUMPI PUSH1 0x7F DUP3 AND SWAP2 POP JUMPDEST PUSH1 0x20 DUP3 LT DUP2 SUB PUSH2 0xCE9 JUMPI PUSH2 0xCE8 PUSH2 0xC92 JUMP JUMPDEST JUMPDEST POP SWAP2 SWAP1 POP JUMP JUMPDEST PUSH0 DUP2 SWAP1 POP DUP2 PUSH0 MSTORE PUSH1 0x20 PUSH0 KECCAK256 SWAP1 POP SWAP2 SWAP1 POP JUMP JUMPDEST PUSH0 PUSH1 0x20 PUSH1 0x1F DUP4 ADD DIV SWAP1 POP SWAP2 SWAP1 POP JUMP JUMPDEST PUSH0 DUP3 DUP3 SHL SWAP1 POP SWAP3 SWAP2 POP POP JUMP JUMPDEST PUSH0 PUSH1 0x8 DUP4 MUL PUSH2 0xD4B PUSH32 0xFFFFFFFFFFFFFFFFFFFFFFFFFFFFFFFFFFFFFFFFFFFFFFFFFFFFFFFFFFFFFFFF DUP3 PUSH2 0xD10 JUMP JUMPDEST PUSH2 0xD55 DUP7 DUP4 PUSH2 0xD10 JUMP JUMPDEST SWAP6 POP DUP1 NOT DUP5 AND SWAP4 POP DUP1 DUP7 AND DUP5 OR SWAP3 POP POP POP SWAP4 SWAP3 POP POP POP JUMP JUMPDEST PUSH0 DUP2 SWAP1 POP SWAP2 SWAP1 POP JUMP JUMPDEST PUSH0 DUP2 SWAP1 POP SWAP2 SWAP1 POP JUMP JUMPDEST PUSH0 PUSH2 0xD99 PUSH2 0xD94 PUSH2 0xD8F DUP5 PUSH2 0xD6D JUMP JUMPDEST PUSH2 0xD76 JUMP JUMPDEST PUSH2 0xD6D JUMP JUMPDEST SWAP1 POP SWAP2 SWAP1 POP JUMP JUMPDEST PUSH0 DUP2 SWAP1 POP SWAP2 SWAP1 POP JUMP JUMPDEST PUSH2 0xDB2 DUP4 PUSH2 0xD7F JUMP JUMPDEST PUSH2 0xDC6 PUSH2 0xDBE DUP3 PUSH2 0xDA0 JUMP JUMPDEST DUP5 DUP5 SLOAD PUSH2 0xD1C JUMP JUMPDEST DUP3 SSTORE POP POP POP POP JUMP JUMPDEST PUSH0 SWAP1 JUMP JUMPDEST PUSH2 0xDDA PUSH2 0xDCE JUMP JUMPDEST PUSH2 0xDE5 DUP2 DUP5 DUP5 PUSH2 0xDA9 JUMP JUMPDEST POP POP POP JUMP JUMPDEST JUMPDEST DUP2 DUP2 LT ISZERO PUSH2 0xE08 JUMPI PUSH2 0xDFD PUSH0 DUP3 PUSH2 0xDD2 JUMP JUMPDEST PUSH1 0x1 DUP2 ADD SWAP1 POP PUSH2 0xDEB JUMP JUMPDEST POP POP JUMP JUMPDEST PUSH1 0x1F DUP3 GT ISZERO PUSH2 0xE4D JUMPI PUSH2 0xE1E DUP2 PUSH2 0xCEF JUMP JUMPDEST PUSH2 0xE27 DUP5 PUSH2 0xD01 JUMP JUMPDEST DUP2 ADD PUSH1 0x20 DUP6 LT ISZERO PUSH2 0xE36 JUMPI DUP2 SWAP1 POP JUMPDEST PUSH2 0xE4A PUSH2 0xE42 DUP6 PUSH2 0xD01 JUMP JUMPDEST DUP4 ADD DUP3 PUSH2 0xDEA JUMP JUMPDEST POP POP JUMPDEST POP POP POP JUMP JUMPDEST PUSH0 DUP3 DUP3 SHR SWAP1 POP SWAP3 SWAP2 POP POP JUMP JUMPDEST PUSH0 PUSH2 0xE6D PUSH0 NOT DUP5 PUSH1 0x8 MUL PUSH2 0xE52 JUMP JUMPDEST NOT DUP1 DUP4 AND SWAP2 POP POP SWAP3 SWAP2 POP POP JUMP JUMPDEST PUSH0 PUSH2 0xE85 DUP4 DUP4 PUSH2 0xE5E JUMP JUMPDEST SWAP2 POP DUP3 PUSH1 0x2 MUL DUP3 OR SWAP1 POP SWAP3 SWAP2 POP POP JUMP JUMPDEST PUSH2 0xE9E DUP3 PUSH2 0xC88 JUMP JUMPDEST PUSH8 0xFFFFFFFFFFFFFFFF DUP2 GT ISZERO PUSH2 0xEB7 JUMPI PUSH2 0xEB6 PUSH2 0xAC5 JUMP JUMPDEST JUMPDEST PUSH2 0xEC1 DUP3 SLOAD PUSH2 0xCBF JUMP JUMPDEST PUSH2 0xECC DUP3 DUP3 DUP6 PUSH2 0xE0C JUMP JUMPDEST PUSH0 PUSH1 0x20 SWAP1 POP PUSH1 0x1F DUP4 GT PUSH1 0x1 DUP2 EQ PUSH2 0xEFD JUMPI PUSH0 DUP5 ISZERO PUSH2 0xEEB JUMPI DUP3 DUP8 ADD MLOAD SWAP1 POP JUMPDEST PUSH2 0xEF5 DUP6 DUP3 PUSH2 0xE7A JUMP JUMPDEST DUP7 SSTORE POP PUSH2 0xF5C JUMP JUMPDEST PUSH1 0x1F NOT DUP5 AND PUSH2 0xF0B DUP7 PUSH2 0xCEF JUMP JUMPDEST PUSH0 JUMPDEST DUP3 DUP2 LT ISZERO PUSH2 0xF32 JUMPI DUP5 DUP10 ADD MLOAD DUP3 SSTORE PUSH1 0x1 DUP3 ADD SWAP2 POP PUSH1 0x20 DUP6 ADD SWAP5 POP PUSH1 0x20 DUP2 ADD SWAP1 POP PUSH2 0xF0D JUMP JUMPDEST DUP7 DUP4 LT ISZERO PUSH2 0xF4F JUMPI DUP5 DUP10 ADD MLOAD PUSH2 0xF4B PUSH1 0x1F DUP10 AND DUP3 PUSH2 0xE5E JUMP JUMPDEST DUP4 SSTORE POP JUMPDEST PUSH1 0x1 PUSH1 0x2 DUP9 MUL ADD DUP9 SSTORE POP POP POP JUMPDEST POP POP POP POP POP POP JUMP JUMPDEST PUSH2 0xF6D DUP2 PUSH2 0xD6D JUMP JUMPDEST DUP3 MSTORE POP POP JUMP JUMPDEST PUSH0 PUSH1 0x40 DUP3 ADD SWAP1 POP PUSH2 0xF86 PUSH0 DUP4 ADD DUP6 PUSH2 0xF64 JUMP JUMPDEST PUSH2 0xF93 PUSH1 0x20 DUP4 ADD DUP5 PUSH2 0xF64 JUMP JUMPDEST SWAP4 SWAP3 POP POP POP JUMP JUMPDEST PUSH0 PUSH1 0x80 DUP3 ADD SWAP1 POP PUSH2 0xFAD PUSH0 DUP4 ADD DUP8 PUSH2 0xC60 JUMP JUMPDEST PUSH2 0xFBA PUSH1 0x20 DUP4 ADD DUP7 PUSH2 0xF64 JUMP JUMPDEST PUSH2 0xFC7 PUSH1 0x40 DUP4 ADD DUP6 PUSH2 0xF64 JUMP JUMPDEST PUSH2 0xFD4 PUSH1 0x60 DUP4 ADD DUP5 PUSH2 0xF64 JUMP JUMPDEST SWAP6 SWAP5 POP POP POP POP POP JUMP JUMPDEST PUSH32 0x4E487B7100000000000000000000000000000000000000000000000000000000 PUSH0 MSTORE PUSH1 0x11 PUSH1 0x4 MSTORE PUSH1 0x24 PUSH0 REVERT JUMPDEST PUSH0 PUSH2 0x1014 DUP3 PUSH2 0xD6D JUMP JUMPDEST SWAP2 POP PUSH2 0x101F DUP4 PUSH2 0xD6D JUMP JUMPDEST SWAP3 POP DUP3 DUP3 ADD SWAP1 POP DUP1 DUP3 GT ISZERO PUSH2 0x1037 JUMPI PUSH2 0x1036 PUSH2 0xFDD JUMP JUMPDEST JUMPDEST SWAP3 SWAP2 POP POP JUMP JUMPDEST PUSH0 DUP2 MLOAD SWAP1 POP SWAP2 SWAP1 POP JUMP JUMPDEST PUSH0 DUP3 DUP3 MSTORE PUSH1 0x20 DUP3 ADD SWAP1 POP SWAP3 SWAP2 POP POP JUMP JUMPDEST PUSH0 DUP2 SWAP1 POP PUSH1 0x20 DUP3 ADD SWAP1 POP SWAP2 SWAP1 POP JUMP JUMPDEST PUSH2 0x106F DUP2 PUSH2 0xD6D JUMP JUMPDEST DUP3 MSTORE POP POP JUMP JUMPDEST PUSH0 PUSH2 0x1080 DUP4 DUP4 PUSH2 0x1066 JUMP JUMPDEST PUSH1 0x20 DUP4 ADD SWAP1 POP SWAP3 SWAP2 POP POP JUMP JUMPDEST PUSH0 PUSH1 0x20 DUP3 ADD SWAP1 POP SWAP2 SWAP1 POP JUMP JUMPDEST PUSH0 PUSH2 0x10A2 DUP3 PUSH2 0x103D JUMP JUMPDEST PUSH2 0x10AC DUP2 DUP6 PUSH2 0x1047 JUMP JUMPDEST SWAP4 POP PUSH2 0x10B7 DUP4 PUSH2 0x1057 JUMP JUMPDEST DUP1 PUSH0 JUMPDEST DUP4 DUP2 LT ISZERO PUSH2 0x10E7 JUMPI DUP2 MLOAD PUSH2 0x10CE DUP9 DUP3 PUSH2 0x1075 JUMP JUMPDEST SWAP8 POP PUSH2 0x10D9 DUP4 PUSH2 0x108C JUMP JUMPDEST SWAP3 POP POP PUSH1 0x1 DUP2 ADD SWAP1 POP PUSH2 0x10BA JUMP JUMPDEST POP DUP6 SWAP4 POP POP POP POP SWAP3 SWAP2 POP POP JUMP JUMPDEST PUSH0 PUSH1 0x40 DUP3 ADD SWAP1 POP DUP2 DUP2 SUB PUSH0 DUP4 ADD MSTORE PUSH2 0x110C DUP2 DUP6 PUSH2 0x1098 JUMP JUMPDEST SWAP1 POP DUP2 DUP2 SUB PUSH1 0x20 DUP4 ADD MSTORE PUSH2 0x1120 DUP2 DUP5 PUSH2 0x1098 JUMP JUMPDEST SWAP1 POP SWAP4 SWAP3 POP POP POP JUMP JUMPDEST PUSH0 DUP2 MLOAD SWAP1 POP SWAP2 SWAP1 POP JUMP JUMPDEST PUSH0 DUP3 DUP3 MSTORE PUSH1 0x20 DUP3 ADD SWAP1 POP SWAP3 SWAP2 POP POP JUMP JUMPDEST PUSH0 PUSH2 0x114D DUP3 PUSH2 0x1129 JUMP JUMPDEST PUSH2 0x1157 DUP2 DUP6 PUSH2 0x1133 JUMP JUMPDEST SWAP4 POP PUSH2 0x1167 DUP2 DUP6 PUSH1 0x20 DUP7 ADD PUSH2 0xB6D JUMP JUMPDEST PUSH2 0x1170 DUP2 PUSH2 0xAB5 JUMP JUMPDEST DUP5 ADD SWAP2 POP POP SWAP3 SWAP2 POP POP JUMP JUMPDEST PUSH0 PUSH1 0xA0 DUP3 ADD SWAP1 POP PUSH2 0x118E PUSH0 DUP4 ADD DUP9 PUSH2 0xC60 JUMP JUMPDEST PUSH2 0x119B PUSH1 0x20 DUP4 ADD DUP8 PUSH2 0xC60 JUMP JUMPDEST PUSH2 0x11A8 PUSH1 0x40 DUP4 ADD DUP7 PUSH2 0xF64 JUMP JUMPDEST PUSH2 0x11B5 PUSH1 0x60 DUP4 ADD DUP6 PUSH2 0xF64 JUMP JUMPDEST DUP2 DUP2 SUB PUSH1 0x80 DUP4 ADD MSTORE PUSH2 0x11C7 DUP2 DUP5 PUSH2 0x1143 JUMP JUMPDEST SWAP1 POP SWAP7 SWAP6 POP POP POP POP POP POP JUMP JUMPDEST PUSH0 PUSH32 0xFFFFFFFF00000000000000000000000000000000000000000000000000000000 DUP3 AND SWAP1 POP SWAP2 SWAP1 POP JUMP JUMPDEST PUSH2 0x1207 DUP2 PUSH2 0x11D3 JUMP JUMPDEST DUP2 EQ PUSH2 0x1211 JUMPI PUSH0 DUP1 REVERT JUMPDEST POP JUMP JUMPDEST PUSH0 DUP2 MLOAD SWAP1 POP PUSH2 0x1222 DUP2 PUSH2 0x11FE JUMP JUMPDEST SWAP3 SWAP2 POP POP JUMP JUMPDEST PUSH0 PUSH1 0x20 DUP3 DUP5 SUB SLT ISZERO PUSH2 0x123D JUMPI PUSH2 0x123C PUSH2 0xAA5 JUMP JUMPDEST JUMPDEST PUSH0 PUSH2 0x124A DUP5 DUP3 DUP6 ADD PUSH2 0x1214 JUMP JUMPDEST SWAP2 POP POP SWAP3 SWAP2 POP POP JUMP JUMPDEST PUSH0 PUSH1 0xA0 DUP3 ADD SWAP1 POP PUSH2 0x1266 PUSH0 DUP4 ADD DUP9 PUSH2 0xC60 JUMP JUMPDEST PUSH2 0x1273 PUSH1 0x20 DUP4 ADD DUP8 PUSH2 0xC60 JUMP JUMPDEST DUP2 DUP2 SUB PUSH1 0x40 DUP4 ADD MSTORE PUSH2 0x1285 DUP2 DUP7 PUSH2 0x1098 JUMP JUMPDEST SWAP1 POP DUP2 DUP2 SUB PUSH1 0x60 DUP4 ADD MSTORE PUSH2 0x1299 DUP2 DUP6 PUSH2 0x1098 JUMP JUMPDEST SWAP1 POP DUP2 DUP2 SUB PUSH1 0x80 DUP4 ADD MSTORE PUSH2 0x12AD DUP2 DUP5 PUSH2 0x1143 JUMP JUMPDEST SWAP1 POP SWAP7 SWAP6 POP POP POP POP POP POP JUMP JUMPDEST PUSH2 0x34C1 DUP1 PUSH2 0x12C6 PUSH0 CODECOPY PUSH0 RETURN INVALID PUSH1 0x80 PUSH1 0x40 MSTORE PUSH1 0x4 CALLDATASIZE LT PUSH2 0x1FB JUMPI PUSH0 CALLDATALOAD PUSH1 0xE0 SHR DUP1 PUSH4 0x715018A6 GT PUSH2 0x10C JUMPI DUP1 PUSH4 0xA22CB465 GT PUSH2 0x9F JUMPI DUP1 PUSH4 0xEB8835AB GT PUSH2 0x6E JUMPI DUP1 PUSH4 0xEB8835AB EQ PUSH2 0x6B6 JUMPI DUP1 PUSH4 0xF0C2A15C EQ PUSH2 0x6F2 JUMPI DUP1 PUSH4 0xF242432A EQ PUSH2 0x71A JUMPI DUP1 PUSH4 0xF2FDE38B EQ PUSH2 0x742 JUMPI DUP1 PUSH4 0xF5298ACA EQ PUSH2 0x76A JUMPI PUSH2 0x202 JUMP JUMPDEST DUP1 PUSH4 0xA22CB465 EQ PUSH2 0x626 JUMPI DUP1 PUSH4 0xABC91E12 EQ PUSH2 0x64E JUMPI DUP1 PUSH4 0xD8A5C6FD EQ PUSH2 0x664 JUMPI DUP1 PUSH4 0xE985E9C5 EQ PUSH2 0x67A JUMPI PUSH2 0x202 JUMP JUMPDEST DUP1 PUSH4 0x8F0F80C4 GT PUSH2 0xDB JUMPI DUP1 PUSH4 0x8F0F80C4 EQ PUSH2 0x582 JUMPI DUP1 PUSH4 0x8F847C9C EQ PUSH2 0x5AA JUMPI DUP1 PUSH4 0x93777FB3 EQ PUSH2 0x5D4 JUMPI DUP1 PUSH4 0x97F22EA9 EQ PUSH2 0x5FE JUMPI PUSH2 0x202 JUMP JUMPDEST DUP1 PUSH4 0x715018A6 EQ PUSH2 0x4F2 JUMPI DUP1 PUSH4 0x731133E9 EQ PUSH2 0x508 JUMPI DUP1 PUSH4 0x7A01E6E3 EQ PUSH2 0x530 JUMPI DUP1 PUSH4 0x8DA5CB5B EQ PUSH2 0x558 JUMPI PUSH2 0x202 JUMP JUMPDEST DUP1 PUSH4 0x249B7C19 GT PUSH2 0x18F JUMPI DUP1 PUSH4 0x3CCFD60B GT PUSH2 0x15E JUMPI DUP1 PUSH4 0x3CCFD60B EQ PUSH2 0x430 JUMPI DUP1 PUSH4 0x49C32217 EQ PUSH2 0x446 JUMPI DUP1 PUSH4 0x4E1273F4 EQ PUSH2 0x462 JUMPI DUP1 PUSH4 0x7097A332 EQ PUSH2 0x49E JUMPI DUP1 PUSH4 0x70A0C464 EQ PUSH2 0x4C8 JUMPI PUSH2 0x202 JUMP JUMPDEST DUP1 PUSH4 0x249B7C19 EQ PUSH2 0x378 JUMPI DUP1 PUSH4 0x2EB2C2D6 EQ PUSH2 0x3A2 JUMPI DUP1 PUSH4 0x2FF2E9DC EQ PUSH2 0x3CA JUMPI DUP1 PUSH4 0x3AF32ABF EQ PUSH2 0x3F4 JUMPI PUSH2 0x202 JUMP JUMPDEST DUP1 PUSH4 0x11BAFF63 GT PUSH2 0x1CB JUMPI DUP1 PUSH4 0x11BAFF63 EQ PUSH2 0x2E2 JUMPI DUP1 PUSH4 0x13F99A1C EQ PUSH2 0x30A JUMPI DUP1 PUSH4 0x209CDA0E EQ PUSH2 0x326 JUMPI DUP1 PUSH4 0x22C8061B EQ PUSH2 0x34E JUMPI PUSH2 0x202 JUMP JUMPDEST DUP1 PUSH3 0xFDD58E EQ PUSH2 0x206 JUMPI DUP1 PUSH4 0x1F7E49A EQ PUSH2 0x242 JUMPI DUP1 PUSH4 0x1FFC9A7 EQ PUSH2 0x26A JUMPI DUP1 PUSH4 0xE89341C EQ PUSH2 0x2A6 JUMPI PUSH2 0x202 JUMP JUMPDEST CALLDATASIZE PUSH2 0x202 JUMPI STOP JUMPDEST PUSH0 DUP1 REVERT JUMPDEST CALLVALUE DUP1 ISZERO PUSH2 0x211 JUMPI PUSH0 DUP1 REVERT JUMPDEST POP PUSH2 0x22C PUSH1 0x4 DUP1 CALLDATASIZE SUB DUP2 ADD SWAP1 PUSH2 0x227 SWAP2 SWAP1 PUSH2 0x2416 JUMP JUMPDEST PUSH2 0x792 JUMP JUMPDEST PUSH1 0x40 MLOAD PUSH2 0x239 SWAP2 SWAP1 PUSH2 0x2463 JUMP JUMPDEST PUSH1 0x40 MLOAD DUP1 SWAP2 SUB SWAP1 RETURN JUMPDEST CALLVALUE DUP1 ISZERO PUSH2 0x24D JUMPI PUSH0 DUP1 REVERT JUMPDEST POP PUSH2 0x268 PUSH1 0x4 DUP1 CALLDATASIZE SUB DUP2 ADD SWAP1 PUSH2 0x263 SWAP2 SWAP1 PUSH2 0x247C JUMP JUMPDEST PUSH2 0x7E7 JUMP JUMPDEST STOP JUMPDEST CALLVALUE DUP1 ISZERO PUSH2 0x275 JUMPI PUSH0 DUP1 REVERT JUMPDEST POP PUSH2 0x290 PUSH1 0x4 DUP1 CALLDATASIZE SUB DUP2 ADD SWAP1 PUSH2 0x28B SWAP2 SWAP1 PUSH2 0x24FC JUMP JUMPDEST PUSH2 0x846 JUMP JUMPDEST PUSH1 0x40 MLOAD PUSH2 0x29D SWAP2 SWAP1 PUSH2 0x2541 JUMP JUMPDEST PUSH1 0x40 MLOAD DUP1 SWAP2 SUB SWAP1 RETURN JUMPDEST CALLVALUE DUP1 ISZERO PUSH2 0x2B1 JUMPI PUSH0 DUP1 REVERT JUMPDEST POP PUSH2 0x2CC PUSH1 0x4 DUP1 CALLDATASIZE SUB DUP2 ADD SWAP1 PUSH2 0x2C7 SWAP2 SWAP1 PUSH2 0x255A JUMP JUMPDEST PUSH2 0x927 JUMP JUMPDEST PUSH1 0x40 MLOAD PUSH2 0x2D9 SWAP2 SWAP1 PUSH2 0x25F5 JUMP JUMPDEST PUSH1 0x40 MLOAD DUP1 SWAP2 SUB SWAP1 RETURN JUMPDEST CALLVALUE DUP1 ISZERO PUSH2 0x2ED JUMPI PUSH0 DUP1 REVERT JUMPDEST POP PUSH2 0x308 PUSH1 0x4 DUP1 CALLDATASIZE SUB DUP2 ADD SWAP1 PUSH2 0x303 SWAP2 SWAP1 PUSH2 0x2676 JUMP JUMPDEST PUSH2 0x9B9 JUMP JUMPDEST STOP JUMPDEST PUSH2 0x324 PUSH1 0x4 DUP1 CALLDATASIZE SUB DUP2 ADD SWAP1 PUSH2 0x31F SWAP2 SWAP1 PUSH2 0x255A JUMP JUMPDEST PUSH2 0xA5B JUMP JUMPDEST STOP JUMPDEST CALLVALUE DUP1 ISZERO PUSH2 0x331 JUMPI PUSH0 DUP1 REVERT JUMPDEST POP PUSH2 0x34C PUSH1 0x4 DUP1 CALLDATASIZE SUB DUP2 ADD SWAP1 PUSH2 0x347 SWAP2 SWAP1 PUSH2 0x2416 JUMP JUMPDEST PUSH2 0xB74 JUMP JUMPDEST STOP JUMPDEST CALLVALUE DUP1 ISZERO PUSH2 0x359 JUMPI PUSH0 DUP1 REVERT JUMPDEST POP PUSH2 0x362 PUSH2 0xBD1 JUMP JUMPDEST PUSH1 0x40 MLOAD PUSH2 0x36F SWAP2 SWAP1 PUSH2 0x2541 JUMP JUMPDEST PUSH1 0x40 MLOAD DUP1 SWAP2 SUB SWAP1 RETURN JUMPDEST CALLVALUE DUP1 ISZERO PUSH2 0x383 JUMPI PUSH0 DUP1 REVERT JUMPDEST POP PUSH2 0x38C PUSH2 0xBE3 JUMP JUMPDEST PUSH1 0x40 MLOAD PUSH2 0x399 SWAP2 SWAP1 PUSH2 0x2463 JUMP JUMPDEST PUSH1 0x40 MLOAD DUP1 SWAP2 SUB SWAP1 RETURN JUMPDEST CALLVALUE DUP1 ISZERO PUSH2 0x3AD JUMPI PUSH0 DUP1 REVERT JUMPDEST POP PUSH2 0x3C8 PUSH1 0x4 DUP1 CALLDATASIZE SUB DUP2 ADD SWAP1 PUSH2 0x3C3 SWAP2 SWAP1 PUSH2 0x28A9 JUMP JUMPDEST PUSH2 0xBE9 JUMP JUMPDEST STOP JUMPDEST CALLVALUE DUP1 ISZERO PUSH2 0x3D5 JUMPI PUSH0 DUP1 REVERT JUMPDEST POP PUSH2 0x3DE PUSH2 0xC90 JUMP JUMPDEST PUSH1 0x40 MLOAD PUSH2 0x3EB SWAP2 SWAP1 PUSH2 0x2463 JUMP JUMPDEST PUSH1 0x40 MLOAD DUP1 SWAP2 SUB SWAP1 RETURN JUMPDEST CALLVALUE DUP1 ISZERO PUSH2 0x3FF JUMPI PUSH0 DUP1 REVERT JUMPDEST POP PUSH2 0x41A PUSH1 0x4 DUP1 CALLDATASIZE SUB DUP2 ADD SWAP1 PUSH2 0x415 SWAP2 SWAP1 PUSH2 0x247C JUMP JUMPDEST PUSH2 0xC96 JUMP JUMPDEST PUSH1 0x40 MLOAD PUSH2 0x427 SWAP2 SWAP1 PUSH2 0x2541 JUMP JUMPDEST PUSH1 0x40 MLOAD DUP1 SWAP2 SUB SWAP1 RETURN JUMPDEST CALLVALUE DUP1 ISZERO PUSH2 0x43B JUMPI PUSH0 DUP1 REVERT JUMPDEST POP PUSH2 0x444 PUSH2 0xCE8 JUMP JUMPDEST STOP JUMPDEST PUSH2 0x460 PUSH1 0x4 DUP1 CALLDATASIZE SUB DUP2 ADD SWAP1 PUSH2 0x45B SWAP2 SWAP1 PUSH2 0x255A JUMP JUMPDEST PUSH2 0xD84 JUMP JUMPDEST STOP JUMPDEST CALLVALUE DUP1 ISZERO PUSH2 0x46D JUMPI PUSH0 DUP1 REVERT JUMPDEST POP PUSH2 0x488 PUSH1 0x4 DUP1 CALLDATASIZE SUB DUP2 ADD SWAP1 PUSH2 0x483 SWAP2 SWAP1 PUSH2 0x2A34 JUMP JUMPDEST PUSH2 0xECF JUMP JUMPDEST PUSH1 0x40 MLOAD PUSH2 0x495 SWAP2 SWAP1 PUSH2 0x2B61 JUMP JUMPDEST PUSH1 0x40 MLOAD DUP1 SWAP2 SUB SWAP1 RETURN JUMPDEST CALLVALUE DUP1 ISZERO PUSH2 0x4A9 JUMPI PUSH0 DUP1 REVERT JUMPDEST POP PUSH2 0x4B2 PUSH2 0xFD6 JUMP JUMPDEST PUSH1 0x40 MLOAD PUSH2 0x4BF SWAP2 SWAP1 PUSH2 0x2463 JUMP JUMPDEST PUSH1 0x40 MLOAD DUP1 SWAP2 SUB SWAP1 RETURN JUMPDEST CALLVALUE DUP1 ISZERO PUSH2 0x4D3 JUMPI PUSH0 DUP1 REVERT JUMPDEST POP PUSH2 0x4DC PUSH2 0xFDB JUMP JUMPDEST PUSH1 0x40 MLOAD PUSH2 0x4E9 SWAP2 SWAP1 PUSH2 0x2463 JUMP JUMPDEST PUSH1 0x40 MLOAD DUP1 SWAP2 SUB SWAP1 RETURN JUMPDEST CALLVALUE DUP1 ISZERO PUSH2 0x4FD JUMPI PUSH0 DUP1 REVERT JUMPDEST POP PUSH2 0x506 PUSH2 0xFE1 JUMP JUMPDEST STOP JUMPDEST CALLVALUE DUP1 ISZERO PUSH2 0x513 JUMPI PUSH0 DUP1 REVERT JUMPDEST POP PUSH2 0x52E PUSH1 0x4 DUP1 CALLDATASIZE SUB DUP2 ADD SWAP1 PUSH2 0x529 SWAP2 SWAP1 PUSH2 0x2B81 JUMP JUMPDEST PUSH2 0xFF4 JUMP JUMPDEST STOP JUMPDEST CALLVALUE DUP1 ISZERO PUSH2 0x53B JUMPI PUSH0 DUP1 REVERT JUMPDEST POP PUSH2 0x556 PUSH1 0x4 DUP1 CALLDATASIZE SUB DUP2 ADD SWAP1 PUSH2 0x551 SWAP2 SWAP1 PUSH2 0x255A JUMP JUMPDEST PUSH2 0x1036 JUMP JUMPDEST STOP JUMPDEST CALLVALUE DUP1 ISZERO PUSH2 0x563 JUMPI PUSH0 DUP1 REVERT JUMPDEST POP PUSH2 0x56C PUSH2 0x1048 JUMP JUMPDEST PUSH1 0x40 MLOAD PUSH2 0x579 SWAP2 SWAP1 PUSH2 0x2C10 JUMP JUMPDEST PUSH1 0x40 MLOAD DUP1 SWAP2 SUB SWAP1 RETURN JUMPDEST CALLVALUE DUP1 ISZERO PUSH2 0x58D JUMPI PUSH0 DUP1 REVERT JUMPDEST POP PUSH2 0x5A8 PUSH1 0x4 DUP1 CALLDATASIZE SUB DUP2 ADD SWAP1 PUSH2 0x5A3 SWAP2 SWAP1 PUSH2 0x2676 JUMP JUMPDEST PUSH2 0x1070 JUMP JUMPDEST STOP JUMPDEST CALLVALUE DUP1 ISZERO PUSH2 0x5B5 JUMPI PUSH0 DUP1 REVERT JUMPDEST POP PUSH2 0x5BE PUSH2 0x1113 JUMP JUMPDEST PUSH1 0x40 MLOAD PUSH2 0x5CB SWAP2 SWAP1 PUSH2 0x2463 JUMP JUMPDEST PUSH1 0x40 MLOAD DUP1 SWAP2 SUB SWAP1 RETURN JUMPDEST CALLVALUE DUP1 ISZERO PUSH2 0x5DF JUMPI PUSH0 DUP1 REVERT JUMPDEST POP PUSH2 0x5E8 PUSH2 0x1118 JUMP JUMPDEST PUSH1 0x40 MLOAD PUSH2 0x5F5 SWAP2 SWAP1 PUSH2 0x2463 JUMP JUMPDEST PUSH1 0x40 MLOAD DUP1 SWAP2 SUB SWAP1 RETURN JUMPDEST CALLVALUE DUP1 ISZERO PUSH2 0x609 JUMPI PUSH0 DUP1 REVERT JUMPDEST POP PUSH2 0x624 PUSH1 0x4 DUP1 CALLDATASIZE SUB DUP2 ADD SWAP1 PUSH2 0x61F SWAP2 SWAP1 PUSH2 0x247C JUMP JUMPDEST PUSH2 0x111E JUMP JUMPDEST STOP JUMPDEST CALLVALUE DUP1 ISZERO PUSH2 0x631 JUMPI PUSH0 DUP1 REVERT JUMPDEST POP PUSH2 0x64C PUSH1 0x4 DUP1 CALLDATASIZE SUB DUP2 ADD SWAP1 PUSH2 0x647 SWAP2 SWAP1 PUSH2 0x2C53 JUMP JUMPDEST PUSH2 0x117E JUMP JUMPDEST STOP JUMPDEST CALLVALUE DUP1 ISZERO PUSH2 0x659 JUMPI PUSH0 DUP1 REVERT JUMPDEST POP PUSH2 0x662 PUSH2 0x1194 JUMP JUMPDEST STOP JUMPDEST CALLVALUE DUP1 ISZERO PUSH2 0x66F JUMPI PUSH0 DUP1 REVERT JUMPDEST POP PUSH2 0x678 PUSH2 0x12AA JUMP JUMPDEST STOP JUMPDEST CALLVALUE DUP1 ISZERO PUSH2 0x685 JUMPI PUSH0 DUP1 REVERT JUMPDEST POP PUSH2 0x6A0 PUSH1 0x4 DUP1 CALLDATASIZE SUB DUP2 ADD SWAP1 PUSH2 0x69B SWAP2 SWAP1 PUSH2 0x2C91 JUMP JUMPDEST PUSH2 0x12CE JUMP JUMPDEST PUSH1 0x40 MLOAD PUSH2 0x6AD SWAP2 SWAP1 PUSH2 0x2541 JUMP JUMPDEST PUSH1 0x40 MLOAD DUP1 SWAP2 SUB SWAP1 RETURN JUMPDEST CALLVALUE DUP1 ISZERO PUSH2 0x6C1 JUMPI PUSH0 DUP1 REVERT JUMPDEST POP PUSH2 0x6DC PUSH1 0x4 DUP1 CALLDATASIZE SUB DUP2 ADD SWAP1 PUSH2 0x6D7 SWAP2 SWAP1 PUSH2 0x247C JUMP JUMPDEST PUSH2 0x135C JUMP JUMPDEST PUSH1 0x40 MLOAD PUSH2 0x6E9 SWAP2 SWAP1 PUSH2 0x2541 JUMP JUMPDEST PUSH1 0x40 MLOAD DUP1 SWAP2 SUB SWAP1 RETURN JUMPDEST CALLVALUE DUP1 ISZERO PUSH2 0x6FD JUMPI PUSH0 DUP1 REVERT JUMPDEST POP PUSH2 0x718 PUSH1 0x4 DUP1 CALLDATASIZE SUB DUP2 ADD SWAP1 PUSH2 0x713 SWAP2 SWAP1 PUSH2 0x255A JUMP JUMPDEST PUSH2 0x1379 JUMP JUMPDEST STOP JUMPDEST CALLVALUE DUP1 ISZERO PUSH2 0x725 JUMPI PUSH0 DUP1 REVERT JUMPDEST POP PUSH2 0x740 PUSH1 0x4 DUP1 CALLDATASIZE SUB DUP2 ADD SWAP1 PUSH2 0x73B SWAP2 SWAP1 PUSH2 0x2CCF JUMP JUMPDEST PUSH2 0x138B JUMP JUMPDEST STOP JUMPDEST CALLVALUE DUP1 ISZERO PUSH2 0x74D JUMPI PUSH0 DUP1 REVERT JUMPDEST POP PUSH2 0x768 PUSH1 0x4 DUP1 CALLDATASIZE SUB DUP2 ADD SWAP1 PUSH2 0x763 SWAP2 SWAP1 PUSH2 0x247C JUMP JUMPDEST PUSH2 0x1432 JUMP JUMPDEST STOP JUMPDEST CALLVALUE DUP1 ISZERO PUSH2 0x775 JUMPI PUSH0 DUP1 REVERT JUMPDEST POP PUSH2 0x790 PUSH1 0x4 DUP1 CALLDATASIZE SUB DUP2 ADD SWAP1 PUSH2 0x78B SWAP2 SWAP1 PUSH2 0x2D62 JUMP JUMPDEST PUSH2 0x14B6 JUMP JUMPDEST STOP JUMPDEST PUSH0 DUP1 PUSH0 DUP4 DUP2 MSTORE PUSH1 0x20 ADD SWAP1 DUP2 MSTORE PUSH1 0x20 ADD PUSH0 KECCAK256 PUSH0 DUP5 PUSH20 0xFFFFFFFFFFFFFFFFFFFFFFFFFFFFFFFFFFFFFFFF AND PUSH20 0xFFFFFFFFFFFFFFFFFFFFFFFFFFFFFFFFFFFFFFFF AND DUP2 MSTORE PUSH1 0x20 ADD SWAP1 DUP2 MSTORE PUSH1 0x20 ADD PUSH0 KECCAK256 SLOAD SWAP1 POP SWAP3 SWAP2 POP POP JUMP JUMPDEST PUSH2 0x7EF PUSH2 0x1534 JUMP JUMPDEST PUSH0 PUSH1 0x8 PUSH0 DUP4 PUSH20 0xFFFFFFFFFFFFFFFFFFFFFFFFFFFFFFFFFFFFFFFF AND PUSH20 0xFFFFFFFFFFFFFFFFFFFFFFFFFFFFFFFFFFFFFFFF AND DUP2 MSTORE PUSH1 0x20 ADD SWAP1 DUP2 MSTORE PUSH1 0x20 ADD PUSH0 KECCAK256 PUSH0 PUSH2 0x100 EXP DUP2 SLOAD DUP2 PUSH1 0xFF MUL NOT AND SWAP1 DUP4 ISZERO ISZERO MUL OR SWAP1 SSTORE POP POP JUMP JUMPDEST PUSH0 PUSH32 0xD9B67A2600000000000000000000000000000000000000000000000000000000 PUSH28 0xFFFFFFFFFFFFFFFFFFFFFFFFFFFFFFFFFFFFFFFFFFFFFFFFFFFFFFFF NOT AND DUP3 PUSH28 0xFFFFFFFFFFFFFFFFFFFFFFFFFFFFFFFFFFFFFFFFFFFFFFFFFFFFFFFF NOT AND EQ DUP1 PUSH2 0x910 JUMPI POP PUSH32 0xE89341C00000000000000000000000000000000000000000000000000000000 PUSH28 0xFFFFFFFFFFFFFFFFFFFFFFFFFFFFFFFFFFFFFFFFFFFFFFFFFFFFFFFF NOT AND DUP3 PUSH28 0xFFFFFFFFFFFFFFFFFFFFFFFFFFFFFFFFFFFFFFFFFFFFFFFFFFFFFFFF NOT AND EQ JUMPDEST DUP1 PUSH2 0x920 JUMPI POP PUSH2 0x91F DUP3 PUSH2 0x15BB JUMP JUMPDEST JUMPDEST SWAP1 POP SWAP2 SWAP1 POP JUMP JUMPDEST PUSH1 0x60 PUSH1 0x2 DUP1 SLOAD PUSH2 0x936 SWAP1 PUSH2 0x2DDF JUMP JUMPDEST DUP1 PUSH1 0x1F ADD PUSH1 0x20 DUP1 SWAP2 DIV MUL PUSH1 0x20 ADD PUSH1 0x40 MLOAD SWAP1 DUP2 ADD PUSH1 0x40 MSTORE DUP1 SWAP3 SWAP2 SWAP1 DUP2 DUP2 MSTORE PUSH1 0x20 ADD DUP3 DUP1 SLOAD PUSH2 0x962 SWAP1 PUSH2 0x2DDF JUMP JUMPDEST DUP1 ISZERO PUSH2 0x9AD JUMPI DUP1 PUSH1 0x1F LT PUSH2 0x984 JUMPI PUSH2 0x100 DUP1 DUP4 SLOAD DIV MUL DUP4 MSTORE SWAP2 PUSH1 0x20 ADD SWAP2 PUSH2 0x9AD JUMP JUMPDEST DUP3 ADD SWAP2 SWAP1 PUSH0 MSTORE PUSH1 0x20 PUSH0 KECCAK256 SWAP1 JUMPDEST DUP2 SLOAD DUP2 MSTORE SWAP1 PUSH1 0x1 ADD SWAP1 PUSH1 0x20 ADD DUP1 DUP4 GT PUSH2 0x990 JUMPI DUP3 SWAP1 SUB PUSH1 0x1F AND DUP3 ADD SWAP2 JUMPDEST POP POP POP POP POP SWAP1 POP SWAP2 SWAP1 POP JUMP JUMPDEST PUSH2 0x9C1 PUSH2 0x1534 JUMP JUMPDEST PUSH0 JUMPDEST DUP3 DUP3 SWAP1 POP DUP2 LT ISZERO PUSH2 0xA56 JUMPI PUSH0 PUSH1 0x8 PUSH0 DUP6 DUP6 DUP6 DUP2 DUP2 LT PUSH2 0x9E5 JUMPI PUSH2 0x9E4 PUSH2 0x2E0F JUMP JUMPDEST JUMPDEST SWAP1 POP PUSH1 0x20 MUL ADD PUSH1 0x20 DUP2 ADD SWAP1 PUSH2 0x9FA SWAP2 SWAP1 PUSH2 0x247C JUMP JUMPDEST PUSH20 0xFFFFFFFFFFFFFFFFFFFFFFFFFFFFFFFFFFFFFFFF AND PUSH20 0xFFFFFFFFFFFFFFFFFFFFFFFFFFFFFFFFFFFFFFFF AND DUP2 MSTORE PUSH1 0x20 ADD SWAP1 DUP2 MSTORE PUSH1 0x20 ADD PUSH0 KECCAK256 PUSH0 PUSH2 0x100 EXP DUP2 SLOAD DUP2 PUSH1 0xFF MUL NOT AND SWAP1 DUP4 ISZERO ISZERO MUL OR SWAP1 SSTORE POP DUP1 DUP1 PUSH1 0x1 ADD SWAP2 POP POP PUSH2 0x9C3 JUMP JUMPDEST POP POP POP JUMP JUMPDEST PUSH1 0x7 PUSH0 SWAP1 SLOAD SWAP1 PUSH2 0x100 EXP SWAP1 DIV PUSH1 0xFF AND PUSH2 0xAA9 JUMPI PUSH1 0x40 MLOAD PUSH32 0x8C379A000000000000000000000000000000000000000000000000000000000 DUP2 MSTORE PUSH1 0x4 ADD PUSH2 0xAA0 SWAP1 PUSH2 0x2E86 JUMP JUMPDEST PUSH1 0x40 MLOAD DUP1 SWAP2 SUB SWAP1 REVERT JUMPDEST PUSH0 DUP2 PUSH1 0x5 SLOAD PUSH2 0xAB8 SWAP2 SWAP1 PUSH2 0x2ED1 JUMP JUMPDEST SWAP1 POP DUP1 CALLVALUE LT ISZERO PUSH2 0xAFD JUMPI PUSH1 0x40 MLOAD PUSH32 0x8C379A000000000000000000000000000000000000000000000000000000000 DUP2 MSTORE PUSH1 0x4 ADD PUSH2 0xAF4 SWAP1 PUSH2 0x2F5C JUMP JUMPDEST PUSH1 0x40 MLOAD DUP1 SWAP2 SUB SWAP1 REVERT JUMPDEST PUSH2 0xB18 CALLER PUSH1 0x1 DUP5 PUSH1 0x40 MLOAD DUP1 PUSH1 0x20 ADD PUSH1 0x40 MSTORE DUP1 PUSH0 DUP2 MSTORE POP PUSH2 0x1624 JUMP JUMPDEST DUP1 CALLVALUE GT ISZERO PUSH2 0xB70 JUMPI CALLER PUSH20 0xFFFFFFFFFFFFFFFFFFFFFFFFFFFFFFFFFFFFFFFF AND PUSH2 0x8FC DUP3 CALLVALUE PUSH2 0xB46 SWAP2 SWAP1 PUSH2 0x2F7A JUMP JUMPDEST SWAP1 DUP2 ISZERO MUL SWAP1 PUSH1 0x40 MLOAD PUSH0 PUSH1 0x40 MLOAD DUP1 DUP4 SUB DUP2 DUP6 DUP9 DUP9 CALL SWAP4 POP POP POP POP ISZERO DUP1 ISZERO PUSH2 0xB6E JUMPI RETURNDATASIZE PUSH0 DUP1 RETURNDATACOPY RETURNDATASIZE PUSH0 REVERT JUMPDEST POP JUMPDEST POP POP JUMP JUMPDEST DUP1 PUSH2 0xB80 DUP4 PUSH1 0x1 PUSH2 0x792 JUMP JUMPDEST LT ISZERO PUSH2 0xBC1 JUMPI PUSH1 0x40 MLOAD PUSH32 0x8C379A000000000000000000000000000000000000000000000000000000000 DUP2 MSTORE PUSH1 0x4 ADD PUSH2 0xBB8 SWAP1 PUSH2 0x2FF7 JUMP JUMPDEST PUSH1 0x40 MLOAD DUP1 SWAP2 SUB SWAP1 REVERT JUMPDEST PUSH2 0xBCD DUP3 PUSH1 0x1 DUP4 PUSH2 0x16B9 JUMP JUMPDEST POP POP JUMP JUMPDEST PUSH1 0x7 PUSH0 SWAP1 SLOAD SWAP1 PUSH2 0x100 EXP SWAP1 DIV PUSH1 0xFF AND DUP2 JUMP JUMPDEST PUSH1 0x4 SLOAD DUP2 JUMP JUMPDEST PUSH0 PUSH2 0xBF2 PUSH2 0x175B JUMP JUMPDEST SWAP1 POP DUP1 PUSH20 0xFFFFFFFFFFFFFFFFFFFFFFFFFFFFFFFFFFFFFFFF AND DUP7 PUSH20 0xFFFFFFFFFFFFFFFFFFFFFFFFFFFFFFFFFFFFFFFF AND EQ ISZERO DUP1 ISZERO PUSH2 0xC37 JUMPI POP PUSH2 0xC35 DUP7 DUP3 PUSH2 0x12CE JUMP JUMPDEST ISZERO JUMPDEST ISZERO PUSH2 0xC7B JUMPI DUP1 DUP7 PUSH1 0x40 MLOAD PUSH32 0xE237D92200000000000000000000000000000000000000000000000000000000 DUP2 MSTORE PUSH1 0x4 ADD PUSH2 0xC72 SWAP3 SWAP2 SWAP1 PUSH2 0x3015 JUMP JUMPDEST PUSH1 0x40 MLOAD DUP1 SWAP2 SUB SWAP1 REVERT JUMPDEST PUSH2 0xC88 DUP7 DUP7 DUP7 DUP7 DUP7 PUSH2 0x1762 JUMP JUMPDEST POP POP POP POP POP POP JUMP JUMPDEST PUSH2 0x3E8 DUP2 JUMP JUMPDEST PUSH0 PUSH1 0x8 PUSH0 DUP4 PUSH20 0xFFFFFFFFFFFFFFFFFFFFFFFFFFFFFFFFFFFFFFFF AND PUSH20 0xFFFFFFFFFFFFFFFFFFFFFFFFFFFFFFFFFFFFFFFF AND DUP2 MSTORE PUSH1 0x20 ADD SWAP1 DUP2 MSTORE PUSH1 0x20 ADD PUSH0 KECCAK256 PUSH0 SWAP1 SLOAD SWAP1 PUSH2 0x100 EXP SWAP1 DIV PUSH1 0xFF AND SWAP1 POP SWAP2 SWAP1 POP JUMP JUMPDEST PUSH2 0xCF0 PUSH2 0x1534 JUMP JUMPDEST PUSH0 SELFBALANCE SWAP1 POP PUSH0 DUP2 GT PUSH2 0xD36 JUMPI PUSH1 0x40 MLOAD PUSH32 0x8C379A000000000000000000000000000000000000000000000000000000000 DUP2 MSTORE PUSH1 0x4 ADD PUSH2 0xD2D SWAP1 PUSH2 0x3086 JUMP JUMPDEST PUSH1 0x40 MLOAD DUP1 SWAP2 SUB SWAP1 REVERT JUMPDEST PUSH2 0xD3E PUSH2 0x1048 JUMP JUMPDEST PUSH20 0xFFFFFFFFFFFFFFFFFFFFFFFFFFFFFFFFFFFFFFFF AND PUSH2 0x8FC DUP3 SWAP1 DUP2 ISZERO MUL SWAP1 PUSH1 0x40 MLOAD PUSH0 PUSH1 0x40 MLOAD DUP1 DUP4 SUB DUP2 DUP6 DUP9 DUP9 CALL SWAP4 POP POP POP POP ISZERO DUP1 ISZERO PUSH2 0xD80 JUMPI RETURNDATASIZE PUSH0 DUP1 RETURNDATACOPY RETURNDATASIZE PUSH0 REVERT JUMPDEST POP POP JUMP JUMPDEST PUSH1 0x8 PUSH0 CALLER PUSH20 0xFFFFFFFFFFFFFFFFFFFFFFFFFFFFFFFFFFFFFFFF AND PUSH20 0xFFFFFFFFFFFFFFFFFFFFFFFFFFFFFFFFFFFFFFFF AND DUP2 MSTORE PUSH1 0x20 ADD SWAP1 DUP2 MSTORE PUSH1 0x20 ADD PUSH0 KECCAK256 PUSH0 SWAP1 SLOAD SWAP1 PUSH2 0x100 EXP SWAP1 DIV PUSH1 0xFF AND PUSH2 0xE0D JUMPI PUSH1 0x40 MLOAD PUSH32 0x8C379A000000000000000000000000000000000000000000000000000000000 DUP2 MSTORE PUSH1 0x4 ADD PUSH2 0xE04 SWAP1 PUSH2 0x30EE JUMP JUMPDEST PUSH1 0x40 MLOAD DUP1 SWAP2 SUB SWAP1 REVERT JUMPDEST PUSH0 PUSH1 0x6 SLOAD DUP3 PUSH2 0xE1C SWAP2 SWAP1 PUSH2 0x2ED1 JUMP JUMPDEST SWAP1 POP DUP1 CALLVALUE EQ PUSH2 0xE60 JUMPI PUSH1 0x40 MLOAD PUSH32 0x8C379A000000000000000000000000000000000000000000000000000000000 DUP2 MSTORE PUSH1 0x4 ADD PUSH2 0xE57 SWAP1 PUSH2 0x3156 JUMP JUMPDEST PUSH1 0x40 MLOAD DUP1 SWAP2 SUB SWAP1 REVERT JUMPDEST PUSH2 0xE7B CALLER PUSH1 0x2 DUP5 PUSH1 0x40 MLOAD DUP1 PUSH1 0x20 ADD PUSH1 0x40 MSTORE DUP1 PUSH0 DUP2 MSTORE POP PUSH2 0x1624 JUMP JUMPDEST CALLER PUSH20 0xFFFFFFFFFFFFFFFFFFFFFFFFFFFFFFFFFFFFFFFF AND PUSH32 0x3DBEDE4722935D18D5AC26E7855E25E08CCCDC56C42D4A6242BF5B46641F139C DUP4 DUP4 PUSH1 0x40 MLOAD PUSH2 0xEC3 SWAP3 SWAP2 SWAP1 PUSH2 0x3174 JUMP JUMPDEST PUSH1 0x40 MLOAD DUP1 SWAP2 SUB SWAP1 LOG2 POP POP JUMP JUMPDEST PUSH1 0x60 DUP2 MLOAD DUP4 MLOAD EQ PUSH2 0xF1B JUMPI DUP2 MLOAD DUP4 MLOAD PUSH1 0x40 MLOAD PUSH32 0x5B05999100000000000000000000000000000000000000000000000000000000 DUP2 MSTORE PUSH1 0x4 ADD PUSH2 0xF12 SWAP3 SWAP2 SWAP1 PUSH2 0x3174 JUMP JUMPDEST PUSH1 0x40 MLOAD DUP1 SWAP2 SUB SWAP1 REVERT JUMPDEST PUSH0 DUP4 MLOAD PUSH8 0xFFFFFFFFFFFFFFFF DUP2 GT ISZERO PUSH2 0xF37 JUMPI PUSH2 0xF36 PUSH2 0x26C1 JUMP JUMPDEST JUMPDEST PUSH1 0x40 MLOAD SWAP1 DUP1 DUP3 MSTORE DUP1 PUSH1 0x20 MUL PUSH1 0x20 ADD DUP3 ADD PUSH1 0x40 MSTORE DUP1 ISZERO PUSH2 0xF65 JUMPI DUP2 PUSH1 0x20 ADD PUSH1 0x20 DUP3 MUL DUP1 CALLDATASIZE DUP4 CALLDATACOPY DUP1 DUP3 ADD SWAP2 POP POP SWAP1 POP JUMPDEST POP SWAP1 POP PUSH0 JUMPDEST DUP5 MLOAD DUP2 LT ISZERO PUSH2 0xFCB JUMPI PUSH2 0xFA1 PUSH2 0xF89 DUP3 DUP8 PUSH2 0x1856 SWAP1 SWAP2 SWAP1 PUSH4 0xFFFFFFFF AND JUMP JUMPDEST PUSH2 0xF9C DUP4 DUP8 PUSH2 0x1869 SWAP1 SWAP2 SWAP1 PUSH4 0xFFFFFFFF AND JUMP JUMPDEST PUSH2 0x792 JUMP JUMPDEST DUP3 DUP3 DUP2 MLOAD DUP2 LT PUSH2 0xFB4 JUMPI PUSH2 0xFB3 PUSH2 0x2E0F JUMP JUMPDEST JUMPDEST PUSH1 0x20 MUL PUSH1 0x20 ADD ADD DUP2 DUP2 MSTORE POP POP DUP1 PUSH1 0x1 ADD SWAP1 POP PUSH2 0xF6A JUMP JUMPDEST POP DUP1 SWAP2 POP POP SWAP3 SWAP2 POP POP JUMP JUMPDEST PUSH1 0x1 DUP2 JUMP JUMPDEST PUSH1 0x5 SLOAD DUP2 JUMP JUMPDEST PUSH2 0xFE9 PUSH2 0x1534 JUMP JUMPDEST PUSH2 0xFF2 PUSH0 PUSH2 0x187C JUMP JUMPDEST JUMP JUMPDEST PUSH2 0xFFC PUSH2 0x1534 JUMP JUMPDEST PUSH0 DUP2 MLOAD SUB PUSH2 0x1023 JUMPI PUSH2 0x101E DUP5 DUP5 DUP5 PUSH1 0x40 MLOAD DUP1 PUSH1 0x20 ADD PUSH1 0x40 MSTORE DUP1 PUSH0 DUP2 MSTORE POP PUSH2 0x1624 JUMP JUMPDEST PUSH2 0x1030 JUMP JUMPDEST PUSH2 0x102F DUP5 DUP5 DUP5 DUP5 PUSH2 0x1624 JUMP JUMPDEST JUMPDEST POP POP POP POP JUMP JUMPDEST PUSH2 0x103E PUSH2 0x1534 JUMP JUMPDEST DUP1 PUSH1 0x6 DUP2 SWAP1 SSTORE POP POP JUMP JUMPDEST PUSH0 PUSH1 0x3 PUSH0 SWAP1 SLOAD SWAP1 PUSH2 0x100 EXP SWAP1 DIV PUSH20 0xFFFFFFFFFFFFFFFFFFFFFFFFFFFFFFFFFFFFFFFF AND SWAP1 POP SWAP1 JUMP JUMPDEST PUSH2 0x1078 PUSH2 0x1534 JUMP JUMPDEST PUSH0 JUMPDEST DUP3 DUP3 SWAP1 POP DUP2 LT ISZERO PUSH2 0x110E JUMPI PUSH1 0x1 PUSH1 0x8 PUSH0 DUP6 DUP6 DUP6 DUP2 DUP2 LT PUSH2 0x109D JUMPI PUSH2 0x109C PUSH2 0x2E0F JUMP JUMPDEST JUMPDEST SWAP1 POP PUSH1 0x20 MUL ADD PUSH1 0x20 DUP2 ADD SWAP1 PUSH2 0x10B2 SWAP2 SWAP1 PUSH2 0x247C JUMP JUMPDEST PUSH20 0xFFFFFFFFFFFFFFFFFFFFFFFFFFFFFFFFFFFFFFFF AND PUSH20 0xFFFFFFFFFFFFFFFFFFFFFFFFFFFFFFFFFFFFFFFF AND DUP2 MSTORE PUSH1 0x20 ADD SWAP1 DUP2 MSTORE PUSH1 0x20 ADD PUSH0 KECCAK256 PUSH0 PUSH2 0x100 EXP DUP2 SLOAD DUP2 PUSH1 0xFF MUL NOT AND SWAP1 DUP4 ISZERO ISZERO MUL OR SWAP1 SSTORE POP DUP1 DUP1 PUSH1 0x1 ADD SWAP2 POP POP PUSH2 0x107A JUMP JUMPDEST POP POP POP JUMP JUMPDEST PUSH1 0x2 DUP2 JUMP JUMPDEST PUSH1 0x6 SLOAD DUP2 JUMP JUMPDEST PUSH2 0x1126 PUSH2 0x1534 JUMP JUMPDEST PUSH1 0x1 PUSH1 0x8 PUSH0 DUP4 PUSH20 0xFFFFFFFFFFFFFFFFFFFFFFFFFFFFFFFFFFFFFFFF AND PUSH20 0xFFFFFFFFFFFFFFFFFFFFFFFFFFFFFFFFFFFFFFFF AND DUP2 MSTORE PUSH1 0x20 ADD SWAP1 DUP2 MSTORE PUSH1 0x20 ADD PUSH0 KECCAK256 PUSH0 PUSH2 0x100 EXP DUP2 SLOAD DUP2 PUSH1 0xFF MUL NOT AND SWAP1 DUP4 ISZERO ISZERO MUL OR SWAP1 SSTORE POP POP JUMP JUMPDEST PUSH2 0x1190 PUSH2 0x1189 PUSH2 0x175B JUMP JUMPDEST DUP4 DUP4 PUSH2 0x193F JUMP JUMPDEST POP POP JUMP JUMPDEST PUSH1 0x7 PUSH0 SWAP1 SLOAD SWAP1 PUSH2 0x100 EXP SWAP1 DIV PUSH1 0xFF AND PUSH2 0x11E2 JUMPI PUSH1 0x40 MLOAD PUSH32 0x8C379A000000000000000000000000000000000000000000000000000000000 DUP2 MSTORE PUSH1 0x4 ADD PUSH2 0x11D9 SWAP1 PUSH2 0x2E86 JUMP JUMPDEST PUSH1 0x40 MLOAD DUP1 SWAP2 SUB SWAP1 REVERT JUMPDEST PUSH0 PUSH2 0x11EE CALLER PUSH1 0x2 PUSH2 0x792 JUMP JUMPDEST SWAP1 POP PUSH0 DUP2 GT PUSH2 0x1232 JUMPI PUSH1 0x40 MLOAD PUSH32 0x8C379A000000000000000000000000000000000000000000000000000000000 DUP2 MSTORE PUSH1 0x4 ADD PUSH2 0x1229 SWAP1 PUSH2 0x31E5 JUMP JUMPDEST PUSH1 0x40 MLOAD DUP1 SWAP2 SUB SWAP1 REVERT JUMPDEST PUSH2 0x123E CALLER PUSH1 0x2 DUP4 PUSH2 0x16B9 JUMP JUMPDEST PUSH2 0x1259 CALLER PUSH1 0x1 DUP4 PUSH1 0x40 MLOAD DUP1 PUSH1 0x20 ADD PUSH1 0x40 MSTORE DUP1 PUSH0 DUP2 MSTORE POP PUSH2 0x1624 JUMP JUMPDEST CALLER PUSH20 0xFFFFFFFFFFFFFFFFFFFFFFFFFFFFFFFFFFFFFFFF AND PUSH32 0x4E9C210C7BB5578299D11B938B47D2967A1331C52638E55B4C5AAFF17D1EFD9A DUP3 PUSH1 0x40 MLOAD PUSH2 0x129F SWAP2 SWAP1 PUSH2 0x2463 JUMP JUMPDEST PUSH1 0x40 MLOAD DUP1 SWAP2 SUB SWAP1 LOG2 POP JUMP JUMPDEST PUSH2 0x12B2 PUSH2 0x1534 JUMP JUMPDEST PUSH1 0x1 PUSH1 0x7 PUSH0 PUSH2 0x100 EXP DUP2 SLOAD DUP2 PUSH1 0xFF MUL NOT AND SWAP1 DUP4 ISZERO ISZERO MUL OR SWAP1 SSTORE POP JUMP JUMPDEST PUSH0 PUSH1 0x1 PUSH0 DUP5 PUSH20 0xFFFFFFFFFFFFFFFFFFFFFFFFFFFFFFFFFFFFFFFF AND PUSH20 0xFFFFFFFFFFFFFFFFFFFFFFFFFFFFFFFFFFFFFFFF AND DUP2 MSTORE PUSH1 0x20 ADD SWAP1 DUP2 MSTORE PUSH1 0x20 ADD PUSH0 KECCAK256 PUSH0 DUP4 PUSH20 0xFFFFFFFFFFFFFFFFFFFFFFFFFFFFFFFFFFFFFFFF AND PUSH20 0xFFFFFFFFFFFFFFFFFFFFFFFFFFFFFFFFFFFFFFFF AND DUP2 MSTORE PUSH1 0x20 ADD SWAP1 DUP2 MSTORE PUSH1 0x20 ADD PUSH0 KECCAK256 PUSH0 SWAP1 SLOAD SWAP1 PUSH2 0x100 EXP SWAP1 DIV PUSH1 0xFF AND SWAP1 POP SWAP3 SWAP2 POP POP JUMP JUMPDEST PUSH1 0x8 PUSH1 0x20 MSTORE DUP1 PUSH0 MSTORE PUSH1 0x40 PUSH0 KECCAK256 PUSH0 SWAP2 POP SLOAD SWAP1 PUSH2 0x100 EXP SWAP1 DIV PUSH1 0xFF AND DUP2 JUMP JUMPDEST PUSH2 0x1381 PUSH2 0x1534 JUMP JUMPDEST DUP1 PUSH1 0x5 DUP2 SWAP1 SSTORE POP POP JUMP JUMPDEST PUSH0 PUSH2 0x1394 PUSH2 0x175B JUMP JUMPDEST SWAP1 POP DUP1 PUSH20 0xFFFFFFFFFFFFFFFFFFFFFFFFFFFFFFFFFFFFFFFF AND DUP7 PUSH20 0xFFFFFFFFFFFFFFFFFFFFFFFFFFFFFFFFFFFFFFFF AND EQ ISZERO DUP1 ISZERO PUSH2 0x13D9 JUMPI POP PUSH2 0x13D7 DUP7 DUP3 PUSH2 0x12CE JUMP JUMPDEST ISZERO JUMPDEST ISZERO PUSH2 0x141D JUMPI DUP1 DUP7 PUSH1 0x40 MLOAD PUSH32 0xE237D92200000000000000000000000000000000000000000000000000000000 DUP2 MSTORE PUSH1 0x4 ADD PUSH2 0x1414 SWAP3 SWAP2 SWAP1 PUSH2 0x3015 JUMP JUMPDEST PUSH1 0x40 MLOAD DUP1 SWAP2 SUB SWAP1 REVERT JUMPDEST PUSH2 0x142A DUP7 DUP7 DUP7 DUP7 DUP7 PUSH2 0x1AA8 JUMP JUMPDEST POP POP POP POP POP POP JUMP JUMPDEST PUSH2 0x143A PUSH2 0x1534 JUMP JUMPDEST PUSH0 PUSH20 0xFFFFFFFFFFFFFFFFFFFFFFFFFFFFFFFFFFFFFFFF AND DUP2 PUSH20 0xFFFFFFFFFFFFFFFFFFFFFFFFFFFFFFFFFFFFFFFF AND SUB PUSH2 0x14AA JUMPI PUSH0 PUSH1 0x40 MLOAD PUSH32 0x1E4FBDF700000000000000000000000000000000000000000000000000000000 DUP2 MSTORE PUSH1 0x4 ADD PUSH2 0x14A1 SWAP2 SWAP1 PUSH2 0x2C10 JUMP JUMPDEST PUSH1 0x40 MLOAD DUP1 SWAP2 SUB SWAP1 REVERT JUMPDEST PUSH2 0x14B3 DUP2 PUSH2 0x187C JUMP JUMPDEST POP JUMP JUMPDEST CALLER PUSH20 0xFFFFFFFFFFFFFFFFFFFFFFFFFFFFFFFFFFFFFFFF AND DUP4 PUSH20 0xFFFFFFFFFFFFFFFFFFFFFFFFFFFFFFFFFFFFFFFF AND EQ PUSH2 0x1524 JUMPI PUSH1 0x40 MLOAD PUSH32 0x8C379A000000000000000000000000000000000000000000000000000000000 DUP2 MSTORE PUSH1 0x4 ADD PUSH2 0x151B SWAP1 PUSH2 0x3273 JUMP JUMPDEST PUSH1 0x40 MLOAD DUP1 SWAP2 SUB SWAP1 REVERT JUMPDEST PUSH2 0x152F DUP4 DUP4 DUP4 PUSH2 0x16B9 JUMP JUMPDEST POP POP POP JUMP JUMPDEST PUSH2 0x153C PUSH2 0x175B JUMP JUMPDEST PUSH20 0xFFFFFFFFFFFFFFFFFFFFFFFFFFFFFFFFFFFFFFFF AND PUSH2 0x155A PUSH2 0x1048 JUMP JUMPDEST PUSH20 0xFFFFFFFFFFFFFFFFFFFFFFFFFFFFFFFFFFFFFFFF AND EQ PUSH2 0x15B9 JUMPI PUSH2 0x157D PUSH2 0x175B JUMP JUMPDEST PUSH1 0x40 MLOAD PUSH32 0x118CDAA700000000000000000000000000000000000000000000000000000000 DUP2 MSTORE PUSH1 0x4 ADD PUSH2 0x15B0 SWAP2 SWAP1 PUSH2 0x2C10 JUMP JUMPDEST PUSH1 0x40 MLOAD DUP1 SWAP2 SUB SWAP1 REVERT JUMPDEST JUMP JUMPDEST PUSH0 PUSH32 0x1FFC9A700000000000000000000000000000000000000000000000000000000 PUSH28 0xFFFFFFFFFFFFFFFFFFFFFFFFFFFFFFFFFFFFFFFFFFFFFFFFFFFFFFFF NOT AND DUP3 PUSH28 0xFFFFFFFFFFFFFFFFFFFFFFFFFFFFFFFFFFFFFFFFFFFFFFFFFFFFFFFF NOT AND EQ SWAP1 POP SWAP2 SWAP1 POP JUMP JUMPDEST PUSH0 PUSH20 0xFFFFFFFFFFFFFFFFFFFFFFFFFFFFFFFFFFFFFFFF AND DUP5 PUSH20 0xFFFFFFFFFFFFFFFFFFFFFFFFFFFFFFFFFFFFFFFF AND SUB PUSH2 0x1694 JUMPI PUSH0 PUSH1 0x40 MLOAD PUSH32 0x57F447CE00000000000000000000000000000000000000000000000000000000 DUP2 MSTORE PUSH1 0x4 ADD PUSH2 0x168B SWAP2 SWAP1 PUSH2 0x2C10 JUMP JUMPDEST PUSH1 0x40 MLOAD DUP1 SWAP2 SUB SWAP1 REVERT JUMPDEST PUSH0 DUP1 PUSH2 0x16A0 DUP6 DUP6 PUSH2 0x1BAE JUMP JUMPDEST SWAP2 POP SWAP2 POP PUSH2 0x16B1 PUSH0 DUP8 DUP5 DUP5 DUP8 PUSH2 0x1BDE JUMP JUMPDEST POP POP POP POP POP POP JUMP JUMPDEST PUSH0 PUSH20 0xFFFFFFFFFFFFFFFFFFFFFFFFFFFFFFFFFFFFFFFF AND DUP4 PUSH20 0xFFFFFFFFFFFFFFFFFFFFFFFFFFFFFFFFFFFFFFFF AND SUB PUSH2 0x1729 JUMPI PUSH0 PUSH1 0x40 MLOAD PUSH32 0x1A8351400000000000000000000000000000000000000000000000000000000 DUP2 MSTORE PUSH1 0x4 ADD PUSH2 0x1720 SWAP2 SWAP1 PUSH2 0x2C10 JUMP JUMPDEST PUSH1 0x40 MLOAD DUP1 SWAP2 SUB SWAP1 REVERT JUMPDEST PUSH0 DUP1 PUSH2 0x1735 DUP5 DUP5 PUSH2 0x1BAE JUMP JUMPDEST SWAP2 POP SWAP2 POP PUSH2 0x1754 DUP6 PUSH0 DUP5 DUP5 PUSH1 0x40 MLOAD DUP1 PUSH1 0x20 ADD PUSH1 0x40 MSTORE DUP1 PUSH0 DUP2 MSTORE POP PUSH2 0x1BDE JUMP JUMPDEST POP POP POP POP POP JUMP JUMPDEST PUSH0 CALLER SWAP1 POP SWAP1 JUMP JUMPDEST PUSH0 PUSH20 0xFFFFFFFFFFFFFFFFFFFFFFFFFFFFFFFFFFFFFFFF AND DUP5 PUSH20 0xFFFFFFFFFFFFFFFFFFFFFFFFFFFFFFFFFFFFFFFF AND SUB PUSH2 0x17D2 JUMPI PUSH0 PUSH1 0x40 MLOAD PUSH32 0x57F447CE00000000000000000000000000000000000000000000000000000000 DUP2 MSTORE PUSH1 0x4 ADD PUSH2 0x17C9 SWAP2 SWAP1 PUSH2 0x2C10 JUMP JUMPDEST PUSH1 0x40 MLOAD DUP1 SWAP2 SUB SWAP1 REVERT JUMPDEST PUSH0 PUSH20 0xFFFFFFFFFFFFFFFFFFFFFFFFFFFFFFFFFFFFFFFF AND DUP6 PUSH20 0xFFFFFFFFFFFFFFFFFFFFFFFFFFFFFFFFFFFFFFFF AND SUB PUSH2 0x1842 JUMPI PUSH0 PUSH1 0x40 MLOAD PUSH32 0x1A8351400000000000000000000000000000000000000000000000000000000 DUP2 MSTORE PUSH1 0x4 ADD PUSH2 0x1839 SWAP2 SWAP1 PUSH2 0x2C10 JUMP JUMPDEST PUSH1 0x40 MLOAD DUP1 SWAP2 SUB SWAP1 REVERT JUMPDEST PUSH2 0x184F DUP6 DUP6 DUP6 DUP6 DUP6 PUSH2 0x1BDE JUMP JUMPDEST POP POP POP POP POP JUMP JUMPDEST PUSH0 PUSH1 0x20 DUP3 MUL PUSH1 0x20 DUP5 ADD ADD MLOAD SWAP1 POP SWAP3 SWAP2 POP POP JUMP JUMPDEST PUSH0 PUSH1 0x20 DUP3 MUL PUSH1 0x20 DUP5 ADD ADD MLOAD SWAP1 POP SWAP3 SWAP2 POP POP JUMP JUMPDEST PUSH0 PUSH1 0x3 PUSH0 SWAP1 SLOAD SWAP1 PUSH2 0x100 EXP SWAP1 DIV PUSH20 0xFFFFFFFFFFFFFFFFFFFFFFFFFFFFFFFFFFFFFFFF AND SWAP1 POP DUP2 PUSH1 0x3 PUSH0 PUSH2 0x100 EXP DUP2 SLOAD DUP2 PUSH20 0xFFFFFFFFFFFFFFFFFFFFFFFFFFFFFFFFFFFFFFFF MUL NOT AND SWAP1 DUP4 PUSH20 0xFFFFFFFFFFFFFFFFFFFFFFFFFFFFFFFFFFFFFFFF AND MUL OR SWAP1 SSTORE POP DUP2 PUSH20 0xFFFFFFFFFFFFFFFFFFFFFFFFFFFFFFFFFFFFFFFF AND DUP2 PUSH20 0xFFFFFFFFFFFFFFFFFFFFFFFFFFFFFFFFFFFFFFFF AND PUSH32 0x8BE0079C531659141344CD1FD0A4F28419497F9722A3DAAFE3B4186F6B6457E0 PUSH1 0x40 MLOAD PUSH1 0x40 MLOAD DUP1 SWAP2 SUB SWAP1 LOG3 POP POP JUMP JUMPDEST PUSH0 PUSH20 0xFFFFFFFFFFFFFFFFFFFFFFFFFFFFFFFFFFFFFFFF AND DUP3 PUSH20 0xFFFFFFFFFFFFFFFFFFFFFFFFFFFFFFFFFFFFFFFF AND SUB PUSH2 0x19AF JUMPI PUSH0 PUSH1 0x40 MLOAD PUSH32 0xCED3E10000000000000000000000000000000000000000000000000000000000 DUP2 MSTORE PUSH1 0x4 ADD PUSH2 0x19A6 SWAP2 SWAP1 PUSH2 0x2C10 JUMP JUMPDEST PUSH1 0x40 MLOAD DUP1 SWAP2 SUB SWAP1 REVERT JUMPDEST DUP1 PUSH1 0x1 PUSH0 DUP6 PUSH20 0xFFFFFFFFFFFFFFFFFFFFFFFFFFFFFFFFFFFFFFFF AND PUSH20 0xFFFFFFFFFFFFFFFFFFFFFFFFFFFFFFFFFFFFFFFF AND DUP2 MSTORE PUSH1 0x20 ADD SWAP1 DUP2 MSTORE PUSH1 0x20 ADD PUSH0 KECCAK256 PUSH0 DUP5 PUSH20 0xFFFFFFFFFFFFFFFFFFFFFFFFFFFFFFFFFFFFFFFF AND PUSH20 0xFFFFFFFFFFFFFFFFFFFFFFFFFFFFFFFFFFFFFFFF AND DUP2 MSTORE PUSH1 0x20 ADD SWAP1 DUP2 MSTORE PUSH1 0x20 ADD PUSH0 KECCAK256 PUSH0 PUSH2 0x100 EXP DUP2 SLOAD DUP2 PUSH1 0xFF MUL NOT AND SWAP1 DUP4 ISZERO ISZERO MUL OR SWAP1 SSTORE POP DUP2 PUSH20 0xFFFFFFFFFFFFFFFFFFFFFFFFFFFFFFFFFFFFFFFF AND DUP4 PUSH20 0xFFFFFFFFFFFFFFFFFFFFFFFFFFFFFFFFFFFFFFFF AND PUSH32 0x17307EAB39AB6107E8899845AD3D59BD9653F200F220920489CA2B5937696C31 DUP4 PUSH1 0x40 MLOAD PUSH2 0x1A9B SWAP2 SWAP1 PUSH2 0x2541 JUMP JUMPDEST PUSH1 0x40 MLOAD DUP1 SWAP2 SUB SWAP1 LOG3 POP POP POP JUMP JUMPDEST PUSH0 PUSH20 0xFFFFFFFFFFFFFFFFFFFFFFFFFFFFFFFFFFFFFFFF AND DUP5 PUSH20 0xFFFFFFFFFFFFFFFFFFFFFFFFFFFFFFFFFFFFFFFF AND SUB PUSH2 0x1B18 JUMPI PUSH0 PUSH1 0x40 MLOAD PUSH32 0x57F447CE00000000000000000000000000000000000000000000000000000000 DUP2 MSTORE PUSH1 0x4 ADD PUSH2 0x1B0F SWAP2 SWAP1 PUSH2 0x2C10 JUMP JUMPDEST PUSH1 0x40 MLOAD DUP1 SWAP2 SUB SWAP1 REVERT JUMPDEST PUSH0 PUSH20 0xFFFFFFFFFFFFFFFFFFFFFFFFFFFFFFFFFFFFFFFF AND DUP6 PUSH20 0xFFFFFFFFFFFFFFFFFFFFFFFFFFFFFFFFFFFFFFFF AND SUB PUSH2 0x1B88 JUMPI PUSH0 PUSH1 0x40 MLOAD PUSH32 0x1A8351400000000000000000000000000000000000000000000000000000000 DUP2 MSTORE PUSH1 0x4 ADD PUSH2 0x1B7F SWAP2 SWAP1 PUSH2 0x2C10 JUMP JUMPDEST PUSH1 0x40 MLOAD DUP1 SWAP2 SUB SWAP1 REVERT JUMPDEST PUSH0 DUP1 PUSH2 0x1B94 DUP6 DUP6 PUSH2 0x1BAE JUMP JUMPDEST SWAP2 POP SWAP2 POP PUSH2 0x1BA5 DUP8 DUP8 DUP5 DUP5 DUP8 PUSH2 0x1BDE JUMP JUMPDEST POP POP POP POP POP POP POP JUMP JUMPDEST PUSH1 0x60 DUP1 PUSH1 0x40 MLOAD SWAP2 POP PUSH1 0x1 DUP3 MSTORE DUP4 PUSH1 0x20 DUP4 ADD MSTORE PUSH1 0x40 DUP3 ADD SWAP1 POP PUSH1 0x1 DUP2 MSTORE DUP3 PUSH1 0x20 DUP3 ADD MSTORE PUSH1 0x40 DUP2 ADD PUSH1 0x40 MSTORE SWAP3 POP SWAP3 SWAP1 POP JUMP JUMPDEST PUSH2 0x1BEA DUP6 DUP6 DUP6 DUP6 PUSH2 0x1C8A JUMP JUMPDEST PUSH0 PUSH20 0xFFFFFFFFFFFFFFFFFFFFFFFFFFFFFFFFFFFFFFFF AND DUP5 PUSH20 0xFFFFFFFFFFFFFFFFFFFFFFFFFFFFFFFFFFFFFFFF AND EQ PUSH2 0x1C83 JUMPI PUSH0 PUSH2 0x1C26 PUSH2 0x175B JUMP JUMPDEST SWAP1 POP PUSH1 0x1 DUP5 MLOAD SUB PUSH2 0x1C72 JUMPI PUSH0 PUSH2 0x1C45 PUSH0 DUP7 PUSH2 0x1869 SWAP1 SWAP2 SWAP1 PUSH4 0xFFFFFFFF AND JUMP JUMPDEST SWAP1 POP PUSH0 PUSH2 0x1C5B PUSH0 DUP7 PUSH2 0x1869 SWAP1 SWAP2 SWAP1 PUSH4 0xFFFFFFFF AND JUMP JUMPDEST SWAP1 POP PUSH2 0x1C6B DUP4 DUP10 DUP10 DUP6 DUP6 DUP10 PUSH2 0x201A JUMP JUMPDEST POP POP PUSH2 0x1C81 JUMP JUMPDEST PUSH2 0x1C80 DUP2 DUP8 DUP8 DUP8 DUP8 DUP8 PUSH2 0x21C9 JUMP JUMPDEST JUMPDEST POP JUMPDEST POP POP POP POP POP JUMP JUMPDEST DUP1 MLOAD DUP3 MLOAD EQ PUSH2 0x1CD4 JUMPI DUP2 MLOAD DUP2 MLOAD PUSH1 0x40 MLOAD PUSH32 0x5B05999100000000000000000000000000000000000000000000000000000000 DUP2 MSTORE PUSH1 0x4 ADD PUSH2 0x1CCB SWAP3 SWAP2 SWAP1 PUSH2 0x3174 JUMP JUMPDEST PUSH1 0x40 MLOAD DUP1 SWAP2 SUB SWAP1 REVERT JUMPDEST PUSH0 PUSH2 0x1CDD PUSH2 0x175B JUMP JUMPDEST SWAP1 POP PUSH0 JUMPDEST DUP4 MLOAD DUP2 LT ISZERO PUSH2 0x1ED9 JUMPI PUSH0 PUSH2 0x1CFE DUP3 DUP7 PUSH2 0x1869 SWAP1 SWAP2 SWAP1 PUSH4 0xFFFFFFFF AND JUMP JUMPDEST SWAP1 POP PUSH0 PUSH2 0x1D14 DUP4 DUP7 PUSH2 0x1869 SWAP1 SWAP2 SWAP1 PUSH4 0xFFFFFFFF AND JUMP JUMPDEST SWAP1 POP PUSH0 PUSH20 0xFFFFFFFFFFFFFFFFFFFFFFFFFFFFFFFFFFFFFFFF AND DUP9 PUSH20 0xFFFFFFFFFFFFFFFFFFFFFFFFFFFFFFFFFFFFFFFF AND EQ PUSH2 0x1E37 JUMPI PUSH0 DUP1 PUSH0 DUP5 DUP2 MSTORE PUSH1 0x20 ADD SWAP1 DUP2 MSTORE PUSH1 0x20 ADD PUSH0 KECCAK256 PUSH0 DUP11 PUSH20 0xFFFFFFFFFFFFFFFFFFFFFFFFFFFFFFFFFFFFFFFF AND PUSH20 0xFFFFFFFFFFFFFFFFFFFFFFFFFFFFFFFFFFFFFFFF AND DUP2 MSTORE PUSH1 0x20 ADD SWAP1 DUP2 MSTORE PUSH1 0x20 ADD PUSH0 KECCAK256 SLOAD SWAP1 POP DUP2 DUP2 LT ISZERO PUSH2 0x1DE3 JUMPI DUP9 DUP2 DUP4 DUP6 PUSH1 0x40 MLOAD PUSH32 0x3DEE4C500000000000000000000000000000000000000000000000000000000 DUP2 MSTORE PUSH1 0x4 ADD PUSH2 0x1DDA SWAP5 SWAP4 SWAP3 SWAP2 SWAP1 PUSH2 0x3291 JUMP JUMPDEST PUSH1 0x40 MLOAD DUP1 SWAP2 SUB SWAP1 REVERT JUMPDEST DUP2 DUP2 SUB PUSH0 DUP1 DUP6 DUP2 MSTORE PUSH1 0x20 ADD SWAP1 DUP2 MSTORE PUSH1 0x20 ADD PUSH0 KECCAK256 PUSH0 DUP12 PUSH20 0xFFFFFFFFFFFFFFFFFFFFFFFFFFFFFFFFFFFFFFFF AND PUSH20 0xFFFFFFFFFFFFFFFFFFFFFFFFFFFFFFFFFFFFFFFF AND DUP2 MSTORE PUSH1 0x20 ADD SWAP1 DUP2 MSTORE PUSH1 0x20 ADD PUSH0 KECCAK256 DUP2 SWAP1 SSTORE POP POP JUMPDEST PUSH0 PUSH20 0xFFFFFFFFFFFFFFFFFFFFFFFFFFFFFFFFFFFFFFFF AND DUP8 PUSH20 0xFFFFFFFFFFFFFFFFFFFFFFFFFFFFFFFFFFFFFFFF AND EQ PUSH2 0x1ECC JUMPI DUP1 PUSH0 DUP1 DUP5 DUP2 MSTORE PUSH1 0x20 ADD SWAP1 DUP2 MSTORE PUSH1 0x20 ADD PUSH0 KECCAK256 PUSH0 DUP10 PUSH20 0xFFFFFFFFFFFFFFFFFFFFFFFFFFFFFFFFFFFFFFFF AND PUSH20 0xFFFFFFFFFFFFFFFFFFFFFFFFFFFFFFFFFFFFFFFF AND DUP2 MSTORE PUSH1 0x20 ADD SWAP1 DUP2 MSTORE PUSH1 0x20 ADD PUSH0 KECCAK256 PUSH0 DUP3 DUP3 SLOAD PUSH2 0x1EC4 SWAP2 SWAP1 PUSH2 0x32D4 JUMP JUMPDEST SWAP3 POP POP DUP2 SWAP1 SSTORE POP JUMPDEST POP POP DUP1 PUSH1 0x1 ADD SWAP1 POP PUSH2 0x1CE1 JUMP JUMPDEST POP PUSH1 0x1 DUP4 MLOAD SUB PUSH2 0x1F94 JUMPI PUSH0 PUSH2 0x1EF7 PUSH0 DUP6 PUSH2 0x1869 SWAP1 SWAP2 SWAP1 PUSH4 0xFFFFFFFF AND JUMP JUMPDEST SWAP1 POP PUSH0 PUSH2 0x1F0D PUSH0 DUP6 PUSH2 0x1869 SWAP1 SWAP2 SWAP1 PUSH4 0xFFFFFFFF AND JUMP JUMPDEST SWAP1 POP DUP6 PUSH20 0xFFFFFFFFFFFFFFFFFFFFFFFFFFFFFFFFFFFFFFFF AND DUP8 PUSH20 0xFFFFFFFFFFFFFFFFFFFFFFFFFFFFFFFFFFFFFFFF AND DUP5 PUSH20 0xFFFFFFFFFFFFFFFFFFFFFFFFFFFFFFFFFFFFFFFF AND PUSH32 0xC3D58168C5AE7397731D063D5BBF3D657854427343F4C083240F7AACAA2D0F62 DUP6 DUP6 PUSH1 0x40 MLOAD PUSH2 0x1F85 SWAP3 SWAP2 SWAP1 PUSH2 0x3174 JUMP JUMPDEST PUSH1 0x40 MLOAD DUP1 SWAP2 SUB SWAP1 LOG4 POP POP PUSH2 0x2013 JUMP JUMPDEST DUP4 PUSH20 0xFFFFFFFFFFFFFFFFFFFFFFFFFFFFFFFFFFFFFFFF AND DUP6 PUSH20 0xFFFFFFFFFFFFFFFFFFFFFFFFFFFFFFFFFFFFFFFF AND DUP3 PUSH20 0xFFFFFFFFFFFFFFFFFFFFFFFFFFFFFFFFFFFFFFFF AND PUSH32 0x4A39DC06D4C0DBC64B70AF90FD698A233A518AA5D07E595D983B8C0526C8F7FB DUP7 DUP7 PUSH1 0x40 MLOAD PUSH2 0x200A SWAP3 SWAP2 SWAP1 PUSH2 0x3307 JUMP JUMPDEST PUSH1 0x40 MLOAD DUP1 SWAP2 SUB SWAP1 LOG4 JUMPDEST POP POP POP POP POP JUMP JUMPDEST PUSH0 DUP5 PUSH20 0xFFFFFFFFFFFFFFFFFFFFFFFFFFFFFFFFFFFFFFFF AND EXTCODESIZE GT ISZERO PUSH2 0x21C1 JUMPI DUP4 PUSH20 0xFFFFFFFFFFFFFFFFFFFFFFFFFFFFFFFFFFFFFFFF AND PUSH4 0xF23A6E61 DUP8 DUP8 DUP7 DUP7 DUP7 PUSH1 0x40 MLOAD DUP7 PUSH4 0xFFFFFFFF AND PUSH1 0xE0 SHL DUP2 MSTORE PUSH1 0x4 ADD PUSH2 0x207A SWAP6 SWAP5 SWAP4 SWAP3 SWAP2 SWAP1 PUSH2 0x338E JUMP JUMPDEST PUSH1 0x20 PUSH1 0x40 MLOAD DUP1 DUP4 SUB DUP2 PUSH0 DUP8 GAS CALL SWAP3 POP POP POP DUP1 ISZERO PUSH2 0x20B5 JUMPI POP PUSH1 0x40 MLOAD RETURNDATASIZE PUSH1 0x1F NOT PUSH1 0x1F DUP3 ADD AND DUP3 ADD DUP1 PUSH1 0x40 MSTORE POP DUP2 ADD SWAP1 PUSH2 0x20B2 SWAP2 SWAP1 PUSH2 0x33FA JUMP JUMPDEST PUSH1 0x1 JUMPDEST PUSH2 0x2136 JUMPI RETURNDATASIZE DUP1 PUSH0 DUP2 EQ PUSH2 0x20E3 JUMPI PUSH1 0x40 MLOAD SWAP2 POP PUSH1 0x1F NOT PUSH1 0x3F RETURNDATASIZE ADD AND DUP3 ADD PUSH1 0x40 MSTORE RETURNDATASIZE DUP3 MSTORE RETURNDATASIZE PUSH0 PUSH1 0x20 DUP5 ADD RETURNDATACOPY PUSH2 0x20E8 JUMP JUMPDEST PUSH1 0x60 SWAP2 POP JUMPDEST POP PUSH0 DUP2 MLOAD SUB PUSH2 0x212E JUMPI DUP5 PUSH1 0x40 MLOAD PUSH32 0x57F447CE00000000000000000000000000000000000000000000000000000000 DUP2 MSTORE PUSH1 0x4 ADD PUSH2 0x2125 SWAP2 SWAP1 PUSH2 0x2C10 JUMP JUMPDEST PUSH1 0x40 MLOAD DUP1 SWAP2 SUB SWAP1 REVERT JUMPDEST DUP1 MLOAD DUP2 PUSH1 0x20 ADD REVERT JUMPDEST PUSH4 0xF23A6E61 PUSH1 0xE0 SHL PUSH28 0xFFFFFFFFFFFFFFFFFFFFFFFFFFFFFFFFFFFFFFFFFFFFFFFFFFFFFFFF NOT AND DUP2 PUSH28 0xFFFFFFFFFFFFFFFFFFFFFFFFFFFFFFFFFFFFFFFFFFFFFFFFFFFFFFFF NOT AND EQ PUSH2 0x21BF JUMPI DUP5 PUSH1 0x40 MLOAD PUSH32 0x57F447CE00000000000000000000000000000000000000000000000000000000 DUP2 MSTORE PUSH1 0x4 ADD PUSH2 0x21B6 SWAP2 SWAP1 PUSH2 0x2C10 JUMP JUMPDEST PUSH1 0x40 MLOAD DUP1 SWAP2 SUB SWAP1 REVERT JUMPDEST POP JUMPDEST POP POP POP POP POP POP JUMP JUMPDEST PUSH0 DUP5 PUSH20 0xFFFFFFFFFFFFFFFFFFFFFFFFFFFFFFFFFFFFFFFF AND EXTCODESIZE GT ISZERO PUSH2 0x2370 JUMPI DUP4 PUSH20 0xFFFFFFFFFFFFFFFFFFFFFFFFFFFFFFFFFFFFFFFF AND PUSH4 0xBC197C81 DUP8 DUP8 DUP7 DUP7 DUP7 PUSH1 0x40 MLOAD DUP7 PUSH4 0xFFFFFFFF AND PUSH1 0xE0 SHL DUP2 MSTORE PUSH1 0x4 ADD PUSH2 0x2229 SWAP6 SWAP5 SWAP4 SWAP3 SWAP2 SWAP1 PUSH2 0x3425 JUMP JUMPDEST PUSH1 0x20 PUSH1 0x40 MLOAD DUP1 DUP4 SUB DUP2 PUSH0 DUP8 GAS CALL SWAP3 POP POP POP DUP1 ISZERO PUSH2 0x2264 JUMPI POP PUSH1 0x40 MLOAD RETURNDATASIZE PUSH1 0x1F NOT PUSH1 0x1F DUP3 ADD AND DUP3 ADD DUP1 PUSH1 0x40 MSTORE POP DUP2 ADD SWAP1 PUSH2 0x2261 SWAP2 SWAP1 PUSH2 0x33FA JUMP JUMPDEST PUSH1 0x1 JUMPDEST PUSH2 0x22E5 JUMPI RETURNDATASIZE DUP1 PUSH0 DUP2 EQ PUSH2 0x2292 JUMPI PUSH1 0x40 MLOAD SWAP2 POP PUSH1 0x1F NOT PUSH1 0x3F RETURNDATASIZE ADD AND DUP3 ADD PUSH1 0x40 MSTORE RETURNDATASIZE DUP3 MSTORE RETURNDATASIZE PUSH0 PUSH1 0x20 DUP5 ADD RETURNDATACOPY PUSH2 0x2297 JUMP JUMPDEST PUSH1 0x60 SWAP2 POP JUMPDEST POP PUSH0 DUP2 MLOAD SUB PUSH2 0x22DD JUMPI DUP5 PUSH1 0x40 MLOAD PUSH32 0x57F447CE00000000000000000000000000000000000000000000000000000000 DUP2 MSTORE PUSH1 0x4 ADD PUSH2 0x22D4 SWAP2 SWAP1 PUSH2 0x2C10 JUMP JUMPDEST PUSH1 0x40 MLOAD DUP1 SWAP2 SUB SWAP1 REVERT JUMPDEST DUP1 MLOAD DUP2 PUSH1 0x20 ADD REVERT JUMPDEST PUSH4 0xBC197C81 PUSH1 0xE0 SHL PUSH28 0xFFFFFFFFFFFFFFFFFFFFFFFFFFFFFFFFFFFFFFFFFFFFFFFFFFFFFFFF NOT AND DUP2 PUSH28 0xFFFFFFFFFFFFFFFFFFFFFFFFFFFFFFFFFFFFFFFFFFFFFFFFFFFFFFFF NOT AND EQ PUSH2 0x236E JUMPI DUP5 PUSH1 0x40 MLOAD PUSH32 0x57F447CE00000000000000000000000000000000000000000000000000000000 DUP2 MSTORE PUSH1 0x4 ADD PUSH2 0x2365 SWAP2 SWAP1 PUSH2 0x2C10 JUMP JUMPDEST PUSH1 0x40 MLOAD DUP1 SWAP2 SUB SWAP1 REVERT JUMPDEST POP JUMPDEST POP POP POP POP POP POP JUMP JUMPDEST PUSH0 PUSH1 0x40 MLOAD SWAP1 POP SWAP1 JUMP JUMPDEST PUSH0 DUP1 REVERT JUMPDEST PUSH0 DUP1 REVERT JUMPDEST PUSH0 PUSH20 0xFFFFFFFFFFFFFFFFFFFFFFFFFFFFFFFFFFFFFFFF DUP3 AND SWAP1 POP SWAP2 SWAP1 POP JUMP JUMPDEST PUSH0 PUSH2 0x23B2 DUP3 PUSH2 0x2389 JUMP JUMPDEST SWAP1 POP SWAP2 SWAP1 POP JUMP JUMPDEST PUSH2 0x23C2 DUP2 PUSH2 0x23A8 JUMP JUMPDEST DUP2 EQ PUSH2 0x23CC JUMPI PUSH0 DUP1 REVERT JUMPDEST POP JUMP JUMPDEST PUSH0 DUP2 CALLDATALOAD SWAP1 POP PUSH2 0x23DD DUP2 PUSH2 0x23B9 JUMP JUMPDEST SWAP3 SWAP2 POP POP JUMP JUMPDEST PUSH0 DUP2 SWAP1 POP SWAP2 SWAP1 POP JUMP JUMPDEST PUSH2 0x23F5 DUP2 PUSH2 0x23E3 JUMP JUMPDEST DUP2 EQ PUSH2 0x23FF JUMPI PUSH0 DUP1 REVERT JUMPDEST POP JUMP JUMPDEST PUSH0 DUP2 CALLDATALOAD SWAP1 POP PUSH2 0x2410 DUP2 PUSH2 0x23EC JUMP JUMPDEST SWAP3 SWAP2 POP POP JUMP JUMPDEST PUSH0 DUP1 PUSH1 0x40 DUP4 DUP6 SUB SLT ISZERO PUSH2 0x242C JUMPI PUSH2 0x242B PUSH2 0x2381 JUMP JUMPDEST JUMPDEST PUSH0 PUSH2 0x2439 DUP6 DUP3 DUP7 ADD PUSH2 0x23CF JUMP JUMPDEST SWAP3 POP POP PUSH1 0x20 PUSH2 0x244A DUP6 DUP3 DUP7 ADD PUSH2 0x2402 JUMP JUMPDEST SWAP2 POP POP SWAP3 POP SWAP3 SWAP1 POP JUMP JUMPDEST PUSH2 0x245D DUP2 PUSH2 0x23E3 JUMP JUMPDEST DUP3 MSTORE POP POP JUMP JUMPDEST PUSH0 PUSH1 0x20 DUP3 ADD SWAP1 POP PUSH2 0x2476 PUSH0 DUP4 ADD DUP5 PUSH2 0x2454 JUMP JUMPDEST SWAP3 SWAP2 POP POP JUMP JUMPDEST PUSH0 PUSH1 0x20 DUP3 DUP5 SUB SLT ISZERO PUSH2 0x2491 JUMPI PUSH2 0x2490 PUSH2 0x2381 JUMP JUMPDEST JUMPDEST PUSH0 PUSH2 0x249E DUP5 DUP3 DUP6 ADD PUSH2 0x23CF JUMP JUMPDEST SWAP2 POP POP SWAP3 SWAP2 POP POP JUMP JUMPDEST PUSH0 PUSH32 0xFFFFFFFF00000000000000000000000000000000000000000000000000000000 DUP3 AND SWAP1 POP SWAP2 SWAP1 POP JUMP JUMPDEST PUSH2 0x24DB DUP2 PUSH2 0x24A7 JUMP JUMPDEST DUP2 EQ PUSH2 0x24E5 JUMPI PUSH0 DUP1 REVERT JUMPDEST POP JUMP JUMPDEST PUSH0 DUP2 CALLDATALOAD SWAP1 POP PUSH2 0x24F6 DUP2 PUSH2 0x24D2 JUMP JUMPDEST SWAP3 SWAP2 POP POP JUMP JUMPDEST PUSH0 PUSH1 0x20 DUP3 DUP5 SUB SLT ISZERO PUSH2 0x2511 JUMPI PUSH2 0x2510 PUSH2 0x2381 JUMP JUMPDEST JUMPDEST PUSH0 PUSH2 0x251E DUP5 DUP3 DUP6 ADD PUSH2 0x24E8 JUMP JUMPDEST SWAP2 POP POP SWAP3 SWAP2 POP POP JUMP JUMPDEST PUSH0 DUP2 ISZERO ISZERO SWAP1 POP SWAP2 SWAP1 POP JUMP JUMPDEST PUSH2 0x253B DUP2 PUSH2 0x2527 JUMP JUMPDEST DUP3 MSTORE POP POP JUMP JUMPDEST PUSH0 PUSH1 0x20 DUP3 ADD SWAP1 POP PUSH2 0x2554 PUSH0 DUP4 ADD DUP5 PUSH2 0x2532 JUMP JUMPDEST SWAP3 SWAP2 POP POP JUMP JUMPDEST PUSH0 PUSH1 0x20 DUP3 DUP5 SUB SLT ISZERO PUSH2 0x256F JUMPI PUSH2 0x256E PUSH2 0x2381 JUMP JUMPDEST JUMPDEST PUSH0 PUSH2 0x257C DUP5 DUP3 DUP6 ADD PUSH2 0x2402 JUMP JUMPDEST SWAP2 POP POP SWAP3 SWAP2 POP POP JUMP JUMPDEST PUSH0 DUP2 MLOAD SWAP1 POP SWAP2 SWAP1 POP JUMP JUMPDEST PUSH0 DUP3 DUP3 MSTORE PUSH1 0x20 DUP3 ADD SWAP1 POP SWAP3 SWAP2 POP POP JUMP JUMPDEST DUP3 DUP2 DUP4 MCOPY PUSH0 DUP4 DUP4 ADD MSTORE POP POP POP JUMP JUMPDEST PUSH0 PUSH1 0x1F NOT PUSH1 0x1F DUP4 ADD AND SWAP1 POP SWAP2 SWAP1 POP JUMP JUMPDEST PUSH0 PUSH2 0x25C7 DUP3 PUSH2 0x2585 JUMP JUMPDEST PUSH2 0x25D1 DUP2 DUP6 PUSH2 0x258F JUMP JUMPDEST SWAP4 POP PUSH2 0x25E1 DUP2 DUP6 PUSH1 0x20 DUP7 ADD PUSH2 0x259F JUMP JUMPDEST PUSH2 0x25EA DUP2 PUSH2 0x25AD JUMP JUMPDEST DUP5 ADD SWAP2 POP POP SWAP3 SWAP2 POP POP JUMP JUMPDEST PUSH0 PUSH1 0x20 DUP3 ADD SWAP1 POP DUP2 DUP2 SUB PUSH0 DUP4 ADD MSTORE PUSH2 0x260D DUP2 DUP5 PUSH2 0x25BD JUMP JUMPDEST SWAP1 POP SWAP3 SWAP2 POP POP JUMP JUMPDEST PUSH0 DUP1 REVERT JUMPDEST PUSH0 DUP1 REVERT JUMPDEST PUSH0 DUP1 REVERT JUMPDEST PUSH0 DUP1 DUP4 PUSH1 0x1F DUP5 ADD SLT PUSH2 0x2636 JUMPI PUSH2 0x2635 PUSH2 0x2615 JUMP JUMPDEST JUMPDEST DUP3 CALLDATALOAD SWAP1 POP PUSH8 0xFFFFFFFFFFFFFFFF DUP2 GT ISZERO PUSH2 0x2653 JUMPI PUSH2 0x2652 PUSH2 0x2619 JUMP JUMPDEST JUMPDEST PUSH1 0x20 DUP4 ADD SWAP2 POP DUP4 PUSH1 0x20 DUP3 MUL DUP4 ADD GT ISZERO PUSH2 0x266F JUMPI PUSH2 0x266E PUSH2 0x261D JUMP JUMPDEST JUMPDEST SWAP3 POP SWAP3 SWAP1 POP JUMP JUMPDEST PUSH0 DUP1 PUSH1 0x20 DUP4 DUP6 SUB SLT ISZERO PUSH2 0x268C JUMPI PUSH2 0x268B PUSH2 0x2381 JUMP JUMPDEST JUMPDEST PUSH0 DUP4 ADD CALLDATALOAD PUSH8 0xFFFFFFFFFFFFFFFF DUP2 GT ISZERO PUSH2 0x26A9 JUMPI PUSH2 0x26A8 PUSH2 0x2385 JUMP JUMPDEST JUMPDEST PUSH2 0x26B5 DUP6 DUP3 DUP7 ADD PUSH2 0x2621 JUMP JUMPDEST SWAP3 POP SWAP3 POP POP SWAP3 POP SWAP3 SWAP1 POP JUMP JUMPDEST PUSH32 0x4E487B7100000000000000000000000000000000000000000000000000000000 PUSH0 MSTORE PUSH1 0x41 PUSH1 0x4 MSTORE PUSH1 0x24 PUSH0 REVERT JUMPDEST PUSH2 0x26F7 DUP3 PUSH2 0x25AD JUMP JUMPDEST DUP2 ADD DUP2 DUP2 LT PUSH8 0xFFFFFFFFFFFFFFFF DUP3 GT OR ISZERO PUSH2 0x2716 JUMPI PUSH2 0x2715 PUSH2 0x26C1 JUMP JUMPDEST JUMPDEST DUP1 PUSH1 0x40 MSTORE POP POP POP JUMP JUMPDEST PUSH0 PUSH2 0x2728 PUSH2 0x2378 JUMP JUMPDEST SWAP1 POP PUSH2 0x2734 DUP3 DUP3 PUSH2 0x26EE JUMP JUMPDEST SWAP2 SWAP1 POP JUMP JUMPDEST PUSH0 PUSH8 0xFFFFFFFFFFFFFFFF DUP3 GT ISZERO PUSH2 0x2753 JUMPI PUSH2 0x2752 PUSH2 0x26C1 JUMP JUMPDEST JUMPDEST PUSH1 0x20 DUP3 MUL SWAP1 POP PUSH1 0x20 DUP2 ADD SWAP1 POP SWAP2 SWAP1 POP JUMP JUMPDEST PUSH0 PUSH2 0x2776 PUSH2 0x2771 DUP5 PUSH2 0x2739 JUMP JUMPDEST PUSH2 0x271F JUMP JUMPDEST SWAP1 POP DUP1 DUP4 DUP3 MSTORE PUSH1 0x20 DUP3 ADD SWAP1 POP PUSH1 0x20 DUP5 MUL DUP4 ADD DUP6 DUP2 GT ISZERO PUSH2 0x2799 JUMPI PUSH2 0x2798 PUSH2 0x261D JUMP JUMPDEST JUMPDEST DUP4 JUMPDEST DUP2 DUP2 LT ISZERO PUSH2 0x27C2 JUMPI DUP1 PUSH2 0x27AE DUP9 DUP3 PUSH2 0x2402 JUMP JUMPDEST DUP5 MSTORE PUSH1 0x20 DUP5 ADD SWAP4 POP POP PUSH1 0x20 DUP2 ADD SWAP1 POP PUSH2 0x279B JUMP JUMPDEST POP POP POP SWAP4 SWAP3 POP POP POP JUMP JUMPDEST PUSH0 DUP3 PUSH1 0x1F DUP4 ADD SLT PUSH2 0x27E0 JUMPI PUSH2 0x27DF PUSH2 0x2615 JUMP JUMPDEST JUMPDEST DUP2 CALLDATALOAD PUSH2 0x27F0 DUP5 DUP3 PUSH1 0x20 DUP7 ADD PUSH2 0x2764 JUMP JUMPDEST SWAP2 POP POP SWAP3 SWAP2 POP POP JUMP JUMPDEST PUSH0 DUP1 REVERT JUMPDEST PUSH0 PUSH8 0xFFFFFFFFFFFFFFFF DUP3 GT ISZERO PUSH2 0x2817 JUMPI PUSH2 0x2816 PUSH2 0x26C1 JUMP JUMPDEST JUMPDEST PUSH2 0x2820 DUP3 PUSH2 0x25AD JUMP JUMPDEST SWAP1 POP PUSH1 0x20 DUP2 ADD SWAP1 POP SWAP2 SWAP1 POP JUMP JUMPDEST DUP3 DUP2 DUP4 CALLDATACOPY PUSH0 DUP4 DUP4 ADD MSTORE POP POP POP JUMP JUMPDEST PUSH0 PUSH2 0x284D PUSH2 0x2848 DUP5 PUSH2 0x27FD JUMP JUMPDEST PUSH2 0x271F JUMP JUMPDEST SWAP1 POP DUP3 DUP2 MSTORE PUSH1 0x20 DUP2 ADD DUP5 DUP5 DUP5 ADD GT ISZERO PUSH2 0x2869 JUMPI PUSH2 0x2868 PUSH2 0x27F9 JUMP JUMPDEST JUMPDEST PUSH2 0x2874 DUP5 DUP3 DUP6 PUSH2 0x282D JUMP JUMPDEST POP SWAP4 SWAP3 POP POP POP JUMP JUMPDEST PUSH0 DUP3 PUSH1 0x1F DUP4 ADD SLT PUSH2 0x2890 JUMPI PUSH2 0x288F PUSH2 0x2615 JUMP JUMPDEST JUMPDEST DUP2 CALLDATALOAD PUSH2 0x28A0 DUP5 DUP3 PUSH1 0x20 DUP7 ADD PUSH2 0x283B JUMP JUMPDEST SWAP2 POP POP SWAP3 SWAP2 POP POP JUMP JUMPDEST PUSH0 DUP1 PUSH0 DUP1 PUSH0 PUSH1 0xA0 DUP7 DUP9 SUB SLT ISZERO PUSH2 0x28C2 JUMPI PUSH2 0x28C1 PUSH2 0x2381 JUMP JUMPDEST JUMPDEST PUSH0 PUSH2 0x28CF DUP9 DUP3 DUP10 ADD PUSH2 0x23CF JUMP JUMPDEST SWAP6 POP POP PUSH1 0x20 PUSH2 0x28E0 DUP9 DUP3 DUP10 ADD PUSH2 0x23CF JUMP JUMPDEST SWAP5 POP POP PUSH1 0x40 DUP7 ADD CALLDATALOAD PUSH8 0xFFFFFFFFFFFFFFFF DUP2 GT ISZERO PUSH2 0x2901 JUMPI PUSH2 0x2900 PUSH2 0x2385 JUMP JUMPDEST JUMPDEST PUSH2 0x290D DUP9 DUP3 DUP10 ADD PUSH2 0x27CC JUMP JUMPDEST SWAP4 POP POP PUSH1 0x60 DUP7 ADD CALLDATALOAD PUSH8 0xFFFFFFFFFFFFFFFF DUP2 GT ISZERO PUSH2 0x292E JUMPI PUSH2 0x292D PUSH2 0x2385 JUMP JUMPDEST JUMPDEST PUSH2 0x293A DUP9 DUP3 DUP10 ADD PUSH2 0x27CC JUMP JUMPDEST SWAP3 POP POP PUSH1 0x80 DUP7 ADD CALLDATALOAD PUSH8 0xFFFFFFFFFFFFFFFF DUP2 GT ISZERO PUSH2 0x295B JUMPI PUSH2 0x295A PUSH2 0x2385 JUMP JUMPDEST JUMPDEST PUSH2 0x2967 DUP9 DUP3 DUP10 ADD PUSH2 0x287C JUMP JUMPDEST SWAP2 POP POP SWAP3 SWAP6 POP SWAP3 SWAP6 SWAP1 SWAP4 POP JUMP JUMPDEST PUSH0 PUSH8 0xFFFFFFFFFFFFFFFF DUP3 GT ISZERO PUSH2 0x298E JUMPI PUSH2 0x298D PUSH2 0x26C1 JUMP JUMPDEST JUMPDEST PUSH1 0x20 DUP3 MUL SWAP1 POP PUSH1 0x20 DUP2 ADD SWAP1 POP SWAP2 SWAP1 POP JUMP JUMPDEST PUSH0 PUSH2 0x29B1 PUSH2 0x29AC DUP5 PUSH2 0x2974 JUMP JUMPDEST PUSH2 0x271F JUMP JUMPDEST SWAP1 POP DUP1 DUP4 DUP3 MSTORE PUSH1 0x20 DUP3 ADD SWAP1 POP PUSH1 0x20 DUP5 MUL DUP4 ADD DUP6 DUP2 GT ISZERO PUSH2 0x29D4 JUMPI PUSH2 0x29D3 PUSH2 0x261D JUMP JUMPDEST JUMPDEST DUP4 JUMPDEST DUP2 DUP2 LT ISZERO PUSH2 0x29FD JUMPI DUP1 PUSH2 0x29E9 DUP9 DUP3 PUSH2 0x23CF JUMP JUMPDEST DUP5 MSTORE PUSH1 0x20 DUP5 ADD SWAP4 POP POP PUSH1 0x20 DUP2 ADD SWAP1 POP PUSH2 0x29D6 JUMP JUMPDEST POP POP POP SWAP4 SWAP3 POP POP POP JUMP JUMPDEST PUSH0 DUP3 PUSH1 0x1F DUP4 ADD SLT PUSH2 0x2A1B JUMPI PUSH2 0x2A1A PUSH2 0x2615 JUMP JUMPDEST JUMPDEST DUP2 CALLDATALOAD PUSH2 0x2A2B DUP5 DUP3 PUSH1 0x20 DUP7 ADD PUSH2 0x299F JUMP JUMPDEST SWAP2 POP POP SWAP3 SWAP2 POP POP JUMP JUMPDEST PUSH0 DUP1 PUSH1 0x40 DUP4 DUP6 SUB SLT ISZERO PUSH2 0x2A4A JUMPI PUSH2 0x2A49 PUSH2 0x2381 JUMP JUMPDEST JUMPDEST PUSH0 DUP4 ADD CALLDATALOAD PUSH8 0xFFFFFFFFFFFFFFFF DUP2 GT ISZERO PUSH2 0x2A67 JUMPI PUSH2 0x2A66 PUSH2 0x2385 JUMP JUMPDEST JUMPDEST PUSH2 0x2A73 DUP6 DUP3 DUP7 ADD PUSH2 0x2A07 JUMP JUMPDEST SWAP3 POP POP PUSH1 0x20 DUP4 ADD CALLDATALOAD PUSH8 0xFFFFFFFFFFFFFFFF DUP2 GT ISZERO PUSH2 0x2A94 JUMPI PUSH2 0x2A93 PUSH2 0x2385 JUMP JUMPDEST JUMPDEST PUSH2 0x2AA0 DUP6 DUP3 DUP7 ADD PUSH2 0x27CC JUMP JUMPDEST SWAP2 POP POP SWAP3 POP SWAP3 SWAP1 POP JUMP JUMPDEST PUSH0 DUP2 MLOAD SWAP1 POP SWAP2 SWAP1 POP JUMP JUMPDEST PUSH0 DUP3 DUP3 MSTORE PUSH1 0x20 DUP3 ADD SWAP1 POP SWAP3 SWAP2 POP POP JUMP JUMPDEST PUSH0 DUP2 SWAP1 POP PUSH1 0x20 DUP3 ADD SWAP1 POP SWAP2 SWAP1 POP JUMP JUMPDEST PUSH2 0x2ADC DUP2 PUSH2 0x23E3 JUMP JUMPDEST DUP3 MSTORE POP POP JUMP JUMPDEST PUSH0 PUSH2 0x2AED DUP4 DUP4 PUSH2 0x2AD3 JUMP JUMPDEST PUSH1 0x20 DUP4 ADD SWAP1 POP SWAP3 SWAP2 POP POP JUMP JUMPDEST PUSH0 PUSH1 0x20 DUP3 ADD SWAP1 POP SWAP2 SWAP1 POP JUMP JUMPDEST PUSH0 PUSH2 0x2B0F DUP3 PUSH2 0x2AAA JUMP JUMPDEST PUSH2 0x2B19 DUP2 DUP6 PUSH2 0x2AB4 JUMP JUMPDEST SWAP4 POP PUSH2 0x2B24 DUP4 PUSH2 0x2AC4 JUMP JUMPDEST DUP1 PUSH0 JUMPDEST DUP4 DUP2 LT ISZERO PUSH2 0x2B54 JUMPI DUP2 MLOAD PUSH2 0x2B3B DUP9 DUP3 PUSH2 0x2AE2 JUMP JUMPDEST SWAP8 POP PUSH2 0x2B46 DUP4 PUSH2 0x2AF9 JUMP JUMPDEST SWAP3 POP POP PUSH1 0x1 DUP2 ADD SWAP1 POP PUSH2 0x2B27 JUMP JUMPDEST POP DUP6 SWAP4 POP POP POP POP SWAP3 SWAP2 POP POP JUMP JUMPDEST PUSH0 PUSH1 0x20 DUP3 ADD SWAP1 POP DUP2 DUP2 SUB PUSH0 DUP4 ADD MSTORE PUSH2 0x2B79 DUP2 DUP5 PUSH2 0x2B05 JUMP JUMPDEST SWAP1 POP SWAP3 SWAP2 POP POP JUMP JUMPDEST PUSH0 DUP1 PUSH0 DUP1 PUSH1 0x80 DUP6 DUP8 SUB SLT ISZERO PUSH2 0x2B99 JUMPI PUSH2 0x2B98 PUSH2 0x2381 JUMP JUMPDEST JUMPDEST PUSH0 PUSH2 0x2BA6 DUP8 DUP3 DUP9 ADD PUSH2 0x23CF JUMP JUMPDEST SWAP5 POP POP PUSH1 0x20 PUSH2 0x2BB7 DUP8 DUP3 DUP9 ADD PUSH2 0x2402 JUMP JUMPDEST SWAP4 POP POP PUSH1 0x40 PUSH2 0x2BC8 DUP8 DUP3 DUP9 ADD PUSH2 0x2402 JUMP JUMPDEST SWAP3 POP POP PUSH1 0x60 DUP6 ADD CALLDATALOAD PUSH8 0xFFFFFFFFFFFFFFFF DUP2 GT ISZERO PUSH2 0x2BE9 JUMPI PUSH2 0x2BE8 PUSH2 0x2385 JUMP JUMPDEST JUMPDEST PUSH2 0x2BF5 DUP8 DUP3 DUP9 ADD PUSH2 0x287C JUMP JUMPDEST SWAP2 POP POP SWAP3 SWAP6 SWAP2 SWAP5 POP SWAP3 POP JUMP JUMPDEST PUSH2 0x2C0A DUP2 PUSH2 0x23A8 JUMP JUMPDEST DUP3 MSTORE POP POP JUMP JUMPDEST PUSH0 PUSH1 0x20 DUP3 ADD SWAP1 POP PUSH2 0x2C23 PUSH0 DUP4 ADD DUP5 PUSH2 0x2C01 JUMP JUMPDEST SWAP3 SWAP2 POP POP JUMP JUMPDEST PUSH2 0x2C32 DUP2 PUSH2 0x2527 JUMP JUMPDEST DUP2 EQ PUSH2 0x2C3C JUMPI PUSH0 DUP1 REVERT JUMPDEST POP JUMP JUMPDEST PUSH0 DUP2 CALLDATALOAD SWAP1 POP PUSH2 0x2C4D DUP2 PUSH2 0x2C29 JUMP JUMPDEST SWAP3 SWAP2 POP POP JUMP JUMPDEST PUSH0 DUP1 PUSH1 0x40 DUP4 DUP6 SUB SLT ISZERO PUSH2 0x2C69 JUMPI PUSH2 0x2C68 PUSH2 0x2381 JUMP JUMPDEST JUMPDEST PUSH0 PUSH2 0x2C76 DUP6 DUP3 DUP7 ADD PUSH2 0x23CF JUMP JUMPDEST SWAP3 POP POP PUSH1 0x20 PUSH2 0x2C87 DUP6 DUP3 DUP7 ADD PUSH2 0x2C3F JUMP JUMPDEST SWAP2 POP POP SWAP3 POP SWAP3 SWAP1 POP JUMP JUMPDEST PUSH0 DUP1 PUSH1 0x40 DUP4 DUP6 SUB SLT ISZERO PUSH2 0x2CA7 JUMPI PUSH2 0x2CA6 PUSH2 0x2381 JUMP JUMPDEST JUMPDEST PUSH0 PUSH2 0x2CB4 DUP6 DUP3 DUP7 ADD PUSH2 0x23CF JUMP JUMPDEST SWAP3 POP POP PUSH1 0x20 PUSH2 0x2CC5 DUP6 DUP3 DUP7 ADD PUSH2 0x23CF JUMP JUMPDEST SWAP2 POP POP SWAP3 POP SWAP3 SWAP1 POP JUMP JUMPDEST PUSH0 DUP1 PUSH0 DUP1 PUSH0 PUSH1 0xA0 DUP7 DUP9 SUB SLT ISZERO PUSH2 0x2CE8 JUMPI PUSH2 0x2CE7 PUSH2 0x2381 JUMP JUMPDEST JUMPDEST PUSH0 PUSH2 0x2CF5 DUP9 DUP3 DUP10 ADD PUSH2 0x23CF JUMP JUMPDEST SWAP6 POP POP PUSH1 0x20 PUSH2 0x2D06 DUP9 DUP3 DUP10 ADD PUSH2 0x23CF JUMP JUMPDEST SWAP5 POP POP PUSH1 0x40 PUSH2 0x2D17 DUP9 DUP3 DUP10 ADD PUSH2 0x2402 JUMP JUMPDEST SWAP4 POP POP PUSH1 0x60 PUSH2 0x2D28 DUP9 DUP3 DUP10 ADD PUSH2 0x2402 JUMP JUMPDEST SWAP3 POP POP PUSH1 0x80 DUP7 ADD CALLDATALOAD PUSH8 0xFFFFFFFFFFFFFFFF DUP2 GT ISZERO PUSH2 0x2D49 JUMPI PUSH2 0x2D48 PUSH2 0x2385 JUMP JUMPDEST JUMPDEST PUSH2 0x2D55 DUP9 DUP3 DUP10 ADD PUSH2 0x287C JUMP JUMPDEST SWAP2 POP POP SWAP3 SWAP6 POP SWAP3 SWAP6 SWAP1 SWAP4 POP JUMP JUMPDEST PUSH0 DUP1 PUSH0 PUSH1 0x60 DUP5 DUP7 SUB SLT ISZERO PUSH2 0x2D79 JUMPI PUSH2 0x2D78 PUSH2 0x2381 JUMP JUMPDEST JUMPDEST PUSH0 PUSH2 0x2D86 DUP7 DUP3 DUP8 ADD PUSH2 0x23CF JUMP JUMPDEST SWAP4 POP POP PUSH1 0x20 PUSH2 0x2D97 DUP7 DUP3 DUP8 ADD PUSH2 0x2402 JUMP JUMPDEST SWAP3 POP POP PUSH1 0x40 PUSH2 0x2DA8 DUP7 DUP3 DUP8 ADD PUSH2 0x2402 JUMP JUMPDEST SWAP2 POP POP SWAP3 POP SWAP3 POP SWAP3 JUMP JUMPDEST PUSH32 0x4E487B7100000000000000000000000000000000000000000000000000000000 PUSH0 MSTORE PUSH1 0x22 PUSH1 0x4 MSTORE PUSH1 0x24 PUSH0 REVERT JUMPDEST PUSH0 PUSH1 0x2 DUP3 DIV SWAP1 POP PUSH1 0x1 DUP3 AND DUP1 PUSH2 0x2DF6 JUMPI PUSH1 0x7F DUP3 AND SWAP2 POP JUMPDEST PUSH1 0x20 DUP3 LT DUP2 SUB PUSH2 0x2E09 JUMPI PUSH2 0x2E08 PUSH2 0x2DB2 JUMP JUMPDEST JUMPDEST POP SWAP2 SWAP1 POP JUMP JUMPDEST PUSH32 0x4E487B7100000000000000000000000000000000000000000000000000000000 PUSH0 MSTORE PUSH1 0x32 PUSH1 0x4 MSTORE PUSH1 0x24 PUSH0 REVERT JUMPDEST PUSH32 0x4D5A43414C20746F6B656E206E6F74206C61756E636865642079657400000000 PUSH0 DUP3 ADD MSTORE POP JUMP JUMPDEST PUSH0 PUSH2 0x2E70 PUSH1 0x1C DUP4 PUSH2 0x258F JUMP JUMPDEST SWAP2 POP PUSH2 0x2E7B DUP3 PUSH2 0x2E3C JUMP JUMPDEST PUSH1 0x20 DUP3 ADD SWAP1 POP SWAP2 SWAP1 POP JUMP JUMPDEST PUSH0 PUSH1 0x20 DUP3 ADD SWAP1 POP DUP2 DUP2 SUB PUSH0 DUP4 ADD MSTORE PUSH2 0x2E9D DUP2 PUSH2 0x2E64 JUMP JUMPDEST SWAP1 POP SWAP2 SWAP1 POP JUMP JUMPDEST PUSH32 0x4E487B7100000000000000000000000000000000000000000000000000000000 PUSH0 MSTORE PUSH1 0x11 PUSH1 0x4 MSTORE PUSH1 0x24 PUSH0 REVERT JUMPDEST PUSH0 PUSH2 0x2EDB DUP3 PUSH2 0x23E3 JUMP JUMPDEST SWAP2 POP PUSH2 0x2EE6 DUP4 PUSH2 0x23E3 JUMP JUMPDEST SWAP3 POP DUP3 DUP3 MUL PUSH2 0x2EF4 DUP2 PUSH2 0x23E3 JUMP JUMPDEST SWAP2 POP DUP3 DUP3 DIV DUP5 EQ DUP4 ISZERO OR PUSH2 0x2F0B JUMPI PUSH2 0x2F0A PUSH2 0x2EA4 JUMP JUMPDEST JUMPDEST POP SWAP3 SWAP2 POP POP JUMP JUMPDEST PUSH32 0x496E73756666696369656E74204554482073656E740000000000000000000000 PUSH0 DUP3 ADD MSTORE POP JUMP JUMPDEST PUSH0 PUSH2 0x2F46 PUSH1 0x15 DUP4 PUSH2 0x258F JUMP JUMPDEST SWAP2 POP PUSH2 0x2F51 DUP3 PUSH2 0x2F12 JUMP JUMPDEST PUSH1 0x20 DUP3 ADD SWAP1 POP SWAP2 SWAP1 POP JUMP JUMPDEST PUSH0 PUSH1 0x20 DUP3 ADD SWAP1 POP DUP2 DUP2 SUB PUSH0 DUP4 ADD MSTORE PUSH2 0x2F73 DUP2 PUSH2 0x2F3A JUMP JUMPDEST SWAP1 POP SWAP2 SWAP1 POP JUMP JUMPDEST PUSH0 PUSH2 0x2F84 DUP3 PUSH2 0x23E3 JUMP JUMPDEST SWAP2 POP PUSH2 0x2F8F DUP4 PUSH2 0x23E3 JUMP JUMPDEST SWAP3 POP DUP3 DUP3 SUB SWAP1 POP DUP2 DUP2 GT ISZERO PUSH2 0x2FA7 JUMPI PUSH2 0x2FA6 PUSH2 0x2EA4 JUMP JUMPDEST JUMPDEST SWAP3 SWAP2 POP POP JUMP JUMPDEST PUSH32 0x496E73756666696369656E74204D5A43414C2062616C616E6365000000000000 PUSH0 DUP3 ADD MSTORE POP JUMP JUMPDEST PUSH0 PUSH2 0x2FE1 PUSH1 0x1A DUP4 PUSH2 0x258F JUMP JUMPDEST SWAP2 POP PUSH2 0x2FEC DUP3 PUSH2 0x2FAD JUMP JUMPDEST PUSH1 0x20 DUP3 ADD SWAP1 POP SWAP2 SWAP1 POP JUMP JUMPDEST PUSH0 PUSH1 0x20 DUP3 ADD SWAP1 POP DUP2 DUP2 SUB PUSH0 DUP4 ADD MSTORE PUSH2 0x300E DUP2 PUSH2 0x2FD5 JUMP JUMPDEST SWAP1 POP SWAP2 SWAP1 POP JUMP JUMPDEST PUSH0 PUSH1 0x40 DUP3 ADD SWAP1 POP PUSH2 0x3028 PUSH0 DUP4 ADD DUP6 PUSH2 0x2C01 JUMP JUMPDEST PUSH2 0x3035 PUSH1 0x20 DUP4 ADD DUP5 PUSH2 0x2C01 JUMP JUMPDEST SWAP4 SWAP3 POP POP POP JUMP JUMPDEST PUSH32 0x4E6F2066756E647320746F207769746864726177000000000000000000000000 PUSH0 DUP3 ADD MSTORE POP JUMP JUMPDEST PUSH0 PUSH2 0x3070 PUSH1 0x14 DUP4 PUSH2 0x258F JUMP JUMPDEST SWAP2 POP PUSH2 0x307B DUP3 PUSH2 0x303C JUMP JUMPDEST PUSH1 0x20 DUP3 ADD SWAP1 POP SWAP2 SWAP1 POP JUMP JUMPDEST PUSH0 PUSH1 0x20 DUP3 ADD SWAP1 POP DUP2 DUP2 SUB PUSH0 DUP4 ADD MSTORE PUSH2 0x309D DUP2 PUSH2 0x3064 JUMP JUMPDEST SWAP1 POP SWAP2 SWAP1 POP JUMP JUMPDEST PUSH32 0x41646472657373206973206E6F742077686974656C6973746564000000000000 PUSH0 DUP3 ADD MSTORE POP JUMP JUMPDEST PUSH0 PUSH2 0x30D8 PUSH1 0x1A DUP4 PUSH2 0x258F JUMP JUMPDEST SWAP2 POP PUSH2 0x30E3 DUP3 PUSH2 0x30A4 JUMP JUMPDEST PUSH1 0x20 DUP3 ADD SWAP1 POP SWAP2 SWAP1 POP JUMP JUMPDEST PUSH0 PUSH1 0x20 DUP3 ADD SWAP1 POP DUP2 DUP2 SUB PUSH0 DUP4 ADD MSTORE PUSH2 0x3105 DUP2 PUSH2 0x30CC JUMP JUMPDEST SWAP1 POP SWAP2 SWAP1 POP JUMP JUMPDEST PUSH32 0x496E636F7272656374204554482073656E740000000000000000000000000000 PUSH0 DUP3 ADD MSTORE POP JUMP JUMPDEST PUSH0 PUSH2 0x3140 PUSH1 0x12 DUP4 PUSH2 0x258F JUMP JUMPDEST SWAP2 POP PUSH2 0x314B DUP3 PUSH2 0x310C JUMP JUMPDEST PUSH1 0x20 DUP3 ADD SWAP1 POP SWAP2 SWAP1 POP JUMP JUMPDEST PUSH0 PUSH1 0x20 DUP3 ADD SWAP1 POP DUP2 DUP2 SUB PUSH0 DUP4 ADD MSTORE PUSH2 0x316D DUP2 PUSH2 0x3134 JUMP JUMPDEST SWAP1 POP SWAP2 SWAP1 POP JUMP JUMPDEST PUSH0 PUSH1 0x40 DUP3 ADD SWAP1 POP PUSH2 0x3187 PUSH0 DUP4 ADD DUP6 PUSH2 0x2454 JUMP JUMPDEST PUSH2 0x3194 PUSH1 0x20 DUP4 ADD DUP5 PUSH2 0x2454 JUMP JUMPDEST SWAP4 SWAP3 POP POP POP JUMP JUMPDEST PUSH32 0x4E6F2050524553414C455F544F4B454E20746F20636F6E766572740000000000 PUSH0 DUP3 ADD MSTORE POP JUMP JUMPDEST PUSH0 PUSH2 0x31CF PUSH1 0x1B DUP4 PUSH2 0x258F JUMP JUMPDEST SWAP2 POP PUSH2 0x31DA DUP3 PUSH2 0x319B JUMP JUMPDEST PUSH1 0x20 DUP3 ADD SWAP1 POP SWAP2 SWAP1 POP JUMP JUMPDEST PUSH0 PUSH1 0x20 DUP3 ADD SWAP1 POP DUP2 DUP2 SUB PUSH0 DUP4 ADD MSTORE PUSH2 0x31FC DUP2 PUSH2 0x31C3 JUMP JUMPDEST SWAP1 POP SWAP2 SWAP1 POP JUMP JUMPDEST PUSH32 0x596F752063616E206F6E6C79206275726E20796F7572206F776E20746F6B656E PUSH0 DUP3 ADD MSTORE PUSH32 0x7300000000000000000000000000000000000000000000000000000000000000 PUSH1 0x20 DUP3 ADD MSTORE POP JUMP JUMPDEST PUSH0 PUSH2 0x325D PUSH1 0x21 DUP4 PUSH2 0x258F JUMP JUMPDEST SWAP2 POP PUSH2 0x3268 DUP3 PUSH2 0x3203 JUMP JUMPDEST PUSH1 0x40 DUP3 ADD SWAP1 POP SWAP2 SWAP1 POP JUMP JUMPDEST PUSH0 PUSH1 0x20 DUP3 ADD SWAP1 POP DUP2 DUP2 SUB PUSH0 DUP4 ADD MSTORE PUSH2 0x328A DUP2 PUSH2 0x3251 JUMP JUMPDEST SWAP1 POP SWAP2 SWAP1 POP JUMP JUMPDEST PUSH0 PUSH1 0x80 DUP3 ADD SWAP1 POP PUSH2 0x32A4 PUSH0 DUP4 ADD DUP8 PUSH2 0x2C01 JUMP JUMPDEST PUSH2 0x32B1 PUSH1 0x20 DUP4 ADD DUP7 PUSH2 0x2454 JUMP JUMPDEST PUSH2 0x32BE PUSH1 0x40 DUP4 ADD DUP6 PUSH2 0x2454 JUMP JUMPDEST PUSH2 0x32CB PUSH1 0x60 DUP4 ADD DUP5 PUSH2 0x2454 JUMP JUMPDEST SWAP6 SWAP5 POP POP POP POP POP JUMP JUMPDEST PUSH0 PUSH2 0x32DE DUP3 PUSH2 0x23E3 JUMP JUMPDEST SWAP2 POP PUSH2 0x32E9 DUP4 PUSH2 0x23E3 JUMP JUMPDEST SWAP3 POP DUP3 DUP3 ADD SWAP1 POP DUP1 DUP3 GT ISZERO PUSH2 0x3301 JUMPI PUSH2 0x3300 PUSH2 0x2EA4 JUMP JUMPDEST JUMPDEST SWAP3 SWAP2 POP POP JUMP JUMPDEST PUSH0 PUSH1 0x40 DUP3 ADD SWAP1 POP DUP2 DUP2 SUB PUSH0 DUP4 ADD MSTORE PUSH2 0x331F DUP2 DUP6 PUSH2 0x2B05 JUMP JUMPDEST SWAP1 POP DUP2 DUP2 SUB PUSH1 0x20 DUP4 ADD MSTORE PUSH2 0x3333 DUP2 DUP5 PUSH2 0x2B05 JUMP JUMPDEST SWAP1 POP SWAP4 SWAP3 POP POP POP JUMP JUMPDEST PUSH0 DUP2 MLOAD SWAP1 POP SWAP2 SWAP1 POP JUMP JUMPDEST PUSH0 DUP3 DUP3 MSTORE PUSH1 0x20 DUP3 ADD SWAP1 POP SWAP3 SWAP2 POP POP JUMP JUMPDEST PUSH0 PUSH2 0x3360 DUP3 PUSH2 0x333C JUMP JUMPDEST PUSH2 0x336A DUP2 DUP6 PUSH2 0x3346 JUMP JUMPDEST SWAP4 POP PUSH2 0x337A DUP2 DUP6 PUSH1 0x20 DUP7 ADD PUSH2 0x259F JUMP JUMPDEST PUSH2 0x3383 DUP2 PUSH2 0x25AD JUMP JUMPDEST DUP5 ADD SWAP2 POP POP SWAP3 SWAP2 POP POP JUMP JUMPDEST PUSH0 PUSH1 0xA0 DUP3 ADD SWAP1 POP PUSH2 0x33A1 PUSH0 DUP4 ADD DUP9 PUSH2 0x2C01 JUMP JUMPDEST PUSH2 0x33AE PUSH1 0x20 DUP4 ADD DUP8 PUSH2 0x2C01 JUMP JUMPDEST PUSH2 0x33BB PUSH1 0x40 DUP4 ADD DUP7 PUSH2 0x2454 JUMP JUMPDEST PUSH2 0x33C8 PUSH1 0x60 DUP4 ADD DUP6 PUSH2 0x2454 JUMP JUMPDEST DUP2 DUP2 SUB PUSH1 0x80 DUP4 ADD MSTORE PUSH2 0x33DA DUP2 DUP5 PUSH2 0x3356 JUMP JUMPDEST SWAP1 POP SWAP7 SWAP6 POP POP POP POP POP POP JUMP JUMPDEST PUSH0 DUP2 MLOAD SWAP1 POP PUSH2 0x33F4 DUP2 PUSH2 0x24D2 JUMP JUMPDEST SWAP3 SWAP2 POP POP JUMP JUMPDEST PUSH0 PUSH1 0x20 DUP3 DUP5 SUB SLT ISZERO PUSH2 0x340F JUMPI PUSH2 0x340E PUSH2 0x2381 JUMP JUMPDEST JUMPDEST PUSH0 PUSH2 0x341C DUP5 DUP3 DUP6 ADD PUSH2 0x33E6 JUMP JUMPDEST SWAP2 POP POP SWAP3 SWAP2 POP POP JUMP JUMPDEST PUSH0 PUSH1 0xA0 DUP3 ADD SWAP1 POP PUSH2 0x3438 PUSH0 DUP4 ADD DUP9 PUSH2 0x2C01 JUMP JUMPDEST PUSH2 0x3445 PUSH1 0x20 DUP4 ADD DUP8 PUSH2 0x2C01 JUMP JUMPDEST DUP2 DUP2 SUB PUSH1 0x40 DUP4 ADD MSTORE PUSH2 0x3457 DUP2 DUP7 PUSH2 0x2B05 JUMP JUMPDEST SWAP1 POP DUP2 DUP2 SUB PUSH1 0x60 DUP4 ADD MSTORE PUSH2 0x346B DUP2 DUP6 PUSH2 0x2B05 JUMP JUMPDEST SWAP1 POP DUP2 DUP2 SUB PUSH1 0x80 DUP4 ADD MSTORE PUSH2 0x347F DUP2 DUP5 PUSH2 0x3356 JUMP JUMPDEST SWAP1 POP SWAP7 SWAP6 POP POP POP POP POP POP JUMP INVALID LOG2 PUSH5 0x6970667358 0x22 SLT KECCAK256 EXTCODESIZE SWAP16 BLOCKHASH SDIV TIMESTAMP 0xC6 SGT PUSH28 0x45088D5152ECCDFCC90EB7A17F594FF7FCBB4FD9BA82AF4364736F6C PUSH4 0x4300081A STOP CALLER "
		},
		"gasEstimates": {
			"creation": {
				"codeDepositCost": "2701000",
				"executionCost": "infinite",
				"totalCost": "infinite"
			},
			"external": {
				"INITIAL_SUPPLY()": "415",
				"MZCAL()": "436",
				"PRESALE_TOKEN()": "392",
				"addToPresaleWhitelist(address)": "infinite",
				"balanceOf(address,uint256)": "infinite",
				"balanceOfBatch(address[],uint256[])": "infinite",
				"bulkAddToPresaleWhitelist(address[])": "infinite",
				"bulkRemoveFromPresaleWhitelist(address[])": "infinite",
				"burn(address,uint256,uint256)": "infinite",
				"buyMZCAL(uint256)": "infinite",
				"buyPresale(uint256)": "infinite",
				"claimMZCALTokens()": "infinite",
				"isApprovedForAll(address,address)": "infinite",
				"isWhitelisted(address)": "2982",
				"launchMZCALToken()": "infinite",
				"mint(address,uint256,uint256,bytes)": "infinite",
				"mzcalTokenLaunched()": "2578",
				"mzcalTokenPrice()": "2558",
				"owner()": "2627",
				"presaleEndTime()": "2471",
				"presaleTokenPrice()": "2514",
				"presaleWhitelist(address)": "2877",
				"removeFromPresaleWhitelist(address)": "infinite",
				"renounceOwnership()": "infinite",
				"safeBatchTransferFrom(address,address,uint256[],uint256[],bytes)": "infinite",
				"safeTransferFrom(address,address,uint256,uint256,bytes)": "infinite",
				"setApprovalForAll(address,bool)": "infinite",
				"setMzcalTokenPrice(uint256)": "infinite",
				"setPresaleTokenPrice(uint256)": "infinite",
				"spendMZCAL(address,uint256)": "infinite",
				"supportsInterface(bytes4)": "854",
				"transferOwnership(address)": "infinite",
				"uri(uint256)": "infinite",
				"withdraw()": "infinite"
			}
		},
		"methodIdentifiers": {
			"INITIAL_SUPPLY()": "2ff2e9dc",
			"MZCAL()": "7097a332",
			"PRESALE_TOKEN()": "8f847c9c",
			"addToPresaleWhitelist(address)": "97f22ea9",
			"balanceOf(address,uint256)": "00fdd58e",
			"balanceOfBatch(address[],uint256[])": "4e1273f4",
			"bulkAddToPresaleWhitelist(address[])": "8f0f80c4",
			"bulkRemoveFromPresaleWhitelist(address[])": "11baff63",
			"burn(address,uint256,uint256)": "f5298aca",
			"buyMZCAL(uint256)": "13f99a1c",
			"buyPresale(uint256)": "49c32217",
			"claimMZCALTokens()": "abc91e12",
			"isApprovedForAll(address,address)": "e985e9c5",
			"isWhitelisted(address)": "3af32abf",
			"launchMZCALToken()": "d8a5c6fd",
			"mint(address,uint256,uint256,bytes)": "731133e9",
			"mzcalTokenLaunched()": "22c8061b",
			"mzcalTokenPrice()": "70a0c464",
			"owner()": "8da5cb5b",
			"presaleEndTime()": "249b7c19",
			"presaleTokenPrice()": "93777fb3",
			"presaleWhitelist(address)": "eb8835ab",
			"removeFromPresaleWhitelist(address)": "01f7e49a",
			"renounceOwnership()": "715018a6",
			"safeBatchTransferFrom(address,address,uint256[],uint256[],bytes)": "2eb2c2d6",
			"safeTransferFrom(address,address,uint256,uint256,bytes)": "f242432a",
			"setApprovalForAll(address,bool)": "a22cb465",
			"setMzcalTokenPrice(uint256)": "f0c2a15c",
			"setPresaleTokenPrice(uint256)": "7a01e6e3",
			"spendMZCAL(address,uint256)": "209cda0e",
			"supportsInterface(bytes4)": "01ffc9a7",
			"transferOwnership(address)": "f2fde38b",
			"uri(uint256)": "0e89341c",
			"withdraw()": "3ccfd60b"
		}
	},
	"abi": [
		{
			"inputs": [
				{
					"internalType": "string",
					"name": "uri",
					"type": "string"
				}
			],
			"stateMutability": "nonpayable",
			"type": "constructor"
		},
		{
			"inputs": [
				{
					"internalType": "address",
					"name": "sender",
					"type": "address"
				},
				{
					"internalType": "uint256",
					"name": "balance",
					"type": "uint256"
				},
				{
					"internalType": "uint256",
					"name": "needed",
					"type": "uint256"
				},
				{
					"internalType": "uint256",
					"name": "tokenId",
					"type": "uint256"
				}
			],
			"name": "ERC1155InsufficientBalance",
			"type": "error"
		},
		{
			"inputs": [
				{
					"internalType": "address",
					"name": "approver",
					"type": "address"
				}
			],
			"name": "ERC1155InvalidApprover",
			"type": "error"
		},
		{
			"inputs": [
				{
					"internalType": "uint256",
					"name": "idsLength",
					"type": "uint256"
				},
				{
					"internalType": "uint256",
					"name": "valuesLength",
					"type": "uint256"
				}
			],
			"name": "ERC1155InvalidArrayLength",
			"type": "error"
		},
		{
			"inputs": [
				{
					"internalType": "address",
					"name": "operator",
					"type": "address"
				}
			],
			"name": "ERC1155InvalidOperator",
			"type": "error"
		},
		{
			"inputs": [
				{
					"internalType": "address",
					"name": "receiver",
					"type": "address"
				}
			],
			"name": "ERC1155InvalidReceiver",
			"type": "error"
		},
		{
			"inputs": [
				{
					"internalType": "address",
					"name": "sender",
					"type": "address"
				}
			],
			"name": "ERC1155InvalidSender",
			"type": "error"
		},
		{
			"inputs": [
				{
					"internalType": "address",
					"name": "operator",
					"type": "address"
				},
				{
					"internalType": "address",
					"name": "owner",
					"type": "address"
				}
			],
			"name": "ERC1155MissingApprovalForAll",
			"type": "error"
		},
		{
			"inputs": [
				{
					"internalType": "address",
					"name": "owner",
					"type": "address"
				}
			],
			"name": "OwnableInvalidOwner",
			"type": "error"
		},
		{
			"inputs": [
				{
					"internalType": "address",
					"name": "account",
					"type": "address"
				}
			],
			"name": "OwnableUnauthorizedAccount",
			"type": "error"
		},
		{
			"anonymous": false,
			"inputs": [
				{
					"indexed": true,
					"internalType": "address",
					"name": "account",
					"type": "address"
				},
				{
					"indexed": true,
					"internalType": "address",
					"name": "operator",
					"type": "address"
				},
				{
					"indexed": false,
					"internalType": "bool",
					"name": "approved",
					"type": "bool"
				}
			],
			"name": "ApprovalForAll",
			"type": "event"
		},
		{
			"anonymous": false,
			"inputs": [
				{
					"indexed": true,
					"internalType": "address",
					"name": "buyer",
					"type": "address"
				},
				{
					"indexed": false,
					"internalType": "uint256",
					"name": "amount",
					"type": "uint256"
				}
			],
			"name": "MZCALConvert",
			"type": "event"
		},
		{
			"anonymous": false,
			"inputs": [
				{
					"indexed": true,
					"internalType": "address",
					"name": "previousOwner",
					"type": "address"
				},
				{
					"indexed": true,
					"internalType": "address",
					"name": "newOwner",
					"type": "address"
				}
			],
			"name": "OwnershipTransferred",
			"type": "event"
		},
		{
			"anonymous": false,
			"inputs": [
				{
					"indexed": true,
					"internalType": "address",
					"name": "buyer",
					"type": "address"
				},
				{
					"indexed": false,
					"internalType": "uint256",
					"name": "amount",
					"type": "uint256"
				},
				{
					"indexed": false,
					"internalType": "uint256",
					"name": "cost",
					"type": "uint256"
				}
			],
			"name": "PresalePurchase",
			"type": "event"
		},
		{
			"anonymous": false,
			"inputs": [
				{
					"indexed": true,
					"internalType": "address",
					"name": "operator",
					"type": "address"
				},
				{
					"indexed": true,
					"internalType": "address",
					"name": "from",
					"type": "address"
				},
				{
					"indexed": true,
					"internalType": "address",
					"name": "to",
					"type": "address"
				},
				{
					"indexed": false,
					"internalType": "uint256[]",
					"name": "ids",
					"type": "uint256[]"
				},
				{
					"indexed": false,
					"internalType": "uint256[]",
					"name": "values",
					"type": "uint256[]"
				}
			],
			"name": "TransferBatch",
			"type": "event"
		},
		{
			"anonymous": false,
			"inputs": [
				{
					"indexed": true,
					"internalType": "address",
					"name": "operator",
					"type": "address"
				},
				{
					"indexed": true,
					"internalType": "address",
					"name": "from",
					"type": "address"
				},
				{
					"indexed": true,
					"internalType": "address",
					"name": "to",
					"type": "address"
				},
				{
					"indexed": false,
					"internalType": "uint256",
					"name": "id",
					"type": "uint256"
				},
				{
					"indexed": false,
					"internalType": "uint256",
					"name": "value",
					"type": "uint256"
				}
			],
			"name": "TransferSingle",
			"type": "event"
		},
		{
			"anonymous": false,
			"inputs": [
				{
					"indexed": false,
					"internalType": "string",
					"name": "value",
					"type": "string"
				},
				{
					"indexed": true,
					"internalType": "uint256",
					"name": "id",
					"type": "uint256"
				}
			],
			"name": "URI",
			"type": "event"
		},
		{
			"inputs": [],
			"name": "INITIAL_SUPPLY",
			"outputs": [
				{
					"internalType": "uint256",
					"name": "",
					"type": "uint256"
				}
			],
			"stateMutability": "view",
			"type": "function"
		},
		{
			"inputs": [],
			"name": "MZCAL",
			"outputs": [
				{
					"internalType": "uint256",
					"name": "",
					"type": "uint256"
				}
			],
			"stateMutability": "view",
			"type": "function"
		},
		{
			"inputs": [],
			"name": "PRESALE_TOKEN",
			"outputs": [
				{
					"internalType": "uint256",
					"name": "",
					"type": "uint256"
				}
			],
			"stateMutability": "view",
			"type": "function"
		},
		{
			"inputs": [
				{
					"internalType": "address",
					"name": "account",
					"type": "address"
				}
			],
			"name": "addToPresaleWhitelist",
			"outputs": [],
			"stateMutability": "nonpayable",
			"type": "function"
		},
		{
			"inputs": [
				{
					"internalType": "address",
					"name": "account",
					"type": "address"
				},
				{
					"internalType": "uint256",
					"name": "id",
					"type": "uint256"
				}
			],
			"name": "balanceOf",
			"outputs": [
				{
					"internalType": "uint256",
					"name": "",
					"type": "uint256"
				}
			],
			"stateMutability": "view",
			"type": "function"
		},
		{
			"inputs": [
				{
					"internalType": "address[]",
					"name": "accounts",
					"type": "address[]"
				},
				{
					"internalType": "uint256[]",
					"name": "ids",
					"type": "uint256[]"
				}
			],
			"name": "balanceOfBatch",
			"outputs": [
				{
					"internalType": "uint256[]",
					"name": "",
					"type": "uint256[]"
				}
			],
			"stateMutability": "view",
			"type": "function"
		},
		{
			"inputs": [
				{
					"internalType": "address[]",
					"name": "accounts",
					"type": "address[]"
				}
			],
			"name": "bulkAddToPresaleWhitelist",
			"outputs": [],
			"stateMutability": "nonpayable",
			"type": "function"
		},
		{
			"inputs": [
				{
					"internalType": "address[]",
					"name": "accounts",
					"type": "address[]"
				}
			],
			"name": "bulkRemoveFromPresaleWhitelist",
			"outputs": [],
			"stateMutability": "nonpayable",
			"type": "function"
		},
		{
			"inputs": [
				{
					"internalType": "address",
					"name": "from",
					"type": "address"
				},
				{
					"internalType": "uint256",
					"name": "id",
					"type": "uint256"
				},
				{
					"internalType": "uint256",
					"name": "amount",
					"type": "uint256"
				}
			],
			"name": "burn",
			"outputs": [],
			"stateMutability": "nonpayable",
			"type": "function"
		},
		{
			"inputs": [
				{
					"internalType": "uint256",
					"name": "amount",
					"type": "uint256"
				}
			],
			"name": "buyMZCAL",
			"outputs": [],
			"stateMutability": "payable",
			"type": "function"
		},
		{
			"inputs": [
				{
					"internalType": "uint256",
					"name": "amount",
					"type": "uint256"
				}
			],
			"name": "buyPresale",
			"outputs": [],
			"stateMutability": "payable",
			"type": "function"
		},
		{
			"inputs": [],
			"name": "claimMZCALTokens",
			"outputs": [],
			"stateMutability": "nonpayable",
			"type": "function"
		},
		{
			"inputs": [
				{
					"internalType": "address",
					"name": "account",
					"type": "address"
				},
				{
					"internalType": "address",
					"name": "operator",
					"type": "address"
				}
			],
			"name": "isApprovedForAll",
			"outputs": [
				{
					"internalType": "bool",
					"name": "",
					"type": "bool"
				}
			],
			"stateMutability": "view",
			"type": "function"
		},
		{
			"inputs": [
				{
					"internalType": "address",
					"name": "account",
					"type": "address"
				}
			],
			"name": "isWhitelisted",
			"outputs": [
				{
					"internalType": "bool",
					"name": "",
					"type": "bool"
				}
			],
			"stateMutability": "view",
			"type": "function"
		},
		{
			"inputs": [],
			"name": "launchMZCALToken",
			"outputs": [],
			"stateMutability": "nonpayable",
			"type": "function"
		},
		{
			"inputs": [
				{
					"internalType": "address",
					"name": "to",
					"type": "address"
				},
				{
					"internalType": "uint256",
					"name": "id",
					"type": "uint256"
				},
				{
					"internalType": "uint256",
					"name": "amount",
					"type": "uint256"
				},
				{
					"internalType": "bytes",
					"name": "data",
					"type": "bytes"
				}
			],
			"name": "mint",
			"outputs": [],
			"stateMutability": "nonpayable",
			"type": "function"
		},
		{
			"inputs": [],
			"name": "mzcalTokenLaunched",
			"outputs": [
				{
					"internalType": "bool",
					"name": "",
					"type": "bool"
				}
			],
			"stateMutability": "view",
			"type": "function"
		},
		{
			"inputs": [],
			"name": "mzcalTokenPrice",
			"outputs": [
				{
					"internalType": "uint256",
					"name": "",
					"type": "uint256"
				}
			],
			"stateMutability": "view",
			"type": "function"
		},
		{
			"inputs": [],
			"name": "owner",
			"outputs": [
				{
					"internalType": "address",
					"name": "",
					"type": "address"
				}
			],
			"stateMutability": "view",
			"type": "function"
		},
		{
			"inputs": [],
			"name": "presaleEndTime",
			"outputs": [
				{
					"internalType": "uint256",
					"name": "",
					"type": "uint256"
				}
			],
			"stateMutability": "view",
			"type": "function"
		},
		{
			"inputs": [],
			"name": "presaleTokenPrice",
			"outputs": [
				{
					"internalType": "uint256",
					"name": "",
					"type": "uint256"
				}
			],
			"stateMutability": "view",
			"type": "function"
		},
		{
			"inputs": [
				{
					"internalType": "address",
					"name": "",
					"type": "address"
				}
			],
			"name": "presaleWhitelist",
			"outputs": [
				{
					"internalType": "bool",
					"name": "",
					"type": "bool"
				}
			],
			"stateMutability": "view",
			"type": "function"
		},
		{
			"inputs": [
				{
					"internalType": "address",
					"name": "account",
					"type": "address"
				}
			],
			"name": "removeFromPresaleWhitelist",
			"outputs": [],
			"stateMutability": "nonpayable",
			"type": "function"
		},
		{
			"inputs": [],
			"name": "renounceOwnership",
			"outputs": [],
			"stateMutability": "nonpayable",
			"type": "function"
		},
		{
			"inputs": [
				{
					"internalType": "address",
					"name": "from",
					"type": "address"
				},
				{
					"internalType": "address",
					"name": "to",
					"type": "address"
				},
				{
					"internalType": "uint256[]",
					"name": "ids",
					"type": "uint256[]"
				},
				{
					"internalType": "uint256[]",
					"name": "values",
					"type": "uint256[]"
				},
				{
					"internalType": "bytes",
					"name": "data",
					"type": "bytes"
				}
			],
			"name": "safeBatchTransferFrom",
			"outputs": [],
			"stateMutability": "nonpayable",
			"type": "function"
		},
		{
			"inputs": [
				{
					"internalType": "address",
					"name": "from",
					"type": "address"
				},
				{
					"internalType": "address",
					"name": "to",
					"type": "address"
				},
				{
					"internalType": "uint256",
					"name": "id",
					"type": "uint256"
				},
				{
					"internalType": "uint256",
					"name": "value",
					"type": "uint256"
				},
				{
					"internalType": "bytes",
					"name": "data",
					"type": "bytes"
				}
			],
			"name": "safeTransferFrom",
			"outputs": [],
			"stateMutability": "nonpayable",
			"type": "function"
		},
		{
			"inputs": [
				{
					"internalType": "address",
					"name": "operator",
					"type": "address"
				},
				{
					"internalType": "bool",
					"name": "approved",
					"type": "bool"
				}
			],
			"name": "setApprovalForAll",
			"outputs": [],
			"stateMutability": "nonpayable",
			"type": "function"
		},
		{
			"inputs": [
				{
					"internalType": "uint256",
					"name": "newPriceInWei",
					"type": "uint256"
				}
			],
			"name": "setMzcalTokenPrice",
			"outputs": [],
			"stateMutability": "nonpayable",
			"type": "function"
		},
		{
			"inputs": [
				{
					"internalType": "uint256",
					"name": "newPriceInWei",
					"type": "uint256"
				}
			],
			"name": "setPresaleTokenPrice",
			"outputs": [],
			"stateMutability": "nonpayable",
			"type": "function"
		},
		{
			"inputs": [
				{
					"internalType": "address",
					"name": "from",
					"type": "address"
				},
				{
					"internalType": "uint256",
					"name": "amount",
					"type": "uint256"
				}
			],
			"name": "spendMZCAL",
			"outputs": [],
			"stateMutability": "nonpayable",
			"type": "function"
		},
		{
			"inputs": [
				{
					"internalType": "bytes4",
					"name": "interfaceId",
					"type": "bytes4"
				}
			],
			"name": "supportsInterface",
			"outputs": [
				{
					"internalType": "bool",
					"name": "",
					"type": "bool"
				}
			],
			"stateMutability": "view",
			"type": "function"
		},
		{
			"inputs": [
				{
					"internalType": "address",
					"name": "newOwner",
					"type": "address"
				}
			],
			"name": "transferOwnership",
			"outputs": [],
			"stateMutability": "nonpayable",
			"type": "function"
		},
		{
			"inputs": [
				{
					"internalType": "uint256",
					"name": "",
					"type": "uint256"
				}
			],
			"name": "uri",
			"outputs": [
				{
					"internalType": "string",
					"name": "",
					"type": "string"
				}
			],
			"stateMutability": "view",
			"type": "function"
		},
		{
			"inputs": [],
			"name": "withdraw",
			"outputs": [],
			"stateMutability": "nonpayable",
			"type": "function"
		},
		{
			"stateMutability": "payable",
			"type": "receive"
		}
	]
}